:020000040800F2
:100000000020002019540008B9500008BB50000817
:10001000BD500008BF500008C1500008000000009B
:10002000000000000000000000000000C3500008B5
:10003000C550000800000000C7500008C950000863
:1000400061540008615400086154000861540008BC
:1000500061540008615400086154000861540008AC
:10006000615400086154000861540008CD50000834
:10007000615400086154000861540008615400088C
:100080006154000861540008615400080000000039
:1000900000000000000000000000000061540008A3
:1000A000615400086154000861540008615400085C
:1000B000615400086154000861540008615400084C
:1000C00061540008000000000000000061540008B6
:1000D00061540008D15000086154000861540008C0
:1000E00061540008615400086154000800000000D9
:1000F0000000000000000000000000000000000000
:1001000000000000000000000000000000000000EF
:100110000000000000000000615400086154000865
:1001200000000000000000000000000000000000CF
:1001300000000000000000000000000000000000BF
:1001400000000000000000000000000000000000AF
:10015000000000000000000000000000000000009F
:10016000000000000000000000000000000000008F
:10017000000000000000000000000000000000007F
:10018000000000000000000000000000000000006F
:10019000000000000000000000000000000000005F
:1001A000000000000000000000000000000000004F
:1001B000000000000000000000000000000000003F
:1001C0000000000000000000000000005FF808F1DF
:1001D00010B5054C237833B9044B13B10448AFF381
:1001E00000800123237010BD900200200000000059
:1001F0000458000808B5034B1BB103490348AFF38B
:10020000008008BD0000000094020020045800088F
:100210000E4A1346D168C907FCD4D168890644BF89
:100220002021D1601A6942F002021A6158611A69EC
:1002300042F040021A61054BDA689206FCD5202292
:10024000DA601A6922F002021A6170470020024047
:10025000034B044A5A6002F188325A60704700BF6B
:100260000020024023016745024A136943F08003DE
:100270001361704700200240114B10B51A46DC682C
:10028000E407FCD4DC68A40644BF2024DC601369C6
:1002900043F0010313610A4A8BB203801346D4680A
:1002A000A406FCD52024090CD4604180DA689206AB
:1002B000FCD52022DA601A6922F001021A6110BD11
:1002C0000020024038B572B6FFF7C2FF104804F0B4
:1002D000C5FF104C00224FF4CE710F4804F0FCFF14
:1002E0000B4804F0BBFF002221680C4804F0F4FF27
:1002F0000B48FFF78DFF0B4D094854F8041BFFF71F
:10030000BBFF0430A842F8D1FFF7AEFF62B638BD9C
:100310001C59000878080020245900082B590008AF
:1003200000E401089CE50108054A064B064953F81C
:10033000040B8B4242F8040BF9D10120704700BF37
:100340007808002000E401089CE50108F8B504687D
:1003500007468C420D4601D394421BD900260E4B12
:100360000E481E7004F07AFF324639460C4804F0FD
:10037000B3FF0A4804F072FF21463246094804F0F0
:10038000ABFF064804F06AFF32460749074804F00D
:10039000A3FF2C462046F8BD000000201C59000891
:1003A000315900084859000800EC01085A59000862
:1003B00010B5194C6068FFF72BFFD4E90010FFF768
:1003C0005BFFD4E90210FFF757FFD4E90410FFF7F1
:1003D00053FFD4E90610FFF74FFFD4E90810FFF7E9
:1003E0004BFFD4E90A10FFF747FFD4E90C10FFF7E1
:1003F00043FFD4E90E10FFF73FFFD4E91010FFF7D9
:100400003BFFD4E91210FFF737FF044804F026FF42
:10041000034804F0BDFE10BD040000201C59000874
:100420007159000810B5194C6068FFF7F1FED4E966
:100430000010FFF721FFD4E90210FFF71DFFD4E9F8
:100440000410FFF719FFD4E90610FFF715FFD4E9F0
:100450000810FFF711FFD4E90A10FFF70DFFD4E9E8
:100460000C10FFF709FFD4E90E10FFF705FFD4E9E0
:100470001010FFF701FFD4E91210FFF7FDFE04484A
:1004800004F0ECFE034804F083FE10BD540000208D
:100490001C5900088A59000838B5254C4FF4807261
:1004A00000216068FFF752FF4FF47A72206000214C
:1004B000E068FFF74BFF4FF47A72A060002160699B
:1004C000FFF744FF1B4D20612A460A21E069FFF730
:1004D0003DFF2A46A0610A21606AFFF737FF2A46DE
:1004E00020620A21E06AFFF731FF2A46A0620A2152
:1004F000606BFFF72BFF2A4620630A21E06BFFF7B2
:1005000025FF4FF49672A0634621606CFFF71EFF33
:100510004FF496720A212064E06CFFF717FFA06485
:10052000054804F09BFE054804F032FE38BD00BFCC
:1005300004000020A08601001C590008AA590008E8
:1005400038B5254C4FF4807200216068FFF7FEFE3D
:100550004FF47A7220600021E068FFF7F7FE4FF455
:100560007A72A06000216069FFF7F0FE1B4D2061E8
:100570002A460A21E069FFF7E9FE2A46A0610A211E
:10058000606AFFF7E3FE2A4620620A21E06AFFF76D
:10059000DDFE2A46A0620A21606BFFF7D7FE2A46DD
:1005A00020630A21E06BFFF7D1FE4FF49672A0633F
:1005B0004621606CFFF7CAFE4FF496720A21206450
:1005C000E06CFFF7C3FEA064054804F047FE054851
:1005D00004F0DEFD38BD00BFA4000020A0860100AD
:1005E0001C590008C459000810B5174C6068FFF783
:1005F0000FFED4E90010FFF73FFED4E90210FFF729
:100600003BFED4E90410FFF737FED4E90610FFF7EC
:1006100033FED4E90810FFF72FFED4E90A10FFF7E4
:100620002BFED4E90C10FFF727FED4E90E10FFF7DC
:1006300023FED4E91010FFF71FFE044804F00EFE5D
:10064000034804F0A5FD10BD540100201C5900080A
:10065000E759000810B5174C6068FFF7D9FDD4E9D9
:100660000010FFF709FED4E90210FFF705FED4E9F8
:100670000410FFF701FED4E90610FFF7FDFDD4E9F1
:100680000810FFF7F9FDD4E90A10FFF7F5FDD4E9EA
:100690000C10FFF7F1FDD4E90E10FFF7EDFDD4E9E2
:1006A0001010FFF7E9FD044804F0D8FD034804F0FA
:1006B0006FFD10BD9C0100201C590008FD59000869
:1006C00010B5224C4FF4807200216068FFF73EFEA7
:1006D0000A2220600121E068FFF738FE4FF47A72A9
:1006E000A06001216069FFF731FE4FF47A6220615A
:1006F0000121E069FFF72AFE4FF47A62A06101212F
:10070000606AFFF723FE42F2107220620021E06A65
:10071000FFF71CFE42F21072A0620021606BFFF72F
:1007200015FE642220630021E06BFFF70FFE032219
:100730000121A063606CFFF709FE2064044804F007
:100740008DFD044804F024FD10BD00BF54010020BD
:100750001C5900081A5A000810B5224C4FF4807238
:1007600000216068FFF7F2FD0A2220600121E068A5
:10077000FFF7ECFD4FF47A72A06001216069FFF78A
:10078000E5FD4FF47A6220610121E069FFF7DEFDAB
:100790004FF47A62A0610121606AFFF7D7FD42F24F
:1007A000107220620021E06AFFF7D0FD42F2107261
:1007B000A0620021606BFFF7C9FD64222063002165
:1007C000E06BFFF7C3FD03220121A063606CFFF71C
:1007D000BDFD2064044804F041FD044804F0D8FC49
:1007E00010BD00BFE40100201C590008315A000868
:1007F00010B50D4C6068FFF70BFDD4E90010FFF752
:100800003BFDD4E90210FFF737FDD4E90410FFF7F0
:1008100033FDD4E90610FFF72FFD044804F01EFD58
:10082000034804F0B5FC10BD140100201C59000859
:10083000515A000838B5114C4FF48072002160689D
:10084000FFF784FD0E4D20602A460021E068FFF787
:100850007DFD2A46A06000216069FFF777FD012237
:1008600000212061E069FFF771FDA061054804F0F7
:10087000F5FC054804F08CFC38BD00BFF4000020F6
:1008800000286BEE1C590008785A000838B5114C46
:100890004FF4807200216068FFF758FD0E4D206014
:1008A0002A460021E068FFF751FD2A46A06000219A
:1008B0006069FFF74BFD012200212061E069FFF72D
:1008C00045FDA061054804F0C9FC054804F060FC42
:1008D00038BD00BF3401002000286BEE1C59000811
:1008E000975A000870B501240E4D2C7072B6FFF7B0
:1008F000A1FFFFF7E5FEFFF7CFFD62B62E780A48AD
:100900003EB904F0ABFC094804F042FC2C703046C0
:1009100070BD04F0A3FC064804F03AFC26462C7097
:10092000F5E700BF000000201C590008BF5A00086E
:10093000D85A000870B51446C0B006460D464FF4AC
:1009400080726846074904F047FF204616F8012BDD
:10095000013D424015F0FF051DF80200F6D140B000
:1009600070BD00BF1C58000838B572B6144D002287
:100970004C212846FFF7DEFF044645F8040CFFF73C
:1009800067FCFFF715FDFFF7DBFD00224C210D484A
:10099000FFF7D0FF84420C4809D104F05FFC0B48FC
:1009A00004F0F6FBFFF760FC62B6012038BD04F0EE
:1009B00055FC074804F0ECFBFFF7FAFCF2E700BF38
:1009C00008000020A80000201C5900080C5B00084B
:1009D000315B000838B572B6244D00224421284608
:1009E000FFF7A8FF0446224804F038FC0022214605
:1009F000204804F071FC1E4804F030FC0022442121
:100A00001D4804F069FC45F8044CFFF721FCFFF792
:100A1000EBFDFFF7A1FE002244211848FFF78AFFF3
:100A20000546134804F01AFC00222946114804F038
:100A300053FC0F4804F012FC0F480022442104F03C
:100A40004BFCAC420A4809D104F008FC0C4804F005
:100A50009FFBFFF709FC62B6012038BD04F0FEFBE6
:100A6000084804F095FBFFF7BFFDF2E758010020AE
:100A70001C590008615B00086C5B0008E80100205D
:100A8000785B00089A5B000838B54A4804F0E6FB3A
:100A9000494804F07DFB72B6484DFFF7D9FB0022B0
:100AA0004C212846FFF746FF044645F8040CFFF7A3
:100AB000B9FCFFF745FD00224C214148FFF73AFF02
:100AC00084423C485DD104F0C9FB3E4804F060FB21
:100AD0003D4D002244212846FFF72CFF04463548AF
:100AE00004F0BCFB00222146384804F0F5FB3148F5
:100AF00004F0B4FB00224421354804F0EDFB45F836
:100B0000044CFFF7A7FDFFF727FE002244213148E0
:100B1000FFF710FF0546274804F0A0FB00222946F6
:100B20002A4804F0D9FB234804F098FB2848002207
:100B3000442104F0D1FBAC421E482AD104F08EFBC4
:100B4000254804F025FB254D00221C212846FFF7EF
:100B5000F1FE044645F8040CFFF74AFEFFF796FE47
:100B600000221C211E48FFF7E5FE8442114818D1DF
:100B700004F074FB1B4804F00BFBFFF775FB62B637
:100B800038BD04F06BFB184804F002FBFFF74AFC89
:100B90009EE704F063FB154804F0FAFAFFF75AFDEC
:100BA000D1E704F05BFB124804F0F2FAFFF720FEF5
:100BB000E3E700BF1C590008F35A00085800002062
:100BC000A80000200B5B0008A0010020605B00086B
:100BD0006B5B0008E8010020775B0008180100202B
:100BE00038010020C65B0008305B0008995B0008F4
:100BF000F05B0008174918482DE9F04142F2107CDB
:100C000000240E460546154FB1F900E0B1F9042065
:100C1000B1F90280A2EB0E020CFB02F2B1F9063030
:100C20000134A3EB080392FBF3F3436003FB08F3E7
:100C300093FBF7F3072C7344C0F80080836001F145
:100C4000040100F10C00DFD1B6F91E306B65BDE880
:100C5000F08100BF2C020020F8070020F0D8FFFF31
:100C6000114B10B51A6882421ADB194600220C6833
:100C700084420EDBCC6884420BDA0C2101FB023289
:100C80005368584342F2107390FBF3F09368184492
:100C900010BD0132072A01F10C01E8D1C820F7E7A5
:100CA0006FF00900F4E700BFF80700202DE9F041DC
:100CB0005D4C0646206800F0DBFA0022276807EB4F
:100CC00007133901234410F802C015460132D2B28D
:100CD000BCF1000F1BD1CB19E01805443A200433B6
:100CE000287104EB030C701E10F8016FD5B296B991
:100CF0002A4620212B4423440F2A75D9102DC5F1F3
:100D0000100188BF00210D4405F0FF050EE01D44D1
:100D100085F804C0D7E70F2D03D80CF80260013224
:100D2000E2E70023394421440A4413713F4804F0A8
:100D300095FA294600223E4804F0CEFA236803EBD8
:100D400003112144294400250133172B0D71236021
:100D50003ED90A262F464FF02008284600F088FA90
:100D6000002305EB05112A01214410F803E09C46FD
:100D70000133DBB2BEF1000F3BD13A2051192144BF
:100D80008C448CF8040006EB0610204401EB030CA5
:100D90009CF804C0BCF1000F2FD1581EC0B284468D
:100DA0005119043101442144BCF10F0F34D91028EA
:100DB000C3F11103DBB288BF00232A44224402445A
:100DC000013513440E2D1F7106F10106C5D12560B2
:100DD000FFF778FA154804F041FA21680022BDE8CF
:100DE000F041144804F078BA013203F8011BD2B282
:100DF00082E78C448CF804E0B7E700EB030C092D84
:100E00008CBF9CF804C09CF805C001EB030E0133B5
:100E10008EF804C0DBB2B9E70CF1010C01F8018BCC
:100E20005FFA8CFCC0E700BF780800201C5900085E
:100E3000255C00082A5C00082DE9F8435E4C8046DA
:100E400020680E4600F014FA0022276807EB07130B
:100E50003901234410F802C015460132D2B2BCF168
:100E6000000F1DD1CB19E018054404332E7108F191
:100E7000FF3004EB030E10F801CFD5B2BCF1000F28
:100E800012D12A4620212B4423440F2A75D9102D34
:100E9000C5F1100188BF00210D4405F0FF050EE0EB
:100EA0001D4485F804C0D5E70F2D03D80EF802C005
:100EB0000132E0E70023394421440A4413713F48DA
:100EC00004F0CCF9294600223D4804F005FA2368D5
:100ED00003EB03112144294400250133172B0D7125
:100EE00023603ED90A27A8464FF02009284600F083
:100EF000BFF9002305EB05112A01214410F803E096
:100F00009C460133DBB2BEF1000F3BD151192144A5
:100F10008C4407EB07108CF80460204401EB030CB1
:100F20009CF804C0BCF1000F30D1581EC0B28446FA
:100F30005119043101442144BCF10F0F35D9102857
:100F4000C3F11103DBB288BF00232A4422440244C8
:100F5000013513440E2D83F8048007F10107C5D134
:100F60002560FFF7AFF9154804F078F921680022F1
:100F7000BDE8F843134804F0AFB9013203F8011B90
:100F8000D2B282E78C448CF804E0B7E700EB030CA4
:100F9000092D8CBF9CF804C09CF805C001EB030E22
:100FA00001338EF804C0DBB2B8E70CF1010C01F894
:100FB000019B5FFA8CFCBFE7780800201C590008F1
:100FC000255C00082A5C0008002384B001280093F7
:100FD00001D1009004E00228FBD003281AD01CD8CD
:100FE000124B9A680192019A02929A6803920399AD
:100FF000029A914204D35A6801990A44013201923B
:10100000039A0292019A03980099121A8A42ECD329
:1010100004B0704712230093E2E7054B054A1B68B2
:101020000338B3FBF2F35843D3E700BF10E000E00E
:101030008C02002040420F0007B50190019B13B9BC
:1010400003B05DF804FB4FF47A70FFF7BDFF019B1E
:10105000013B0193F2E7000038B5684C684D20462B
:1010600004F0FCF829680022664804F035F92046AF
:1010700004F0F4F8A9680022634804F02DF9204632
:1010800004F0ECF829690022604804F025F92046B4
:1010900004F0E4F8A96900225D4804F01DF9204637
:1010A00004F0DCF8296A00225A4804F015F92046B9
:1010B00004F0D4F8A96A0022574804F00DF920463C
:1010C00004F0CCF8296B0022544804F005F92046BE
:1010D00004F0C4F8A96B0022514804F0FDF8204642
:1010E00004F0BCF8296C00224E4804F0F5F82046C4
:1010F00004F0B4F8A96C00224B484C4D04F0ECF815
:101100003220FFF799FF204604F0A8F82968002252
:10111000474804F0E1F8204604F0A0F8A96800224E
:10112000444804F0D9F8204604F098F829690022D0
:10113000414804F0D1F8204604F090F8A969002253
:101140003E4804F0C9F8204604F088F8296A0022D5
:101150003B4804F0C1F8204604F080F8A96B002257
:10116000384804F0B9F8204604F078F8A96A00225B
:10117000354804F0B1F8204604F070F8296B0022DD
:10118000324804F0A9F8204604F068F8296C0022DF
:101190002F4804F0A1F82F4D3220FFF74DFF2046D5
:1011A00004F05CF8296800222B4804F095F82046EA
:1011B00004F054F8A9680022284804F08DF820466D
:1011C00004F04CF829690022254804F085F82046EF
:1011D00004F044F8A9690022224804F07DF8204672
:1011E00004F03CF8204B21481968002204F074F800
:1011F000BDE838403220FFF71FBF00BF2E5C00085B
:1012000004000020355C0008485C0008665C0008AB
:10121000855C0008A25C0008C05C0008DD5C00087A
:10122000FB5C0008195D0008375D000854010020D0
:101230004F5D0008635D00087C5D0008895D000863
:10124000965D0008A35D0008B15D0008C35D00085D
:10125000D65D0008F4000020F35D00080F5E000872
:10126000375E0008595E00088C020020655E0008A9
:10127000F0B500230A2780EAE07185B0A1EBE071A8
:101280001C46B1FBF7F604AD2C4407FB16153035B0
:1012900004F8105C0C46DAB2531C092C31465BB2E0
:1012A000EEDC002806DA04A90B442D21023203F8F3
:1012B000101C53B2002104AA1A4402F8101C1A464A
:1012C000084CD0B2191A49B21AB90648625405B08E
:1012D000F0BD04AD2A4412F8112C6254421E52B2E1
:1012E000EFE700BF50070020F0B5044600234FF0A1
:1012F0000A0C084684EAE47185B0A1EBE4711D464E
:10130000B1FBFCF704AE35440CFB1716303605F87C
:10131000106C0D46DAB2531C092D39465BB2EEDC77
:10132000002C06DA04A90B442D21023203F8101C0C
:1013300053B2002104AA1A4402F8101C1A46D4B26F
:10134000191B49B2451812B92A7005B0F0BD04AD99
:101350002A4412F8112C4254621E52B2EFE70000E8
:1013600000224FF00A0CF0B580EAE0748BB0A4EBD9
:10137000E0741546B4FBFCF70AAE35440CFB174687
:10138000303605F8286C2546D3B25A1C092D3C4648
:1013900052B2EEDC012A0AAC1444D7BF302200233B
:1013A00004F8282C9A1CD4BF52B204F8283C022A14
:1013B00008DC012906D930240AAB1344013203F8B2
:1013C000284C52B200242E26234665B2AA4212DCD3
:1013D000002806DA0AA95A1C0B442D2103F8141C14
:1013E00053B21A46114CD0B2191A49B2B2B90F48C9
:1013F00062540BB0F0BD8B421D4605D10AAF0133DC
:101400003D445BB205F8146C1DF804700AAD1D4430
:10141000013305F8147C5BB20134D6E70AAD2A44E7
:1014200012F8152C6254421E52B2DCE7600700200D
:10143000002802D0DCBF404200B2704702460023C1
:10144000D8B2115C01330029FAD1704770B5054656
:101450000024104662B2AB5C661C43B95AB28D5C84
:10146000E21852B28618013325B9357070BD344682
:101470008354EFE78554F1E7F0B504460F4618466C
:10148000002569B2635C6E1C83B9DEB2F95C741925
:101490005FFA84FC64B261B94BB2D45C0CEB01031B
:1014A0005BB2C518013144B92C70F0BD35464354C8
:1014B000E7E7731C01555BB2E7E7C454ECE72DE99D
:1014C000F04107464FF4616086B00C46B7FBF0F080
:1014D00001A9FFF709FF01A8FFF7B0FF012896BF98
:1014E000012200223023154698BF2370EEB2B31AB2
:1014F00006A95BB20B4413F8141C6319751C6DB27A
:10150000002949D13A221A703C23B7FBF3F2B2FB0F
:10151000F3F001A903FB1020FFF7E6FE01A8FFF797
:101520008DFF01289FBF30236355B51C6DB22E4639
:101530005FFA86F8A8EB050306AA5BB2134413F81A
:10154000142CA31908F1010676B23ABB3A221A709C
:101550003C23B7FBF3F001A903FB1070FFF7C4FEB7
:1015600001A8FFF76BFF01289CBF3023A3554FF064
:1015700000039CBF08F1020676B25AB206A90A44DB
:1015800012F8141C9A1952B2A018013341B9017013
:10159000204606B0BDE8F0811970A7E71A70C7E7CA
:1015A000A154EAE7F0B506464FF4616087B00C46F7
:1015B000B6FBF0F001A9FFF797FE01A8FFF73EFF89
:1015C000012896BF012200223023154698BF2370C0
:1015D000EFB2BB1A06A95BB20B4413F8141C6319D3
:1015E0007D1C6DB229BB3A221A703C23B6FBF3F680
:1015F000B6FBF3F001A903FB1060FFF775FE01A82D
:10160000FFF71CFF01289CBF302363554FF00003F8
:101610009CBFBD1C6DB25AB206A90A4412F8141C34
:101620005A1952B2A018013329B90170204607B0E7
:10163000F0BD1970CCE7A154EDE700000C494B68F0
:101640000A688B609342C1E9000205DC834209DC31
:101650009042A8BF10467047824203DC9842A8BF60
:10166000184670479342A8BF13461846704700BFFC
:10167000140700200C494B680A688B609342C1E94B
:10168000000205DC834209DC9042A8BF1046704787
:10169000824203DC9842A8BF184670479342A8BF15
:1016A00013461846704700BF200700200C494B68BE
:1016B0000A688B609342C1E9000205DC834209DCC1
:1016C0009042A8BF10467047824203DC9842A8BFF0
:1016D000184670479342A8BF13461846704700BF8C
:1016E0002C0700200C494B680A688B609342C1E9C3
:1016F000000205DC834209DC9042A8BF1046704717
:10170000824203DC9842A8BF184670479342A8BFA4
:1017100013461846704700BF380700200C494B6835
:101720000A688B609342C1E9000205DC834209DC50
:101730009042A8BF10467047824203DC9842A8BF7F
:10174000184670479342A8BF13461846704700BF1B
:10175000440700207047704770477047014B186876
:10176000704700BF4C020020094B10B598420DD0C5
:1017700060B1084A084C126820600AB118309047DE
:1017800023681B6913B1BDE81040184710BD00BFA6
:10179000785E0008740700204C020020024B18609D
:1017A000024B1868FFF7E0BF740700204C020020CE
:1017B000044B054A1B68934203D013B15B6903B124
:1017C000184770474C020020785E00084FF48043B1
:1017D00010B5064C02202361FFF7F6FB4FF0804363
:1017E00002202361BDE81040FFF7EEBB000C014072
:1017F00070B54FF07C454FF480560D4C2561266145
:10180000FFF7E4FF0120FFF717FC25612661FFF7D2
:10181000DDFF0120FFF710FC4FF480632561236199
:10182000FFF7D4FFBDE870400120FFF705BC00BF03
:10183000000C01404FF07C42244B70B504460D462D
:101840001A6111B14FF400421A61E20644BF4FF42D
:1018500000521A6114F0200F18BF4FF480521B4B36
:1018600018BF1A61660644BF4FF400621A6114F093
:10187000800F18BF4FF48063144E18BF3361FFF719
:10188000A5FF4FF07053E007336144BF4FF400539E
:101890003361A10742BF4FF480520C4B1A616207BB
:1018A00042BF4FF40062094B1A61230742BF4FF455
:1018B0008062064B1A61FFF789FF0220FFF7BCFB2D
:1018C0001DB14FF00042014B1A6170BD000C014088
:1018D000C00040F0400038B500F0F8000C46002190
:1018E000FFF7A8FF651E073415F8010F0121FFF768
:1018F000A1FFA542F8D1BDE8384000218020FFF7C4
:1019000099BF000073B51F4C1F4D69460020CDE9FB
:1019100000451E4EFFF7DCFF1D4B69460120CDE957
:101920000036FFF7D5FF1B4B6946CDE90035022095
:10193000194DFFF7CDFF69460320CDE90056FFF7AB
:10194000C7FF69460420CDE90054FFF7C1FF134AE1
:10195000134B69460520CDE90023FFF7B9FF114B72
:1019600011490620CDE900136946FFF7B1FF0F4B7F
:101970000F486946CDE900030720FFF7A9FF02B031
:1019800070BD00BF04150E0400041F1F0000041FDB
:10199000150E040000040E15040E15040207070AB4
:1019A0000A1C1C08051509000F05050501010100A9
:1019B0001111111F064A1070064A117019B940F032
:1019C0008000FFF737BF002140F0C000F9E700BFFB
:1019D000780700207907002070B505460E460446BA
:1019E000207800B970BD0121FFF724FF012E07D137
:1019F000631BDBB2072B03D131460020FFF7DAFF70
:101A00000134EDE70121C0B2FFF714BF2DE9F8431F
:101A10000D46DFF878801B4E1B4F441E14F8010F53
:101A200008B9BDE8F883B22819D101214920FFF790
:101A300001FF337897F800900133DBB23370B9F1CE
:101A4000000FEBD1082BE9D1022DE7D10121484647
:101A5000FFF7B0FF012386F800903B70DEE7AF2868
:101A600002D101210320E2E7AA2802D101210220AC
:101A7000DDE7BF2889BF40440121012110F8C00CD7
:101A8000D5E700BF7807002079070020500200202A
:101A900000210120FFF7CEBE08B56420FFF7CCFA85
:101AA000FFF7A6FE00210E20FFF7C4FEBDE80840A8
:101AB000FFF7EEBF0221FFF7A9BF10B504460846A5
:101AC0001146FFF777FF2046BDE810400221FFF7DF
:101AD0009DBF08B5FFF7E0FFFFF7DAFFBDE808405C
:101AE00000210C20FFF7A6BE054B82B09A69024385
:101AF0009A619B6918400190019B02B0704700BF3A
:101B0000001002400022014B1A807047E2070020BB
:101B100008B5FEF729FFBDE808400148FFF7C6B841
:101B2000905E000810B53B4C94F9001061B908466E
:101B3000FFF740FF3848FFF7BDFF4FF48762374B90
:101B40009A6140F2B4521A6294F90030012B0DD11F
:101B500000210846FFF72EFF3148FFF7ABFF4FF497
:101B600096722E4B9A614FF4D2721A6294F9003039
:101B7000022B0DD100210846FFF71CFF2948FFF773
:101B800099FF4FF48C72254B9A614FF4B9721A6227
:101B900094F90030032B0CD100210846FFF70AFF0F
:101BA0002148FFF787FFA0221C4B9A614FF48C72EB
:101BB0001A6294F90030042B0DD100210846FFF77A
:101BC000F9FE1A48FFF776FF4FF44872134B9A61FB
:101BD0004FF4AA621A6294F90030052B0CD100214F
:101BE0000846FFF7E7FE1248FFF764FF64220B4B3D
:101BF0009A614FF4FA621A6294F90030062B04BF1E
:101C000000232370FEF7E6FEBDE810404FF4167087
:101C1000FFF712BA930700209C5E000854010020D1
:101C2000AD5E0008BE5E0008CF5E0008E05E000802
:101C3000F15E0008FEF7CEBE08B501210720FFF7D0
:101C4000B9FE0121FF20FFF7F5FDFEF7C3FE044BAF
:101C5000C8209A68034B1A60BDE80840FFF7ECB94A
:101C6000540100201C0A002008B501210720FFF7BD
:101C7000A1FE0121FF20FFF7DDFDFEF7ABFE044BC7
:101C8000C8201A6C034B1A60BDE80840FFF7D4B9AE
:101C900054010020140A002018B100221146FFF759
:101CA0000CBF704749F6AF2310B50E4C90B02268B8
:101CB0009A4215D90C4B0BA91868FFF773FC4FF427
:101CC0006163206801A9B0FBF3F0FFF70DFB074942
:101CD00006AB0BAAFFF7D0FB022106A8FFF7ACF872
:101CE00010B010BD8007002098070020025F000898
:101CF00010B5164C164890B003F0B0FA00222168D7
:101D0000144803F0E9FA49F6AF2322689A421BD936
:101D1000114B0BA91868FFF745FC4FF4616320686D
:101D200001A9B0FBF3F0FFF7DFFA06AB0BAA0B49F2
:101D3000FFF7A2FB012106A8FFF77EF8044803F095
:101D40008DFA06A803F024FA10B010BD7C0700201D
:101D50001C590008065F00088C070020025F00087D
:101D600008B501210720FFF725FEBDE80840012145
:101D7000FF20FFF75FBD00004FF0007170B591FAD2
:101D8000A1F1B1FA81F3104C00F00071D9404FF08D
:101D9000F87254F8215000F0F87092FAA2F3B3FAF6
:101DA00083F392FAA2F20726B2FA82F220FA03F340
:101DB00006FA03F3D04025EA030306FA00F01843BD
:101DC00044F8210070BD00BF0C2401404FF4407363
:101DD00030B593FAA3F3B3FA83F31F24084D00F44C
:101DE0004072DA4055F8223000F01F00844001F0C4
:101DF0001F0123EA04038140194345F8221030BD36
:101E00002C240140002070470122002110B51F4BF7
:101E10001F4C1A700228084608BF2378FFF7CAFD36
:101E20001C4B0221188880B2FFF79AFAFFF742FE96
:101E30001948FFF73FFE194B188800B2FFF718FA50
:101E4000FFF738FE1648FFF735FE237801210620FC
:101E5000144C7BB9FFF7AEFD01210220FFF7D2FD44
:101E600001210220FFF7CEFD23780A2B84BF002337
:101E7000237010BD2378052BECD9FFF79BFD0121C2
:101E80000320FFF7BFFD01210320EBE7A00700209F
:101E9000A20700206E0800200E5F00085A080020EC
:101EA000115F000889070020002310B596B0044692
:101EB000084611A98DF804208DF80530FFF772FB54
:101EC0004FF4616002A9B4FBF0F0FFF70DFA07AB25
:101ED00011AA0749FFF7D0FA0CAA07A901A8FFF732
:101EE000B5FA04210CA8FEF7A7FF16B010BD00BF7D
:101EF000025F0008022838B51E4C1F4D2AD12388E6
:101F00002A6801331BB29342238001D3002323802C
:101F100000210846FFF74EFD2868B4F9003001386B
:101F2000C01A00EB001004302844FFF7C3FD13482B
:101F300003F094F9B4F900100022114803F0CCF931
:101F40000E4803F08BF929680022BDE838400D489F
:101F500003F0C2B90128DBD12388013B1BB2002B5F
:101F60002380D5DA2B68013B1BB2002B2380CDDB0D
:101F7000CEE700BFE2070020780800201C590008C7
:101F8000185F0008255F0008002110B504460846C8
:101F9000FFF710FD0A4B188800B2FFF769F9FFF749
:101FA00089FD0848FFF786FD022C08D1BDE81040E6
:101FB000054B064A1B881BB29360FEF7D5BC10BDCB
:101FC0005A080020385F0008B202002004000020F8
:101FD000002110B504460846FFF7ECFC0A4B1888B0
:101FE00000B2FFF745F9FFF765FD0848FFF762FD0E
:101FF000022C08D1BDE81040054B064A1B881BB2D5
:102000001361FEF7B1BC10BD5A080020385F00080C
:10201000B402002004000020002110B50446084648
:10202000FFF7C8FC1F48FFF745FD022C30D1FEF733
:102030002BFDFEF757FC002104460846FFF7BAFCCB
:102040001948FFF737FD4FF4FA60FEF7F5FF00215E
:102050000846FFF7AFFC012C1BD11448FFF72AFDFF
:102060001348FEF723FE4FF4FA60FEF7E5FF114B2D
:102070001A69114B1A604FF46162104B19694A4397
:102080000F490A6099680F4A11601A6C0E4B1A606A
:1020900010BD0E48FFF70EFDBDE810404FF47A600A
:1020A000FEF7CABF475F0008585F0008695F000875
:1020B0007A5F0008F400002084070020540100200B
:1020C000180A00201C0A0020140A0020895F00085A
:1020D000022810B50E4C15D123690133236100216C
:1020E0000846FFF767FC2069FFF7C2F8FFF7E2FC3C
:1020F0000848FFF7DFFC4FF4616322695343064A47
:10210000136010BD0128EAD12369013BE6E700BF57
:10211000540100209A5F0008180A002010B5334CC3
:10212000022894F900300DD101335BB2072B0FD197
:102130000023237000210846FFF73CFC2C48FFF7E2
:10214000B9FC0AE0012804D1013B5BB2002B10DB93
:10215000237094F90030002BECD094F90030012B5F
:1021600009D100210846FFF725FC2248FFF7A2FC11
:1021700001E00623237094F90030022B06D10021E0
:102180000846FFF717FC1C48FFF794FC94F9003051
:10219000032B06D100210846FFF70CFC1748FFF778
:1021A00089FC94F90030042B06D100210846FFF782
:1021B00001FC1348FFF77EFC94F90030052B06D193
:1021C00000210846FFF7F6FB0E48FFF773FC94F971
:1021D0000030062B08D100210846FFF7EBFBBDE8D5
:1021E00010400948FFF766BC10BD00BF93070020F0
:1021F0009F5F0008B05F0008C25F0008D35F00085F
:10220000E35F0008F45F000804600008022810B5CE
:102210000D4C14D1A3690A33A36100210846FFF7CE
:10222000C9FB0A23A0690121B0FBF3F0FFF798F87E
:10223000FFF740FCBDE810400448FFF73BBC012815
:10224000EBD1A3690A3BE7E754010020B95E00081F
:10225000022810B50D4C14D1236A0A3323620021E1
:102260000846FFF7A7FB0A23206A0121B0FBF3F021
:10227000FFF776F8FFF71EFCBDE810400448FFF7B3
:1022800019BC0128EBD1236A0A3BE7E7540100207F
:10229000B95E0008022810B50B4C10D1A36A0133B7
:1022A000A36200210846FFF785FBA06AFEF7E0FF66
:1022B000FFF700FCBDE810400448FFF7FBBB012816
:1022C000EFD1A36A013BEBE7540100201460000842
:1022D000022810B50B4C10D1236B0133236300216E
:1022E0000846FFF767FB206BFEF7C2FFFFF7E2FB34
:1022F000BDE810400448FFF7DDBB0128EFD1236B98
:10230000013BEBE75401002014600008022838B5B7
:102310001A4C2DD1A36B0133A36300210A25084673
:10232000FFF748FBA06BFEF7A3FFFFF7C3FB1448C2
:10233000FFF7C0FB206A0121B0FBF5F0FFF710F8B2
:10234000FFF7B8FB0F48FFF7B5FB6422236AA06BC9
:1023500001215843B0FBF2F0181AB0FBF5F0FEF77C
:10236000FFFFFFF7A7FBBDE838400748FFF7A2BB18
:102370000128D2D1A36B013BCEE700BF540100205E
:102380001D6000080E5F0008B95E0008044B9A68E3
:10239000044B1B689A4201D1FFF7E2BC704700BFB3
:1023A000540100201C0A0020044B1A6C044B1B68CB
:1023B0009A4201D1FFF7D4BC704700BF54010020FE
:1023C000140A0020002110B504460846FFF7F2FA6F
:1023D000022C1F4B0DD19A68072A02F1010127D167
:1023E00001229A601B48FFF765FBBDE81040FFF72C
:1023F000CDBF012C03D19A68013A15D09A609A6832
:10240000013A062A20D801A151F822F0E52300085C
:1024100035240008392400083D2400084124000820
:10242000452400082D24000807229A600A48DAE7AC
:102430009960E4E70948D6E70948D4E70948D2E7B4
:102440000948D0E70948CEE701229A6010BD00BFD5
:1024500054010020206000088660000831600008F8
:10246000426000085360000864600008756000085E
:10247000002110B504460846FFF79CFA022C144BC5
:102480000DD11A6C032A02F101011CD101221A6438
:102490001048FFF70FFBBDE81040FFF785BF012C88
:1024A00003D11A6C013A0AD01A641A6C022A0CD0B1
:1024B000032A06D0012AEBD001221A6410BD0322A0
:1024C0001A640548E5E71964EFE70448E1E700BF4F
:1024D0005401002097600008B9600008A860000857
:1024E000154B16499A6812F0100F0CD09A68900696
:1024F00016D59A68520615D59B68DB4313F0800306
:1025000012D10B807047032240F2DC50B1F9003049
:1025100083420BDD40F2B4530B80094B1A700AE082
:102520000222F1E70122EFE70422EDE701331BB2BB
:10253000142B0B80F1D07047000C0140E007002005
:10254000E4070020044B187810B10021034A116001
:1025500000221A70704700BFE4070020A407002083
:102560000022034B1A600122024B1A70704700BF11
:10257000D0070020A907002038B504464FF4616059
:10258000B4FBF0F0FEF774FE0546FEF757FF012896
:1025900003D801211148FFF71FFA01212846FFF750
:1025A0001BFA01210E48FFF717FA3C23B4FBF3F4A2
:1025B000B4FBF3F003FB1040FEF75AFE0446FEF7AF
:1025C0003DFF012803D801210448FFF705FA204602
:1025D000BDE838400121FFF7FFB900BFCA6000081D
:1025E000C16100084FF40032064B1A614FF080724F
:1025F000A3F580631A610023034A1370034A137022
:10260000704700BF000C0140A2070020A80700206F
:1026100008B5FFF7E7FFBDE808403220FEF70CBD24
:1026200038B501220546154B154C1A70FFF7F0FF1F
:10263000022D1ED1236A0133236200210846FFF7D1
:10264000B9F9206AFEF714FEFFF734FA0D48FFF7D8
:1026500031FA01210020FFF7ADF90B4B188800B2C9
:10266000FEF706FEFFF726FABDE838400748FFF7F9
:1026700021BA012DE1D1236A013BDDE7A00700204B
:1026800004000020B56000085A080020CC60000853
:1026900008B50C4B93F90020022A11D002221A70BF
:1026A000FFF7A0FF0022084B32201A60FEF7C4FC9F
:1026B000064802F0D3FDBDE80840054802F068BDB9
:1026C00008BD00BF8A070020CC0700201C59000865
:1026D000D160000801212DE9F8438A4D8A4E2B78FC
:1026E0008A4A31704BB92970894913700B70894936
:1026F0000B7089490B6089490B60894F89493B8878
:102700009BB20B8088498C698846A342C0F0F18057
:10271000002386491370864B09681B68DFF8F49123
:102720005B1A032B06D9137823B1FFF75BFF002355
:1027300089F8003002287F4C52D17F4B1B78002B48
:102740004AD1FFF765FF012389F8003094F90010A2
:1027500049BB0846FFF72EF93888022180B2FEF700
:10276000FFFDFFF7A7F97548FFF7A4F9744B754F04
:10277000188800B2FEF77CFDFFF79CF97248FFF75E
:1027800099F96D4B01211B780720002B40F0A880A0
:10279000FFF710F901210220FFF734F93B780A2BEB
:1027A00084BF00233B7094F90070012F23D10021D6
:1027B0000846FFF7FFF86548FFF77CF90A23D8F8C9
:1027C00018003946B0FBF3F0FEF7CAFDFFF772F9C7
:1027D0005F48FFF76FF90EE0FFF704FF0023B3E750
:1027E0000128B3D12378013B5BB2002B01DB2370BE
:1027F000ACE70323237094F90030022B1BD1002196
:102800000846FFF7D7F85348FFF754F9524B98683A
:102810004FF46163B0FBF3F0FEF72AFDFFF74AF9CE
:102820004E48FFF747F903200121FFF7C3F84C4B4F
:102830001868FFF7A1FE94F90070384C032F1AD1E5
:1028400000210846FFF7B6F84648FFF733F9324B48
:1028500018684FF46163B0FBF3F0FEF709FDFFF772
:1028600029F94148FFF726F938460121FFF7A2F878
:102870002068FFF781FE3D4802F0F0FC2978002235
:102880003B4802F029FD394802F0E8FC317800228B
:10289000384802F021FD354802F0E0FC1C4B0022D4
:1028A0001978354802F018FD304802F0D7FC334B58
:1028B00000221968324802F00FFD2C4802F0CEFCCD
:1028C00099F8001000222F4802F006FD274802F078
:1028D000C5FC21680022BDE8F8432B4802F0FCBC8F
:1028E0003B78052B7FF654AFFFF764F801210320F6
:1028F00052E713781BB90E4B19680C4B1960012372
:1029000007E700BFA1070020A007002088070020DC
:102910008B070020940700208007002098070020E4
:102920006E080020D407002054010020D8070020A2
:10293000E807002091070020A20700200E5F000892
:102940005A08002089070020DB600008E4600008C6
:10295000B95E0008F0600008F4000020F360000891
:102960009C07002088610008FC6000081C590008D2
:102970000561000813610008286100088C07002029
:102980003D6100084D610008656100080222064BA8
:102990001A610123054A1370054A13704FF48072BF
:1029A000044B1A61704700BF000C0140A2070020D1
:1029B000A807002000080140084908B50A68022A53
:1029C00004D1FFF7E3FF01230B6008BD032AFCD10C
:1029D000034B9B69012BF8D1F3E700BF7402002081
:1029E000F400002000212DE9F04101272A4B2B4D56
:1029F000064608461F70FEF7DDFF2B78284C03F0D3
:102A0000FF0843BB274B0221188880B2FEF7A8FCC1
:102A1000FFF750F82448FFF74DF841460720FEF72E
:102A2000C9FF208800B2FEF723FCFFF743F81F48D8
:102A3000FFF740F805203946FEF7BCFF1C48FFF7BA
:102A400039F8022E03D12B781BBBFFF79FFFBDE89F
:102A5000F041FFF7B1BF174B0221188880B2FEF793
:102A60007FFCFFF727F81048FFF724F80021072024
:102A7000FEF7A0FF208800B2FEF7FAFBFFF71AF876
:102A80000D48FFF717F806203946FEF793FF0B486D
:102A9000D5E7FFF7A7FDDAE7A0070020A20700208F
:102AA0005A08002074080020786100087C61000842
:102AB000826100086E080020115F0008876100082D
:102AC0000122164B10B51A70FFF760FF0228144C54
:102AD0001ED1A3690133A36100210846FEF76AFFF6
:102AE000A069FEF7C5FBFEF7E5FF0E48FEF7E2FF23
:102AF00001210020FEF75EFF0B4B188800B2FEF7A5
:102B0000B7FBFEF7D7FFBDE810400848FEF7D2BF7D
:102B10000128E1D1A369013BDDE700BFA007002048
:102B200004000020B56000085A080020CC600008AE
:102B30000122164B10B51A70FFF728FF0228144C1B
:102B40001FD1A36A0133A36200210846FEF732FFBA
:102B5000A06AFEF78DFBFEF7ADFF0E48FEF7AAFF59
:102B600001210020FEF726FF0B4B0221188880B2BE
:102B7000FEF7F6FBFEF79EFFBDE810400748FEF7A4
:102B800099BF0128E0D1A36A013BDCE7A007002040
:102B900004000020B5600008740800207861000877
:102BA0000122164B10B51A70FFF7F0FE0228144CE4
:102BB0001FD1236B0133236300210846FEF7FAFE81
:102BC000206BFEF755FBFEF775FF0E48FEF772FF10
:102BD00001210020FEF7EEFE0B4B0221188880B287
:102BE000FEF7BEFBFEF766FFBDE810400748FEF7A4
:102BF00061BF0128E0D1236B013BDCE7A007002087
:102C000004000020B56000086E080020786100080C
:102C10000122164B10B51A70FFF7B8FE0228144CAB
:102C20001FD1A36B0133A36300210846FEF7C2FE48
:102C3000A06BFEF71DFBFEF73DFF0E48FEF73AFFC7
:102C400001210020FEF7B6FE0B4B0221188880B24E
:102C5000FEF786FBFEF72EFFBDE810400748FEF7A3
:102C600029BF0128E0D1A36B013BDCE7A0070020CE
:102C700004000020B56000085808002078610008B2
:102C800001222A4B70B51A70FFF780FE0228284EE9
:102C900042D133880133338000210846FEF78AFE93
:102CA00002213088FEF75CFB224D234CFEF702FF29
:102CB0002248FEF7FFFE2B8822889BB212B2002A20
:102CC0002FDD328820889B1A02B242F210701BB2AC
:102CD00023EAE373434393FBF2F0194E3064FEF7AB
:102CE000C7FAFEF7E7FE1748FEF7E4FE164B1B880F
:102CF0002A8821889BB209B2002992B213DD9B1A5F
:102D000042F210721BB223EAE3735343218809B2E3
:102D100093FBF1F3B36470BD0128BDD13388013B4F
:102D2000B9E74620D9E70A23F4E700BFA00700204F
:102D300078020020B60200205A0800200E5F00082A
:102D4000040000208B6100087408002000212DE998
:102D5000F04101272B4B2C4D064608461F70FEF70D
:102D600029FE2B78294C03F0FF0833BB284B0221A6
:102D7000188880B2FEF7F4FAFEF79CFE2548FEF7AD
:102D800099FE41460720FEF715FE208800B2FEF7A7
:102D90006FFAFEF78FFE2048FEF78CFE05203946BD
:102DA000FEF708FE1D48FEF785FE022E27D12B7880
:102DB0000BBBBDE8F041FFF7E9BD194B02211888B4
:102DC00080B2FEF7CDFAFEF775FE1248FEF772FEEE
:102DD00000210720FEF7EEFD208800B2FEF748FA3A
:102DE000FEF768FE0F48FEF765FE06203946FEF73F
:102DF000E1FD0D48D7E7BDE8F041FFF7F3BBBDE8C3
:102E0000F08100BFA0070020A20700205A08002080
:102E100074080020786100087C6100088261000865
:102E20006E080020115F00088761000808B5FFF7F1
:102E3000ADFDBDE808403220FEF7FEB801222DE9C5
:102E4000F84F994E994B347882469846984DDFF862
:102E5000D092984F1A7034BB974B1A88974B92B206
:102E60001B6A05339A4215D221462046FEF7A2FD81
:102E70009348FEF71FFE4FF4FA60FEF7DDF8214697
:102E80002046FEF797FD8F48FEF714FE40F6B83057
:102E9000FEF7D2F800238C4A2B7089F800301360BB
:102EA00001223B603270894B3A681B689A4206D80F
:102EB000874B824A1B88126A9BB2934203D9FFF761
:102EC00091FB00232B70FFF777FDBAF1020F814CC5
:102ED0006BD1814B1B78002B63D1FFF7A7FF012338
:102EE0002B7094F90010002936D10846FEF762FDD8
:102EF000794BDFF8DCA11A789B46002A40F0B580B8
:102F00006D4B0221188880B2FEF72AFAFEF7D2FD37
:102F10007248FEF7CFFDBAF80000022180B2FEF73A
:102F20001FFAFEF7C7FD6E48FEF7C4FD9BF80030A0
:102F300001210720DFF8ECA1002B40F0AA80FEF76A
:102F400039FD01210020FEF75DFD9AF800300A2BC3
:102F500084BF00238AF8003094F900A0BAF1010F71
:102F60002FD10021DFF854B10846FEF723FD5D485C
:102F7000FEF7A0FDDBF81000FEF77AF9FEF79AFDE8
:102F80005948FEF797FD0A23DBF820005146B0FBB5
:102F9000F3F0FEF7E5F9FEF78DFD5448FEF78AFDE4
:102FA0000FE0FFF71FFB00239AE7BAF1010F98D15A
:102FB0002378013B5BB2002B01DB237091E70223F6
:102FC000237094F90030022B1AD100210846FEF735
:102FD000F1FC4748FEF76EFD3B4B18684FF4616308
:102FE000B0FBF3F0FEF744F9FEF764FD4148FEF74D
:102FF00061FD03200121FEF7DDFC3868FFF7BCFA14
:103000003D4802F02BF9317800223C4802F064F987
:10301000394802F023F998F800100022384802F0ED
:103020005BF9354802F01AF929780022354802F098
:1030300053F9314802F012F939680022324802F09F
:103040004BF92D4802F00AF999F8001000222F4898
:1030500002F042F9284802F001F92D4B00221968CC
:103060002C48BDE8F84F02F037B9BAF80000022149
:1030700080B2FEF775F9FEF71DFD1848FEF71AFD40
:10308000254B188800B2FEF7F3F8FEF713FD23482E
:103090004AE79AF80030052B7FF651AFFEF78AFC1D
:1030A000012108464FE700BFA1070020A00700202C
:1030B0008B0700208C07002074080020540100209A
:1030C00096610008A76100087C070020180A00200C
:1030D0006E08002091070020A20700200E5F000864
:1030E000FB5E0008C0610008C3610008B95E00080B
:1030F000CB610008F36000081C5900080561000856
:1031000013610008286100083D6100084D61000856
:1031100098070020656100085A080020B86100087F
:10312000940700208907002001222DE9F84FBC4EAA
:10313000BC4B357882469846BB4CDFF85C93BB4F5E
:103140001A7035BBBA4B1A88BA4B92B21B6A053358
:103150009A4215D229462846FEF72CFCB648FEF7BF
:10316000A9FC4FF4FA60FDF767FF29462846FEF7F1
:1031700021FCB248FEF79EFC40F6B830FDF75CFF3C
:103180000023AF4A237089F80030136001223B60AE
:103190003270AC4B3A681B689A4272D9FFF722FA38
:1031A00000232370FFF708FCBAF1020FA64D40F090
:1031B0008280A64B1B78002B79D1FFF737FE0123C5
:1031C000237095F90010002936D10846FEF7F2FB6E
:1031D0009E4BDFF88CA21A789B46002A40F00281B1
:1031E000934B0221188880B2FEF7BAF8FEF762FC12
:1031F0009748FEF75FFCBAF80000022180B2FEF7A4
:10320000AFF8FEF757FC9348FEF754FC9BF80030EC
:1032100001210720DFF884A2002B40F0F780FEF7A1
:10322000C9FB01210020FEF7EDFB9AF800300A2BC4
:1032300084BF00238AF8003095F900A0BAF1010F8D
:1032400045D10021DFF8ECB10846FEF7B3FB824818
:10325000FEF730FCDBF81000FEF70AF8FEF72AFC58
:103260007E48FEF727FC0A23DBF820005146B0FB1E
:10327000F3F0FEF775F8FEF71DFC7648FEF71AFC32
:1032800025E077496B480A88036A92B29A4285D84A
:10329000826B64205A43B2FBF0F209889B1A89B210
:1032A0009942BFF47FAFFFF7C1FD012379E7FFF734
:1032B00099F9002384E7BAF1010F82D12B78013B01
:1032C0005BB2002B01DB2B707BE703232B7095F99E
:1032D0000030022B2FD100214FF00A0ADFF854B141
:1032E0000846FEF767FBDBF83800FDF7C1FFFEF785
:1032F000E1FB5C48FEF7DEFBDBF820000121B0FBC0
:10330000FAF0FEF72DF8FEF7D5FB5148FEF7D2FB99
:103310006422DBF82030DBF8380001215843B0FB91
:10332000F2F0181AB0FBFAF0FEF71AF8FEF7C2FB3B
:103330004848FEF7BFFB95F90050032D1AD1002134
:103340000846FEF737FB4848FEF7B4FB3C4B1868CD
:103350004FF46163B0FBF3F0FDF78AFFFEF7AAFBC1
:103360004248FEF7A7FB28460121FEF723FB3868F9
:10337000FFF702F96420FDF75FFE3D4801F06EFFA4
:10338000317800223B4801F0A7FF394801F066FF81
:1033900098F800100022384801F09EFF344801F0F0
:1033A0005DFF21780022354801F096FF304801F09A
:1033B00055FF39680022324801F08EFF2C4801F099
:1033C0004DFF99F8001000222E4801F085FF284893
:1033D00001F044FF2C4B002219682C48BDE8F84F3F
:1033E00001F07ABFBAF80000022180B2FDF7B8FF01
:1033F000FEF760FB1648FEF75DFB254B188800B210
:10340000FDF736FFFEF756FB2248FDE69AF800303E
:10341000052B7FF604AFFEF7CDFA0121084602E73F
:10342000A1070020A00700208B0700208C070020A8
:10343000740800205401002096610008A76100086C
:103440007C070020180A002091070020A207002016
:103450000E5F0008B95E0008C0610008C361000883
:103460006E0800201D600008CB610008FC600008A9
:103470001C59000805610008136100082861000854
:103480003D6100084D610008980700206561000853
:103490005A080020DB6000089407002089070020FC
:1034A00008B50C4B93F90020012A11D001221A70A3
:1034B000FFF76CFA0022084B32201A60FDF7BCFDC2
:1034C000064801F0CBFEBDE80840054801F060BEAB
:1034D00008BD00BF8A070020CC0700201C59000847
:1034E000D46000082DE9F04F974A85B01378DFF8D3
:1034F000B0A2DFF8B0B2DFF8B092944FDFF8AC8240
:10350000934D009003F0FF040192002B3ED1914BAC
:103510001A88914B92B21B6A05339A4215D2214602
:103520002046FEF747FA8D48FEF7C4FA4FF4FA60DA
:10353000FDF782FD21462046FEF73CFA8848FEF75B
:10354000B9FA40F6B830FDF777FD01260024019B5B
:103550001E70844B8AF800408BF80040C9F8004088
:103560003C601C60C8F800402C608AF80060FFF7DF
:1035700097FF7D4B214620461E70FEF71BFA7B48C5
:10358000FEF798FA4FF47A70FDF756FD784C2088D4
:1035900000B2FDF74DFF0528039440F3C881754A3A
:1035A0006D4E1388B1699BB28B4202921FD26E4B53
:1035B0001A78022A1BD1704B1B68B3F57A7F16D993
:1035C00000238BF8003029686C4B994203D9286896
:1035D0003968FEF769FC00230124C9F80030C8F8F7
:1035E00000308AF80040FFF75BFF5F4B1C70029BC6
:1035F000326A1B889BB2934208D95B4B1B78012B24
:1036000004D15D4B1B68B3F57A7F09D85C4BD9F8C0
:1036100000201B689A4223D9534B1B78012B1FD1E2
:1036200000238AF80030D8F80020544B9A4206D97B
:10363000D8F800000122D9F80010FEF735FC3A68EE
:10364000484B1A602A684F4B9A6000233B602B60FE
:1036500001238BF80030FFF71BF80222424B1A704F
:10366000009A494C022A94F9003034D101335BB2FC
:10367000052B37D10023237000210846FEF79AF965
:10368000029B0221188880B2FDF76AFEFEF712FA4B
:103690003E48FEF70FFA039B188800B2FDF7E8FDDD
:1036A000FEF708FA3A48FEF705FA01210620FEF770
:1036B00081F901210420FEF7A5F9364B197801297B
:1036C00040F02E8107200091FEF774F90020009948
:1036D000FEF798F90BE0009A012A04D1013B5BB296
:1036E000002B65DB237094F90030002BC4D094F9D3
:1036F0000030012B5ED1002108460093FEF75AF9F5
:103700003069FDF7B5FDFEF7D5F92348FEF7D2F98C
:103710000A22009BB0691946B0FBF2F0FDF720FECB
:10372000FEF7C8F91948FEF7C5F90A22009B306A6E
:103730001946B0FBF2F0FDF713FEFEF7BBF9174890
:10374000FEF7B8F936E000BFA00700209807002078
:1037500080070020740800205401002096610008B2
:10376000A76100089C07002070020020CE610008BD
:103770005A0800206E080020CC0700204F8C05005E
:10378000180A0020F4000020910700200E5F0008B6
:10379000B8610008A8070020945A0008FB5E0008E2
:1037A0008B070020940700208C0700207C07002056
:1037B0000423237094F90060022E21D100210846D1
:1037C000FEF7F8F801213046FEF71CF90021012030
:1037D000FEF7F0F85C48FEF76DF94FF46163286876
:1037E000B0FBF3F0FDF744FDFEF764F95748FEF730
:1037F00061F903200121FEF7DDF83868FEF7BCFE11
:1038000094F90060032E23D100210846FEF7D2F878
:1038100001210020FEF7F6F800210120FEF7CAF88A
:103820004948FEF747F94FF46163D8F80000B0FB50
:10383000F3F0FDF71DFDFEF73DF94448FEF73AF9B8
:1038400030460121FEF7B6F8D9F80000FEF794FEE5
:1038500094F90030042B23D100210846FEF7AAF882
:1038600001210220FEF7CEF800210120FEF7A2F888
:103870003748FEF71FF9374B98684FF46163B0FB88
:10388000F3F0FDF7F5FCFEF715F93348FEF712F9F2
:1038900003200121FEF78EF8304B1868FEF76CFE0E
:1038A0002F4801F0DBFC019B002219782D4801F024
:1038B00013FD2B4801F0D2FC9AF8001000222A4890
:1038C00001F00AFD264801F0C9FCD9F800100022D9
:1038D000264801F001FD224801F0C0FCD8F8001094
:1038E0000022234801F0F8FC1D4801F0B7FC9BF8CA
:1038F000001000221F4801F0EFFC194801F0AEFC57
:10390000396800221C4801F0E7FC154801F0A6FCCC
:1039100000222968194805B0BDE8F04F01F0DCBC71
:1039200001210720FEF746F801210220D0E6144BC2
:103930001B68B3F57A7FB3D900210846FEF73AF841
:103940001048FEF7B7F8ABE7B7600008DF61000882
:10395000F0600008F4000020FC6000089C070020D4
:103960001C59000813610008286100083D61000827
:10397000FA6100084D6100086561000812620008E4
:10398000CC070020E96100080021F8B5064608468A
:10399000FEF710F801226A4B1A706A4B197811B9B8
:1039A0001A70FEF7DDFD684D684C2B68A26A9A42DA
:1039B00012D3FFF775FD664B226A1B889BB29342B8
:1039C0000AD9644B1B68B3F5C87F05D9FEF7C8FD5B
:1039D0002B68A26A13442B602B68A26A9A420ED20B
:1039E000FEF756FE5A4BA2691B889BB2934206D241
:1039F000584B1B68B3F5C87F01D9FEF7B1FDA36A28
:103A0000216B2A680B44934201D2FEF7A9FD524D67
:103A1000022E95F9003033D101335BB2032B35D13F
:103A200000232B7000210846FDF7C4FF484B0221FC
:103A3000188880B2FDF794FCFEF73CF84748FEF783
:103A400039F8474B188800B2FDF712FCFEF732F840
:103A50004448FEF72FF801210620FDF7ABFF0121B6
:103A60000520FDF7CFFF404B1E78012E5FD1314678
:103A70000720FDF79FFF31460020FDF7C3FF0AE056
:103A8000012E04D1013B5BB2002B2CDB2B7095F98E
:103A90000030002BC6D095F90060012E25D1002101
:103AA0000A270846FDF786FF2069FDF7E1FBFEF7D0
:103AB00001F82E48FDF7FEFFA0693146B0FBF7F094
:103AC000FDF74EFCFDF7F6FF2448FDF7F3FF206AF3
:103AD0003146B0FBF7F0FDF743FCFDF7EBFF244860
:103AE000FDF7E8FF01E002232B7095F90030022B6F
:103AF00024D100210846FDF75DFFA06AFDF7B8FB61
:103B0000FDF7D8FF1B48FDF7D5FF206BFDF7B0FB95
:103B1000FDF7D0FF1848FDF7CDFF03200121FDF789
:103B200049FF164B1868BDE8F840FEF725BD012196
:103B30000720FDF73FFF012102209EE7F8BD00BFEF
:103B4000A0070020A1070020D0070020540100207A
:103B50006E080020CC070020910700200E5F0008AF
:103B60005A080020B8610008A8070020945A0008ED
:103B7000FB5E0008486200083462000898070020D5
:103B80002DE9F04FA04A85B013788346DFF8D4A220
:103B90009E4EDFF8D4929E4D9E4F9F4C03F0FF083F
:103BA0000192002B40F062819C4B1A889C4B92B290
:103BB0001B6A05339A4215D241464046FDF7FAFE8C
:103BC0009848FDF777FF4FF4FA60FDF735FA414664
:103BD0004046FDF7EFFE9448FDF76CFF40F6B83025
:103BE000FDF72AFA01234FF00008019A13708F4A5B
:103BF0008AF8008082F800808D4AC6F80080C9F8F3
:103C00000080C2F80080C5F80080C7F800808AF8FC
:103C10000030FFF745FC0123864A414640461370B9
:103C2000FDF7C8FE8448FDF745FF4FF47A70FDF7B5
:103C300003FA01232370DFF82882B8F8000000B2ED
:103C4000FDF7F6FB0528CDF8088040F395817B4B06
:103C5000734A1B8891699BB28B42904629D2754B5F
:103C60001A78022A25D1764B1B68B3F57A7F20D9C2
:103C700000236E490B703968724B994204D9386839
:103C8000D9F80010FEF710F9D9F80020684B1A6037
:103C90003A686D4B9A60002301228AF800202B605D
:103CA0003360FFF7FDFB0122237801332370614B62
:103CB0001A70624AD8F82010138803929BB28B4284
:103CC00008D95C4B1B78012B04D15D4B1B68B3F505
:103CD0007A7F08D85D4B32681B689A4222D9554BCF
:103CE0001B78012B1ED194F90030022B1ADC002323
:103CF0008AF800302A68534B9A4204D92868012276
:103D00003168FEF7D1F80123484A137000233B6065
:103D1000C9F80030FEF7BCFC02222378013323707F
:103D2000444B1A70454BD8F820201B889BB2934215
:103D300008D9404B1B78012B04D1414B1B68B3F5CC
:103D40007A7F08D8414B32681B689A421DD9394B9B
:103D50001B78012B19D194F90030022B15DDFEF7E9
:103D600041FC0023314A8AF8003013702A68354B31
:103D70009A4204D9286801223168FEF795F8022298
:103D8000237801332370324B1A70314CBBF1020F90
:103D900094F9003040F0AD8001335BB2042B40F069
:103DA000B0800023237000210846FDF703FE039B2B
:103DB0000221188880B2FDF7D3FAFDF77BFE254873
:103DC000FDF778FE029B188800B2FDF751FAFDF767
:103DD00071FE2148FDF76EFE01210620FDF7EAFD88
:103DE00001210420FDF70EFE1C4B93F800B0BBF13F
:103DF000010F40F0BA8059460720FDF7DBFD594618
:103E00000020FDF7FFFD82E0A00700208C070020C6
:103E10007C07002080070020900700207408002005
:103E20005401002096610008A76100089407002053
:103E30009C07002070020020CE6100086E08002060
:103E4000CC0700204F8C0500F4000020180A002049
:103E5000910700200E5F0008B8610008A807002045
:103E60005A0800208B0700209807002094F90030A2
:103E7000032B7FF7E0AEAB4C022894F9003040F002
:103E8000C68001335BB2042B40F0C780002323704F
:103E900000210846FDF78EFDA34B0221188880B251
:103EA000FDF75EFAFDF706FEA048FDF703FEA04B06
:103EB000188800B2FDF7DCF9FDF7FCFD9D48FDF721
:103EC000F9FD01210620FDF775FD01210420FDF714
:103ED00099FD994B93F80080B8F1010F40F01A81D9
:103EE00041460720FDF766FD41460020FDF78AFDAB
:103EF00099E0BBF1010F05D1013B5BB2002BC0F291
:103F0000B780237094F90030002B3FF44CAF94F944
:103F100000B0BBF1010F40F0AD8000210846FDF775
:103F200049FDD8F81000FDF7A3F9FDF7C3FD83485C
:103F3000FDF7C0FD0A23D8F818005946B0FBF3F08E
:103F4000FDF70EFAFDF7B6FD7848FDF7B3FD5946CB
:103F5000D8F820000A23B0FBF3F0FDF701FAFDF7D3
:103F6000A9FD7748FDF7A6FD84E001210720FDF7B4
:103F700021FD0121022044E7724B1B68B3F57A7FD3
:103F800006D900210846FDF715FD6F48FDF792FDA3
:103F90006E4801F063F9019B002219786C4801F02A
:103FA0009BF96A4801F05AF99AF800100022694812
:103FB00001F092F9654801F051F931680022664834
:103FC00001F08AF9614801F049F929680022634843
:103FD00001F082F95D4801F041F9614B0022197846
:103FE000604801F079F9594801F038F9D9F8001022
:103FF00000225D4801F070F9544801F02FF90022C9
:1040000039685A4805B0BDE8F04F01F065B901289C
:1040100004D1013B5BB2002B2ADB237094F9003002
:10402000002B3FF435AF94F90080B8F1010F21D196
:104030000021DFF844B10846FDF7BCFCDBF81000B6
:10404000FDF716F9FDF736FD3C48FDF733FD0A2371
:10405000DBF818004146B0FBF3F0FDF781F9FDF7FE
:1040600029FD3248FDF726FD4146DBF8200071E7C7
:104070000323237094F90080B8F1020F22D10021AC
:104080000846FDF797FC01214046FDF7BBFC0021E7
:104090000120FDF78FFC3648FDF70CFD4FF46163FE
:1040A0003868B0FBF3F0FDF7E3F8FDF703FD3148A6
:1040B000FDF700FD03200121FDF77CFCD9F800008D
:1040C000FEF75AFA94F90040032C7FF461AF002107
:1040D0000846FDF76FFC01210020FDF793FC00214D
:1040E0000120FDF767FC2248FDF7E4FC4FF4616313
:1040F0002868B0FBF3F0FDF7BBF8FDF7DBFC1D48CB
:10410000FDF7D8FC20460121FDF754FC3068FEF78E
:1041100033FA3DE701210720FDF74CFC0121022085
:10412000E4E600BF910700206E0800200E5F000843
:104130005A080020B8610008A8070020945A000817
:10414000FB5E0008CC070020E96100081C5900084C
:1041500013610008286100083D610008FA61000849
:10416000940700204D610008656100081262000894
:10417000B7600008DF6100085401002001222DE92A
:10418000F041A54BA54C02281A7086B094F9003076
:1041900028D113445BB2082B2AD100232370FEF7E9
:1041A00021FA00210846FDF705FC9D48FDF782FC39
:1041B0000A209C4B01211B889BB2B3FBF0F0FDF75A
:1041C000CFF8FDF777FC9848FDF774FC974B022178
:1041D000188880B2FDF7C4F8FDF76CFC9448FDF731
:1041E00069FC0AE0012804D1013B5BB2002B27DB0C
:1041F000237094F90030002BD1D094F90030012BBA
:1042000020D1FEF7EFF900210846FDF7D3FB8948DE
:10421000FDF750FC884B0221188880B2FDF7A0F80A
:10422000FDF748FC8548FDF745FC854BD88880B2F2
:10423000FDF71EF8FDF73EFC8248FDF73BFC01E070
:104240000723237094F90050022D1DD1FEF79EFB29
:1042500000210846FDF7AEFB7B48FDF72BFC7B4BAE
:104260002946188880B2FDF77BF8FDF723FC7348D8
:10427000FDF720FC724B988880B2FCF7F9FFFDF740
:1042800019FC7048FDF716FC94F90030032B1CD183
:10429000FEF77CFB00210846FDF78CFB6C48FDF720
:1042A00009FC6C4B188800B2FCF7E2FFFDF702FC3A
:1042B0006948FDF7FFFB624B588880B2FCF7D8FFD6
:1042C000FDF7F8FB5F48FDF7F5FB94F90030042B90
:1042D0001CD1FEF787F900210846FDF76BFB5F480C
:1042E000FDF7E8FB5E4B188800B2FCF7C1FFFDF755
:1042F000E1FB5948FDF7DEFB514B188880B2FCF713
:10430000B7FFFDF7D7FB5748FDF7D4FB94F9003012
:10431000052B47D1484E544FFEF738FB32883B8877
:1043200092B29BB2D21A42F21073DFF82881534343
:10433000B8F800104D4D09B293FBF1F30021084687
:10434000AB64FDF737FB4A48FDF7B4FB286CFCF77C
:104350008FFFFDF7AFFB4748FDF7ACFBA86CFCF700
:1043600087FFFDF7A7FB4448FDF7A4FB434800F097
:1043700075FFB8F80010002209B2414800F0ACFF08
:104380003E4800F06BFF3188022289B23D4800F0C0
:10439000A3FF3A4800F062FF398802223A4889B206
:1043A00000F09AFF94F90030062B0FD1FEF71AF9AE
:1043B00000210846FDF7FEFA344B01A91868FDF705
:1043C0007EF8FDF777FB3248FDF774FB94F9003077
:1043D000072B1DD1FEF7DAFA00210846FDF7EAFAAD
:1043E0002C48FDF767FB2C4B1868FCF739FCFCF7F1
:1043F0003FFFFDF75FFB2948FDF75CFB104B588939
:1044000080B2FCF735FFFDF755FB0948FDF752FB7D
:1044100006B0BDE8F08100BFA00700209207002091
:104420003C62000858080020416200086C08002027
:10443000B460000846620008740800200E5F00089F
:104440005C080020B26000084B6200086E08002083
:10445000516200085A080020576200085B62000899
:10446000B4020020B1600008B60200200400002061
:104470006162000864620008696200081C59000853
:1044800071620008756200087C620008E80700207D
:10449000B06000088462000870080020876200088D
:1044A0007FB50023754C0093019302930393E38936
:1044B000734D9AB24FF4F023B3FBF2F3714A9BB2FF
:1044C0001380A388E28999B2AB6A92B24B43B3FBE3
:1044D000F2F300930098FDF7E9F802900298FDF7D7
:1044E0003BF9694B1A681044684A18601188013119
:1044F00009B21180118809B21F290FDD19686448BB
:104500000029B8BF1F31C1F34F1101800021118074
:10451000196003889BB2022B98BF01806388E289EF
:1045200099B2AB6B92B24B43B3FBF2F3009300989A
:10453000FDF7F4F8574B80B218802188E38989B2DF
:104540009AB2AB69544E59430A234B43B3FBF2F37F
:1045500001930198FDF772F803900398FDF7FAF8BC
:104560004E4B1A6810444E4A18601188013109B246
:104570001180118809B21F2909DD19680029B8BF07
:104580001F3141F34F113180002111801960E18802
:10459000E38989B29AB22B6A59430A234B43B3FB8E
:1045A000F2F301930198FDF765F803900398FDF786
:1045B000D2F83C4B1A6810443B4A1860118801310C
:1045C00009B21180118809B21F290ADD196837481C
:1045D0000029B8BF1F3141F34F1101800021118024
:1045E00019603388AA68324E9B1A1BB23380A388A5
:1045F000E28999B22B6B92B24B43B3FBF2F3009377
:104600000098FDF76FF802900298FDF7A6F8294A86
:1046100013681844284B10601988013109B21980B9
:10462000198809B21F2911461A4624DD0868234B50
:104630000028B8BF1F3040111860002008601080AB
:104640001A681F4992B20A801A68022AD8BF1860F5
:104650003288186811B22A6C4A431A4992FBF1F267
:1046600002441A601A68022ADCBF00221A601B6822
:10467000154A9BB2138004B070BD00BF5C080020D7
:10468000040000206C080020BC070020C0070020A8
:104690007408002058080020B2020020AC07002057
:1046A000B0070020B4070020B8070020B4020020A3
:1046B0005A080020C4070020C8070020DC0700209B
:1046C000B6020020F0D8FFFF6E080020F8B5FDF715
:1046D00007FF3D4A3D4F1368013313603B889BB28F
:1046E000042B03D900233B80FFF7DAFE384E394D07
:1046F00033889BB2632B84BF002333802B889BB20B
:10470000B3F57A7F53D30023334C2B8023881BB21D
:10471000012B07DC208800B2FCF78AFE2F4B1A68B9
:104720001044186023881BB2022B07DD208800B2DA
:10473000FCF77EFE2A4B1A6810441860294B1B7840
:10474000012B01BF284A136801331360274B1B78E4
:10475000012B01BF264A136801331360254B1B78D8
:10476000012B01BF244A136801331360234B1A68DD
:1047700001321A601B6813F0010F0CBF4FF40042A6
:104780004FF000421E4B1A6140F2DB5223881BB2ED
:104790009342C2BF02221B4B1A6140F2DB522388B4
:1047A0001BB29342DEBF4FF40032164B1A613B88B6
:1047B00001339BB23B80338801339BB233802B881B
:1047C00001339BB22B80F8BDCC070020B002002043
:1047D000AE020020AC0200205A0800208007002012
:1047E0007C0700208B0700208C0700209407002006
:1047F00098070020A9070020D0070020E807002024
:1048000000080140000C014010B51D4C236843F422
:104810008033236023689A03FCD5636823F47C13F8
:1048200043F4A0236360E36A23F00F03E362236889
:1048300043F08073236023689B01FCD5636823F0F9
:10484000F0036360636823F4E0636360636823F4E8
:1048500060536360636823F0030343F00203636003
:10486000636803F00C03082BFAD1064800F07CFFC4
:10487000044800F087FF636823F44043636010BD81
:104880000010024000366E012DE9F04FC54D91B089
:104890000120FDF729F9EB69DFF85C9343F08053C1
:1048A000EB61EB69DFF854A303F080530093009BA6
:1048B000D9F80C20BC4B22F4E0621204120C134312
:1048C000C9F80C30B94BBA4E5A68002422F0E062A5
:1048D0005A605A684FF0010B42F000725A60FFF7BD
:1048E00093FF1422002109A800F084FF2020FDF787
:1048F000FBF80420FDF7F8F80820FDF7F5F84FF66F
:104900000343CAF814304FF409430227736140F29D
:1049100003334FF0040809A95046CDE9093BCDE91E
:104920000B7400F0D5FDA34B09A95046CDE9093B16
:10493000CDF830800B9700F0CBFD9F4B09A9304696
:10494000CDE9093BCDE90B7400F0C2FD4FF2F00256
:10495000082309A95046CDE90923CDF834B000F069
:10496000B7FD6B6943EA0B036B616B69934D03EA17
:104970000B030193019BD9F80C00C0F30220FDF753
:1049800041FA4FF4006300FA08F0C0B285F80B0357
:104990001C222B60214609A800F02CFF142221467E
:1049A00004A800F027FF4FF48040FDF79DF8404633
:1049B000FDF79AF8092382493046CDE90413032311
:1049C00004A9CDE9063400F083FD7E4B04A93046EE
:1049D000CDE9043800F07CFDD9F80C00C0F30220CA
:1049E000FDF710FA202300FA08F0C0B285F825037D
:1049F0006B60754D09A9EB68284643F08003EB60B6
:104A00004FF41643CDE909340C23CDE90B44CDE92D
:104A10000D340F9400F03CFE2B69142223F49043D4
:104A20002B616B69214623F02A036B61EB6804A8B4
:104A300043F40053EB60CDE9024400F0DBFE1422A6
:104A4000214609A800F0D6FE4FF40070FDF74CF89F
:104A50004046FDF749F847F67E6309A93046CDE99F
:104A6000093400F035FD594B4FF480781A68A5F5EC
:104A7000A05522F4804222F010021A601A6802A99E
:104A800022F4405242F400521A601A68284642F05A
:104A900020021A601A6822F040021A601A6842F076
:104AA00080021A601A6822F4407242F480721A601E
:104AB0001A6822F4406242F480621A60444A9A60A2
:104AC000444ADA605A68120C120442F008025A6032
:104AD0001A6842EA0B021A600294CDF80C8000F0CA
:104AE000C0FC4FF4E0034FF4602004A9CDE90403B7
:104AF0002846CDE90647CDF8208000F0C7FC3649AE
:104B00004FF40070FDF762F93348FDF735F933498A
:104B100040F20520FDF75AF93048FDF72DF93049EC
:104B200040F20A20FDF752F92D48FDF725F92D49ED
:104B300040F20F20FDF74AF92A48FDF71DF92A49EE
:104B40004FF40570FDF742F92748FDF715F927499D
:104B500040F21920FDF73AF92448FDF70DF92449F0
:104B60004046FDF733F92248FDF706F9AB682149C5
:104B700043F40003AB6040F20510FDF727F91D4830
:104B8000FDF7FAF8AB68642043F40003AB60AB6850
:104B900043EA0B03AB60FCF74FFAAB6843F0040346
:104BA000AB602DE0001002400003FA050000014058
:104BB00000080140FC00FC048900890400E100E0D9
:104BC000020002040400040400380140080002400E
:104BD0004C2401405C080020010030020200600209
:104BE000030090020400C0020500F002060020034A
:104BF000100020811100508100ED00E0000C014008
:104C0000AC6814F00404FBD1AB6843F4A003AB60C0
:104C1000FCF75FFF00F08CFA4FF47A72AE4B1B6822
:104C2000B3FBF2F3013BB3F1807F08D2F021AB4A32
:104C30005360AB4B83F823100723946013604FF449
:104C4000004300243361A74DFDF7CCFCA6482C603F
:104C5000FCF730FFFCF700FAA44800F0FFFAA24886
:104C600000F096FAFCF74EFE21462046FCF7A2FE25
:104C70004FF47A70FCF7E0F9FBF756FB2B68172B23
:104C800088BF2C60FBF72EFE044668B94FF47A709B
:104C9000FCF7D2F9FBF726FE0446944800F0DEFA52
:104CA000934800F075FA34B1012C14D18F4800F00C
:104CB000D5FA90480DE09048FCF7FCFE4FF47A607E
:104CC000FCF7BAF98D48FBF7F1FF884800F0C6FA07
:104CD000874800F05DFA8A4D8A4B2A698A4C1A602F
:104CE0004FF461632269894E5343894A1360A26875
:104CF000884B1A60236C884A33601360FBF77AFF95
:104D00004FF47A70FCF798F9FCF7C2FE8348FCF781
:104D100045FDA368012B14D18148FCF725FD814F87
:104D2000DFF8FC91DFF850823B7801333B70FDF7F0
:104D300009FC431E0446032B20D8DFE803F01A4089
:104D4000444B022B01D17848E7E7032B01D1774888
:104D5000E3E7042B01D17648DFE7052B01D1754845
:104D6000DBE7062B01D17448D7E7072BD4D1734872
:104D7000D3E7FCF7F3FC4068FCF7F6FCFCF7EEFC2D
:104D800081452BD12046FDF72DFE98F8003003F029
:104D9000FF0183B9FDF726FC694B1970694B197047
:104DA000694B1B68AB60694B1A68694B1A60694BA9
:104DB0001970012333606420FCF73EF9B4E7FCF777
:104DC000CDFC0068D8E70220FCF7F2FCFCF7C6FC3B
:104DD000C068D1E7FCF7C2FC8068CDE7FCF7BEFCF9
:104DE000514B834203D12046FDF70EF8CDE7FCF787
:104DF000B5FC4E4B834203D12046FEF71FF8C4E7B3
:104E0000FCF7ACFC4A4B834203D12046FEF78CF9F9
:104E1000BBE7FCF7A3FC474B834203D12046FDF7D9
:104E200059FCB2E7FCF79AFC4B4B834203D1204676
:104E3000FEF7A6FEA9E7FCF791FC3F4B834203D1A6
:104E40002046FEF74FFBA0E7FCF788FC3B4B834274
:104E500003D12046FEF798FD97E7FCF77FFC3F4B18
:104E6000834203D12046FDF771FF8EE7FCF776FC05
:104E70003B4B834203D12046FFF780F985E7FCF7DF
:104E80006DFC384B834203D12046FDF733F87CE7B5
:104E9000FCF764FC344B834203D12046FDF798F8BD
:104EA00073E7FCF75BFC314B834203D12046FDF7EF
:104EB0006BF86AE7FCF752FC2D4B834203D1204686
:104EC000FDF7AEFB61E7FCF749FC2A4B834255D165
:104ED0002046FDF7F5FD58E78C02002010E000E0C9
:104EE00000ED00E0780800207A0200202E5C000827
:104EF0008C620008D85A0008A4620008B562000855
:104F0000F4000020840700205401002074020020D7
:104F1000180A00201C0A0020140A0020991C00080E
:104F2000F869000889070020506A0008A86A00088C
:104F3000006B0008586B0008086C0008606C0008E3
:104F4000A10700209107002080070020980700207B
:104F50009C0700208A070020846B0008B86C0008BA
:104F6000106D00085C660008CC63000874630008DC
:104F70007C64000824640008A0070020FCF7EEFB16
:104F80003F4B834203D12046FDF742FEFDE6FCF78E
:104F9000E5FB3C4B834203D12046FDF701FEF4E6DE
:104FA000FCF7DCFB384B834203D12046FDF7C0FD04
:104FB000EBE6FCF7D3FB354B834203D12046FDF7EC
:104FC0005FFEE2E6FCF7CAFB314B834203D1204689
:104FD000FDF722F8D9E6FCF7C1FB2E4B834203D143
:104FE0002046FDF775F8D0E6FCF7B8FB2A4B834264
:104FF00003D12046FDF792F8C7E6FCF7AFFB274B3D
:10500000834203D12046FDF701F9BEE6FCF7A6FB7B
:10501000234B834203D12046FDF71AF9B5E6FCF78E
:105020009DFB204B834203D12046FDF733F9ACE6CC
:10503000FCF794FB1C4B834203D12046FDF748F953
:10504000A3E6FCF78BFB194B834203D12046FDF707
:105050005DF99AE6FCF782FB154B834203D12046AB
:10506000FDF7B0F991E6FCF779FB124B834203D1CF
:105070002046FDF7FDF988E6002388F8003084E635
:10508000846500082C650008D4640008CC6500081D
:1050900014660008B4660008E0660008646700084B
:1050A000BC670008146800086C680008C468000841
:1050B000A0690008746900087047FEE7FEE7FEE794
:1050C000FEE7704770477047FFF700BB704700006E
:1050D00014490B681B0624D5134BB3F8582492B21D
:1050E000DAB1B3F85824013A92B2A3F85824B3F8CD
:1050F000562492B2501C80B2A3F856041A4492F877
:105100006C20D2B24A60B3F8562492B2B2F57A7FDC
:1051100007D10022A3F856247047CB6823F0800300
:10512000CB60704700380140B80200207047000093
:10513000124A10B55368124903F00C03082B0AD029
:10514000104B0B605368104AC3F30313D25C0B6817
:10515000D3400B6010BD53685068C3F38343C00352
:1051600041BFD06A074C00F00F0001304CBFB4FBC8
:10517000F0F0064802334343E3E700BF001002406B
:105180008C02002000127A00396D000800093D00F1
:105190000021304A10B5D36823F08003D3602E4B32
:1051A000027802F0FF045ABBB3F8542492B2511CA7
:1051B00089B2A3F854140A211A4482F86C10B3F887
:1051C000542492B2B2F57A7F08BFA3F85444B3F8DE
:1051D0005824013292B2A3F85824B3F85A14B3F801
:1051E000582489B292B291423EBFB3F8582492B289
:1051F000A3F85A24174AD36843F08003D36010BD44
:10520000B3F8542492B2541CA4B2A3F8544410F836
:10521000014B1A44E4B282F86C40B3F8542492B2C1
:10522000B2F57A7F08BFA3F85414B3F858240132BA
:1052300092B2A3F85824B3F85A44B3F85824A4B24D
:1052400092B294423EBFB3F8582492B2A3F85A24C3
:10525000A6E700BF00380140B802002000211C4A28
:1052600010B5D36823F08003D3601A4B02782AB9B3
:10527000174AD36843F08003D36010BDB3F85424B9
:1052800092B2541CA4B2A3F8544410F8014B1A442F
:10529000E4B282F86C40B3F8542492B2B2F57A7F4B
:1052A00008BFA3F85414B3F85824013292B2A3F8FB
:1052B0005824B3F85A44B3F85824A4B292B2944292
:1052C0003EBFB3F8582492B2A3F85A24CEE700BFE9
:1052D00000380140B802002037B501918DF8032055
:1052E0009DF8033004460198002B3FD1FBF7C0FF27
:1052F0000025474AD36823F08003D360454B2278CA
:1053000002F0FF01002A36D10138B3F8542410F816
:10531000014F92B2002C57D1511C89B2A3F85414FA
:105320000A211A4482F86C10B3F8542492B2B2F5F0
:105330007A7F08BFA3F85444B3F85824013292B2DC
:10534000A3F85824B3F85A14B3F8582489B292B287
:1053500091423EBFB3F8582492B2A3F85A242C4A83
:10536000D36843F08003D36003B030BD9DF80310D1
:10537000FBF7F6FFBCE7B3F8542492B2511C89B294
:10538000A3F8541414F8011B1A44C9B282F86C1023
:10539000B3F8542492B2B2F57A7F08BFA3F85454FC
:1053A000B3F85824013292B2A3F85824B3F85A142F
:1053B000B3F8582489B292B291423EBFB3F8582450
:1053C00092B2A3F85A249AE7541CA4B2A3F8544406
:1053D00004781A4482F86C40B3F8542492B2B2F5BF
:1053E0007A7F08BFA3F85414B3F85824013292B25C
:1053F000A3F85824B3F85A44B3F85824A4B292B28C
:1054000094423EBFB3F8582492B2A3F85A247CE7E2
:1054100000380140B8020020002103E00B4B5B582C
:10542000435004310A480B4B42189A42F6D30A4AB9
:1054300002E0002342F8043B084B9A42F9D3FFF7FD
:1054400075FE00F0A5F9FFF71FFA70475C6D0008C4
:10545000000000209002002090020020200A00207E
:10546000FEE70246806810B510F001000CD15368C9
:105470004C6823F48073234353609368096823F4D2
:1054800000630B43936010BD0120FCE7836810B5F7
:10549000DB071BD443684A6823F4684312B18C6865
:1054A00013432343436083680C6823F4602323F48D
:1054B00081732343CC68096923430B438360C36A28
:1054C00023F470031343C362002010BD0120FCE7E6
:1054D0002DE9F04F0D680446C5F30F2595FAA5F2A6
:1054E0000327B2FA82F24FF0040C4FF0011E40F293
:1054F000011835FA02F001D1BDE8F08F0123934085
:105500002B4267D0072A88BFA2F10803D1F804A074
:105510008ABF0EFA03F308FA02F343F08063BAF18C
:10552000080F0DD1E6684FEA132B9BFAABF9B9FAD5
:1055300089F9086926EA0B0600FA09F00643E660D5
:105540004FEA136993FAA3F6B6FA86F693FAA3FB29
:105550000F20BBFA8BFBB60000FA06F654F80900E0
:105560004FEA8B0B20EA06060AFA0BFB46EA0B060B
:1055700044F80960486820F0080001282AD193FA0D
:10558000A3F0B0FA80F093FAA3FBBBFA8BFB800088
:1055900007FA00F026EA000688684FEA8B0B00FA4B
:1055A0000BFB46EA0B0644F8096093FAA3FABAFA31
:1055B0008AFA93FAA3F3B3FA83F34FEA8A0A0CFA4E
:1055C0000AFA26EA0A0ACE689B009E404AEA0606C4
:1055D00044F8096001328CE7034B044A5B68C3F36B
:1055E0000313D35CD840704700100240396D0008A7
:1055F000034B044A5B68C3F30223D35CD840704773
:1056000000100240496D0008034B044A5B68C3F375
:10561000C223D35CD840704700100240496D000897
:10562000094B5A68D20341BFD86A084A00F00F00FC
:10563000013048BFB2FBF0F05B6858BF0448C3F3C9
:1056400083430233584370470010024000127A002F
:1056500000093D00044B5B6803F00C03082B01D1EB
:10566000FFF7DEBF014870470010024000127A00C9
:1056700008B50146FFF7EEFF0860FFF7ADFF486091
:10568000FFF7B6FF88604868FFF7BEFFC86008BD37
:1056900030B5C36804469B040D4685B002D5012091
:1056A00005B030BD4B68C968C2680B43296922F454
:1056B00016420B43A96922F00C020B431343C3604B
:1056C0000369AA6823F440531343036143696A6979
:1056D00023F44073134343616846FFF7C9FF1F4B30
:1056E0009C4224D103990029D9D02A68002AD6D017
:1056F00019234B43A969B1F5004F4FF064011FD145
:105700005200B3FBF2F3B3FBF1F001FB1033DB000B
:105710003233B3FBF1F303F007025B0002EB00123C
:1057200003F4F87313449BB20020A360B8E70C4B5A
:105730009C4201D10299D6E70A4B9C42AFD1F9E7CE
:105740009200B3FBF2F3B3FBF1F201FB12331B0146
:105750003233B3FBF1F303EB0213E4E7003801400B
:1057600000440040004800404FF47A73B0FBF3F06F
:105770000022034B013858609A6005221A60704776
:1057800010E000E0014B1860704700BF8C02002061
:1057900070B500260C4D0D4C641BA410A64209D117
:1057A00000F030F800260A4D0A4C641BA410A642F3
:1057B00005D170BD55F8043B98470136EEE755F822
:1057C000043B98470136F2E7546D0008546D000819
:1057D000546D0008586D00080A44914200F1FF33EF
:1057E00000D1704710B511F8014B914203F8014FF9
:1057F000F9D110BD03460244934200D1704703F82B
:10580000011BF9E7F8B500BFF8BC08BC9E4670471D
:0C581000F8B500BFF8BC08BC9E4670470D
:10581C0000070E091C1B1215383F363124232A2D84
:10582C0070777E796C6B6265484F464154535A5D74
:10583C00E0E7EEE9FCFBF2F5D8DFD6D1C4C3CACD64
:10584C0090979E998C8B8285A8AFA6A1B4B3BABD54
:10585C00C7C0C9CEDBDCD5D2FFF8F1F6E3E4EDEA44
:10586C00B7B0B9BEABACA5A28F88818693949D9A34
:10587C002720292E3B3C35321F18111603040D0A24
:10588C005750595E4B4C45426F68616673747D7A14
:10589C00898E878095929B9CB1B6BFB8ADAAA3A404
:1058AC00F9FEF7F0E5E2EBECC1C6CFC8DDDAD3D4F4
:1058BC00696E676075727B7C51565F584D4A4344E4
:1058CC00191E171005020B0C21262F283D3A3334D4
:1058DC004E49404752555C5B7671787F6A6D6463C4
:1058EC003E39303722252C2B0601080F1A1D1413B4
:1058FC00AEA9A0A7B2B5BCBB9691989F8A8D8483A4
:10590C00DED9D0D7C2C5CCCBE6E1E8EFFAFDF4F393
:10591C0044454255473A200073697A653A2000762F
:10592C00616C3A20004661696C20746F207265616D
:10593C006420616464726573733A2000454570722B
:10594C006F6D56616C7565206973203A2000464C6A
:10595C004153485F424153452B313032342A313266
:10596C0033203A200043616C6962726174696F6E16
:10597C005772697465546F466C617368200043619B
:10598C006C6962726174696F6E466163746F72796F
:10599C005772697465546F466C617368200043617B
:1059AC006C6962726174696F6E5265616446726F84
:1059BC006D466C617368200043616C69627261743E
:1059CC00696F6E5265616446726F6D466C61736887
:1059DC00466F7256657269667920005365747469F6
:1059EC006E67735772697465546F466C6173682087
:1059FC000053657474696E6773466163746F727972
:105A0C005772697465546F466C61736820005365F6
:105A1C007474696E67735265616446726F6D466C1F
:105A2C00617368200053657474696E6773526561A5
:105A3C006446726F6D466C617368466F7256657220
:105A4C006966792000446174615768656E506F77A0
:105A5C0065724F66665F466163746F72795F5772E9
:105A6C00697465546F466C6173682000446174619D
:105A7C005768656E506F7765724F666652656164E4
:105A8C0046726F6D466C6173682000446174615797
:105A9C0068656E506F7765724F66665265616446D5
:105AAC00726F6D466C617368466F7256657269668B
:105ABC00792000526561642066726F6D20454570D7
:105ACC00726F6D202D204641494C20005265616457
