:020000040800F2
:1000000000200020C9560008695300086B530008FF
:100010006D5300086F530008715300080000000082
:100020000000000000000000000000007353000802
:10003000755300080000000077530008795300084A
:1000400011570008115700081157000811570008F0
:1000500011570008115700081157000811570008E0
:100060001157000811570008115700087D53000868
:1000700011570008115700081157000811570008C0
:100080001157000811570008115700080000000020
:1000900000000000000000000000000011570008F0
:1000A0001157000811570008115700081157000890
:1000B0001157000811570008115700081157000880
:1000C0001157000800000000000000001157000850
:1000D00011570008815300081157000811570008F4
:1000E00011570008115700081157000800000000C0
:1000F0000000000000000000000000000000000000
:1001000000000000000000000000000000000000EF
:1001100000000000000000001157000811570008FF
:1001200000000000000000000000000000000000CF
:1001300000000000000000000000000000000000BF
:1001400000000000000000000000000000000000AF
:10015000000000000000000000000000000000009F
:10016000000000000000000000000000000000008F
:10017000000000000000000000000000000000007F
:10018000000000000000000000000000000000006F
:10019000000000000000000000000000000000005F
:1001A000000000000000000000000000000000004F
:1001B000000000000000000000000000000000003F
:1001C0000000000000000000000000005FF808F1DF
:1001D00010B5054C237833B9044B13B10448AFF381
:1001E00000800123237010BD900200200000000059
:1001F000B45A000808B5034B1BB103490348AFF3D9
:10020000008008BD0000000094020020B45A0008DD
:100210000E4A1346D168C907FCD4D168890644BF89
:100220002021D1601A6942F002021A6158611A69EC
:1002300042F040021A61054BDA689206FCD5202292
:10024000DA601A6922F002021A6170470020024047
:10025000034B044A5A6002F188325A60704700BF6B
:100260000020024023016745024A136943F08003DE
:100270001361704700200240114B10B51A46DC682C
:10028000E407FCD4DC68A40644BF2024DC601369C6
:1002900043F0010313610A4A8BB203801346D4680A
:1002A000A406FCD52024090CD4604180DA689206AB
:1002B000FCD52022DA601A6922F001021A6110BD11
:1002C0000020024038B572B6FFF7C2FF104805F0B3
:1002D0001DF9104C00224FF4CE710F4805F054F96F
:1002E0000B4805F013F9002221680C4805F04CF981
:1002F0000B48FFF78DFF0B4D094854F8041BFFF71F
:10030000BBFF0430A842F8D1FFF7AEFF62B638BD9C
:10031000CC5B000878080020D45B0008DB5B000899
:1003200000E401089CE50108054A064B064953F81C
:10033000040B8B4242F8040BF9D10120704700BF37
:100340007808002000E401089CE50108F8B504687D
:1003500007468C420D4601D394421BD900260E4B12
:100360000E481E7005F0D2F8324639460C4805F0AA
:100370000BF90A4805F0CAF821463246094805F04B
:1003800003F9064805F0C2F832460749074805F068
:10039000FBF82C462046F8BD00000020CC5B00088E
:1003A000E15B0008F85B000800EC01080A5C00084B
:1003B00010B5194C6068FFF72BFFD4E90010FFF768
:1003C0005BFFD4E90210FFF757FFD4E90410FFF7F1
:1003D00053FFD4E90610FFF74FFFD4E90810FFF7E9
:1003E0004BFFD4E90A10FFF747FFD4E90C10FFF7E1
:1003F00043FFD4E90E10FFF73FFFD4E91010FFF7D9
:100400003BFFD4E91210FFF737FF044805F07EF8F0
:10041000034805F015F810BD04000020CC5B00086F
:10042000215C000810B5194C6068FFF7F1FED4E9B3
:100430000010FFF721FFD4E90210FFF71DFFD4E9F8
:100440000410FFF719FFD4E90610FFF715FFD4E9F0
:100450000810FFF711FFD4E90A10FFF70DFFD4E9E8
:100460000C10FFF709FFD4E90E10FFF705FFD4E9E0
:100470001010FFF701FFD4E91210FFF7FDFE04484A
:1004800005F044F8034804F0DBFF10BD54000020E1
:10049000CC5B00083A5C000838B5254C4FF48072FC
:1004A00000216068FFF752FF4FF47A72206000214C
:1004B000E068FFF74BFF4FF47A72A060002160699B
:1004C000FFF744FF1B4D20612A460A21E069FFF730
:1004D0003DFF2A46A0610A21606AFFF737FF2A46DE
:1004E00020620A21E06AFFF731FF2A46A0620A2152
:1004F000606BFFF72BFF2A4620630A21E06BFFF7B2
:1005000025FF4FF49672A0634621606CFFF71EFF33
:100510004FF496720A212064E06CFFF717FFA06485
:10052000054804F0F3FF054804F08AFF38BD00BF1A
:1005300004000020A0860100CC5B00085A5C000883
:1005400038B5254C4FF4807200216068FFF7FEFE3D
:100550004FF47A7220600021E068FFF7F7FE4FF455
:100560007A72A06000216069FFF7F0FE1B4D2061E8
:100570002A460A21E069FFF7E9FE2A46A0610A211E
:10058000606AFFF7E3FE2A4620620A21E06AFFF76D
:10059000DDFE2A46A0620A21606BFFF7D7FE2A46DD
:1005A00020630A21E06BFFF7D1FE4FF49672A0633F
:1005B0004621606CFFF7CAFE4FF496720A21206450
:1005C000E06CFFF7C3FEA064054804F09FFF0548F8
:1005D00004F036FF38BD00BFA4000020A086010053
:1005E000CC5B0008745C000810B5174C6068FFF71E
:1005F0000FFED4E90010FFF73FFED4E90210FFF729
:100600003BFED4E90410FFF737FED4E90610FFF7EC
:1006100033FED4E90810FFF72FFED4E90A10FFF7E4
:100620002BFED4E90C10FFF727FED4E90E10FFF7DC
:1006300023FED4E91010FFF71FFE044804F066FF04
:10064000034804F0FDFE10BD54010020CC5B0008FF
:10065000975C000810B5174C6068FFF7D9FDD4E926
:100660000010FFF709FED4E90210FFF705FED4E9F8
:100670000410FFF701FED4E90610FFF7FDFDD4E9F1
:100680000810FFF7F9FDD4E90A10FFF7F5FDD4E9EA
:100690000C10FFF7F1FDD4E90E10FFF7EDFDD4E9E2
:1006A0001010FFF7E9FD044804F030FF034804F0A0
:1006B000C7FE10BD9C010020CC5B0008AD5C0008AB
:1006C00010B5224C4FF4807200216068FFF73EFEA7
:1006D0000A2220600121E068FFF738FE4FF47A72A9
:1006E000A06001216069FFF731FE4FF47A6220615A
:1006F0000121E069FFF72AFE4FF47A62A06101212F
:10070000606AFFF723FE42F2107220620021E06A65
:10071000FFF71CFE42F21072A0620021606BFFF72F
:1007200015FE642220630021E06BFFF70FFE032219
:100730000121A063606CFFF709FE2064044804F007
:10074000E5FE044804F07CFE10BD00BF540100200B
:10075000CC5B0008CA5C000810B5224C4FF48072D4
:1007600000216068FFF7F2FD0A2220600121E068A5
:10077000FFF7ECFD4FF47A72A06001216069FFF78A
:10078000E5FD4FF47A6220610121E069FFF7DEFDAB
:100790004FF47A62A0610121606AFFF7D7FD42F24F
:1007A000107220620021E06AFFF7D0FD42F2107261
:1007B000A0620021606BFFF7C9FD64222063002165
:1007C000E06BFFF7C3FD03220121A063606CFFF71C
:1007D000BDFD2064044804F099FE044804F030FE96
:1007E00010BD00BFE4010020CC5B0008E15C000804
:1007F00038B5124D124C284604F088FE0022A1683C
:10080000104804F0C1FE6068FFF702FDD4E9001053
:10081000FFF732FDD4E90210FFF72EFDD4E90410F2
:10082000FFF72AFDD4E90610FFF726FD284604F05D
:100830006DFE054804F004FE38BD00BFCC5B000827
:10084000F4000020015D0008105D000810B50D4C9B
:100850006068FFF7DDFCD4E90010FFF70DFDD4E977
:100860000210FFF709FDD4E90410FFF705FDD4E9F4
:100870000610FFF701FD044804F048FE034804F0A9
:10088000DFFD10BD14010020CC5B00082E5D0008C8
:1008900038B5114C4FF4807200216068FFF756FDA7
:1008A0000E4D20602A460021E068FFF74FFD2A46E2
:1008B000A06000216069FFF749FD0122002120614D
:1008C000E069FFF743FDA061054804F01FFE0548FD
:1008D00004F0B6FD38BD00BFF400002000286BEE28
:1008E000CC5B0008555D000838B5114C4FF48072A0
:1008F00000216068FFF72AFD0E4D20602A46002186
:10090000E068FFF723FD2A46A06000216069FFF739
:100910001DFD012200212061E069FFF717FDA061A4
:10092000054804F0F3FD054804F08AFD38BD00BF1A
:100930003401002000286BEECC5B0008745D0008D9
:1009400070B501240E4D2C7072B6FFF7A1FFFFF7B2
:10095000B7FEFFF7A1FD62B62E780A483EB904F053
:10096000D5FD094804F06CFD2C70304670BD04F0D4
:10097000CDFD064804F064FD26462C70F5E700BF67
:1009800000000020CC5B00089C5D0008B55D0008FD
:1009900070B51446C0B006460D464FF480726846E6
:1009A000074905F071F8204616F8012B013D424039
:1009B00015F0FF051DF80200F6D140B070BD00BF74
:1009C000CC5A000838B572B6144D00224C21284686
:1009D000FFF7DEFF044645F8040CFFF739FCFFF78C
:1009E000E7FCFFF7ADFD00224C210D48FFF7D0FFDB
:1009F00084420C4809D104F089FD0B4804F020FD25
:100A0000FFF732FC62B6012038BD04F07FFD0748D5
:100A100004F016FDFFF7CCFCF2E700BF0800002051
:100A2000A8000020CC5B0008F55D00081A5E0008F5
:100A300038B572B6244D002244212846FFF7A8FF9E
:100A40000446224804F062FD00222146204804F0BA
:100A50009BFD1E4804F05AFD002244211D4804F06D
:100A600093FD45F8044CFFF7F3FBFFF7BDFDFFF7DF
:100A700073FE002244211848FFF78AFF05461348F9
:100A800004F044FD00222946114804F07DFD0F4882
:100A900004F03CFD0F480022442104F075FDAC42F7
:100AA0000A4809D104F032FD0C4804F0C9FCFFF7F4
:100AB000DBFB62B6012038BD04F028FD084804F0D5
:100AC000BFFCFFF791FDF2E758010020CC5B000866
:100AD0004A5E0008555E0008E8010020615E0008DB
:100AE000835E000870B572B61C4D00221C2128469A
:100AF000FFF74EFF044645F8040CFFF7A9FBFFF78C
:100B000077FEFFF7F1FE164804F000FD6969002248
:100B10001448154D04F038FD114804F0F7FC00228C
:100B2000A969104804F030FD00221C21281DFFF7A0
:100B30002FFF84420A4809D104F0E8FC0B4804F076
:100B40007FFCFFF791FB62B6012070BD04F0DEFC74
:100B5000074804F075FCFFF74BFEF2E7F8000020B1
:100B6000CC5B0008D05D000834010020B05E0008B6
:100B7000DA5E000838B54A4804F0C8FC494804F079
:100B80005FFC72B6484DFFF763FB00224C212846FC
:100B9000FFF7FEFE044645F8040CFFF743FCFFF7A1
:100BA000CFFC00224C214148FFF7F2FE84423C4832
:100BB0005DD104F0ABFC3E4804F042FC3D4D002208
:100BC00044212846FFF7E4FE0446354804F09EFC25
:100BD00000222146384804F0D7FC314804F096FC46
:100BE00000224421354804F0CFFC45F8044CFFF7BF
:100BF00031FDFFF7B1FD002244213148FFF7C8FE67
:100C00000546274804F082FC002229462A4804F0C1
:100C1000BBFC234804F07AFC28480022442104F05D
:100C2000B3FCAC421E482AD104F070FC254804F005
:100C300007FC254D00221C212846FFF7A9FE04468B
:100C400045F8040CFFF702FEFFF74EFE00221C21C0
:100C50001E48FFF79DFE8442114818D104F056FC4F
:100C60001B4804F0EDFBFFF7FFFA62B638BD04F055
:100C70004DFC184804F0E4FBFFF7D4FB9EE704F0BA
:100C800045FC154804F0DCFBFFF7E4FCD1E704F079
:100C90003DFC124804F0D4FBFFF7D8FDE3E700BFAA
:100CA000CC5B0008DC5D000858000020A800002094
:100CB000F45D0008A0010020495E0008545E0008B1
:100CC000E8010020605E00081801002038010020C3
:100CD000AF5E0008195E0008825E0008D95E000859
:100CE000174918482DE9F04142F2107C00240E46C5
:100CF0000546154FB1F900E0B1F90420B1F90280C1
:100D0000A2EB0E020CFB02F2B1F906300134A3EBA8
:100D1000080392FBF3F3436003FB08F393FBF7F341
:100D2000072C7344C0F80080836001F1040100F1D6
:100D30000C00DFD1B6F91E306B65BDE8F08100BF55
:100D40002C020020F4070020F0D8FFFF114B10B553
:100D50001A6882421ADB194600220C6884420EDBB4
:100D6000CC6884420BDA0C2101FB023253685843F1
:100D700042F2107390FBF3F09368184410BD0132F7
:100D8000072A01F10C01E8D1C820F7E76FF009004C
:100D9000F4E700BFF40700202DE9F0415D4C064662
:100DA000206800F0DBFA0022276807EB07133901FF
:100DB000234410F802C015460132D2B2BCF1000F34
:100DC0001BD1CB19E01805443A200433287104EBF9
:100DD000030C701E10F8016FD5B296B92A46202177
:100DE0002B4423440F2A75D9102DC5F1100188BF5B
:100DF00000210D4405F0FF050EE01D4485F804C0F8
:100E0000D7E70F2D03D80CF802600132E2E7002388
:100E1000394421440A4413713F4804F077FB2946C2
:100E200000223E4804F0B0FB236803EB0311214489
:100E3000294400250133172B0D7123603ED90A2662
:100E40002F464FF02008284600F088FA002305EBD3
:100E500005112A01214410F803E09C460133DBB25E
:100E6000BEF1000F3BD13A20511921448C448CF83B
:100E7000040006EB0610204401EB030C9CF804C0B0
:100E8000BCF1000F2FD1581EC0B284465119043155
:100E900001442144BCF10F0F34D91028C3F11103D0
:100EA000DBB288BF00232A442244024401351344A4
:100EB0000E2D1F7106F10106C5D12560FFF702FA5C
:100EC000154804F023FB21680022BDE8F0411448D6
:100ED00004F05ABB013203F8011BD2B282E78C4402
:100EE0008CF804E0B7E700EB030C092D8CBF9CF8ED
:100EF00004C09CF805C001EB030E01338EF804C05A
:100F0000DBB2B9E70CF1010C01F8018B5FFA8CFC44
:100F1000C0E700BF78080020CC5B00080E5F000827
:100F2000135F00082DE9F8435E4C804620680E46AA
:100F300000F014FA0022276807EB07133901234455
:100F400010F802C015460132D2B2BCF1000F1DD11B
:100F5000CB19E018054404332E7108F1FF3004EB7F
:100F6000030E10F801CFD5B2BCF1000F12D12A4602
:100F700020212B4423440F2A75D9102DC5F11001CF
:100F800088BF00210D4405F0FF050EE01D4485F8E3
:100F900004C0D5E70F2D03D80EF802C00132E0E7F8
:100FA0000023394421440A4413713F4804F0AEFA47
:100FB000294600223D4804F0E7FA236803EB0311B9
:100FC0002144294400250133172B0D7123603ED99C
:100FD0000A27A8464FF02009284600F0BFF9002351
:100FE00005EB05112A01214410F803E09C4601336A
:100FF000DBB2BEF1000F3BD1511921448C4407EB09
:1010000007108CF80460204401EB030C9CF804C02A
:10101000BCF1000F30D1581EC0B2844651190431C2
:1010200001442144BCF10F0F35D91028C3F111033D
:10103000DBB288BF00232A44224402440135134412
:101040000E2D83F8048007F10107C5D12560FFF755
:1010500039F9154804F05AFA21680022BDE8F8432E
:10106000134804F091BA013203F8011BD2B282E7AF
:101070008C448CF804E0B7E700EB030C092D8CBF1F
:101080009CF804C09CF805C001EB030E01338EF8F8
:1010900004C0DBB2B8E70CF1010C01F8019B5FFA68
:1010A0008CFCBFE778080020CC5B00080E5F0008CE
:1010B000135F0008002384B00128009301D1009041
:1010C00004E00228FBD003281AD01CD8124B9A68DF
:1010D0000192019A02929A6803920399029A9142AC
:1010E00004D35A6801990A4401320192039A029288
:1010F000019A03980099121A8A42ECD304B07047FF
:1011000012230093E2E7054B054A1B680338B3FB43
:10111000F2F35843D3E700BF10E000E08C02002058
:1011200040420F0007B50190019B13B903B05DF871
:1011300004FB4FF47A70FFF7BDFF019B013B019365
:10114000F2E7000038B5684C684D204604F0DEF93F
:1011500029680022664804F017FA204604F0D6F900
:10116000A9680022634804F00FFA204604F0CEF983
:1011700029690022604804F007FA204604F0C6F905
:10118000A96900225D4804F0FFF9204604F0BEF989
:10119000296A00225A4804F0F7F9204604F0B6F90B
:1011A000A96A0022574804F0EFF9204604F0AEF98E
:1011B000296B0022544804F0E7F9204604F0A6F910
:1011C000A96B0022514804F0DFF9204604F09EF993
:1011D000296C00224E4804F0D7F9204604F096F915
:1011E000A96C00224B484C4D04F0CEF93220FFF799
:1011F00099FF204604F08AF929680022474804F044
:10120000C3F9204604F082F9A9680022444804F09A
:10121000BBF9204604F07AF929690022414804F01C
:10122000B3F9204604F072F9A96900223E4804F09F
:10123000ABF9204604F06AF9296A00223B4804F021
:10124000A3F9204604F062F9A96B0022384804F0A3
:101250009BF9204604F05AF9A96A0022354804F0A7
:1012600093F9204604F052F9296B0022324804F029
:101270008BF9204604F04AF9296C00222F4804F02B
:1012800083F92F4D3220FFF74DFF204604F03EF941
:10129000296800222B4804F077F9204604F036F93B
:1012A000A9680022284804F06FF9204604F02EF9BE
:1012B00029690022254804F067F9204604F026F940
:1012C000A9690022224804F05FF9204604F01EF9C3
:1012D000204B21481968002204F056F9BDE8384037
:1012E0003220FFF71FBF00BF175F00080400002077
:1012F0001E5F0008315F00084F5F00086E5F000846
:101300008B5F0008A95F0008C65F0008E45F000863
:1013100002600008206000085401002038600008C6
:101320004C60000865600008726000087F6000087B
:101330008C6000089A600008AC600008BF6000087C
:10134000F4000020DC600008F8600008206100085C
:10135000426100088C0200204E610008F0B50023B5
:101360000A2780EAE07185B0A1EBE0711C46B1FB71
:10137000F7F604AD2C4407FB1615303504F8105C65
:101380000C46DAB2531C092C31465BB2EEDC002865
:1013900006DA04A90B442D21023203F8101C53B2C3
:1013A000002104AA1A4402F8101C1A46084CD0B2B4
:1013B000191A49B21AB90648625405B0F0BD04AD15
:1013C0002A4412F8112C6254421E52B2EFE700BFB9
:1013D0004C070020F0B5044600234FF00A0C0846E5
:1013E00084EAE47185B0A1EBE4711D46B1FBFCF722
:1013F00004AE35440CFB1716303605F8106C0D465C
:10140000DAB2531C092D39465BB2EEDC002C06DA49
:1014100004A90B442D21023203F8101C53B2002101
:1014200004AA1A4402F8101C1A46D4B2191B49B275
:10143000451812B92A7005B0F0BD04AD2A4412F85F
:10144000112C4254621E52B2EFE7000000224FF00E
:101450000A0CF0B580EAE0748BB0A4EBE07415469A
:10146000B4FBFCF70AAE35440CFB1746303605F8E2
:10147000286C2546D3B25A1C092D3C4652B2EEDCEC
:10148000012A0AAC1444D7BF3022002304F8282CC8
:101490009A1CD4BF52B204F8283C022A08DC012965
:1014A00006D930240AAB1344013203F8284C52B257
:1014B00000242E26234665B2AA4212DC002806DA52
:1014C0000AA95A1C0B442D2103F8141C53B21A46C6
:1014D000114CD0B2191A49B2B2B90F4862540BB0CC
:1014E000F0BD8B421D4605D10AAF01333D445BB2CE
:1014F00005F8146C1DF804700AAD1D44013305F89D
:10150000147C5BB20134D6E70AAD2A4412F8152CDC
:101510006254421E52B2DCE75C070020F0B505467B
:1015200000244FF00A0E084685EAE5718BB0A1EB66
:10153000E5712646B1FBFEFC0AAF3E440EFB1C17CC
:10154000303706F8287C0E46E3B25C1C092E614653
:1015500064B2EEDC012C0AA92144D7BF3024002359
:1015600001F8284C9C1CD4BF64B201F8283C022C22
:1015700008DC012A06D930210AAB2344013403F8E0
:10158000281C64B200212E270B464EB2A64211DB66
:10159000002D06DA0AA95A1C0B442D2103F8141C4D
:1015A00053B21A46D4B2191B49B24518B2B92A70BF
:1015B0000BB0F0BD93421E4606D10DF1280C01334D
:1015C00066445BB206F8147C1DF801C00AAE1E44E6
:1015D000013306F814CC5BB20131D6E70AAD2A44D8
:1015E00012F8152C4254621E52B2DBE7002802D0DA
:1015F000DCBF404200B2704702460023D8B2115C03
:1016000001330029FAD1704770B505460024104611
:1016100062B2AB5C661C43B95AB28D5CE21852B23E
:101620008618013325B9357070BD34468354EFE711
:101630008554F1E7F0B504460F461846002569B217
:10164000635C6E1C83B9DEB2F95C74195FFA84FCCA
:1016500064B261B94BB2D45C0CEB01035BB2C51848
:10166000013144B92C70F0BD35464354E7E7731C93
:1016700001555BB2E7E7C454ECE72DE9F0410746BA
:101680004FF4616086B00C46B7FBF0F001A9FFF79C
:10169000A1FE01A8FFF7B0FF012896BF012200229A
:1016A0003023154698BF2370EEB2B31A06A95BB279
:1016B0000B4413F8141C6319751C6DB2002949D131
:1016C0003A221A703C23B7FBF3F2B2FBF3F001A904
:1016D00003FB1020FFF77EFE01A8FFF78DFF012816
:1016E0009FBF30236355B51C6DB22E465FFA86F856
:1016F000A8EB050306AA5BB2134413F8142CA31934
:1017000008F1010676B23ABB3A221A703C23B7FBC5
:10171000F3F001A903FB1070FFF75CFE01A8FFF7CF
:101720006BFF01289CBF3023A3554FF000039CBFE3
:1017300008F1020676B25AB206A90A4412F8141C3D
:101740009A1952B2A018013341B90170204606B06F
:10175000BDE8F0811970A7E71A70C7E7A154EAE75E
:10176000F0B506464FF4616087B00C46B6FBF0F06A
:1017700001A9FFF72FFE01A8FFF73EFF012896BF42
:10178000012200223023154698BF2370EFB2BB1A06
:1017900006A95BB20B4413F8141C63197D1C6DB2CF
:1017A00029BB3A221A703C23B6FBF3F6B6FBF3F0E2
:1017B00001A903FB1060FFF70DFE01A8FFF71CFF56
:1017C00001289CBF302363554FF000039CBFBD1C14
:1017D0006DB25AB206A90A4412F8141C5A1952B230
:1017E000A018013329B90170204607B0F0BD197067
:1017F000CCE7A154EDE700000C494B680A688B6008
:101800009342C1E9000205DC834209DC9042A8BF93
:1018100010467047824203DC9842A8BF18467047C2
:101820009342A8BF13461846704700BF1007002018
:101830000C494B680A688B609342C1E9000205DCE1
:10184000834209DC9042A8BF10467047824203DC05
:101850009842A8BF184670479342A8BF134618463F
:10186000704700BF1C0700200C494B680A688B605A
:101870009342C1E9000205DC834209DC9042A8BF23
:1018800010467047824203DC9842A8BF1846704752
:101890009342A8BF13461846704700BF2807002090
:1018A0000C494B680A688B609342C1E9000205DC71
:1018B000834209DC9042A8BF10467047824203DC95
:1018C0009842A8BF184670479342A8BF13461846CF
:1018D000704700BF340700200C494B680A688B60D2
:1018E0009342C1E9000205DC834209DC9042A8BFB3
:1018F00010467047824203DC9842A8BF18467047E2
:101900009342A8BF13461846704700BF4007002007
:101910007047704770477047014B1868704700BFA9
:101920004C020020094B10B598420DD060B1084A16
:10193000084C126820600AB11830904723681B6970
:1019400013B1BDE81040184710BD00BF606100082A
:10195000700700204C020020024B1860024B1868F0
:10196000FFF7E0BF700700204C020020044B054A3F
:101970001B68934203D013B15B6903B118477047EA
:101980004C020020606100084FF4804310B5064C03
:1019900002202361FFF78EFB4FF08043022023617A
:1019A000BDE81040FFF786BB000C014070B54FF05A
:1019B0007C454FF480560D4C25612661FFF7E4FF0E
:1019C0000120FFF7AFFB25612661FFF7DDFF012056
:1019D000FFF7A8FB4FF4806325612361FFF7D4FF75
:1019E000BDE870400120FFF79DBB00BF000C014027
:1019F0004FF07C42244B70B504460D461A6111B17C
:101A00004FF400421A61E20644BF4FF400521A61DB
:101A100014F0200F18BF4FF480521B4B18BF1A61EF
:101A2000660644BF4FF400621A6114F0800F18BFBD
:101A30004FF48063144E18BF3361FFF7A5FF4FF0DA
:101A40007053E007336144BF4FF400533361A10783
:101A500042BF4FF480520C4B1A61620742BF4FF4F1
:101A60000062094B1A61230742BF4FF48062064BA4
:101A70001A61FFF789FF0220FFF754FB1DB14FF0F9
:101A80000042014B1A6170BD000C0140C00040F0E3
:101A9000400038B500F0F8000C460021FFF7A8FF21
:101AA000651E073415F8010F0121FFF7A1FFA542BC
:101AB000F8D1BDE8384000218020FFF799BF000031
:101AC00073B51F4C1F4D69460020CDE900451E4EE1
:101AD000FFF7DCFF1D4B69460120CDE90036FFF71B
:101AE000D5FF1B4B6946CDE900350220194DFFF7A4
:101AF000CDFF69460320CDE90056FFF7C7FF6946D1
:101B00000420CDE90054FFF7C1FF134A134B694687
:101B10000520CDE90023FFF7B9FF114B114906203D
:101B2000CDE900136946FFF7B1FF0F4B0F48694637
:101B3000CDE900030720FFF7A9FF02B070BD00BF89
:101B400004150E0400041F1F0000041F150E0400DE
:101B500000040E15040E15040207070A0A1C1C08CF
:101B6000051509000F050505010101001111111FDF
:101B7000064A1070064A117019B940F08000FFF74C
:101B800037BF002140F0C000F9E700BF7407002014
:101B90007507002070B505460E460446207800B94A
:101BA00070BD0121FFF724FF012E07D1631BDBB2BB
:101BB000072B03D131460020FFF7DAFF0134EDE7B0
:101BC0000121C0B2FFF714BF2DE9F8430D46DFF83D
:101BD00078801B4E1B4F441E14F8010F08B9BDE856
:101BE000F883B22819D101214920FFF701FF33788A
:101BF00097F800900133DBB23370B9F1000FEBD1ED
:101C0000082BE9D1022DE7D101214846FFF7B0FFAB
:101C1000012386F800903B70DEE7AF2802D1012156
:101C20000320E2E7AA2802D101210220DDE7BF2834
:101C300089BF40440121012110F8C00CD5E700BF45
:101C400074070020750700205002002000210120A9
:101C5000FFF7CEBE08B56420FFF764FAFFF7A6FED3
:101C600000210E20FFF7C4FEBDE80840FFF7EEBFDD
:101C70000221FFF7A9BF10B5044608461146FFF739
:101C800077FF2046BDE810400221FFF79DBF08B551
:101C9000FFF7E0FFFFF7DAFFBDE8084000210C2066
:101CA000FFF7A6BE054B82B09A6902439A619B6911
:101CB00018400190019B02B0704700BF0010024025
:101CC0000022014B1A807047DE07002008B5FEF79E
:101CD00079FEBDE808400148FFF75EB8786100086A
:101CE00010B53B4C94F9001061B90846FFF740FF6E
:101CF0003848FFF7BDFF4FF48762374B9A6140F2D7
:101D0000B4521A6294F90030012B0DD1002108461B
:101D1000FFF72EFF3148FFF7ABFF4FF496722E4BC3
:101D20009A614FF4D2721A6294F90030022B0DD1ED
:101D300000210846FFF71CFF2948FFF799FF4FF4E1
:101D40008C72254B9A614FF4B9721A6294F9003083
:101D5000032B0CD100210846FFF70AFF2148FFF7AB
:101D600087FFA0221C4B9A614FF48C721A6294F97F
:101D70000030042B0DD100210846FFF7F9FE1A4868
:101D8000FFF776FF4FF44872134B9A614FF4AA6243
:101D90001A6294F90030052B0CD100210846FFF798
:101DA000E7FE1248FFF764FF64220B4B9A614FF481
:101DB000FA621A6294F90030062B04BF00232370E4
:101DC000FEF736FEBDE810404FF41670FFF7AAB9D3
:101DD0008F070020846100085401002095610008ED
:101DE000A6610008B7610008C8610008D961000851
:101DF000FEF71EBE08B501210720FFF7B9FE01213D
:101E0000FF20FFF7F5FDFEF713FE044BC8209A688C
:101E1000034B1A60BDE80840FFF784B95401002065
:101E20001C0A002008B501210720FFF7A1FE0121AF
:101E3000FF20FFF7DDFDFEF7FBFD044BC8201A6C09
:101E4000034B1A60BDE80840FFF76CB9540100204D
:101E5000140A002018B100221146FFF70CBF70478A
:101E600049F6AF2310B50E4C90B022689A4215D9AE
:101E70000C4B0BA91868FFF773FC4FF461632068E3
:101E800001A9B0FBF3F0FFF7A5FA074906AB0BAACF
:101E9000FFF7D0FB022106A8FFF744F810B010BDF1
:101EA0007C07002094070020EA61000810B5164C5A
:101EB000164890B003F02AFB00222168144803F072
:101EC00063FB49F6AF2322689A421BD9114B0BA939
:101ED0001868FFF745FC4FF46163206801A9B0FB67
:101EE000F3F0FFF777FA06AB0BAA0B49FFF7A2FB5B
:101EF000012106A8FFF716F8044803F007FB06A81F
:101F000003F09EFA10B010BD78070020CC5B0008EB
:101F1000EE61000888070020EA61000808B5012189
:101F20000720FFF725FEBDE808400121FF20FFF74D
:101F30005FBD00004FF0007170B591FAA1F1B1FAE8
:101F400081F3104C00F00071D9404FF0F87254F852
:101F5000215000F0F87092FAA2F3B3FA83F392FAE8
:101F6000A2F20726B2FA82F220FA03F306FA03F38A
:101F7000D04025EA030306FA00F0184344F8210094
:101F800070BD00BF0C2401404FF4407330B593FA8C
:101F9000A3F3B3FA83F31F24084D00F44072DA4030
:101FA00055F8223000F01F00844001F01F0123EAA1
:101FB00004038140194345F8221030BD2C24014010
:101FC000002070470122002110B51F4B1F4C1A70D2
:101FD0000228084608BF2378FFF7CAFD1C4B0221E0
:101FE000188880B2FFF732FAFFF742FE1948FFF770
:101FF0003FFE194B188800B2FFF7B0F9FFF738FE23
:102000001648FFF735FE237801210620144C7BB9D2
:10201000FFF7AEFD01210220FFF7D2FD01210220D2
:10202000FFF7CEFD23780A2B84BF0023237010BD59
:102030002378052BECD9FFF79BFD01210320FFF747
:10204000BFFD01210320EBE79C0700209E07002035
:102050006C080020F661000856080020F9610008AD
:1020600085070020002310B596B00446084611A944
:102070008DF804208DF80530FFF772FB4FF4616096
:1020800002A9B4FBF0F0FFF7A5F907AB11AA0749C5
:10209000FFF7D0FA0CAA07A901A8FFF7B5FA0421A7
:1020A0000CA8FEF73FFF16B010BD00BFEA610008A4
:1020B000022838B51E4C1F4D2AD123882A680133C7
:1020C0001BB29342238001D30023238000210846C2
:1020D000FFF74EFD2868B4F900300138C01A00EB54
:1020E000001004302844FFF7C3FD134803F00EFA34
:1020F000B4F900100022114803F046FA0E4803F02C
:1021000005FA29680022BDE838400D4803F03CBAC2
:102110000128DBD12388013B1BB2002B2380D5DAB9
:102120002B68013B1BB2002B2380CDDBCEE700BF29
:10213000DE07002078080020CC5B00080062000861
:102140000D620008002110B504460846FFF710FD97
:102150000A4B188800B2FFF701F9FFF789FD08481C
:10216000FFF786FD022C08D1BDE81040054B064A5A
:102170001B881BB29360FEF725BC10BD56080020DB
:1021800020620008E807002004000020002110B5AC
:1021900004460846FFF7ECFC0A4B188800B2FFF72C
:1021A000DDF8FFF765FD0848FFF762FD022C08D156
:1021B000BDE81040054B064A1B881BB21361FEF7B1
:1021C00001BC10BD560800202062000858080020FD
:1021D00004000020002110B504460846FFF7C8FCA3
:1021E0001F48FFF745FD022C30D1FEF7C3FCFEF778
:1021F000A7FB002104460846FFF7BAFC1948FFF781
:1022000037FD4FF4FA60FEF78DFF00210846FFF717
:10221000AFFC012C1BD11448FFF72AFD1348FEF731
:10222000BBFD4FF4FA60FEF77DFF114B1A69114BAD
:102230001A604FF46162104B19694A430F490A60F2
:1022400099680F4A11601A6C0E4B1A6010BD0E4847
:10225000FFF70EFDBDE810404FF47A60FEF762BF55
:102260002F620008406200085162000862620008A4
:10227000F40000208007002054010020180A0020EC
:102280001C0A0020140A002071620008022810B500
:102290000E4C15D123690133236100210846FFF755
:1022A00067FC2069FFF75AF8FFF7E2FC0848FFF7E0
:1022B000DFFC4FF4616322695343064A136010BD8B
:1022C0000128EAD12369013BE6E700BF5401002061
:1022D00082620008180A002010B5334C022894F9D5
:1022E00000300DD101335BB2072B0FD100232370D7
:1022F00000210846FFF73CFC2C48FFF7B9FC0AE038
:10230000012804D1013B5BB2002B10DB237094F950
:102310000030002BECD094F90030012B09D10021C2
:102320000846FFF725FC2248FFF7A2FC01E0062340
:10233000237094F90030022B06D100210846FFF7E4
:1023400017FC1C48FFF794FC94F90030032B06D1CE
:1023500000210846FFF70CFC1748FFF789FC94F9A9
:102360000030042B06D100210846FFF701FC13487A
:10237000FFF77EFC94F90030052B06D100210846BA
:10238000FFF7F6FB0E48FFF773FC94F90030062BBD
:1023900008D100210846FFF7EBFBBDE810400948D3
:1023A000FFF766BC10BD00BF8F07002087620008E2
:1023B00098620008AA620008BB620008CB620008AD
:1023C000DC620008EC620008022810B50D4C14D144
:1023D000A3690A33A36100210846FFF7C9FB0A235A
:1023E000A0690121B0FBF3F0FFF730F8FFF740FCE4
:1023F000BDE810400448FFF73BBC0128EBD1A369BE
:102400000A3BE7E754010020A1610008022810B54B
:102410000D4C14D1236A0A33236200210846FFF7CA
:10242000A7FB0A23206A0121B0FBF3F0FFF70EF8A7
:10243000FFF71EFCBDE810400448FFF719BC012857
:10244000EBD1236A0A3BE7E754010020A1610008B1
:10245000022810B50B4C10D1A36A0133A3620021EE
:102460000846FFF785FBA06AFEF778FFFFF700FC40
:10247000BDE810400448FFF7FBBB0128EFD1A36A79
:10248000013BEBE754010020FC620008022810B574
:102490000B4C10D1236B0133236300210846FFF757
:1024A00067FB206BFEF75AFFFFF7E2FBBDE8104029
:1024B0000448FFF7DDBB0128EFD1236B013BEBE7BD
:1024C00054010020FC620008022838B51A4C2DD1B6
:1024D000A36B0133A36300210A250846FFF748FBDD
:1024E000A06BFEF73BFFFFF7C3FB1448FFF7C0FBF1
:1024F000206A0121B0FBF5F0FEF7A8FFFFF7B8FB5B
:102500000F48FFF7B5FB6422236AA06B01215843F3
:10251000B0FBF2F0181AB0FBF5F0FEF797FFFFF7EB
:10252000A7FBBDE838400748FFF7A2BB0128D2D17E
:10253000A36B013BCEE700BF5401002005630008F8
:10254000F6610008A1610008044B9A68044B1B68FF
:102550009A4201D1FFF7E2BC704700BF540100204E
:102560001C0A0020044B1A6C044B1B689A4201D1D0
:10257000FFF7D4BC704700BF54010020140A0020AC
:10258000002110B504460846FFF7F2FA022C1F4B53
:102590000DD19A68072A02F1010127D101229A6020
:1025A0001B48FFF765FBBDE81040FFF7CDBF012CCE
:1025B00003D19A68013A15D09A609A68013A062ABE
:1025C00020D801A151F822F0A1250008F12500082A
:1025D000F5250008F9250008FD250008012600085A
:1025E000E925000807229A600A48DAE79960E4E7DB
:1025F0000948D6E70948D4E70948D2E70948D0E7AF
:102600000948CEE701229A6010BD00BF54010020A6
:10261000086300086E630008196300082A63000855
:102620003B6300084C6300085D630008002110B59F
:1026300004460846FFF79CFA022C144B0DD11A6C85
:10264000032A02F101011CD101221A641048FFF78C
:102650000FFBBDE81040FFF785BF012C03D11A6CBA
:10266000013A0AD01A641A6C022A0CD0032A06D046
:10267000012AEBD001221A6410BD03221A64054816
:10268000E5E71964EFE70448E1E700BF54010020E3
:102690007F630008A163000890630008154B16498A
:1026A0009A6812F0100F0CD09A68900616D59A68A6
:1026B000520615D59B68DB4313F0800312D10B80C3
:1026C0007047032240F2DC50B1F9003083420BDD49
:1026D00040F2B4530B80094B1A700AE00222F1E772
:1026E0000122EFE70422EDE701331BB2142B0B802C
:1026F000F1D07047000C0140DC070020E00700200B
:10270000044B187810B10021034A116000221A709E
:10271000704700BFE0070020A00700200022034B05
:102720001A600122024B1A70704700BFCC070020CC
:10273000A507002038B504464FF46160B4FBF0F003
:10274000FEF70CFE0546FEF757FF012803D80121CE
:102750001148FFF71FFA01212846FFF71BFA012154
:102760000E48FFF717FA3C23B4FBF3F4B4FBF3F085
:1027700003FB1040FEF7F2FD0446FEF73DFF012883
:1027800003D801210448FFF705FA2046BDE8384088
:102790000121FFF7FFB900BFB2630008C36400085E
:1027A0004FF40032064B1A614FF08072A3F580633C
:1027B0001A610023034A1370034A1370704700BF65
:1027C000000C01409E070020A407002008B5FFF779
:1027D000E7FFBDE808403220FEF7A4BC38B501226F
:1027E0000546154B154C1A70FFF7F0FF022D1ED150
:1027F000236A0133236200210846FFF7B9F9206AF2
:10280000FEF7ACFDFFF734FA0D48FFF731FA01216E
:102810000020FFF7ADF90B4B188800B2FEF79EFDC4
:10282000FFF726FABDE838400748FFF721BA012D27
:10283000E1D1236A013BDDE79C0700200400002072
:102840009D63000856080020B463000808B50C4BCF
:1028500093F90020022A11D002221A70FFF7A0FF7C
:102860000022084B32201A60FEF75CFC064802F09A
:102870004DFEBDE80840054802F0E2BD08BD00BFBE
:1028800086070020C8070020CC5B0008B963000859
:1028900001212DE9F8438A4D8A4E2B788A4A3170FE
:1028A0004BB92970894913700B7089490B7089499C
:1028B0000B6089490B60894F89493B889BB20B802B
:1028C00088498C698846A342C0F0F180002386497C
:1028D0001370864B09681B68DFF8F4915B1A032BB1
:1028E00006D9137823B1FFF75BFF002389F8003086
:1028F00002287F4C52D17F4B1B78002B4AD1FFF727
:1029000065FF012389F8003094F9001049BB08469F
:10291000FFF72EF93888022180B2FEF797FDFFF706
:10292000A7F97548FFF7A4F9744B754F188800B2E2
:10293000FEF714FDFFF79CF97248FFF799F96D4B0C
:1029400001211B780720002B40F0A880FFF710F929
:1029500001210220FFF734F93B780A2B84BF0023C2
:102960003B7094F90070012F23D100210846FFF736
:10297000FFF86548FFF77CF90A23D8F818003946B4
:10298000B0FBF3F0FEF762FDFFF772F95F48FFF767
:102990006FF90EE0FFF704FF0023B3E70128B3D17E
:1029A0002378013B5BB2002B01DB2370ACE70323F0
:1029B000237094F90030022B1BD100210846FFF749
:1029C000D7F85348FFF754F9524B98684FF46163B6
:1029D000B0FBF3F0FEF7C2FCFFF74AF94E48FFF7F1
:1029E00047F903200121FFF7C3F84C4B1868FFF7A4
:1029F000A1FE94F90070384C032F1AD1002108462B
:102A0000FFF7B6F84648FFF733F9324B18684FF432
:102A10006163B0FBF3F0FEF7A1FCFFF729F9414831
:102A2000FFF726F938460121FFF7A2F82068FFF7E3
:102A300081FE3D4802F06AFD297800223B4802F001
:102A4000A3FD394802F062FD31780022384802F0D7
:102A50009BFD354802F05AFD1C4B00221978354881
:102A600002F092FD304802F051FD334B002219680C
:102A7000324802F089FD2C4802F048FD99F8001018
:102A800000222F4802F080FD274802F03FFD216818
:102A90000022BDE8F8432B4802F076BD3B78052BB9
:102AA0007FF654AFFFF764F80121032052E7137853
:102AB0001BB90E4B19680C4B1960012307E700BFC7
:102AC0009D0700209C070020840700208707002026
:102AD000900700207C070020940700206C0800204D
:102AE000D007002054010020D4070020E407002074
:102AF0008D0700209E070020F66100085608002080
:102B000085070020C3630008CC630008A1610008AA
:102B1000D8630008F4000020DB6300089807002059
:102B200084640008E4630008CC5B0008ED630008DF
:102B3000FB63000810640008880700202564000873
:102B4000356400084D640008F0B5344D34492B88D5
:102B500091B09BB2B3F5C86F5DD2324B1B68062BA8
:102B600059D9314B314C9B6803F00103A361FFF746
:102B700017FE0B78002B4CD101232D4E0B703368C0
:102B80002361FDF7AFFF2B4802F0C0FC0222216950
:102B9000294802F0F9FC49F6AF2332689A4215D968
:102BA000264B0BA91868FEF7DBFD4FF46163206923
:102BB00001A9B0FBF3F0FEF70DFC214906AB0BAA0F
:102BC000FEF738FD022106A8FEF7ACF90A202B8893
:102BD00001229BB2B3FBF0F001A9FEF79FFC06AA0D
:102BE00001461848FEF710FDFEF7D6F80524114FF0
:102BF000154E384602F08AFC29880222304689B2F6
:102C000002F0C2FC013C0A20FEF78CFA14F0FF042B
:102C1000EFD111B0F0BD00230B70FAE7540800208B
:102C200071020020E4070020000C0140F4000020A5
:102C30007C070020CC5B000860640008940700203B
:102C4000EA610008656400086F6400080222064B10
:102C50001A610123054A1370054A13704FF48072FC
:102C6000044B1A61704700BF000C01409E07002012
:102C7000A407002000080140084908B50A68022A94
:102C800004D1FFF7E3FF01230B6008BD032AFCD149
:102C9000034B9B69012BF8D1F3E700BF74020020BE
:102CA000F40000200021012238B5264B05460846D5
:102CB0001A70FEF75DFF244B0221188880B2FEF7E0
:102CC000C5FBFEF7D5FF2148FEF7D2FF0021072004
:102CD000FEF74EFF1E4B1A8812B2B2F57A7F1CDA4D
:102CE000188800B2FEF73AFBFEF7C2FF19481A4CEB
:102CF000FEF7BEFF22780121DAB90520FEF738FF82
:102D00001648FEF7B5FF022D03D12378B3B9FFF7BC
:102D10009DFFBDE83840FFF7AFBF0A201B880221A6
:102D20001BB293FBF0F0FEF791FBFEF7A1FF0C48FE
:102D3000DDE70620FEF71CFF0A48E2E7FFF730FD5B
:102D4000E7E700BF9C0700206C0800207F640008B4
:102D500056080020F96100089E0700206A640008F8
:102D6000BB640008836400080122164B10B51A707A
:102D7000FFF76CFF0228144C1ED1A3690133A36135
:102D800000210846FEF7F4FEA069FEF7E7FAFEF719
:102D90006FFF0E48FEF76CFF01210020FEF7E8FEF2
:102DA0000B4B188800B2FEF7D9FAFEF761FFBDE8B9
:102DB00010400848FEF75CBF0128E1D1A369013B40
:102DC000DDE700BF9C070020040000209D63000891
:102DD00056080020B46300080122164B10B51A7083
:102DE000FFF734FF0228144C1FD1A36A0133A362FA
:102DF00000210846FEF7BCFEA06AFEF7AFFAFEF718
:102E000037FF0E48FEF734FF01210020FEF7B0FE29
:102E10000B4B0221188880B2FEF718FBFEF728FF43
:102E2000BDE810400748FEF723BF0128E0D1A36AA0
:102E3000013BDCE79C070020040000209D630008A4
:102E4000740800207F6400080122164B10B51A7028
:102E5000FFF7FCFE0228144C1FD1236B01332363C0
:102E600000210846FEF784FE206BFEF777FAFEF796
:102E7000FFFE0E48FEF7FCFE01210020FEF778FE63
:102E80000B4B0221188880B2FEF7E0FAFEF7F0FE45
:102E9000BDE810400748FEF7EBBE0128E0D1236BE8
:102EA000013BDCE79C070020040000209D63000834
:102EB0006C0800207F6400080122164B10B51A70C0
:102EC000FFF7C4FE0228144C1FD1A36B0133A36388
:102ED00000210846FEF74CFEA06BFEF73FFAFEF716
:102EE000C7FE0E48FEF7C4FE01210020FEF740FE9B
:102EF0000B4B0221188880B2FEF7A8FAFEF7B8FE45
:102F0000BDE810400748FEF7B3BE0128E0D1A36B2F
:102F1000013BDCE79C070020040000209D630008C3
:102F2000540800207F64000801222A4B70B51A70F3
:102F3000FFF78CFE0228284E42D1338801333380BC
:102F400000210846FEF714FE02213088FEF77EFAC3
:102F5000224D234CFEF78CFE2248FEF789FE2B887B
:102F600022889BB212B2002A2FDD328820889B1A59
:102F700002B242F210701BB223EAE373434393FBA5
:102F8000F2F0194E3064FEF7E9F9FEF771FE1748CA
:102F9000FEF76EFE164B1B882A8821889BB209B269
:102FA000002992B213DD9B1A42F210721BB223EA7F
:102FB000E3735343218809B293FBF1F3B36470BD0B
:102FC0000128BDD13388013BB9E74620D9E70A2360
:102FD000F4E700BF9C07002078020020B202002026
:102FE00056080020F66100080400002087640008ED
:102FF0007408002000212DE9F04101272B4B2C4DB6
:10300000064608461F70FEF7B3FD2B78294C03F0E7
:10301000FF0833BB284B0221188880B2FEF716FA4E
:10302000FEF726FE2548FEF723FE41460720FEF761
:103030009FFD208800B2FEF791F9FEF719FE2048A7
:10304000FEF716FE05203946FEF792FD1D48FEF7F5
:103050000FFE022E27D12B780BBBBDE8F041FFF706
:10306000F5BD194B0221188880B2FEF7EFF9FEF783
:10307000FFFD1248FEF7FCFD00210720FEF778FD5A
:10308000208800B2FEF76AF9FEF7F2FD0F48FEF75E
:10309000EFFD06203946FEF76BFD0D48D7E7BDE88A
:1030A000F041FFF77DBBBDE8F08100BF9C07002029
:1030B0009E07002056080020740800207F64000846
:1030C000926400086A6400086C080020F961000836
:1030D0008364000808B5FFF7B9FDBDE80840322059
:1030E000FEF720B801222DE9F84F994E994B34781C
:1030F00082469846984DDFF8D092984F1A7034BBAC
:10310000974B1A88974B92B21B6A05339A4215D295
:1031100021462046FEF72CFD9348FEF7A9FD4FF40B
:10312000FA60FDF7FFFF21462046FEF721FD8F489C
:10313000FEF79EFD40F6B830FDF7F4FF00238C4A01
:103140002B7089F80030136001223B603270894B8C
:103150003A681B689A4206D8874B824A1B88126AD3
:103160009BB2934203D9FFF71BFB00232B70FFF7A1
:1031700083FDBAF1020F814C6BD1814B1B78002B80
:1031800063D1FFF7A7FF01232B7094F900100029EA
:1031900036D10846FEF7ECFC794BDFF8DCA11A7853
:1031A0009B46002A40F0B5806D4B0221188880B202
:1031B000FEF74CF9FEF75CFD7248FEF759FDBAF8D0
:1031C0000000022180B2FEF741F9FEF751FD6E4882
:1031D000FEF74EFD9BF8003001210720DFF8ECA13F
:1031E000002B40F0AA80FEF7C3FC01210020FEF76F
:1031F000E7FC9AF800300A2B84BF00238AF80030DD
:1032000094F900A0BAF1010F2FD10021DFF854B1D9
:103210000846FEF7ADFC5D48FEF72AFDDBF810001E
:10322000FEF79CF8FEF724FD5948FEF721FD0A231E
:10323000DBF820005146B0FBF3F0FEF707F9FEF78C
:1032400017FD5448FEF714FD0FE0FFF7A9FA00231D
:103250009AE7BAF1010F98D12378013B5BB2002BBA
:1032600001DB237091E70223237094F90030022BD5
:103270001AD100210846FEF77BFC4748FEF7F8FC10
:103280003B4B18684FF46163B0FBF3F0FEF766F850
:10329000FEF7EEFC4148FEF7EBFC03200121FEF7B0
:1032A00067FC3868FFF746FA3D4802F02FF931789D
:1032B00000223C4802F068F9394802F027F998F8F2
:1032C00000100022384802F05FF9354802F01EF97C
:1032D00029780022354802F057F9314802F016F9F2
:1032E00039680022324802F04FF92D4802F00EF9F9
:1032F00099F8001000222F4802F046F9284802F001
:1033000005F92D4B002219682C48BDE8F84F02F052
:103310003BB9BAF80000022180B2FEF797F8FEF739
:10332000A7FC1848FEF7A4FC254B188800B2FEF74E
:1033300015F8FEF79DFC23484AE79AF80030052B64
:103340007FF651AFFEF714FC012108464FE700BF9E
:103350009D0700209C070020870700208807002089
:10336000740800205401002098640008A964000833
:1033700078070020180A00206C0800208D07002024
:103380009E070020F6610008E3610008C26400089F
:10339000C5640008A1610008CD640008DB63000873
:1033A000CC5B0008ED630008FB63000810640008B4
:1033B0002564000835640008940700204D64000867
:1033C00056080020BA6400089007002085070020F6
:1033D00001222DE9F84FBC4EBC4B35788246984609
:1033E000BB4CDFF85C93BB4F1A7035BBBA4B1A88E5
:1033F000BA4B92B21B6A05339A4215D22946284627
:10340000FEF7B6FBB648FEF733FC4FF4FA60FDF763
:1034100089FE29462846FEF7ABFBB248FEF728FC9A
:1034200040F6B830FDF77EFE0023AF4A237089F8DE
:103430000030136001223B603270AC4B3A681B686D
:103440009A4272D9FFF7ACF900232370FFF714FCFE
:10345000BAF1020FA64D40F08280A64B1B78002BDC
:1034600079D1FFF737FE0123237095F90010002969
:1034700036D10846FEF77CFB9E4BDFF88CA21A780B
:103480009B46002A40F00281934B0221188880B2AB
:10349000FDF7DCFFFEF7ECFB9748FEF7E9FBBAF817
:1034A0000000022180B2FDF7D1FFFEF7E1FB934857
:1034B000FEF7DEFB9BF8003001210720DFF884A235
:1034C000002B40F0F780FEF753FB01210020FEF7B0
:1034D00077FB9AF800300A2B84BF00238AF800306B
:1034E00095F900A0BAF1010F45D10021DFF8ECB148
:1034F0000846FEF73DFB8248FEF7BAFBDBF81000FA
:10350000FDF72CFFFEF7B4FB7E48FEF7B1FB0A2364
:10351000DBF820005146B0FBF3F0FDF797FFFEF714
:10352000A7FB7648FEF7A4FB25E077496B480A889D
:10353000036A92B29A4285D8826B64205A43B2FBE6
:10354000F0F209889B1A89B29942BFF47FAFFFF766
:10355000C1FD012379E7FFF723F9002384E7BAF1DE
:10356000010F82D12B78013B5BB2002B01DB2B706A
:103570007BE703232B7095F90030022B2FD100211C
:103580004FF00A0ADFF854B10846FEF7F1FADBF80B
:103590003800FDF7E3FEFEF76BFB5C48FEF768FBC7
:1035A000DBF820000121B0FBFAF0FDF74FFFFEF73A
:1035B0005FFB5148FEF75CFB6422DBF82030DBF850
:1035C000380001215843B0FBF2F0181AB0FBFAF0B2
:1035D000FDF73CFFFEF74CFB4848FEF749FB95F929
:1035E0000050032D1AD100210846FEF7C1FA4848C1
:1035F000FEF73EFB3C4B18684FF46163B0FBF3F001
:10360000FDF7ACFEFEF734FB4248FEF731FB2846DF
:103610000121FEF7ADFA3868FFF78CF86420FDF75A
:1036200081FD3D4801F072FF317800223B4801F0F6
:10363000ABFF394801F06AFF98F8001000223848C3
:1036400001F0A2FF344801F061FF217800223548E3
:1036500001F09AFF304801F059FF396800223248E2
:1036600001F092FF2C4801F051FF99F80010002260
:103670002E4801F089FF284801F048FF2C4B00221A
:1036800019682C48BDE8F84F01F07EBFBAF8000079
:10369000022180B2FDF7DAFEFEF7EAFA1648FEF7DD
:1036A000E7FA254B188800B2FDF758FEFEF7E0FA5E
:1036B0002248FDE69AF80030052B7FF604AFFEF7AE
:1036C00057FA0121084602E79D0700209C070020C9
:1036D000870700208807002074080020540100207C
:1036E00098640008A964000878070020180A0020E0
:1036F0008D0700209E070020F6610008A1610008E8
:10370000C2640008C56400086C0800200563000856
:10371000CD640008E4630008CC5B0008ED6300089A
:10372000FB63000810640008256400083564000885
:10373000940700204D64000856080020C363000869
:10374000900700208507002008B50C4B93F9002056
:10375000012A11D001221A70FFF778FA0022084BD3
:1037600032201A60FDF7DEFC064801F0CFFEBDE80E
:103770000840054801F064BE08BD00BF8607002070
:10378000C8070020CC5B0008BC6300082DE9F04F9F
:10379000974A85B01378DFF8B0A2DFF8B0B2DFF84F
:1037A000B092944FDFF8AC82934D009003F0FF0489
:1037B0000192002B3ED1914B1A88914B92B21B6A19
:1037C00005339A4215D221462046FEF7D1F98D489D
:1037D000FEF74EFA4FF4FA60FDF7A4FC21462046AE
:1037E000FEF7C6F98848FEF743FA40F6B830FDF711
:1037F00099FC01260024019B1E70844B8AF800402E
:103800008BF80040C9F800403C601C60C8F80040DC
:103810002C608AF80060FFF797FF7D4B2146204619
:103820001E70FEF7A5F97B48FEF722FA4FF47A7076
:10383000FDF778FC784C208800B2FDF7D7FE05280C
:10384000039440F3C881754A6D4E1388B1699BB2E9
:103850008B4202921FD26E4B1A78022A1BD1704BF8
:103860001B68B3F57A7F16D900238BF800302968DE
:103870006C4B994203D928683968FEF7F3FB0023A3
:103880000124C9F80030C8F800308AF80040FFF77A
:103890005BFF5F4B1C70029B326A1B889BB293429A
:1038A00008D95B4B1B78012B04D15D4B1B68B3F52A
:1038B0007A7F09D85C4BD9F800201B689A4223D93B
:1038C000534B1B78012B1FD100238AF80030D8F806
:1038D0000020544B9A4206D9D8F800000122D9F8AA
:1038E0000010FEF7BFFB3A68484B1A602A684F4B3E
:1038F0009A6000233B602B6001238BF80030FEF7B9
:10390000A5FF0222424B1A70009A494C022A94F9F0
:10391000003034D101335BB2052B37D10023237043
:1039200000210846FEF724F9029B0221188880B284
:10393000FDF78CFDFEF79CF93E48FEF799F9039BD5
:10394000188800B2FDF70AFDFEF792F93A48FEF733
:103950008FF901210620FEF70BF901210420FEF763
:103960002FF9364B1978012940F02E81072000915C
:10397000FEF7FEF800200099FEF722F90BE0009A0E
:10398000012A04D1013B5BB2002B65DB237094F963
:103990000030002BC4D094F90030012B5ED10021FF
:1039A00008460093FEF7E4F83069FDF7D7FCFEF710
:1039B0005FF92348FEF75CF90A22009BB0691946BB
:1039C000B0FBF2F0FDF742FDFEF752F91948FEF7A1
:1039D0004FF90A22009B306A1946B0FBF2F0FDF75E
:1039E00035FDFEF745F91748FEF742F936E000BF0E
:1039F0009C070020940700207C070020740800200A
:103A00005401002098640008A96400089807002069
:103A100070020020D0640008560800206C080020C6
:103A2000C80700204F8C0500180A0020F400002071
:103A30008D070020F6610008BA640008A407002082
:103A4000715D0008E36100088707002090070020EF
:103A500088070020780700200423237094F9006071
:103A6000022E21D100210846FEF782F801213046BE
:103A7000FEF7A6F800210120FEF77AF85C48FEF771
:103A8000F7F84FF461632868B0FBF3F0FDF766FCCC
:103A9000FEF7EEF85748FEF7EBF803200121FEF79A
:103AA00067F83868FEF746FE94F90060032E23D1CC
:103AB00000210846FEF75CF801210020FEF780F89F
:103AC00000210120FEF754F84948FEF7D1F84FF4E1
:103AD0006163D8F80000B0FBF3F0FDF73FFCFEF7A0
:103AE000C7F84448FEF7C4F830460121FEF740F815
:103AF000D9F80000FEF71EFE94F90030042B23D104
:103B000000210846FEF734F801210220FEF758F89C
:103B100000210120FEF72CF83748FEF7A9F8374BB3
:103B200098684FF46163B0FBF3F0FDF717FCFEF704
:103B30009FF83348FEF79CF803200121FEF718F8A0
:103B4000304B1868FEF7F6FD2F4801F0DFFC019BB3
:103B5000002219782D4801F017FD2B4801F0D6FC02
:103B60009AF8001000222A4801F00EFD264801F0C4
:103B7000CDFCD9F800100022264801F005FD2248AE
:103B800001F0C4FCD8F800100022234801F0FCFC2E
:103B90001D4801F0BBFC9BF8001000221F4801F0FB
:103BA000F3FC194801F0B2FC396800221C4801F00E
:103BB000EBFC154801F0AAFC00222968194805B061
:103BC000BDE8F04F01F0E0BC01210720FDF7D0FF78
:103BD00001210220D0E6144B1B68B3F57A7FB3D9DC
:103BE00000210846FDF7C4FF1048FEF741F8ABE797
:103BF0009F630008E1640008D8630008F400002017
:103C0000E463000898070020CC5B0008FB63000811
:103C10001064000825640008FC640008356400088E
:103C20004D64000814650008C8070020EB64000814
:103C30000021F8B506460846FDF79AFF01226A4BB7
:103C40001A706A4B197811B91A70FEF767FD684D42
:103C5000684C2B68A26A9A4212D3FFF775FD664B37
:103C6000226A1B889BB293420AD9644B1B68B3F546
:103C7000C87F05D9FEF752FD2B68A26A13442B605A
:103C80002B68A26A9A420ED2FEF7E0FD5A4BA26957
:103C90001B889BB2934206D2584B1B68B3F5C87F72
:103CA00001D9FEF73BFDA36A216B2A680B449342BE
:103CB00001D2FEF733FD524D022E95F9003033D17B
:103CC00001335BB2032B35D100232B700021084652
:103CD000FDF74EFF484B0221188880B2FDF7B6FB76
:103CE000FDF7C6FF4748FDF7C3FF474B188800B2F2
:103CF000FDF734FBFDF7BCFF4448FDF7B9FF012198
:103D00000620FDF735FF01210520FDF759FF404B47
:103D10001E78012E5FD131460720FDF729FF31467D
:103D20000020FDF74DFF0AE0012E04D1013B5BB2FC
:103D3000002B2CDB2B7095F90030002BC6D095F9A9
:103D40000060012E25D100210A270846FDF710FF4B
:103D50002069FDF703FBFDF78BFF2E48FDF788FF79
:103D6000A0693146B0FBF7F0FDF770FBFDF780FF6F
:103D70002448FDF77DFF206A3146B0FBF7F0FDF7E0
:103D800065FBFDF775FF2448FDF772FF01E0022394
:103D90002B7095F90030022B24D100210846FDF745
:103DA000E7FEA06AFDF7DAFAFDF762FF1B48FDF7B0
:103DB0005FFF206BFDF7D2FAFDF75AFF1848FDF7B9
:103DC00057FF03200121FDF7D3FE164B1868BDE80D
:103DD000F840FEF7AFBC01210720FDF7C9FE012125
:103DE00002209EE7F8BD00BF9C0700209D07002031
:103DF000CC070020540100206C080020C8070020D8
:103E00008D070020F661000856080020BA640008FB
:103E1000A4070020715D0008E3610008D65E000879
:103E200036650008940700202DE9F04FA04A85B0C0
:103E300013788346DFF8D4A29E4EDFF8D4929E4DCD
:103E40009E4F9F4C03F0FF080192002B40F06281CF
:103E50009C4B1A889C4B92B21B6A05339A4215D22E
:103E600041464046FDF784FE9848FDF701FF4FF4B8
:103E7000FA60FDF757F941464046FDF779FE944850
:103E8000FDF7F6FE40F6B830FDF74CF901234FF090
:103E90000008019A13708F4A8AF8008082F8008027
:103EA0008D4AC6F80080C9F80080C2F80080C5F8C5
:103EB0000080C7F800808AF80030FFF745FC012336
:103EC000864A414640461370FDF752FE8448FDF78E
:103ED000CFFE4FF47A70FDF725F901232370DFF848
:103EE0002882B8F8000000B2FDF780FB0528CDF865
:103EF000088040F395817B4B734A1B8891699BB284
:103F00008B42904629D2754B1A78022A25D1764BDE
:103F10001B68B3F57A7F20D900236E490B7039688E
:103F2000724B994204D93868D9F80010FEF79AF814
:103F3000D9F80020684B1A603A686D4B9A600023EC
:103F400001228AF800202B603360FFF7FDFB01227D
:103F5000237801332370614B1A70624AD8F820101D
:103F6000138803929BB28B4208D95C4B1B78012BC0
:103F700004D15D4B1B68B3F57A7F08D85D4B32687E
:103F80001B689A4222D9554B1B78012B1ED194F9FC
:103F90000030022B1ADC00238AF800302A68534BC9
:103FA0009A4204D9286801223168FEF75BF80123A0
:103FB000484A137000233B60C9F80030FEF746FC06
:103FC0000222237801332370444B1A70454BD8F8F2
:103FD00020201B889BB2934208D9404B1B78012BB1
:103FE00004D1414B1B68B3F57A7F08D8414B326846
:103FF0001B689A421DD9394B1B78012B19D194F9B2
:104000000030022B15DDFEF7CBFB0023314A8AF886
:10401000003013702A68354B9A4204D9286801226F
:104020003168FEF71FF80222237801332370324BE8
:104030001A70314CBBF1020F94F9003040F0AD80A2
:1040400001335BB2042B40F0B080002323700021C9
:104050000846FDF78DFD039B0221188880B2FDF70D
:10406000F5F9FDF705FE2548FDF702FE029B1888CD
:1040700000B2FDF773F9FDF7FBFD2148FDF7F8FDF0
:1040800001210620FDF774FD01210420FDF798FDB4
:104090001C4B93F800B0BBF1010F40F0BA805946B9
:1040A0000720FDF765FD59460020FDF789FD82E0F8
:1040B0009C07002088070020780700207C0700204C
:1040C0008C07002074080020540100209864000828
:1040D000A9640008900700209807002070020020C3
:1040E000D06400086C080020C80700204F8C050031
:1040F000F4000020180A00208D070020F661000857
:10410000BA640008A4070020560800208707002092
:104110009407002094F90030032B7FF7E0AEAB4CFE
:10412000022894F9003040F0C68001335BB2042BC2
:1041300040F0C7800023237000210846FDF718FDDA
:10414000A34B0221188880B2FDF780F9FDF790FD9E
:10415000A048FDF78DFDA04B188800B2FDF7FEF8D2
:10416000FDF786FD9D48FDF783FD01210620FDF743
:10417000FFFC01210420FDF723FD994B93F80080FB
:10418000B8F1010F40F01A8141460720FDF7F0FC1D
:1041900041460020FDF714FD99E0BBF1010F05D168
:1041A000013B5BB2002BC0F2B780237094F9003062
:1041B000002B3FF44CAF94F900B0BBF1010F40F07D
:1041C000AD8000210846FDF7D3FCD8F81000FDF7BC
:1041D000C5F8FDF74DFD8348FDF74AFD0A23D8F8E1
:1041E00018005946B0FBF3F0FDF730F9FDF740FD3C
:1041F0007848FDF73DFD5946D8F820000A23B0FB6A
:10420000F3F0FDF723F9FDF733FD7748FDF730FDB7
:1042100084E001210720FDF7ABFC0121022044E7E7
:10422000724B1B68B3F57A7F06D900210846FDF76B
:104230009FFC6F48FDF71CFD6E4801F067F9019B7C
:10424000002219786C4801F09FF96A4801F05EF984
:104250009AF800100022694801F096F9654801F0CB
:1042600055F931680022664801F08EF9614801F085
:104270004DF929680022634801F086F95D4801F094
:1042800045F9614B00221978604801F07DF95948E1
:1042900001F03CF9D9F8001000225D4801F074F9F2
:1042A000544801F033F9002239685A4805B0BDE896
:1042B000F04F01F069B9012804D1013B5BB2002B3A
:1042C0002ADB237094F90030002B3FF435AF94F9CA
:1042D0000080B8F1010F21D10021DFF844B1084678
:1042E000FDF746FCDBF81000FDF738F8FDF7C0FCE1
:1042F0003C48FDF7BDFC0A23DBF818004146B0FB43
:10430000F3F0FDF7A3F8FDF7B3FC3248FDF7B0FC7E
:104310004146DBF8200071E70323237094F9008005
:10432000B8F1020F22D100210846FDF721FC01213E
:104330004046FDF745FC00210120FDF719FC3648F9
:10434000FDF796FC4FF461633868B0FBF3F0FDF7BE
:1043500005F8FDF78DFC3148FDF78AFC03200121AB
:10436000FDF706FCD9F80000FEF7E4F994F90040E7
:10437000032C7FF461AF00210846FDF7F9FB012112
:104380000020FDF71DFC00210120FDF7F1FB224874
:10439000FDF76EFC4FF461632868B0FBF3F0FCF7A7
:1043A000DDFFFDF765FC1D48FDF762FC204601219D
:1043B000FDF7DEFB3068FEF7BDF93DE70121072080
:1043C000FDF7D6FB01210220E4E600BF8D070020A7
:1043D0006C080020F661000856080020BA64000846
:1043E000A4070020715D0008E3610008C8070020F1
:1043F000EB640008CC5B0008FB6300081064000855
:1044000025640008FC64000890070020356400085B
:104410004D640008146500089F630008E16400080B
:104420005401002001222DE9F041A54BA54C0228A2
:104430001A7086B094F9003028D113445BB2082B6F
:104440002AD100232370FEF7ABF900210846FDF7BF
:104450008FFB9D48FDF70CFC0A209C4B01211B881B
:104460009BB2B3FBF0F0FCF7F1FFFDF701FC9848BD
:10447000FDF7FEFB974B0221188880B2FCF7E6FFA0
:10448000FDF7F6FB9448FDF7F3FB0AE0012804D1A1
:10449000013B5BB2002B27DB237094F90030002B2B
:1044A000D1D094F90030012B20D1FEF779F9002109
:1044B0000846FDF75DFB8948FDF7DAFB884B0221D2
:1044C000188880B2FCF7C2FFFDF7D2FB8548FDF7E4
:1044D000CFFB854BD88880B2FCF740FFFDF7C8FBC7
:1044E0008248FDF7C5FB01E00723237094F90050D3
:1044F000022D1DD1FEF7AAFB00210846FDF738FB6F
:104500007648FDF7B5FB764B2946188880B2FCF754
:104510009DFFFDF7ADFB7348FDF7AAFB724B988832
:1045200080B2FCF71BFFFDF7A3FB7048FDF7A0FB73
:1045300094F90030032B1CD1FEF788FB00210846BC
:10454000FDF716FB6A48FDF793FB6A4B188800B22B
:10455000FCF704FFFDF78CFB6748FDF789FB624B16
:10456000188880B2FCF7FAFEFDF782FB5F48FDF782
:104570007FFB94F90030042B1CD1FEF711F90021C8
:104580000846FDF7F5FA5D48FDF772FB5C4B1888AD
:1045900000B2FCF7E3FEFDF76BFB5748FDF768FB45
:1045A000514BD88880B2FCF7D9FEFDF761FB554826
:1045B000FDF75EFB94F90030052B47D1524E534F67
:1045C000FEF744FB32883B8892B29BB2D21A42F289
:1045D0001073DFF870815343B8F800104C4D09B2E6
:1045E00093FBF1F300210846AB64FDF7C1FA49489B
:1045F000FDF73EFB286CFCF7B1FEFDF739FB4648A2
:10460000FDF736FBA86CFCF7A9FEFDF731FB43482C
:10461000FDF72EFB424800F079FFB8F800100022A9
:1046200009B2404800F0B0FF3D4800F06FFF31880C
:10463000022289B23C4800F0A7FF394800F066FF2B
:1046400039880222394889B200F09EFF94F900307F
:10465000062B0FD1FEF7A4F800210846FDF788FAD3
:10466000334B01A91868FDF708F8FDF701FB314845
:10467000FDF7FEFA94F90030072B1DD1FEF7E6FA9C
:1046800000210846FDF774FA2B48FDF7F1FA2B4B91
:104690001868FCF75BFBFCF761FEFDF7E9FA2848B8
:1046A000FDF7E6FA104B588980B2FCF757FEFDF78C
:1046B000DFFA0948FDF7DCFA06B0BDE8F08100BF7B
:1046C0009C0700208E0700203E650008540800204B
:1046D000436500086A0800209C63000848650008DC
:1046E0006C080020F66100085A0800209A63000850
:1046F0004E650008E807002054650008586500086A
:10470000580800209963000874080020B2020020B5
:10471000040000205D65000860650008656500080C
:10472000CC5B00086D6500087165000878650008BD
:10473000E4070020986300088065000870080020E6
:1047400083650008560800200023F0B5774C85B03B
:104750000093019302930393E389754D9AB24FF44A
:10476000F023B3FBF2F3734A9BB21380A388E28970
:1047700099B2AB6A92B24B43B3FBF2F30093009849
:10478000FDF772F802900298FDF7C4F86A4B1A68B8
:1047900010446A4A18601188013109B211801188E9
:1047A00009B21F290FDD196865480029B8BF1F31FC
:1047B000C1F34F11018000211180196003889BB261
:1047C000022B98BF01806388E28999B2AB6B92B2E9
:1047D0004B43B3FBF2F300930098FDF77DF8594B80
:1047E00080B218802188E38989B29AB2AB69564FAA
:1047F00059430A234B43B3FBF2F301930198FCF7AF
:10480000FBFF03900398FDF783F8504B1A681044A0
:104810004F4A18601188013109B21180118809B21C
:104820001F2909DD19680029B8BF1F3141F34F1155
:104830003980002111801960E188E38989B29AB238
:104840002B6A594364234B43B3FBF2F30193019862
:10485000FCF7EEFF03900398FDF75BF83D4B1A68F9
:1048600010443D4A18601188013109B21180118845
:1048700009B21F290ADD196838480029B8BF1F315D
:1048800041F34F1101800021118019603B88344EA3
:104890001BB2B3F5E16FAABF304B3B881B88338056
:1048A000A388E28999B22B6B92B24B43B3FBF2F32C
:1048B00000930098FCF7F4FF02900298FDF72BF8A4
:1048C000284A13681844284B10601988013109B22E
:1048D0001980198809B21F2911461A4624DD086873
:1048E000224B0028B8BF1F3040111860002008601C
:1048F00010801A681E4992B20A801A68022AD8BF2C
:1049000018603288186811B22A6C4A43194992FB20
:10491000F1F202441A601A68022ADCBF00221A600F
:104920001B68154A9BB2138005B0F0BD5A080020E1
:10493000040000206A080020B8070020BC070020FF
:104940007408002054080020E8070020A807002071
:10495000AC070020B0070020B40700205808002052
:1049600056080020C0070020C4070020D8070020F8
:10497000B2020020F0D8FFFF6C080020F8B5FDF768
:104980008DFE3D4A3D4F1368013313603B889BB257
:10499000042B05D900233B80FFF7D6FEFEF7D4F8A1
:1049A000374E384D33889BB2632B84BF002333804E
:1049B0002B889BB2B3F57A7F51D30023324C2B80E6
:1049C00023881BB2012B07DC208800B2FCF70EFE07
:1049D0002E4B1A681044186023881BB2022B07DD87
:1049E000208800B2FCF702FE294B1A6810441860B8
:1049F000284B1B78012B01BF274A13680133136032
:104A0000264B1B78012B01BF254A13680133136025
:104A1000244B1B78012B01BF234A13680133136019
:104A2000224B1A6801321A601B6813F0010F0CBF89
:104A30004FF400424FF000421D4B1A6123881BB215
:104A4000B3F57A7FA2BF01221A4B1A6123881BB2E9
:104A5000B3F57A7FBEBF4FF48032164B1A613B88A4
:104A600001339BB23B80338801339BB233802B8868
:104A700001339BB22B80F8BDC8070020B002002094
:104A8000AE020020AC020020560800207C07002067
:104A90007807002087070020880700209007002063
:104AA00094070020A5070020CC070020E407002081
:104AB00000080140000C014010B51D4C236843F470
:104AC0008033236023689A03FCD5636823F47C1346
:104AD00043F4A0236360E36A23F00F03E3622368D7
:104AE00043F08073236023689B01FCD5636823F047
:104AF000F0036360636823F4E0636360636823F436
:104B000060536360636823F0030343F00203636050
:104B1000636803F00C03082BFAD1064800F07CFF11
:104B2000044800F087FF636823F44043636010BDCE
:104B30000010024000366E012DE9F04FC54D91B0D6
:104B40000120FDF7AFF8EB69DFF85C9343F0805389
:104B5000EB61EB69DFF854A303F080530093009BF3
:104B6000D9F80C20BC4B22F4E0621204120C13435F
:104B7000C9F80C30B94BBA4E5A68002422F0E062F2
:104B80005A605A684FF0010B42F000725A60FFF70A
:104B900093FF1422002109A800F084FF2020FDF7D4
:104BA00081F80420FDF77EF80820FDF77BF84FF62A
:104BB0000343CAF814304FF409430227736140F2EB
:104BC00003334FF0040809A95046CDE9093BCDE96C
:104BD0000B7400F0D5FDA34B09A95046CDE9093B64
:104BE000CDF830800B9700F0CBFD9F4B09A93046E4
:104BF000CDE9093BCDE90B7400F0C2FD4FF2F002A4
:104C0000082309A95046CDE90923CDF834B000F0B6
:104C1000B7FD6B6943EA0B036B616B69934D03EA64
:104C20000B030193019BD9F80C00C0F30220FDF7A0
:104C3000C7F94FF4006300FA08F0C0B285F80B031F
:104C40001C222B60214609A800F02CFF14222146CB
:104C500004A800F027FF4FF48040FDF723F84046FA
:104C6000FDF720F8092382493046CDE904130323D8
:104C700004A9CDE9063400F083FD7E4B04A930463B
:104C8000CDE9043800F07CFDD9F80C00C0F3022017
:104C9000FDF796F9202300FA08F0C0B285F8250345
:104CA0006B60754D09A9EB68284643F08003EB6003
:104CB0004FF41643CDE909340C23CDE90B44CDE97B
:104CC0000D340F9400F03CFE2B69142223F4904322
:104CD0002B616B69214623F02A036B61EB6804A802
:104CE00043F40053EB60CDE9024400F0DBFE1422F4
:104CF000214609A800F0D6FE4FF40070FCF7D2FF61
:104D00004046FCF7CFFF47F67E6309A93046CDE960
:104D1000093400F035FD594B4FF480781A68A5F539
:104D2000A05522F4804222F010021A601A6802A9EB
:104D300022F4405242F400521A601A68284642F0A7
:104D400020021A601A6822F040021A601A6842F0C3
:104D500080021A601A6822F4407242F480721A606B
:104D60001A6822F4406242F480621A60444A9A60EF
:104D7000444ADA605A68120C120442F008025A607F
:104D80001A6842EA0B021A600294CDF80C8000F017
:104D9000C0FC4FF4E0034FF4602004A9CDE9040304
:104DA0002846CDE90647CDF8208000F0C7FC3649FB
:104DB0004FF40070FDF7E8F83348FDF7BBF83349CE
:104DC00040F20520FDF7E0F83048FDF7B3F8304930
:104DD00040F20A20FDF7D8F82D48FDF7ABF82D4931
:104DE00040F20F20FDF7D0F82A48FDF7A3F82A4932
:104DF0004FF40570FDF7C8F82748FDF79BF82749E1
:104E000040F21920FDF7C0F82448FDF793F8244933
:104E10004046FDF7B9F82248FDF78CF8AB68214908
:104E200043F40003AB6040F20510FDF7ADF81D48F8
:104E3000FDF780F8AB68642043F40003AB60AB6817
:104E400043EA0B03AB60FCF76DF9AB6843F0040376
:104E5000AB602DE0001002400003FA0500000140A5
:104E600000080140FC00FC048900890400E100E026
:104E7000020002040400040400380140080002405B
:104E80004C2401405A080020010030020200600258
:104E9000030090020400C0020500F0020600200397
:104EA000100020811100508100ED00E0000C014055
:104EB000AC6814F00404FBD1AB6843F4A003AB600E
:104EC000FCF7E5FE00F08CFA4FF47A72AE4B1B68EB
:104ED000B3FBF2F3013BB3F1807F08D2F021AB4A80
:104EE0005360AB4B83F823100723946013604FF497
:104EF000004300243361A74DFDF752FCA6482C6007
:104F0000FCF7B6FEFCF71EF9A44800F0FFFAA24831
:104F100000F096FAFCF7D4FD21462046FCF728FE67
:104F20004FF47A70FCF7FEF8FBF7FEF92B68172BAD
:104F300088BF2C60FBF704FD044668B94FF47A7013
:104F4000FCF7F0F8FBF7FCFC0446944800F0DEFAAE
:104F5000934800F075FA34B1012C14D18F4800F059
:104F6000D5FA90480DE09048FCF782FE4FF47A6045
:104F7000FCF7D8F88D48FBF70FFF884800F0C6FA19
:104F8000874800F05DFA8A4D8A4B2A698A4C1A607C
:104F90004FF461632269894E5343894A1360A268C2
:104FA000884B1A60236C884A33601360FBF798FEC5
:104FB0004FF47A70FCF7B6F8FCF748FE8348FCF72C
:104FC000CBFCA368012B14D18148FCF7ABFC814FCB
:104FD000DFF8FC91DFF850823B7801333B70FDF73E
:104FE0008FFB431E0446032B20D8DFE803F01A4052
:104FF000444B022B01D17848E7E7032B01D17748D6
:10500000E3E7042B01D17648DFE7052B01D1754892
:10501000DBE7062B01D17448D7E7072BD4D17348BF
:10502000D3E7FCF779FC4068FCF77CFCFCF774FCE8
:1050300081452BD12046FDF735FE98F8003003F06E
:10504000FF0183B9FDF7ACFB694B1970694B19700F
:10505000694B1B68AB60694B1A68694B1A60694BF6
:105060001970012333606420FCF75CF8B4E7FCF7A7
:1050700053FC0068D8E70220FCF778FCFCF74CFCF6
:10508000C068D1E7FCF748FC8068CDE7FCF744FC3A
:10509000514B834203D12046FCF794FFCDE7FCF748
:1050A0003BFC4E4B834203D12046FEF71BF8C4E77E
:1050B000FCF732FC4A4B834203D12046FEF788F9C5
:1050C000BBE7FCF729FC474B834203D12046FDF7A1
:1050D000DFFBB2E7FCF720FC4B4B834203D12046B9
:1050E000FEF7A2FEA9E7FCF717FC3F4B834203D172
:1050F0002046FEF74BFBA0E7FCF70EFC3B4B834240
:1051000003D12046FEF794FD97E7FCF705FC3F4BE3
:10511000834203D12046FDF76DFF8EE7FCF7FCFBD1
:105120003B4B834203D12046FFF77CF985E7FCF730
:10513000F3FB384B834203D12046FCF7B9FF7CE7F1
:10514000FCF7EAFB344B834203D12046FDF71EF8FF
:1051500073E7FCF7E1FB314B834203D12046FCF7B8
:10516000F1FF6AE7FCF7D8FB2D4B834203D12046C1
:10517000FDF734FB61E7FCF7CFFB2A4B834255D1A7
:105180002046FDF7F1FD58E78C02002010E000E01A
:1051900000ED00E0780800207A020020175F000888
:1051A00088650008B55D0008A0650008B1650008C5
:1051B000F400002080070020540100207402002029
:1051C000180A00201C0A0020140A0020551E00089E
:1051D000F46C0008850700204C6D0008A46D0008E1
:1051E000FC6D0008546E0008046F00085C6F000836
:1051F0009D0700208D0700207C07002094070020D9
:105200009807002086070020806E0008B46F000811
:105210000C70000858690008C8660008706600082D
:1052200078670008206700089C070020FCF774FBE3
:105230003F4B834203D12046FDF73EFEFDE6FCF7DF
:105240006BFB3C4B834203D12046FDF7FDFDF4E6AA
:10525000FCF762FB384B834203D12046FDF7BCFDCF
:10526000EBE6FCF759FB354B834203D12046FDF7B3
:105270005BFEE2E6FCF750FB314B834203D1204654
:10528000FCF7A8FFD9E6FCF747FB2E4B834203D17E
:105290002046FCF7FBFFD0E6FCF73EFB2A4B83429F
:1052A00003D12046FDF718F8C7E6FCF735FB274B7E
:1052B000834203D12046FDF787F8BEE6FCF72CFBBE
:1052C000234B834203D12046FDF7A0F8B5E6FCF757
:1052D00023FB204B834203D12046FDF7B9F8ACE60F
:1052E000FCF71AFB1C4B834203D12046FDF7CEF896
:1052F000A3E6FCF711FB194B834203D12046FDF7CF
:10530000E3F89AE6FCF708FB154B834203D12046ED
:10531000FDF736F991E6FCF7FFFA124B834203D111
:105320002046FDF783F988E6002388F8003084E6FC
:105330008068000828680008D0670008C86800086E
:1053400010690008B0690008DC690008606A00089C
:10535000B86A0008106B0008686B0008C06B000892
:105360009C6C0008706C00087047FEE7FEE7FEE7E3
:10537000FEE7704770477047FFF700BB70470000BB
:1053800014490B681B0624D5134BB3F8582492B26A
:10539000DAB1B3F85824013A92B2A3F85824B3F81A
:1053A000562492B2501C80B2A3F856041A4492F8C4
:1053B0006C20D2B24A60B3F8562492B2B2F57A7F2A
:1053C00007D10022A3F856247047CB6823F080034E
:1053D000CB60704700380140B402002070470000E5
:1053E000124A10B55368124903F00C03082B0AD077
:1053F000104B0B605368104AC3F30313D25C0B6865
:10540000D3400B6010BD53685068C3F38343C0039F
:1054100041BFD06A074C00F00F0001304CBFB4FB15
:10542000F0F0064802334343E3E700BF00100240B8
:105430008C02002000127A003570000800093D003F
:105440000021304A10B5D36823F08003D3602E4B7F
:10545000027802F0FF045ABBB3F8542492B2511CF4
:1054600089B2A3F854140A211A4482F86C10B3F8D4
:10547000542492B2B2F57A7F08BFA3F85444B3F82B
:105480005824013292B2A3F85824B3F85A14B3F84E
:10549000582489B292B291423EBFB3F8582492B2D6
:1054A000A3F85A24174AD36843F08003D36010BD91
:1054B000B3F8542492B2541CA4B2A3F8544410F884
:1054C000014B1A44E4B282F86C40B3F8542492B20F
:1054D000B2F57A7F08BFA3F85414B3F85824013208
:1054E00092B2A3F85824B3F85A44B3F85824A4B29B
:1054F00092B294423EBFB3F8582492B2A3F85A2411
:10550000A6E700BF00380140B402002000211C4A79
:1055100010B5D36823F08003D3601A4B02782AB900
:10552000174AD36843F08003D36010BDB3F8542406
:1055300092B2541CA4B2A3F8544410F8014B1A447C
:10554000E4B282F86C40B3F8542492B2B2F57A7F98
:1055500008BFA3F85414B3F85824013292B2A3F848
:105560005824B3F85A44B3F85824A4B292B29442DF
:105570003EBFB3F8582492B2A3F85A24CEE700BF36
:1055800000380140B402002037B501918DF80320A6
:105590009DF8033004460198002B3FD1FBF7DEFE57
:1055A0000025474AD36823F08003D360454B227817
:1055B00002F0FF01002A36D10138B3F8542410F864
:1055C000014F92B2002C57D1511C89B2A3F8541448
:1055D0000A211A4482F86C10B3F8542492B2B2F53E
:1055E0007A7F08BFA3F85444B3F85824013292B22A
:1055F000A3F85824B3F85A14B3F8582489B292B2D5
:1056000091423EBFB3F8582492B2A3F85A242C4AD0
:10561000D36843F08003D36003B030BD9DF803101E
:10562000FBF714FFBCE7B3F8542492B2511C89B2C3
:10563000A3F8541414F8011B1A44C9B282F86C1070
:10564000B3F8542492B2B2F57A7F08BFA3F8545449
:10565000B3F85824013292B2A3F85824B3F85A147C
:10566000B3F8582489B292B291423EBFB3F858249D
:1056700092B2A3F85A249AE7541CA4B2A3F8544453
:1056800004781A4482F86C40B3F8542492B2B2F50C
:105690007A7F08BFA3F85414B3F85824013292B2A9
:1056A000A3F85824B3F85A44B3F85824A4B292B2D9
:1056B00094423EBFB3F8582492B2A3F85A247CE730
:1056C00000380140B4020020002103E00B4B5B587E
:1056D000435004310A480B4B42189A42F6D30A4A07
:1056E00002E0002342F8043B084B9A42F9D3FFF74B
:1056F00075FE00F0A5F9FFF71FFA70475870000813
:10570000000000209002002090020020200A0020CB
:10571000FEE70246806810B510F001000CD1536816
:105720004C6823F48073234353609368096823F41F
:1057300000630B43936010BD0120FCE7836810B544
:10574000DB071BD443684A6823F4684312B18C68B2
:1057500013432343436083680C6823F4602323F4DA
:1057600081732343CC68096923430B438360C36A75
:1057700023F470031343C362002010BD0120FCE733
:105780002DE9F04F0D680446C5F30F2595FAA5F2F3
:105790000327B2FA82F24FF0040C4FF0011E40F2E0
:1057A000011835FA02F001D1BDE8F08F01239340D2
:1057B0002B4267D0072A88BFA2F10803D1F804A0C2
:1057C0008ABF0EFA03F308FA02F343F08063BAF1DA
:1057D000080F0DD1E6684FEA132B9BFAABF9B9FA23
:1057E00089F9086926EA0B0600FA09F00643E66023
:1057F0004FEA136993FAA3F6B6FA86F693FAA3FB77
:105800000F20BBFA8BFBB60000FA06F654F809002D
:105810004FEA8B0B20EA06060AFA0BFB46EA0B0658
:1058200044F80960486820F0080001282AD193FA5A
:10583000A3F0B0FA80F093FAA3FBBBFA8BFB8000D5
:1058400007FA00F026EA000688684FEA8B0B00FA98
:105850000BFB46EA0B0644F8096093FAA3FABAFA7E
:105860008AFA93FAA3F3B3FA83F34FEA8A0A0CFA9B
:105870000AFA26EA0A0ACE689B009E404AEA060611
:1058800044F8096001328CE7034B044A5B68C3F3B8
:105890000313D35CD84070470010024035700008F5
:1058A000034B044A5B68C3F30223D35CD8407047C0
:1058B0000010024045700008034B044A5B68C3F3C4
:1058C000C223D35CD84070470010024045700008E6
:1058D000094B5A68D20341BFD86A084A00F00F004A
:1058E000013048BFB2FBF0F05B6858BF0448C3F317
:1058F00083430233584370470010024000127A007D
:1059000000093D00044B5B6803F00C03082B01D138
:10591000FFF7DEBF014870470010024000127A0016
:1059200008B50146FFF7EEFF0860FFF7ADFF4860DE
:10593000FFF7B6FF88604868FFF7BEFFC86008BD84
:1059400030B5C36804469B040D4685B002D50120DE
:1059500005B030BD4B68C968C2680B43296922F4A1
:1059600016420B43A96922F00C020B431343C36098
:105970000369AA6823F440531343036143696A69C6
:1059800023F44073134343616846FFF7C9FF1F4B7D
:105990009C4224D103990029D9D02A68002AD6D064
:1059A00019234B43A969B1F5004F4FF064011FD192
:1059B0005200B3FBF2F3B3FBF1F001FB1033DB0059
:1059C0003233B3FBF1F303F007025B0002EB00128A
:1059D00003F4F87313449BB20020A360B8E70C4BA8
:1059E0009C4201D10299D6E70A4B9C42AFD1F9E71C
:1059F0009200B3FBF2F3B3FBF1F201FB12331B0194
:105A00003233B3FBF1F303EB0213E4E70038014058
:105A100000440040004800404FF47A73B0FBF3F0BC
:105A20000022034B013858609A6005221A607047C3
:105A300010E000E0014B1860704700BF8C020020AE
:105A400070B500260C4D0D4C641BA410A64209D164
:105A500000F030F800260A4D0A4C641BA410A64240
:105A600005D170BD55F8043B98470136EEE755F86F
:105A7000043B98470136F2E7507000085070000868
:105A800050700008547000080A44914200F1FF333E
:105A900000D1704710B511F8014B914203F8014F46
:105AA000F9D110BD03460244934200D1704703F878
:105AB000011BF9E7F8B500BFF8BC08BC9E4670476B
:0C5AC000F8B500BFF8BC08BC9E4670475B
:105ACC0000070E091C1B1215383F363124232A2DD2
