:020000040800F2
:100000000020002005540008A5500008A750000853
:10001000A9500008AB500008AD50000800000000D7
:10002000000000000000000000000000AF500008C9
:10003000B150000800000000B3500008B55000089F
:100040004D5400084D5400084D5400084D5400080C
:100050004D5400084D5400084D5400084D540008FC
:100060004D5400084D5400084D540008B950000884
:100070004D5400084D5400084D5400084D540008DC
:100080004D5400084D5400084D5400080000000075
:100090000000000000000000000000004D540008B7
:1000A0004D5400084D5400084D5400084D540008AC
:1000B0004D5400084D5400084D5400084D5400089C
:1000C0004D54000800000000000000004D540008DE
:1000D0004D540008BD5000084D5400084D54000810
:1000E0004D5400084D5400084D5400080000000015
:1000F0000000000000000000000000000000000000
:1001000000000000000000000000000000000000EF
:1001100000000000000000004D5400084D5400088D
:1001200000000000000000000000000000000000CF
:1001300000000000000000000000000000000000BF
:1001400000000000000000000000000000000000AF
:10015000000000000000000000000000000000009F
:10016000000000000000000000000000000000008F
:10017000000000000000000000000000000000007F
:10018000000000000000000000000000000000006F
:10019000000000000000000000000000000000005F
:1001A000000000000000000000000000000000004F
:1001B000000000000000000000000000000000003F
:1001C0000000000000000000000000005FF808F1DF
:1001D00010B5054C237833B9044B13B10448AFF381
:1001E00000800123237010BD900200200000000059
:1001F000F057000808B5034B1BB103490348AFF3A0
:10020000008008BD0000000094020020F0570008A4
:100210000E4A1346D168C907FCD4D168890644BF89
:100220002021D1601A6942F002021A6158611A69EC
:1002300042F040021A61054BDA689206FCD5202292
:10024000DA601A6922F002021A6170470020024047
:10025000034B044A5A6002F188325A60704700BF6B
:100260000020024023016745024A136943F08003DE
:100270001361704700200240114B10B51A46DC682C
:10028000E407FCD4DC68A40644BF2024DC601369C6
:1002900043F0010313610A4A8BB203801346D4680A
:1002A000A406FCD52024090CD4604180DA689206AB
:1002B000FCD52022DA601A6922F001021A6110BD11
:1002C0000020024038B572B6FFF7C2FF104804F0B4
:1002D000BBFF104C00224FF4CE710F4804F0F2FF28
:1002E0000B4804F0B1FF002221680C4804F0EAFF3B
:1002F0000B48FFF78DFF0B4D094854F8041BFFF71F
:10030000BBFF0430A842F8D1FFF7AEFF62B638BD9C
:1003100008590008780800201059000817590008EB
:1003200000E401089CE50108054A064B064953F81C
:10033000040B8B4242F8040BF9D10120704700BF37
:100340007808002000E401089CE50108F8B504687D
:1003500007468C420D4601D394421BD900260E4B12
:100360000E481E7004F070FF324639460C4804F007
:10037000A9FF0A4804F068FF21463246094804F004
:10038000A1FF064804F060FF32460749074804F021
:1003900099FF2C462046F8BD0000002008590008AF
:1003A0001D5900083459000800EC0108465900089E
:1003B00010B5194C6068FFF72BFFD4E90010FFF768
:1003C0005BFFD4E90210FFF757FFD4E90410FFF7F1
:1003D00053FFD4E90610FFF74FFFD4E90810FFF7E9
:1003E0004BFFD4E90A10FFF747FFD4E90C10FFF7E1
:1003F00043FFD4E90E10FFF73FFFD4E91010FFF7D9
:100400003BFFD4E91210FFF737FF044804F01CFF4C
:10041000034804F0B3FE10BD040000200859000892
:100420005D59000810B5194C6068FFF7F1FED4E97A
:100430000010FFF721FFD4E90210FFF71DFFD4E9F8
:100440000410FFF719FFD4E90610FFF715FFD4E9F0
:100450000810FFF711FFD4E90A10FFF70DFFD4E9E8
:100460000C10FFF709FFD4E90E10FFF705FFD4E9E0
:100470001010FFF701FFD4E91210FFF7FDFE04484A
:1004800004F0E2FE034804F079FE10BD54000020A1
:10049000085900087659000838B5254C4FF4807289
:1004A00000216068FFF752FF4FF47A72206000214C
:1004B000E068FFF74BFF4FF47A72A060002160699B
:1004C000FFF744FF1B4D20612A460A21E069FFF730
:1004D0003DFF2A46A0610A21606AFFF737FF2A46DE
:1004E00020620A21E06AFFF731FF2A46A0620A2152
:1004F000606BFFF72BFF2A4620630A21E06BFFF7B2
:1005000025FF4FF49672A0634621606CFFF71EFF33
:100510004FF496720A212064E06CFFF717FFA06485
:10052000054804F091FE054804F028FE38BD00BFE0
:1005300004000020A0860100085900089659000810
:1005400038B5254C4FF4807200216068FFF7FEFE3D
:100550004FF47A7220600021E068FFF7F7FE4FF455
:100560007A72A06000216069FFF7F0FE1B4D2061E8
:100570002A460A21E069FFF7E9FE2A46A0610A211E
:10058000606AFFF7E3FE2A4620620A21E06AFFF76D
:10059000DDFE2A46A0620A21606BFFF7D7FE2A46DD
:1005A00020630A21E06BFFF7D1FE4FF49672A0633F
:1005B0004621606CFFF7CAFE4FF496720A21206450
:1005C000E06CFFF7C3FEA064054804F03DFE05485B
:1005D00004F0D4FD38BD00BFA4000020A0860100B7
:1005E00008590008B059000810B5174C6068FFF7AB
:1005F0000FFED4E90010FFF73FFED4E90210FFF729
:100600003BFED4E90410FFF737FED4E90610FFF7EC
:1006100033FED4E90810FFF72FFED4E90A10FFF7E4
:100620002BFED4E90C10FFF727FED4E90E10FFF7DC
:1006300023FED4E91010FFF71FFE044804F004FE67
:10064000034804F09BFD10BD540100200859000828
:10065000D359000810B5174C6068FFF7D9FDD4E9ED
:100660000010FFF709FED4E90210FFF705FED4E9F8
:100670000410FFF701FED4E90610FFF7FDFDD4E9F1
:100680000810FFF7F9FDD4E90A10FFF7F5FDD4E9EA
:100690000C10FFF7F1FDD4E90E10FFF7EDFDD4E9E2
:1006A0001010FFF7E9FD044804F0CEFD034804F004
:1006B00065FD10BD9C01002008590008E95900089B
:1006C00010B5224C4FF4807200216068FFF73EFEA7
:1006D0000A2220600121E068FFF738FE4FF47A72A9
:1006E000A06001216069FFF731FE4FF47A6220615A
:1006F0000121E069FFF72AFE4FF47A62A06101212F
:10070000606AFFF723FE42F2107220620021E06A65
:10071000FFF71CFE42F21072A0620021606BFFF72F
:1007200015FE642220630021E06BFFF70FFE032219
:100730000121A063606CFFF709FE2064044804F007
:1007400083FD044804F01AFD10BD00BF54010020D1
:1007500008590008065A000810B5224C4FF4807260
:1007600000216068FFF7F2FD0A2220600121E068A5
:10077000FFF7ECFD4FF47A72A06001216069FFF78A
:10078000E5FD4FF47A6220610121E069FFF7DEFDAB
:100790004FF47A62A0610121606AFFF7D7FD42F24F
:1007A000107220620021E06AFFF7D0FD42F2107261
:1007B000A0620021606BFFF7C9FD64222063002165
:1007C000E06BFFF7C3FD03220121A063606CFFF71C
:1007D000BDFD2064044804F037FD044804F0CEFC5D
:1007E00010BD00BFE4010020085900081D5A000890
:1007F00010B50D4C6068FFF70BFDD4E90010FFF752
:100800003BFDD4E90210FFF737FDD4E90410FFF7F0
:1008100033FDD4E90610FFF72FFD044804F014FD62
:10082000034804F0ABFC10BD140100200859000877
:100830003D5A000838B5114C4FF4807200216068B1
:10084000FFF784FD0E4D20602A460021E068FFF787
:100850007DFD2A46A06000216069FFF777FD012237
:1008600000212061E069FFF771FDA061054804F0F7
:10087000EBFC054804F082FC38BD00BFF40000200A
:1008800000286BEE08590008645A000838B5114C6E
:100890004FF4807200216068FFF758FD0E4D206014
:1008A0002A460021E068FFF751FD2A46A06000219A
:1008B0006069FFF74BFD012200212061E069FFF72D
:1008C00045FDA061054804F0BFFC054804F056FC56
:1008D00038BD00BF3401002000286BEE0859000825
:1008E000835A000870B501240E4D2C7072B6FFF7C4
:1008F000A1FFFFF7E5FEFFF7CFFD62B62E780A48AD
:100900003EB904F0A1FC094804F038FC2C703046D4
:1009100070BD04F099FC064804F030FC26462C70AB
:10092000F5E700BF0000002008590008AB5A000896
:10093000C45A000870B51446C0B006460D464FF4C0
:1009400080726846074904F03DFF204616F8012BE7
:10095000013D424015F0FF051DF80200F6D140B000
:1009600070BD00BF0858000838B572B6144D00229B
:100970004C212846FFF7DEFF044645F8040CFFF73C
:1009800067FCFFF715FDFFF7DBFD00224C210D484A
:10099000FFF7D0FF84420C4809D104F055FC0B4806
:1009A00004F0ECFBFFF760FC62B6012038BD04F0F8
:1009B0004BFC074804F0E2FBFFF7FAFCF2E700BF4C
:1009C00008000020A800002008590008F85A000874
:1009D0001D5B000838B572B6244D0022442128461C
:1009E000FFF7A8FF0446224804F02EFC002221460F
:1009F000204804F067FC1E4804F026FC0022442135
:100A00001D4804F05FFC45F8044CFFF721FCFFF79C
:100A1000EBFDFFF7A1FE002244211848FFF78AFFF3
:100A20000546134804F010FC00222946114804F042
:100A300049FC0F4804F008FC0F480022442104F050
:100A400041FCAC420A4809D104F0FEFB0C4804F01A
:100A500095FBFFF709FC62B6012038BD04F0F4FBFA
:100A6000084804F08BFBFFF7BFFDF2E758010020B8
:100A7000085900084D5B0008585B0008E801002099
:100A8000645B0008865B000838B54A4804F0DCFB6C
:100A9000494804F073FB72B6484DFFF7D9FB0022BA
:100AA0004C212846FFF746FF044645F8040CFFF7A3
:100AB000B9FCFFF745FD00224C214148FFF73AFF02
:100AC00084423C485DD104F0BFFB3E4804F056FB35
:100AD0003D4D002244212846FFF72CFF04463548AF
:100AE00004F0B2FB00222146384804F0EBFB314809
:100AF00004F0AAFB00224421354804F0E3FB45F84A
:100B0000044CFFF7A7FDFFF727FE002244213148E0
:100B1000FFF710FF0546274804F096FB0022294600
:100B20002A4804F0CFFB234804F08EFB284800221B
:100B3000442104F0C7FBAC421E482AD104F084FBD8
:100B4000254804F01BFB254D00221C212846FFF7F9
:100B5000F1FE044645F8040CFFF74AFEFFF796FE47
:100B600000221C211E48FFF7E5FE8442114818D1DF
:100B700004F06AFB1B4804F001FBFFF775FB62B64B
:100B800038BD04F061FB184804F0F8FAFFF74AFC9E
:100B90009EE704F059FB154804F0F0FAFFF75AFD00
:100BA000D1E704F051FB124804F0E8FAFFF720FE09
:100BB000E3E700BF08590008DF5A0008580000208A
:100BC000A8000020F75A0008A00100204C5B000894
:100BD000575B0008E8010020635B00081801002053
:100BE00038010020B25B00081C5B0008855B000830
:100BF000DC5B0008174918482DE9F04142F2107CEF
:100C000000240E460546154FB1F900E0B1F9042065
:100C1000B1F90280A2EB0E020CFB02F2B1F9063030
:100C20000134A3EB080392FBF3F3436003FB08F3E7
:100C300093FBF7F3072C7344C0F80080836001F145
:100C4000040100F10C00DFD1B6F91E306B65BDE880
:100C5000F08100BF2C020020F4070020F0D8FFFF35
:100C6000114B10B51A6882421ADB194600220C6833
:100C700084420EDBCC6884420BDA0C2101FB023289
:100C80005368584342F2107390FBF3F09368184492
:100C900010BD0132072A01F10C01E8D1C820F7E7A5
:100CA0006FF00900F4E700BFF40700202DE9F041E0
:100CB0005D4C0646206800F0DBFA0022276807EB4F
:100CC00007133901234410F802C015460132D2B28D
:100CD000BCF1000F1BD1CB19E01805443A200433B6
:100CE000287104EB030C701E10F8016FD5B296B991
:100CF0002A4620212B4423440F2A75D9102DC5F1F3
:100D0000100188BF00210D4405F0FF050EE01D44D1
:100D100085F804C0D7E70F2D03D80CF80260013224
:100D2000E2E70023394421440A4413713F4804F0A8
:100D30008BFA294600223E4804F0C4FA236803EBEC
:100D400003112144294400250133172B0D71236021
:100D50003ED90A262F464FF02008284600F088FA90
:100D6000002305EB05112A01214410F803E09C46FD
:100D70000133DBB2BEF1000F3BD13A2051192144BF
:100D80008C448CF8040006EB0610204401EB030CA5
:100D90009CF804C0BCF1000F2FD1581EC0B284468D
:100DA0005119043101442144BCF10F0F34D91028EA
:100DB000C3F11103DBB288BF00232A44224402445A
:100DC000013513440E2D1F7106F10106C5D12560B2
:100DD000FFF778FA154804F037FA21680022BDE8D9
:100DE000F041144804F06EBA013203F8011BD2B28C
:100DF00082E78C448CF804E0B7E700EB030C092D84
:100E00008CBF9CF804C09CF805C001EB030E0133B5
:100E10008EF804C0DBB2B9E70CF1010C01F8018BCC
:100E20005FFA8CFCC0E700BF780800200859000872
:100E3000115C0008165C00082DE9F8435E4C804602
:100E400020680E4600F014FA0022276807EB07130B
:100E50003901234410F802C015460132D2B2BCF168
:100E6000000F1DD1CB19E018054404332E7108F191
:100E7000FF3004EB030E10F801CFD5B2BCF1000F28
:100E800012D12A4620212B4423440F2A75D9102D34
:100E9000C5F1100188BF00210D4405F0FF050EE0EB
:100EA0001D4485F804C0D5E70F2D03D80EF802C005
:100EB0000132E0E70023394421440A4413713F48DA
:100EC00004F0C2F9294600223D4804F0FBF92368EA
:100ED00003EB03112144294400250133172B0D7125
:100EE00023603ED90A27A8464FF02009284600F083
:100EF000BFF9002305EB05112A01214410F803E096
:100F00009C460133DBB2BEF1000F3BD151192144A5
:100F10008C4407EB07108CF80460204401EB030CB1
:100F20009CF804C0BCF1000F30D1581EC0B28446FA
:100F30005119043101442144BCF10F0F35D9102857
:100F4000C3F11103DBB288BF00232A4422440244C8
:100F5000013513440E2D83F8048007F10107C5D134
:100F60002560FFF7AFF9154804F06EF921680022FB
:100F7000BDE8F843134804F0A5B9013203F8011B9A
:100F8000D2B282E78C448CF804E0B7E700EB030CA4
:100F9000092D8CBF9CF804C09CF805C001EB030E22
:100FA00001338EF804C0DBB2B8E70CF1010C01F894
:100FB000019B5FFA8CFCBFE7780800200859000805
:100FC000115C0008165C0008002384B0012800931F
:100FD00001D1009004E00228FBD003281AD01CD8CD
:100FE000124B9A680192019A02929A6803920399AD
:100FF000029A914204D35A6801990A44013201923B
:10100000039A0292019A03980099121A8A42ECD329
:1010100004B0704712230093E2E7054B054A1B68B2
:101020000338B3FBF2F35843D3E700BF10E000E00E
:101030008C02002040420F0007B50190019B13B9BC
:1010400003B05DF804FB4FF47A70FFF7BDFF019B1E
:10105000013B0193F2E7000038B5684C684D20462B
:1010600004F0F2F829680022664804F02BF92046C3
:1010700004F0EAF8A9680022634804F023F9204646
:1010800004F0E2F829690022604804F01BF92046C8
:1010900004F0DAF8A96900225D4804F013F920464B
:1010A00004F0D2F8296A00225A4804F00BF92046CD
:1010B00004F0CAF8A96A0022574804F003F9204650
:1010C00004F0C2F8296B0022544804F0FBF82046D3
:1010D00004F0BAF8A96B0022514804F0F3F8204656
:1010E00004F0B2F8296C00224E4804F0EBF82046D8
:1010F00004F0AAF8A96C00224B484C4D04F0E2F829
:101100003220FFF799FF204604F09EF8296800225C
:10111000474804F0D7F8204604F096F8A968002262
:10112000444804F0CFF8204604F08EF829690022E4
:10113000414804F0C7F8204604F086F8A969002267
:101140003E4804F0BFF8204604F07EF8296A0022E9
:101150003B4804F0B7F8204604F076F8A96B00226B
:10116000384804F0AFF8204604F06EF8A96A00226F
:10117000354804F0A7F8204604F066F8296B0022F1
:10118000324804F09FF8204604F05EF8296C0022F3
:101190002F4804F097F82F4D3220FFF74DFF2046DF
:1011A00004F052F8296800222B4804F08BF82046FE
:1011B00004F04AF8A9680022284804F083F8204681
:1011C00004F042F829690022254804F07BF8204603
:1011D00004F03AF8A9690022224804F073F8204686
:1011E00004F032F8204B21481968002204F06AF814
:1011F000BDE838403220FFF71FBF00BF1A5C00086F
:1012000004000020215C0008345C0008525C0008E7
:10121000715C00088E5C0008AC5C0008C95C0008CA
:10122000E75C0008055D0008235D0008540100200C
:101230003B5D00084F5D0008685D0008755D0008B3
:10124000825D00088F5D00089D5D0008AF5D0008AD
:10125000C25D0008F4000020DF5D0008FB5D0008AF
:10126000235E0008455E00088C020020515E0008E5
:10127000F0B500230A2780EAE07185B0A1EBE071A8
:101280001C46B1FBF7F604AD2C4407FB16153035B0
:1012900004F8105C0C46DAB2531C092C31465BB2E0
:1012A000EEDC002806DA04A90B442D21023203F8F3
:1012B000101C53B2002104AA1A4402F8101C1A464A
:1012C000084CD0B2191A49B21AB90648625405B08E
:1012D000F0BD04AD2A4412F8112C6254421E52B2E1
:1012E000EFE700BF4C070020F0B5044600234FF0A5
:1012F0000A0C084684EAE47185B0A1EBE4711D464E
:10130000B1FBFCF704AE35440CFB1716303605F87C
:10131000106C0D46DAB2531C092D39465BB2EEDC77
:10132000002C06DA04A90B442D21023203F8101C0C
:1013300053B2002104AA1A4402F8101C1A46D4B26F
:10134000191B49B2451812B92A7005B0F0BD04AD99
:101350002A4412F8112C4254621E52B2EFE70000E8
:1013600000224FF00A0CF0B580EAE0748BB0A4EBD9
:10137000E0741546B4FBFCF70AAE35440CFB174687
:10138000303605F8286C2546D3B25A1C092D3C4648
:1013900052B2EEDC012A0AAC1444D7BF302200233B
:1013A00004F8282C9A1CD4BF52B204F8283C022A14
:1013B00008DC012906D930240AAB1344013203F8B2
:1013C000284C52B200242E26234665B2AA4212DCD3
:1013D000002806DA0AA95A1C0B442D2103F8141C14
:1013E00053B21A46114CD0B2191A49B2B2B90F48C9
:1013F00062540BB0F0BD8B421D4605D10AAF0133DC
:101400003D445BB205F8146C1DF804700AAD1D4430
:10141000013305F8147C5BB20134D6E70AAD2A44E7
:1014200012F8152C6254421E52B2DCE75C07002011
:10143000002802D0DCBF404200B2704702460023C1
:10144000D8B2115C01330029FAD1704770B5054656
:101450000024104662B2AB5C661C43B95AB28D5C84
:10146000E21852B28618013325B9357070BD344682
:101470008354EFE78554F1E7F0B504460F4618466C
:10148000002569B2635C6E1C83B9DEB2F95C741925
:101490005FFA84FC64B261B94BB2D45C0CEB01031B
:1014A0005BB2C518013144B92C70F0BD35464354C8
:1014B000E7E7731C01555BB2E7E7C454ECE72DE99D
:1014C000F04107464FF4616086B00C46B7FBF0F080
:1014D00001A9FFF709FF01A8FFF7B0FF012896BF98
:1014E000012200223023154698BF2370EEB2B31AB2
:1014F00006A95BB20B4413F8141C6319751C6DB27A
:10150000002949D13A221A703C23B7FBF3F2B2FB0F
:10151000F3F001A903FB1020FFF7E6FE01A8FFF797
:101520008DFF01289FBF30236355B51C6DB22E4639
:101530005FFA86F8A8EB050306AA5BB2134413F81A
:10154000142CA31908F1010676B23ABB3A221A709C
:101550003C23B7FBF3F001A903FB1070FFF7C4FEB7
:1015600001A8FFF76BFF01289CBF3023A3554FF064
:1015700000039CBF08F1020676B25AB206A90A44DB
:1015800012F8141C9A1952B2A018013341B9017013
:10159000204606B0BDE8F0811970A7E71A70C7E7CA
:1015A000A154EAE7F0B506464FF4616087B00C46F7
:1015B000B6FBF0F001A9FFF797FE01A8FFF73EFF89
:1015C000012896BF012200223023154698BF2370C0
:1015D000EFB2BB1A06A95BB20B4413F8141C6319D3
:1015E0007D1C6DB229BB3A221A703C23B6FBF3F680
:1015F000B6FBF3F001A903FB1060FFF775FE01A82D
:10160000FFF71CFF01289CBF302363554FF00003F8
:101610009CBFBD1C6DB25AB206A90A4412F8141C34
:101620005A1952B2A018013329B90170204607B0E7
:10163000F0BD1970CCE7A154EDE700000C494B68F0
:101640000A688B609342C1E9000205DC834209DC31
:101650009042A8BF10467047824203DC9842A8BF60
:10166000184670479342A8BF13461846704700BFFC
:10167000100700200C494B680A688B609342C1E94F
:10168000000205DC834209DC9042A8BF1046704787
:10169000824203DC9842A8BF184670479342A8BF15
:1016A00013461846704700BF1C0700200C494B68C2
:1016B0000A688B609342C1E9000205DC834209DCC1
:1016C0009042A8BF10467047824203DC9842A8BFF0
:1016D000184670479342A8BF13461846704700BF8C
:1016E000280700200C494B680A688B609342C1E9C7
:1016F000000205DC834209DC9042A8BF1046704717
:10170000824203DC9842A8BF184670479342A8BFA4
:1017100013461846704700BF340700200C494B6839
:101720000A688B609342C1E9000205DC834209DC50
:101730009042A8BF10467047824203DC9842A8BF7F
:10174000184670479342A8BF13461846704700BF1B
:10175000400700207047704770477047014B18687A
:10176000704700BF4C020020094B10B598420DD0C5
:1017700060B1084A084C126820600AB118309047DE
:1017800023681B6913B1BDE81040184710BD00BFA6
:10179000645E0008700700204C020020024B1860B5
:1017A000024B1868FFF7E0BF700700204C020020D2
:1017B000044B054A1B68934203D013B15B6903B124
:1017C000184770474C020020645E00084FF48043C5
:1017D00010B5064C02202361FFF7F6FB4FF0804363
:1017E00002202361BDE81040FFF7EEBB000C014072
:1017F00070B54FF07C454FF480560D4C2561266145
:10180000FFF7E4FF0120FFF717FC25612661FFF7D2
:10181000DDFF0120FFF710FC4FF480632561236199
:10182000FFF7D4FFBDE870400120FFF705BC00BF03
:10183000000C01404FF07C42244B70B504460D462D
:101840001A6111B14FF400421A61E20644BF4FF42D
:1018500000521A6114F0200F18BF4FF480521B4B36
:1018600018BF1A61660644BF4FF400621A6114F093
:10187000800F18BF4FF48063144E18BF3361FFF719
:10188000A5FF4FF07053E007336144BF4FF400539E
:101890003361A10742BF4FF480520C4B1A616207BB
:1018A00042BF4FF40062094B1A61230742BF4FF455
:1018B0008062064B1A61FFF789FF0220FFF7BCFB2D
:1018C0001DB14FF00042014B1A6170BD000C014088
:1018D000C00040F0400038B500F0F8000C46002190
:1018E000FFF7A8FF651E073415F8010F0121FFF768
:1018F000A1FFA542F8D1BDE8384000218020FFF7C4
:1019000099BF000073B51F4C1F4D69460020CDE9FB
:1019100000451E4EFFF7DCFF1D4B69460120CDE957
:101920000036FFF7D5FF1B4B6946CDE90035022095
:10193000194DFFF7CDFF69460320CDE90056FFF7AB
:10194000C7FF69460420CDE90054FFF7C1FF134AE1
:10195000134B69460520CDE90023FFF7B9FF114B72
:1019600011490620CDE900136946FFF7B1FF0F4B7F
:101970000F486946CDE900030720FFF7A9FF02B031
:1019800070BD00BF04150E0400041F1F0000041FDB
:10199000150E040000040E15040E15040207070AB4
:1019A0000A1C1C08051509000F05050501010100A9
:1019B0001111111F064A1070064A117019B940F032
:1019C0008000FFF737BF002140F0C000F9E700BFFB
:1019D000740700207507002070B505460E460446C2
:1019E000207800B970BD0121FFF724FF012E07D137
:1019F000631BDBB2072B03D131460020FFF7DAFF70
:101A00000134EDE70121C0B2FFF714BF2DE9F8431F
:101A10000D46DFF878801B4E1B4F441E14F8010F53
:101A200008B9BDE8F883B22819D101214920FFF790
:101A300001FF337897F800900133DBB23370B9F1CE
:101A4000000FEBD1082BE9D1022DE7D10121484647
:101A5000FFF7B0FF012386F800903B70DEE7AF2868
:101A600002D101210320E2E7AA2802D101210220AC
:101A7000DDE7BF2889BF40440121012110F8C00CD7
:101A8000D5E700BF74070020750700205002002032
:101A900000210120FFF7CEBE08B56420FFF7CCFA85
:101AA000FFF7A6FE00210E20FFF7C4FEBDE80840A8
:101AB000FFF7EEBF0221FFF7A9BF10B504460846A5
:101AC0001146FFF777FF2046BDE810400221FFF7DF
:101AD0009DBF08B5FFF7E0FFFFF7DAFFBDE808405C
:101AE00000210C20FFF7A6BE054B82B09A69024385
:101AF0009A619B6918400190019B02B0704700BF3A
:101B0000001002400022014B1A807047DE070020BF
:101B100008B5FEF729FFBDE808400148FFF7C6B841
:101B20007C5E000810B53B4C94F9001061B9084682
:101B3000FFF740FF3848FFF7BDFF4FF48762374B90
:101B40009A6140F2B4521A6294F90030012B0DD11F
:101B500000210846FFF72EFF3148FFF7ABFF4FF497
:101B600096722E4B9A614FF4D2721A6294F9003039
:101B7000022B0DD100210846FFF71CFF2948FFF773
:101B800099FF4FF48C72254B9A614FF4B9721A6227
:101B900094F90030032B0CD100210846FFF70AFF0F
:101BA0002148FFF787FFA0221C4B9A614FF48C72EB
:101BB0001A6294F90030042B0DD100210846FFF77A
:101BC000F9FE1A48FFF776FF4FF44872134B9A61FB
:101BD0004FF4AA621A6294F90030052B0CD100214F
:101BE0000846FFF7E7FE1248FFF764FF64220B4B3D
:101BF0009A614FF4FA621A6294F90030062B04BF1E
:101C000000232370FEF7E6FEBDE810404FF4167087
:101C1000FFF712BA8F070020885E000854010020E9
:101C2000995E0008AA5E0008BB5E0008CC5E000852
:101C3000DD5E0008FEF7CEBE08B501210720FFF7E4
:101C4000B9FE0121FF20FFF7F5FDFEF7C3FE044BAF
:101C5000C8209A68034B1A60BDE80840FFF7ECB94A
:101C6000540100201C0A002008B501210720FFF7BD
:101C7000A1FE0121FF20FFF7DDFDFEF7ABFE044BC7
:101C8000C8201A6C034B1A60BDE80840FFF7D4B9AE
:101C900054010020140A002018B100221146FFF759
:101CA0000CBF704749F6AF2310B50E4C90B02268B8
:101CB0009A4215D90C4B0BA91868FFF773FC4FF427
:101CC0006163206801A9B0FBF3F0FFF70DFB074942
:101CD00006AB0BAAFFF7D0FB022106A8FFF7ACF872
:101CE00010B010BD7C07002094070020EE5E0008B5
:101CF00010B5164C164890B003F0A6FA00222168E1
:101D0000144803F0DFFA49F6AF2322689A421BD940
:101D1000114B0BA91868FFF745FC4FF4616320686D
:101D200001A9B0FBF3F0FFF7DFFA06AB0BAA0B49F2
:101D3000FFF7A2FB012106A8FFF77EF8044803F095
:101D400083FA06A803F01AFA10B010BD7807002035
:101D500008590008F25E000888070020EE5E0008BF
:101D600008B501210720FFF725FEBDE80840012145
:101D7000FF20FFF75FBD00004FF0007170B591FAD2
:101D8000A1F1B1FA81F3104C00F00071D9404FF08D
:101D9000F87254F8215000F0F87092FAA2F3B3FAF6
:101DA00083F392FAA2F20726B2FA82F220FA03F340
:101DB00006FA03F3D04025EA030306FA00F01843BD
:101DC00044F8210070BD00BF0C2401404FF4407363
:101DD00030B593FAA3F3B3FA83F31F24084D00F44C
:101DE0004072DA4055F8223000F01F00844001F0C4
:101DF0001F0123EA04038140194345F8221030BD36
:101E00002C240140002070470122002110B51F4BF7
:101E10001F4C1A700228084608BF2378FFF7CAFD36
:101E20001C4B0221188880B2FFF79AFAFFF742FE96
:101E30001948FFF73FFE194B188800B2FFF718FA50
:101E4000FFF738FE1648FFF735FE237801210620FC
:101E5000144C7BB9FFF7AEFD01210220FFF7D2FD44
:101E600001210220FFF7CEFD23780A2B84BF002337
:101E7000237010BD2378052BECD9FFF79BFD0121C2
:101E80000320FFF7BFFD01210320EBE79C070020A3
:101E90009E0700206C080020FA5E0008560800200B
:101EA000FD5E000885070020002310B596B00446AB
:101EB000084611A98DF804208DF80530FFF772FB54
:101EC0004FF4616002A9B4FBF0F0FFF70DFA07AB25
:101ED00011AA0749FFF7D0FA0CAA07A901A8FFF732
:101EE000B5FA04210CA8FEF7A7FF16B010BD00BF7D
:101EF000EE5E0008022838B51E4C1F4D2AD12388FB
:101F00002A6801331BB29342238001D3002323802C
:101F100000210846FFF74EFD2868B4F9003001386B
:101F2000C01A00EB001004302844FFF7C3FD13482B
:101F300003F08AF9B4F900100022114803F0C2F945
:101F40000E4803F081F929680022BDE838400D48A9
:101F500003F0B8B90128DBD12388013B1BB2002B69
:101F60002380D5DA2B68013B1BB2002B2380CDDB0D
:101F7000CEE700BFDE0700207808002008590008DF
:101F8000045F0008115F0008002110B504460846F0
:101F9000FFF710FD0A4B188800B2FFF769F9FFF749
:101FA00089FD0848FFF786FD022C08D1BDE81040E6
:101FB000054B064A1B881BB29360FEF7D5BC10BDCB
:101FC00056080020245F0008E807002004000020D5
:101FD000002110B504460846FFF7ECFC0A4B1888B0
:101FE00000B2FFF745F9FFF765FD0848FFF762FD0E
:101FF000022C08D1BDE81040054B064A1B881BB2D5
:102000001361FEF7B1BC10BD56080020245F000824
:102010005808002004000020002110B5044608469E
:10202000FFF7C8FC1F48FFF745FD022C30D1FEF733
:102030002BFDFEF757FC002104460846FFF7BAFCCB
:102040001948FFF737FD4FF4FA60FEF7F5FF00215E
:102050000846FFF7AFFC012C1BD11448FFF72AFDFF
:102060001348FEF723FE4FF4FA60FEF7E5FF114B2D
:102070001A69114B1A604FF46162104B19694A4397
:102080000F490A6099680F4A11601A6C0E4B1A606A
:1020900010BD0E48FFF70EFDBDE810404FF47A600A
:1020A000FEF7CABF335F0008445F0008555F0008B1
:1020B000665F0008F4000020800700205401002023
:1020C000180A00201C0A0020140A0020755F00086E
:1020D000022810B50E4C15D123690133236100216C
:1020E0000846FFF767FC2069FFF7C2F8FFF7E2FC3C
:1020F0000848FFF7DFFC4FF4616322695343064A47
:10210000136010BD0128EAD12369013BE6E700BF57
:1021100054010020865F0008180A002010B5334CD7
:10212000022894F900300DD101335BB2072B0FD197
:102130000023237000210846FFF73CFC2C48FFF7E2
:10214000B9FC0AE0012804D1013B5BB2002B10DB93
:10215000237094F90030002BECD094F90030012B5F
:1021600009D100210846FFF725FC2248FFF7A2FC11
:1021700001E00623237094F90030022B06D10021E0
:102180000846FFF717FC1C48FFF794FC94F9003051
:10219000032B06D100210846FFF70CFC1748FFF778
:1021A00089FC94F90030042B06D100210846FFF782
:1021B00001FC1348FFF77EFC94F90030052B06D193
:1021C00000210846FFF7F6FB0E48FFF773FC94F971
:1021D0000030062B08D100210846FFF7EBFBBDE8D5
:1021E00010400948FFF766BC10BD00BF8F070020F4
:1021F0008B5F00089C5F0008AE5F0008BF5F0008AF
:10220000CF5F0008E05F0008F05F0008022810B50B
:102210000D4C14D1A3690A33A36100210846FFF7CE
:10222000C9FB0A23A0690121B0FBF3F0FFF798F87E
:10223000FFF740FCBDE810400448FFF73BBC012815
:10224000EBD1A3690A3BE7E754010020A55E000833
:10225000022810B50D4C14D1236A0A3323620021E1
:102260000846FFF7A7FB0A23206A0121B0FBF3F021
:10227000FFF776F8FFF71EFCBDE810400448FFF7B3
:1022800019BC0128EBD1236A0A3BE7E7540100207F
:10229000A55E0008022810B50B4C10D1A36A0133CB
:1022A000A36200210846FFF785FBA06AFEF7E0FF66
:1022B000FFF700FCBDE810400448FFF7FBBB012816
:1022C000EFD1A36A013BEBE7540100200060000856
:1022D000022810B50B4C10D1236B0133236300216E
:1022E0000846FFF767FB206BFEF7C2FFFFF7E2FB34
:1022F000BDE810400448FFF7DDBB0128EFD1236B98
:10230000013BEBE75401002000600008022838B5CB
:102310001A4C2DD1A36B0133A36300210A25084673
:10232000FFF748FBA06BFEF7A3FFFFF7C3FB1448C2
:10233000FFF7C0FB206A0121B0FBF5F0FFF710F8B2
:10234000FFF7B8FB0F48FFF7B5FB6422236AA06BC9
:1023500001215843B0FBF2F0181AB0FBF5F0FEF77C
:10236000FFFFFFF7A7FBBDE838400748FFF7A2BB18
:102370000128D2D1A36B013BCEE700BF540100205E
:1023800009600008FA5E0008A55E0008044B9A6820
:10239000044B1B689A4201D1FFF7E2BC704700BFB3
:1023A000540100201C0A0020044B1A6C044B1B68CB
:1023B0009A4201D1FFF7D4BC704700BF54010020FE
:1023C000140A0020002110B504460846FFF7F2FA6F
:1023D000022C1F4B0DD19A68072A02F1010127D167
:1023E00001229A601B48FFF765FBBDE81040FFF72C
:1023F000CDBF012C03D19A68013A15D09A609A6832
:10240000013A062A20D801A151F822F0E52300085C
:1024100035240008392400083D2400084124000820
:10242000452400082D24000807229A600A48DAE7AC
:102430009960E4E70948D6E70948D4E70948D2E7B4
:102440000948D0E70948CEE701229A6010BD00BFD5
:10245000540100200C600008726000081D60000834
:102460002E6000083F6000085060000861600008AE
:10247000002110B504460846FFF79CFA022C144BC5
:102480000DD11A6C032A02F101011CD101221A6438
:102490001048FFF70FFBBDE81040FFF785BF012C88
:1024A00003D11A6C013A0AD01A641A6C022A0CD0B1
:1024B000032A06D0012AEBD001221A6410BD0322A0
:1024C0001A640548E5E71964EFE70448E1E700BF4F
:1024D0005401002083600008A56000089460000893
:1024E000154B16499A6812F0100F0CD09A68900696
:1024F00016D59A68520615D59B68DB4313F0800306
:1025000012D10B807047032240F2DC50B1F9003049
:1025100083420BDD40F2B4530B80094B1A700AE082
:102520000222F1E70122EFE70422EDE701331BB2BB
:10253000142B0B80F1D07047000C0140DC07002009
:10254000E0070020044B187810B10021034A116005
:1025500000221A70704700BFE0070020A00700208B
:102560000022034B1A600122024B1A70704700BF11
:10257000CC070020A507002038B504464FF4616061
:10258000B4FBF0F0FEF774FE0546FEF757FF012896
:1025900003D801211148FFF71FFA01212846FFF750
:1025A0001BFA01210E48FFF717FA3C23B4FBF3F4A2
:1025B000B4FBF3F003FB1040FEF75AFE0446FEF7AF
:1025C0003DFF012803D801210448FFF705FA204602
:1025D000BDE838400121FFF7FFB900BFB660000831
:1025E000AD6100084FF40032064B1A614FF0807263
:1025F000A3F580631A610023034A1370034A137022
:10260000704700BF000C01409E070020A407002077
:1026100008B5FFF7E7FFBDE808403220FEF70CBD24
:1026200038B501220546154B154C1A70FFF7F0FF1F
:10263000022D1ED1236A0133236200210846FFF7D1
:10264000B9F9206AFEF714FEFFF734FA0D48FFF7D8
:1026500031FA01210020FFF7ADF90B4B188800B2C9
:10266000FEF706FEFFF726FABDE838400748FFF7F9
:1026700021BA012DE1D1236A013BDDE79C0700204F
:1026800004000020A160000856080020B86000087F
:1026900008B50C4B93F90020022A11D002221A70BF
:1026A000FFF7A0FF0022084B32201A60FEF7C4FC9F
:1026B000064802F0C9FDBDE80840054802F05EBDCD
:1026C00008BD00BF86070020C80700200859000881
:1026D000BD60000801212DE9F8438A4D8A4E2B7810
:1026E0008A4A31704BB92970894913700B70894936
:1026F0000B7089490B6089490B60894F89493B8878
:102700009BB20B8088498C698846A342C0F0F18057
:10271000002386491370864B09681B68DFF8F49123
:102720005B1A032B06D9137823B1FFF75BFF002355
:1027300089F8003002287F4C52D17F4B1B78002B48
:102740004AD1FFF765FF012389F8003094F90010A2
:1027500049BB0846FFF72EF93888022180B2FEF700
:10276000FFFDFFF7A7F97548FFF7A4F9744B754F04
:10277000188800B2FEF77CFDFFF79CF97248FFF75E
:1027800099F96D4B01211B780720002B40F0A880A0
:10279000FFF710F901210220FFF734F93B780A2BEB
:1027A00084BF00233B7094F90070012F23D10021D6
:1027B0000846FFF7FFF86548FFF77CF90A23D8F8C9
:1027C00018003946B0FBF3F0FEF7CAFDFFF772F9C7
:1027D0005F48FFF76FF90EE0FFF704FF0023B3E750
:1027E0000128B3D12378013B5BB2002B01DB2370BE
:1027F000ACE70323237094F90030022B1BD1002196
:102800000846FFF7D7F85348FFF754F9524B98683A
:102810004FF46163B0FBF3F0FEF72AFDFFF74AF9CE
:102820004E48FFF747F903200121FFF7C3F84C4B4F
:102830001868FFF7A1FE94F90070384C032F1AD1E5
:1028400000210846FFF7B6F84648FFF733F9324B48
:1028500018684FF46163B0FBF3F0FEF709FDFFF772
:1028600029F94148FFF726F938460121FFF7A2F878
:102870002068FFF781FE3D4802F0E6FC297800223F
:102880003B4802F01FFD394802F0DEFC317800229F
:10289000384802F017FD354802F0D6FC1C4B0022E8
:1028A0001978354802F00EFD304802F0CDFC334B6C
:1028B00000221968324802F005FD2C4802F0C4FCE1
:1028C00099F8001000222F4802F0FCFC274802F083
:1028D000BBFC21680022BDE8F8432B4802F0F2BCA3
:1028E0003B78052B7FF654AFFFF764F801210320F6
:1028F00052E713781BB90E4B19680C4B1960012372
:1029000007E700BF9D0700209C07002084070020E8
:1029100087070020900700207C07002094070020F4
:102920006C080020D007002054010020D4070020AC
:10293000E40700208D0700209E070020FA5E0008B3
:102940005608002085070020C7600008D0600008F6
:10295000A55E0008DC600008F4000020DF600008CD
:10296000980700206E610008E86000080859000818
:10297000F1600008FF60000814610008880700206B
:102980002961000839610008516100080222064BE4
:102990001A610123054A1370054A13704FF48072BF
:1029A000044B1A61704700BF000C01409E070020D5
:1029B000A407002000080140084908B50A68022A57
:1029C00004D1FFF7E3FF01230B6008BD032AFCD10C
:1029D000034B9B69012BF8D1F3E700BF7402002081
:1029E000F40000200021012238B5264B0546084698
:1029F0001A70FEF7DFFF244B0221188880B2FEF721
:102A0000AFFCFFF757F82148FFF754F800210720E3
:102A1000FEF7D0FF1E4B1A8812B2B2F57A7F1CDA8D
:102A2000188800B2FEF724FCFFF744F819481A4C46
:102A3000FFF740F822780121DAB90520FEF7BAFF46
:102A40001648FFF737F8022D03D12378B3B9FFF703
:102A50009DFFBDE83840FFF7AFBF0A201B88022169
:102A60001BB293FBF0F0FEF77BFCFFF723F80C485A
:102A7000DDE70620FEF79EFF0A48E2E7FFF7B2FD1A
:102A8000E7E700BF9C0700206C0800206461000895
:102A900056080020FD5E00089E07002068610008BF
:102AA000A56100086D6100080122164B10B51A706F
:102AB000FFF76CFF0228144C1ED1A3690133A361F8
:102AC00000210846FEF776FFA069FEF7D1FBFEF76E
:102AD000F1FF0E48FEF7EEFF01210020FEF76AFF2E
:102AE0000B4B188800B2FEF7C3FBFEF7E3FFBDE80F
:102AF00010400848FEF7DEBF0128E1D1A369013B81
:102B0000DDE700BF9C07002004000020A160000852
:102B100056080020B86000080122164B10B51A7044
:102B2000FFF734FF0228144C1FD1A36A0133A362BC
:102B300000210846FEF73EFFA06AFEF799FBFEF76C
:102B4000B9FF0E48FEF7B6FF01210020FEF732FF65
:102B50000B4B0221188880B2FEF702FCFEF7AAFF99
:102B6000BDE810400748FEF7A5BF0128E0D1A36AE1
:102B7000013BDCE79C07002004000020A160000866
:102B800074080020646100080122164B10B51A7009
:102B9000FFF7FCFE0228144C1FD1236B0133236383
:102BA00000210846FEF706FF206BFEF761FBFEF7EB
:102BB00081FF0E48FEF77EFF01210020FEF7FAFE9E
:102BC0000B4B0221188880B2FEF7CAFBFEF772FF9A
:102BD000BDE810400748FEF76DBF0128E0D1236B28
:102BE000013BDCE79C07002004000020A1600008F6
:102BF0006C080020646100080122164B10B51A70A1
:102C0000FFF7C4FE0228144C1FD1A36B0133A3634A
:102C100000210846FEF7CEFEA06BFEF729FBFEF76B
:102C200049FF0E48FEF746FF01210020FEF7C2FED5
:102C30000B4B0221188880B2FEF792FBFEF73AFF99
:102C4000BDE810400748FEF735BF0128E0D1A36B6F
:102C5000013BDCE79C07002004000020A160000885
:102C6000540800206461000801222A4B70B51A70D4
:102C7000FFF78CFE0228284E42D13388013333807F
:102C800000210846FEF796FE02213088FEF768FB19
:102C9000224D234CFEF70EFF2248FEF70BFF2B8838
:102CA00022889BB212B2002A2FDD328820889B1A1C
:102CB00002B242F210701BB223EAE373434393FB68
:102CC000F2F0194E3064FEF7D3FAFEF7F3FE174820
:102CD000FEF7F0FE164B1B882A8821889BB209B2AA
:102CE000002992B213DD9B1A42F210721BB223EA42
:102CF000E3735343218809B293FBF1F3B36470BDCE
:102D00000128BDD13388013BB9E74620D9E70A2322
:102D1000F4E700BF9C07002078020020B2020020E8
:102D200056080020FA5E00080400002071610008C7
:102D30007408002000212DE9F04101272B4B2C4D78
:102D4000064608461F70FEF735FE2B78294C03F027
:102D5000FF0833BB284B0221188880B2FEF700FB26
:102D6000FEF7A8FE2548FEF7A5FE41460720FEF720
:102D700021FE208800B2FEF77BFAFEF79BFE20487A
:102D8000FEF798FE05203946FEF714FE1D48FEF7B3
:102D900091FE022E27D12B780BBBBDE8F041FFF747
:102DA000F5BD194B0221188880B2FEF7D9FAFEF75B
:102DB00081FE1248FEF77EFE00210720FEF7FAFD95
:102DC000208800B2FEF754FAFEF774FE0F48FEF7B3
:102DD00071FE06203946FEF7EDFD0D48D7E7BDE848
:102DE000F041FFF7FFBBBDE8F08100BF9C0700206A
:102DF0009E07002056080020740800206461000827
:102E00007C610008686100086C080020FD5E000815
:102E10006D61000808B5FFF7B9FDBDE80840322034
:102E2000FEF70AB901222DE9F84F994E994B3478F3
:102E300082469846984DDFF8D092984F1A7034BB6E
:102E4000974B1A88974B92B21B6A05339A4215D258
:102E500021462046FEF7AEFD9348FEF72BFE4FF4C9
:102E6000FA60FEF7E9F821462046FEF7A3FD8F48F9
:102E7000FEF720FE40F6B830FEF7DEF800238C4A5D
:102E80002B7089F80030136001223B603270894B4F
:102E90003A681B689A4206D8874B824A1B88126A96
:102EA0009BB2934203D9FFF79DFB00232B70FFF7E2
:102EB00083FDBAF1020F814C6BD1814B1B78002B43
:102EC00063D1FFF7A7FF01232B7094F900100029AD
:102ED00036D10846FEF76EFD794BDFF8DCA11A7893
:102EE0009B46002A40F0B5806D4B0221188880B2C5
:102EF000FEF736FAFEF7DEFD7248FEF7DBFDBAF8A4
:102F00000000022180B2FEF72BFAFEF7D3FD6E48D7
:102F1000FEF7D0FD9BF8003001210720DFF8ECA17F
:102F2000002B40F0AA80FEF745FD01210020FEF7AE
:102F300069FD9AF800300A2B84BF00238AF800301C
:102F400094F900A0BAF1010F2FD10021DFF854B19C
:102F50000846FEF72FFD5D48FEF7ACFDDBF81000DC
:102F6000FEF786F9FEF7A6FD5948FEF7A3FD0A23F2
:102F7000DBF820005146B0FBF3F0FEF7F1F9FEF765
:102F800099FD5448FEF796FD0FE0FFF72BFB002359
:102F90009AE7BAF1010F98D12378013B5BB2002B7D
:102FA00001DB237091E70223237094F90030022B98
:102FB0001AD100210846FEF7FDFC4748FEF77AFDCE
:102FC0003B4B18684FF46163B0FBF3F0FEF750F928
:102FD000FEF770FD4148FEF76DFD03200121FEF76D
:102FE000E9FC3868FFF7C8FA3D4802F02DF931785E
:102FF00000223C4802F066F9394802F025F998F8B9
:1030000000100022384802F05DF9354802F01CF942
:1030100029780022354802F055F9314802F014F9B8
:1030200039680022324802F04DF92D4802F00CF9BF
:1030300099F8001000222F4802F044F9284802F0C5
:1030400003F92D4B002219682C48BDE8F84F02F017
:1030500039B9BAF80000022180B2FEF781F9FEF713
:1030600029FD1848FEF726FD254B188800B2FEF70B
:10307000FFF8FEF71FFD23484AE79AF80030052BBA
:103080007FF651AFFEF796FC012108464FE700BFDF
:103090009D0700209C07002087070020880700204C
:1030A0007408002054010020826100089361000828
:1030B00078070020180A00206C0800208D070020E7
:1030C0009E070020FA5E0008E75E0008AC61000879
:1030D000AF610008A55E0008B7610008DF60000866
:1030E00008590008F1600008FF600008146100083A
:1030F0002961000839610008940700205161000827
:1031000056080020A46100089007002085070020D1
:1031100001222DE9F84FBC4EBC4B357882469846CB
:10312000BB4CDFF85C93BB4F1A7035BBBA4B1A88A7
:10313000BA4B92B21B6A05339A4215D229462846E9
:10314000FEF738FCB648FEF7B5FC4FF4FA60FDF721
:1031500073FF29462846FEF72DFCB248FEF7AAFC6D
:1031600040F6B830FDF768FF0023AF4A237089F8B6
:103170000030136001223B603270AC4B3A681B6830
:103180009A4272D9FFF72EFA00232370FFF714FC3E
:10319000BAF1020FA64D40F08280A64B1B78002B9F
:1031A00079D1FFF737FE0123237095F9001000292C
:1031B00036D10846FEF7FEFB9E4BDFF88CA21A784C
:1031C0009B46002A40F00281934B0221188880B26E
:1031D000FEF7C6F8FEF76EFC9748FEF76BFCBAF8F0
:1031E0000000022180B2FEF7BBF8FEF763FC9348B3
:1031F000FEF760FC9BF8003001210720DFF884A275
:10320000002B40F0F780FEF7D5FB01210020FEF7F0
:10321000F9FB9AF800300A2B84BF00238AF80030AB
:1032200095F900A0BAF1010F45D10021DFF8ECB10A
:103230000846FEF7BFFB8248FEF73CFCDBF81000B7
:10324000FEF716F8FEF736FC7E48FEF733FC0A233D
:10325000DBF820005146B0FBF3F0FEF781F8FEF7F3
:1032600029FC7648FEF726FC25E077496B480A885A
:10327000036A92B29A4285D8826B64205A43B2FBA9
:10328000F0F209889B1A89B29942BFF47FAFFFF729
:10329000C1FD012379E7FFF7A5F9002384E7BAF11F
:1032A000010F82D12B78013B5BB2002B01DB2B702D
:1032B0007BE703232B7095F90030022B2FD10021DF
:1032C0004FF00A0ADFF854B10846FEF773FBDBF84B
:1032D0003800FDF7CDFFFEF7EDFB5C48FEF7EAFB9B
:1032E000DBF820000121B0FBFAF0FEF739F8FEF719
:1032F000E1FB5148FEF7DEFB6422DBF82030DBF80F
:10330000380001215843B0FBF2F0181AB0FBFAF074
:10331000FEF726F8FEF7CEFB4848FEF7CBFB95F903
:103320000050032D1AD100210846FEF743FB484800
:10333000FEF7C0FB3C4B18684FF46163B0FBF3F041
:10334000FDF796FFFEF7B6FB4248FEF7B3FB2846B3
:103350000121FEF72FFB3868FFF70EF96420FDF717
:103360006BFE3D4801F070FF317800223B4801F0D0
:10337000A9FF394801F068FF98F80010002238488A
:1033800001F0A0FF344801F05FFF217800223548AA
:1033900001F098FF304801F057FF396800223248A9
:1033A00001F090FF2C4801F04FFF99F80010002227
:1033B0002E4801F087FF284801F046FF2C4B0022E1
:1033C00019682C48BDE8F84F01F07CBFBAF800003E
:1033D000022180B2FDF7C4FFFEF76CFB1648FEF732
:1033E00069FB254B188800B2FDF742FFFEF762FB30
:1033F0002248FDE69AF80030052B7FF604AFFEF771
:10340000D9FA0121084602E79D0700209C07002009
:10341000870700208807002074080020540100203E
:10342000826100089361000878070020180A0020D4
:103430008D0700209E070020FA5E0008A55E0008A8
:10344000AC610008AF6100086C080020096000084A
:10345000B7610008E860000808590008F16000083A
:10346000FF60000814610008296100083961000844
:10347000940700205161000856080020C76000082A
:10348000900700208507002008B50C4B93F9002019
:10349000012A11D001221A70FFF778FA0022084B96
:1034A00032201A60FDF7C8FD064801F0CDFEBDE8E8
:1034B0000840054801F062BE08BD00BF8607002035
:1034C000C807002008590008C06000082DE9F04F27
:1034D000974A85B01378DFF8B0A2DFF8B0B2DFF812
:1034E000B092944FDFF8AC82934D009003F0FF044C
:1034F0000192002B3ED1914B1A88914B92B21B6ADC
:1035000005339A4215D221462046FEF753FA8D48DC
:10351000FEF7D0FA4FF4FA60FDF78EFD2146204603
:10352000FEF748FA8848FEF7C5FA40F6B830FDF7CE
:1035300083FD01260024019B1E70844B8AF8004005
:103540008BF80040C9F800403C601C60C8F800409F
:103550002C608AF80060FFF797FF7D4B21462046DC
:103560001E70FEF727FA7B48FEF7A4FA4FF47A7034
:10357000FDF762FD784C208800B2FDF759FF052861
:10358000039440F3C881754A6D4E1388B1699BB2AC
:103590008B4202921FD26E4B1A78022A1BD1704BBB
:1035A0001B68B3F57A7F16D900238BF800302968A1
:1035B0006C4B994203D928683968FEF775FC0023E3
:1035C0000124C9F80030C8F800308AF80040FFF73D
:1035D0005BFF5F4B1C70029B326A1B889BB293425D
:1035E00008D95B4B1B78012B04D15D4B1B68B3F5ED
:1035F0007A7F09D85C4BD9F800201B689A4223D9FE
:10360000534B1B78012B1FD100238AF80030D8F8C8
:103610000020544B9A4206D9D8F800000122D9F86C
:103620000010FEF741FC3A68484B1A602A684F4B7D
:103630009A6000233B602B6001238BF80030FFF77A
:1036400027F80222424B1A70009A494C022A94F938
:10365000003034D101335BB2052B37D10023237006
:1036600000210846FEF7A6F9029B0221188880B2C5
:10367000FDF776FEFEF71EFA3E48FEF71BFA039BA7
:10368000188800B2FDF7F4FDFEF714FA3A48FEF789
:1036900011FA01210620FEF78DF901210420FEF721
:1036A000B1F9364B1978012940F02E81072000919D
:1036B000FEF780F900200099FEF7A4F90BE0009ACC
:1036C000012A04D1013B5BB2002B65DB237094F926
:1036D0000030002BC4D094F90030012B5ED10021C2
:1036E00008460093FEF766F93069FDF7C1FDFEF765
:1036F000E1F92348FEF7DEF90A22009BB06919467A
:10370000B0FBF2F0FDF72CFEFEF7D4F91948FEF7F6
:10371000D1F90A22009B306A1946B0FBF2F0FDF79E
:103720001FFEFEF7C7F91748FEF7C4F936E000BFE1
:103730009C070020940700207C07002074080020CC
:10374000540100208261000893610008980700205E
:1037500070020020BA610008560800206C080020A2
:10376000C80700204F8C0500180A0020F400002034
:103770008D070020FA5E0008A4610008A40700205D
:10378000805A0008E75E00088707002090070020A5
:1037900088070020780700200423237094F9006034
:1037A000022E21D100210846FEF704F901213046FE
:1037B000FEF728F900210120FEF7FCF85C48FEF72F
:1037C00079F94FF461632868B0FBF3F0FDF750FD21
:1037D000FEF770F95748FEF76DF903200121FEF757
:1037E000E9F83868FEF7C8FE94F90060032E23D18B
:1037F00000210846FEF7DEF801210020FEF702F95D
:1038000000210120FEF7D6F84948FEF753F94FF49E
:103810006163D8F80000B0FBF3F0FDF729FDFEF777
:1038200049F94448FEF746F930460121FEF7C2F84F
:10383000D9F80000FEF7A0FE94F90030042B23D144
:1038400000210846FEF7B6F801210220FEF7DAF85B
:1038500000210120FEF7AEF83748FEF72BF9374B71
:1038600098684FF46163B0FBF3F0FDF701FDFEF7DC
:1038700021F93348FEF71EF903200121FEF79AF8DB
:10388000304B1868FEF778FE2F4801F0DDFC019BF5
:10389000002219782D4801F015FD2B4801F0D4FCC9
:1038A0009AF8001000222A4801F00CFD264801F089
:1038B000CBFCD9F800100022264801F003FD224875
:1038C00001F0C2FCD8F800100022234801F0FAFCF5
:1038D0001D4801F0B9FC9BF8001000221F4801F0C0
:1038E000F1FC194801F0B0FC396800221C4801F0D5
:1038F000E9FC154801F0A8FC00222968194805B028
:10390000BDE8F04F01F0DEBC01210720FEF752F8C0
:1039100001210220D0E6144B1B68B3F57A7FB3D99E
:1039200000210846FEF746F81048FEF7C3F8ABE75B
:10393000A3600008CB610008DC600008F4000020F0
:10394000E86000089807002008590008FF60000898
:103950001461000829610008E66100083961000867
:1039600051610008FE610008C8070020D561000809
:103970000021F8B506460846FEF71CF801226A4BFE
:103980001A706A4B197811B91A70FEF7E9FD684D83
:10399000684C2B68A26A9A4212D3FFF775FD664BFA
:1039A000226A1B889BB293420AD9644B1B68B3F509
:1039B000C87F05D9FEF7D4FD2B68A26A13442B609B
:1039C0002B68A26A9A420ED2FEF762FE5A4BA26997
:1039D0001B889BB2934206D2584B1B68B3F5C87F35
:1039E00001D9FEF7BDFDA36A216B2A680B449342FF
:1039F00001D2FEF7B5FD524D022E95F9003033D1BC
:103A000001335BB2032B35D100232B700021084614
:103A1000FDF7D0FF484B0221188880B2FDF7A0FCCB
:103A2000FEF748F84748FEF745F8474B188800B2BC
:103A3000FDF71EFCFEF73EF84448FEF73BF8012177
:103A40000620FDF7B7FF01210520FDF7DBFF404B06
:103A50001E78012E5FD131460720FDF7ABFF3146BE
:103A60000020FDF7CFFF0AE0012E04D1013B5BB23D
:103A7000002B2CDB2B7095F90030002BC6D095F96C
:103A80000060012E25D100210A270846FDF792FF8C
:103A90002069FDF7EDFBFEF70DF82E48FEF70AF85A
:103AA000A0693146B0FBF7F0FDF75AFCFEF702F8CB
:103AB0002448FDF7FFFF206A3146B0FBF7F0FDF721
:103AC0004FFCFDF7F7FF2448FDF7F4FF01E0022368
:103AD0002B7095F90030022B24D100210846FDF708
:103AE00069FFA06AFDF7C4FBFDF7E4FF1B48FDF783
:103AF000E1FF206BFDF7BCFBFDF7DCFF1848FDF78D
:103B0000D9FF03200121FDF755FF164B1868BDE8CA
:103B1000F840FEF731BD01210720FDF74BFF0121E1
:103B200002209EE7F8BD00BF9C0700209D070020F3
:103B3000CC070020540100206C080020C80700209A
:103B40008D070020FA5E000856080020A4610008D6
:103B5000A4070020805A0008E75E000834620008CD
:103B600020620008940700202DE9F04FA04A85B09C
:103B700013788346DFF8D4A29E4EDFF8D4929E4D90
:103B80009E4F9F4C03F0FF080192002B40F0628192
:103B90009C4B1A889C4B92B21B6A05339A4215D2F1
:103BA00041464046FDF706FF9848FDF783FF4FF476
:103BB000FA60FDF741FA41464046FDF7FBFE9448A6
:103BC000FDF778FF40F6B830FDF736FA01234FF0E5
:103BD0000008019A13708F4A8AF8008082F80080EA
:103BE0008D4AC6F80080C9F80080C2F80080C5F888
:103BF0000080C7F800808AF80030FFF745FC0123F9
:103C0000864A414640461370FDF7D4FE8448FDF7CE
:103C100051FF4FF47A70FDF70FFA01232370DFF89C
:103C20002882B8F8000000B2FDF702FC0528CDF8A4
:103C3000088040F395817B4B734A1B8891699BB246
:103C40008B42904629D2754B1A78022A25D1764BA1
:103C50001B68B3F57A7F20D900236E490B70396851
:103C6000724B994204D93868D9F80010FEF71CF954
:103C7000D9F80020684B1A603A686D4B9A600023AF
:103C800001228AF800202B603360FFF7FDFB012240
:103C9000237801332370614B1A70624AD8F82010E0
:103CA000138803929BB28B4208D95C4B1B78012B83
:103CB00004D15D4B1B68B3F57A7F08D85D4B326841
:103CC0001B689A4222D9554B1B78012B1ED194F9BF
:103CD0000030022B1ADC00238AF800302A68534B8C
:103CE0009A4204D9286801223168FEF7DDF80123E1
:103CF000484A137000233B60C9F80030FEF7C8FC47
:103D00000222237801332370444B1A70454BD8F8B4
:103D100020201B889BB2934208D9404B1B78012B73
:103D200004D1414B1B68B3F57A7F08D8414B326808
:103D30001B689A421DD9394B1B78012B19D194F974
:103D40000030022B15DDFEF74DFC0023314A8AF8C6
:103D5000003013702A68354B9A4204D92868012232
:103D60003168FEF7A1F80222237801332370324B29
:103D70001A70314CBBF1020F94F9003040F0AD8065
:103D800001335BB2042B40F0B0800023237000218C
:103D90000846FDF70FFE039B0221188880B2FDF74D
:103DA000DFFAFDF787FE2548FDF784FE029B1888A1
:103DB00000B2FDF75DFAFDF77DFE2148FDF77AFEC2
:103DC00001210620FDF7F6FD01210420FDF71AFE72
:103DD0001C4B93F800B0BBF1010F40F0BA8059467C
:103DE0000720FDF7E7FD59460020FDF70BFE82E0B6
:103DF0009C07002088070020780700207C0700200F
:103E00008C07002074080020540100208261000803
:103E1000936100089007002098070020700200209E
:103E2000BA6100086C080020C80700204F8C05000C
:103E3000F4000020180A00208D070020FA5E000818
:103E4000A4610008A407002056080020870700206E
:103E50009407002094F90030032B7FF7E0AEAB4CC1
:103E6000022894F9003040F0C68001335BB2042B85
:103E700040F0C7800023237000210846FDF79AFD1B
:103E8000A34B0221188880B2FDF76AFAFDF712FEF3
:103E9000A048FDF70FFEA04B188800B2FDF7E8F927
:103EA000FDF708FE9D48FDF705FE01210620FDF700
:103EB00081FD01210420FDF7A5FD994B93F80080B9
:103EC000B8F1010F40F01A8141460720FDF772FD5D
:103ED00041460020FDF796FD99E0BBF1010F05D1A9
:103EE000013B5BB2002BC0F2B780237094F9003025
:103EF000002B3FF44CAF94F900B0BBF1010F40F040
:103F0000AD8000210846FDF755FDD8F81000FDF7FB
:103F1000AFF9FDF7CFFD8348FDF7CCFD0A23D8F8B4
:103F200018005946B0FBF3F0FDF71AFAFDF7C2FD91
:103F30007848FDF7BFFD5946D8F820000A23B0FBAA
:103F4000F3F0FDF70DFAFDF7B5FD7748FDF7B2FD8B
:103F500084E001210720FDF72DFD0121022044E727
:103F6000724B1B68B3F57A7F06D900210846FDF72E
:103F700021FD6F48FDF79EFD6E4801F065F9019B3C
:103F8000002219786C4801F09DF96A4801F05CF94B
:103F90009AF800100022694801F094F9654801F090
:103FA00053F931680022664801F08CF9614801F04C
:103FB0004BF929680022634801F084F95D4801F05B
:103FC00043F9614B00221978604801F07BF95948A8
:103FD00001F03AF9D9F8001000225D4801F072F9B9
:103FE000544801F031F9002239685A4805B0BDE85B
:103FF000F04F01F067B9012804D1013B5BB2002BFF
:104000002ADB237094F90030002B3FF435AF94F98C
:104010000080B8F1010F21D10021DFF844B108463A
:10402000FDF7C8FCDBF81000FDF722F9FDF742FDB3
:104030003C48FDF73FFD0A23DBF818004146B0FB82
:10404000F3F0FDF78DF9FDF735FD3248FDF732FD50
:104050004146DBF8200071E70323237094F90080C8
:10406000B8F1020F22D100210846FDF7A3FC01217F
:104070004046FDF7C7FC00210120FDF79BFC3648B8
:10408000FDF718FD4FF461633868B0FBF3F0FDF7FE
:10409000EFF8FDF70FFD3148FDF70CFD032001217E
:1040A000FDF788FCD9F80000FEF766FA94F90040A5
:1040B000032C7FF461AF00210846FDF77BFC012152
:1040C0000020FDF79FFC00210120FDF773FC224832
:1040D000FDF7F0FC4FF461632868B0FBF3F0FDF7E7
:1040E000C7F8FDF7E7FC1D48FDF7E4FC2046012179
:1040F000FDF760FC3068FEF73FFA3DE7012107203D
:10410000FDF758FC01210220E4E600BF8D070020E6
:104110006C080020FA5E000856080020A461000820
:10412000A4070020805A0008E75E0008C8070020A6
:10413000D561000808590008FF60000814610008F4
:1041400029610008E6610008900700203961000835
:1041500051610008FE610008A3600008CB610008FF
:104160005401002001222DE9F041A54BA54C022865
:104170001A7086B094F9003028D113445BB2082B32
:104180002AD100232370FEF72DFA00210846FDF7FF
:1041900011FC9D48FDF78EFC0A209C4B01211B88D9
:1041A0009BB2B3FBF0F0FDF7DBF8FDF783FC98481A
:1041B000FDF780FC974B0221188880B2FDF7D0F8FC
:1041C000FDF778FC9448FDF775FC0AE0012804D15E
:1041D000013B5BB2002B27DB237094F90030002BEE
:1041E000D1D094F90030012B20D1FEF7FBF900214A
:1041F0000846FDF7DFFB8948FDF75CFC884B022190
:10420000188880B2FDF7ACF8FDF754FC8548FDF73F
:1042100051FC854BD88880B2FDF72AF8FDF74AFC9F
:104220008248FDF747FC01E00723237094F9005012
:10423000022D1DD1FEF7AAFB00210846FDF7BAFBAF
:104240007B48FDF737FC7B4B2946188880B2FDF789
:1042500087F8FDF72FFC7348FDF72CFC724B98880C
:1042600080B2FDF705F8FDF725FC7048FDF722FC4C
:1042700094F90030032B1CD1FEF788FB002108467F
:10428000FDF798FB6C48FDF715FC6C4B188800B2E5
:10429000FCF7EEFFFDF70EFC6948FDF70BFC624BE7
:1042A000588880B2FCF7E4FFFDF704FC5F48FDF797
:1042B00001FC94F90030042B1CD1FEF793F9002186
:1042C0000846FDF777FB5F48FDF7F4FB5E4B188867
:1042D00000B2FCF7CDFFFDF7EDFB5948FDF7EAFB17
:1042E000514B188880B2FCF7C3FFFDF7E3FB57483A
:1042F000FDF7E0FB94F90030052B47D1484E544FB1
:10430000FEF744FB32883B8892B29BB2D21A42F24B
:104310001073DFF828815343B8F800104D4D09B2EF
:1043200093FBF1F300210846AB64FDF743FB4A48D9
:10433000FDF7C0FB286CFCF79BFFFDF7BBFB474874
:10434000FDF7B8FBA86CFCF793FFFDF7B3FB4448FF
:10435000FDF7B0FB434800F077FFB8F800100022EB
:1043600009B2414800F0AEFF3E4800F06DFF3188D1
:10437000022289B23D4800F0A5FF3A4800F064FFF0
:10438000398802223A4889B200F09CFF94F9003043
:10439000062B0FD1FEF726F900210846FDF70AFB90
:1043A000344B01A91868FDF78AF8FDF783FB324802
:1043B000FDF780FB94F90030072B1DD1FEF7E6FADC
:1043C00000210846FDF7F6FA2C48FDF773FB2C4B4D
:1043D0001868FCF745FCFCF74BFFFDF76BFB294821
:1043E000FDF768FB104B588980B2FCF741FFFDF7E1
:1043F00061FB0948FDF75EFB06B0BDE8F08100BF38
:104400009C0700208E070020286200085408002026
:104410002D6200086A080020A060000832620008CF
:1044200074080020FA5E00085A0800209E60000808
:10443000376200086C0800203D6200085608002022
:104440004362000847620008580800209D60000889
:10445000B2020020040000204D62000850620008F3
:1044600055620008085900085D6200086162000892
:1044700068620008E40700209C6000087062000881
:1044800070080020736200080023F0B5774C85B0F7
:104490000093019302930393E389754D9AB24FF40D
:1044A000F023B3FBF2F3734A9BB21380A388E28933
:1044B00099B2AB6A92B24B43B3FBF2F3009300980C
:1044C000FDF7F4F802900298FDF746F96A4B1A6876
:1044D00010446A4A18601188013109B211801188AC
:1044E00009B21F290FDD196865480029B8BF1F31BF
:1044F000C1F34F11018000211180196003889BB224
:10450000022B98BF01806388E28999B2AB6B92B2AB
:104510004B43B3FBF2F300930098FDF7FFF8594BC0
:1045200080B218802188E38989B29AB2AB69564F6C
:1045300059430A234B43B3FBF2F301930198FDF770
:104540007DF803900398FDF705F9504B1A68104465
:104550004F4A18601188013109B21180118809B2DF
:104560001F2909DD19680029B8BF1F3141F34F1118
:104570003980002111801960E188E38989B29AB2FB
:104580002B6A594364234B43B3FBF2F30193019825
:10459000FDF770F803900398FDF7DDF83D4B1A68BE
:1045A00010443D4A18601188013109B21180118808
:1045B00009B21F290ADD196838480029B8BF1F3120
:1045C00041F34F1101800021118019603B88344E66
:1045D0001BB2B3F5FA6FAABF304B3B881B88338000
:1045E000A388E28999B22B6B92B24B43B3FBF2F3EF
:1045F00000930098FDF776F802900298FDF7ADF869
:10460000284A13681844284B10601988013109B2F0
:104610001980198809B21F2911461A4624DD086835
:10462000224B0028B8BF1F304011186000200860DE
:1046300010801A681E4992B20A801A68022AD8BFEE
:1046400018603288186811B22A6C4A43194992FBE3
:10465000F1F202441A601A68022ADCBF00221A60D2
:104660001B68154A9BB2138005B0F0BD5A080020A4
:10467000040000206A080020B8070020BC070020C2
:104680007408002054080020E8070020A807002034
:10469000AC070020B0070020B40700205808002015
:1046A00056080020C0070020C4070020D8070020BB
:1046B000B2020020F0D8FFFF6C080020F8B5FDF72B
:1046C0000FFF3C4A3C4F1368013313603B889BB299
:1046D000042B03D900233B80FFF7D6FE374E384D1D
:1046E00033889BB2632B84BF002333802B889BB21B
:1046F000B3F57A7F51D30023324C2B8023881BB231
:10470000012B07DC208800B2FCF792FE2E4B1A68C2
:104710001044186023881BB2022B07DD208800B2EA
:10472000FCF786FE294B1A6810441860284B1B784A
:10473000012B01BF274A136801331360264B1B78F6
:10474000012B01BF254A136801331360244B1B78EA
:10475000012B01BF234A136801331360224B1A68EF
:1047600001321A601B6813F0010F0CBF4FF40042B6
:104770004FF000421D4B1A6123881BB2B3F57A7FBC
:10478000A2BF01221A4B1A6123881BB2B3F57A7FAC
:10479000BEBF4FF48032164B1A613B8801339BB287
:1047A0003B80338801339BB233802B8801339BB22B
:1047B0002B80F8BDC8070020B0020020AE02002008
:1047C000AC020020560800207C070020780700205B
:1047D000870700208807002090070020940700200A
:1047E000A5070020CC070020E407002000080140B6
:1047F000000C014010B51D4C236843F48033236046
:1048000023689A03FCD5636823F47C1343F4A02344
:104810006360E36A23F00F03E362236843F080736D
:10482000236023689B01FCD5636823F0F003636079
:10483000636823F4E0636360636823F46053636038
:10484000636823F0030343F002036360636803F0CB
:104850000C03082BFAD1064800F07CFF044800F056
:1048600087FF636823F44043636010BD001002407B
:1048700000366E012DE9F04FC54D91B00120FDF7D6
:1048800033F9EB69DFF85C9343F08053EB61EB693C
:10489000DFF854A303F080530093009BD9F80C2059
:1048A000BC4B22F4E0621204120C1343C9F80C3022
:1048B000B94BBA4E5A68002422F0E0625A605A6836
:1048C0004FF0010B42F000725A60FFF793FF142281
:1048D000002109A800F084FF2020FDF705F904203D
:1048E000FDF702F90820FDF7FFF84FF60343CAF879
:1048F00014304FF409430227736140F203334FF041
:10490000040809A95046CDE9093BCDE90B7400F034
:10491000D5FDA34B09A95046CDE9093BCDF8308020
:104920000B9700F0CBFD9F4B09A93046CDE9093B21
:10493000CDE90B7400F0C2FD4FF2F002082309A983
:104940005046CDE90923CDF834B000F0B7FD6B69CE
:1049500043EA0B036B616B69934D03EA0B0301930D
:10496000019BD9F80C00C0F30220FDF74BFA4FF47D
:10497000006300FA08F0C0B285F80B031C222B601C
:10498000214609A800F02CFF1422214604A800F0BB
:1049900027FF4FF48040FDF7A7F84046FDF7A4F845
:1049A000092382493046CDE90413032304A9CDE944
:1049B000063400F083FD7E4B04A93046CDE904386F
:1049C00000F07CFDD9F80C00C0F30220FDF71AFAC4
:1049D000202300FA08F0C0B285F825036B60754DFE
:1049E00009A9EB68284643F08003EB604FF41643B7
:1049F000CDE909340C23CDE90B44CDE90D340F94F6
:104A000000F03CFE2B69142223F490432B616B6968
:104A1000214623F02A036B61EB6804A843F400539A
:104A2000EB60CDE9024400F0DBFE1422214609A828
:104A300000F0D6FE4FF40070FDF756F84046FDF743
:104A400053F847F67E6309A93046CDE9093400F0F2
:104A500035FD594B4FF480781A68A5F5A05522F41E
:104A6000804222F010021A601A6802A922F4405211
:104A700042F400521A601A68284642F020021A6076
:104A80001A6822F040021A601A6842F080021A6026
:104A90001A6822F4407242F480721A601A6822F492
:104AA000406242F480621A60444A9A60444ADA6082
:104AB0005A68120C120442F008025A601A6842EA5C
:104AC0000B021A600294CDF80C8000F0C0FC4FF489
:104AD000E0034FF4602004A9CDE904032846CDE9A2
:104AE0000647CDF8208000F0C7FC36494FF400702F
:104AF000FDF76CF93348FDF73FF9334940F20520E3
:104B0000FDF764F93048FDF737F9304940F20A20E3
:104B1000FDF75CF92D48FDF72FF92D4940F20F20E4
:104B2000FDF754F92A48FDF727F92A494FF4057093
:104B3000FDF74CF92748FDF71FF9274940F21920E6
:104B4000FDF744F92448FDF717F924494046FDF7DD
:104B50003DF92248FDF710F9AB68214943F4000301
:104B6000AB6040F20510FDF731F91D48FDF704F97F
:104B7000AB68642043F40003AB60AB6843EA0B030B
:104B8000AB60FCF759FAAB6843F00403AB602DE06F
:104B9000001002400003FA05000001400008014037
:104BA000FC00FC048900890400E100E0020002042A
:104BB0000400040400380140080002404C24014075
:104BC0005A08002001003002020060020300900237
:104BD0000400C0020500F00206002003100020813E
:104BE0001100508100ED00E0000C0140AC6814F0B1
:104BF0000404FBD1AB6843F4A003AB60FCF769FF8E
:104C000000F08CFA4FF47A72AE4B1B68B3FBF2F3F0
:104C1000013BB3F1807F08D2F021AB4A5360AB4B2C
:104C200083F823100723946013604FF4004300249B
:104C30003361A74DFDF7D6FCA6482C60FCF73AFF80
:104C4000FCF70AFAA44800F0FFFAA24800F096FA2E
:104C5000FCF758FE21462046FCF7ACFE4FF47A7074
:104C6000FCF7EAF9FBF760FB2B68172B88BF2C6079
:104C7000FBF738FE044668B94FF47A70FCF7DCF9AC
:104C8000FBF730FE0446944800F0DEFA934800F04B
:104C900075FA34B1012C14D18F4800F0D5FA904840
:104CA0000DE09048FCF706FF4FF47A60FCF7C4F97A
:104CB0008D48FBF7FBFF884800F0C6FA874800F0F4
:104CC0005DFA8A4D8A4B2A698A4C1A604FF46163F7
:104CD0002269894E5343894A1360A268884B1A603F
:104CE000236C884A33601360FBF784FF4FF47A70BB
:104CF000FCF7A2F9FCF7CCFE8348FCF74FFDA36854
:104D0000012B14D18148FCF72FFD814FDFF8FC9176
:104D1000DFF850823B7801333B70FDF713FC431EF4
:104D20000446032B20D8DFE803F01A40444B022B43
:104D300001D17848E7E7032B01D17748E3E7042B5B
:104D400001D17648DFE7052B01D17548DBE7062B5B
:104D500001D17448D7E7072BD4D17348D3E7FCF7C8
:104D6000FDFC4068FCF700FDFCF7F8FC81452BD109
:104D70002046FDF737FE98F8003003F0FF0183B9B5
:104D8000FDF730FC694B1970694B1970694B1B6852
:104D9000AB60694B1A68694B1A60694B1970012343
:104DA00033606420FCF748F9B4E7FCF7D7FC0068EF
:104DB000D8E70220FCF7FCFCFCF7D0FCC068D1E788
:104DC000FCF7CCFC8068CDE7FCF7C8FC514B834274
:104DD00003D12046FDF718F8CDE7FCF7BFFC4E4B9A
:104DE000834203D12046FEF71DF8C4E7FCF7B6FC6A
:104DF0004A4B834203D12046FEF78AF9BBE7FCF712
:104E0000ADFC474B834203D12046FDF763FCB2E77C
:104E1000FCF7A4FC4B4B834203D12046FEF7A4FED3
:104E2000A9E7FCF79BFC3F4B834203D12046FEF7EA
:104E30004DFBA0E7FCF792FC3B4B834203D120469D
:104E4000FEF796FD97E7FCF789FC3F4B834203D1C1
:104E50002046FDF76FFF8EE7FCF780FC3B4B83425B
:104E600003D12046FFF77EF985E7FCF777FC384B46
:104E7000834203D12046FDF73DF87CE7FCF76EFC4A
:104E8000344B834203D12046FDF7A2F873E7FCF7C9
:104E900065FC314B834203D12046FDF775F86AE784
:104EA000FCF75CFC2D4B834203D12046FDF7B8FB99
:104EB00061E7FCF753FC2A4B834255D12046FDF7AE
:104EC000F3FD58E78C02002010E000E000ED00E068
:104ED000780800207A0200201A5C00087862000836
:104EE000C45A000890620008A1620008F400002083
:104EF000800700205401002074020020180A0020BE
:104F00001C0A0020140A0020991C0008E46900080B
:104F1000850700203C6A0008946A0008EC6A0008D3
:104F2000446B0008F46B00084C6C00089D070020DF
:104F30008D0700207C0700209407002098070020A0
:104F400086070020706B0008A46C0008FC6C000849
:104F500048660008B86300086063000868640008D9
:104F6000106400089C070020FCF7F8FB3F4B8342CD
:104F700003D12046FDF740FEFDE6FCF7EFFB3C4B7E
:104F8000834203D12046FDF7FFFDF4E6FCF7E6FB84
:104F9000384B834203D12046FDF7BEFDEBE6FCF71C
:104FA000DDFB354B834203D12046FDF75DFEE2E693
:104FB000FCF7D4FB314B834203D12046FDF72CF89C
:104FC000D9E6FCF7CBFB2E4B834203D12046FDF7FD
:104FD0007FF8D0E6FCF7C2FB2A4B834203D1204680
:104FE000FDF79CF8C7E6FCF7B9FB274B834203D1DA
:104FF0002046FDF70BF9BEE6FCF7B0FB234B8342DE
:1050000003D12046FDF724F9B5E6FCF7A7FB204BBA
:10501000834203D12046FDF73DF9ACE6FCF79EFB49
:105020001C4B834203D12046FDF752F9A3E6FCF75F
:1050300095FB194B834203D12046FDF767F99AE6A9
:10504000FCF78CFB154B834203D12046FDF7BAF9E0
:1050500091E6FCF783FB124B834203D12046FDF718
:1050600007FA88E6002388F8003084E670650008B7
:1050700018650008C0640008B865000800660008EC
:10508000A0660008CC66000850670008A867000802
:105090000068000858680008B06800088C690008BB
:1050A000606900087047FEE7FEE7FEE7FEE770472D
:1050B00070477047FFF702BB7047000014490B6848
:1050C0001B0624D5134BB3F8582492B2DAB1B3F8C7
:1050D0005824013A92B2A3F85824B3F8562492B255
:1050E000501C80B2A3F856041A4492F86C20D2B235
:1050F0004A60B3F8562492B2B2F57A7F07D1002203
:10510000A3F856247047CB6823F08003CB60704728
:1051100000380140B402002070470000124A10B568
:105120005368124903F00C03082B0AD0104B0B6094
:105130005368104AC3F30313D25C0B68D3400B606F
:1051400010BD53685068C3F38343C00341BFD06AA6
:10515000074C00F00F0001304CBFB4FBF0F00648E4
:1051600002334343E3E700BF001002408C020020FB
:1051700000127A00256D000800093D000021304A28
:1051800010B5D36823F08003D3602E4B027802F071
:10519000FF045ABBB3F8542492B2511C89B2A3F84D
:1051A00054140A211A4482F86C10B3F8542492B2B1
:1051B000B2F57A7F08BFA3F85444B3F858240132FB
:1051C00092B2A3F85824B3F85A14B3F8582489B209
:1051D00092B291423EBFB3F8582492B2A3F85A2437
:1051E000174AD36843F08003D36010BDB3F854244A
:1051F00092B2541CA4B2A3F8544410F8014B1A44C0
:10520000E4B282F86C40B3F8542492B2B2F57A7FDB
:1052100008BFA3F85414B3F85824013292B2A3F88B
:105220005824B3F85A44B3F85824A4B292B2944222
:105230003EBFB3F8582492B2A3F85A24A6E700BFA1
:1052400000380140B402002000211C4A10B5D36888
:1052500023F08003D3601A4B02782AB9174AD36827
:1052600043F08003D36010BDB3F8542492B2541CB1
:10527000A4B2A3F8544410F8014B1A44E4B282F8E3
:105280006C40B3F8542492B2B2F57A7F08BFA3F809
:105290005414B3F85824013292B2A3F85824B3F846
:1052A0005A44B3F85824A4B292B294423EBFB3F821
:1052B000582492B2A3F85A24CEE700BF0038014028
:1052C000B402002037B501918DF803209DF803301A
:1052D00004460198002B3FD1FBF7CAFF0025474A3F
:1052E000D36823F08003D360454B227802F0FF019E
:1052F000002A36D10138B3F8542410F8014F92B285
:10530000002C57D1511C89B2A3F854140A211A4415
:1053100082F86C10B3F8542492B2B2F57A7F08BFC9
:10532000A3F85444B3F85824013292B2A3F8582495
:10533000B3F85A14B3F8582489B292B291423EBFDE
:10534000B3F8582492B2A3F85A242C4AD36843F0F5
:105350008003D36003B030BD9DF80310FCF700F864
:10536000BCE7B3F8542492B2511C89B2A3F8541488
:1053700014F8011B1A44C9B282F86C10B3F8542413
:1053800092B2B2F57A7F08BFA3F85454B3F8582408
:10539000013292B2A3F85824B3F85A14B3F858243F
:1053A00089B292B291423EBFB3F8582492B2A3F8A8
:1053B0005A249AE7541CA4B2A3F8544404781A441B
:1053C00082F86C40B3F8542492B2B2F57A7F08BFE9
:1053D000A3F85414B3F85824013292B2A3F8582415
:1053E000B3F85A44B3F85824A4B292B294423EBFE0
:1053F000B3F8582492B2A3F85A247CE7003801404D
:10540000B4020020002103E00B4B5B5843500431F1
:105410000A480B4B42189A42F6D30A4A02E000238C
:1054200042F8043B084B9A42F9D3FFF775FE00F0AF
:10543000A5F9FFF71FFA7047486D0008000000202B
:105440009002002090020020200A0020FEE7024681
:10545000806810B510F001000CD153684C6823F43B
:105460008073234353609368096823F400630B43FC
:10547000936010BD0120FCE7836810B5DB071BD4E7
:1054800043684A6823F4684312B18C68134323438A
:10549000436083680C6823F4602323F481732343FF
:1054A000CC68096923430B438360C36A23F4700308
:1054B0001343C362002010BD0120FCE72DE9F04F2B
:1054C0000D680446C5F30F2595FAA5F20327B2FA35
:1054D00082F24FF0040C4FF0011E40F2011835FA31
:1054E00002F001D1BDE8F08F012393402B4267D039
:1054F000072A88BFA2F10803D1F804A08ABF0EFAD8
:1055000003F308FA02F343F08063BAF1080F0DD1F8
:10551000E6684FEA132B9BFAABF9B9FA89F90869E7
:1055200026EA0B0600FA09F00643E6604FEA136923
:1055300093FAA3F6B6FA86F693FAA3FB0F20BBFA0A
:105540008BFBB60000FA06F654F809004FEA8B0B05
:1055500020EA06060AFA0BFB46EA0B0644F8096045
:10556000486820F0080001282AD193FAA3F0B0FA85
:1055700080F093FAA3FBBBFA8BFB800007FA00F0E4
:1055800026EA000688684FEA8B0B00FA0BFB46EA16
:105590000B0644F8096093FAA3FABAFA8AFA93FA66
:1055A000A3F3B3FA83F34FEA8A0A0CFA0AFA26EA5B
:1055B0000A0ACE689B009E404AEA060644F8096043
:1055C00001328CE7034B044A5B68C3F30313D35CDB
:1055D000D840704700100240256D0008034B044A74
:1055E0005B68C3F30223D35CD840704700100240CD
:1055F000356D0008034B044A5B68C3F3C223D35CD8
:10560000D840704700100240356D0008094B5A68B9
:10561000D20341BFD86A084A00F00F00013048BFEA
:10562000B2FBF0F05B6858BF0448C3F38343023316
:10563000584370470010024000127A0000093D00F4
:10564000044B5B6803F00C03082B01D1FFF7DEBFAE
:10565000014870470010024000127A0008B5014668
:10566000FFF7EEFF0860FFF7ADFF4860FFF7B6FFFA
:1056700088604868FFF7BEFFC86008BD30B5C368E2
:1056800004469B040D4685B002D5012005B030BD0F
:105690004B68C968C2680B43296922F416420B4360
:1056A000A96922F00C020B431343C3600369AA6883
:1056B00023F440531343036143696A6923F440733D
:1056C000134343616846FFF7C9FF1F4B9C4224D137
:1056D00003990029D9D02A68002AD6D019234B4330
:1056E000A969B1F5004F4FF064011FD15200B3FB1F
:1056F000F2F3B3FBF1F001FB1033DB003233B3FB09
:10570000F1F303F007025B0002EB001203F4F873FD
:1057100013449BB20020A360B8E70C4B9C4201D11C
:105720000299D6E70A4B9C42AFD1F9E79200B3FB4E
:10573000F2F3B3FBF1F201FB12331B013233B3FB83
:10574000F1F303EB0213E4E70038014000440040AA
:10575000004800404FF47A73B0FBF3F00022034B93
:10576000013858609A6005221A60704710E000E026
:10577000014B1860704700BF8C02002070B50026F6
:105780000C4D0D4C641BA410A64209D100F030F85A
:1057900000260A4D0A4C641BA410A64205D170BD18
:1057A00055F8043B98470136EEE755F8043B984717
:1057B0000136F2E7406D0008406D0008406D0008BA
:1057C000446D00080A44914200F1FF3300D1704754
:1057D00010B511F8014B914203F8014FF9D110BDFA
:1057E00003460244934200D1704703F8011BF9E7D6
:1057F000F8B500BFF8BC08BC9E467047F8B500BFBE
:08580000F8BC08BC9E4670478D
:1058080000070E091C1B1215383F363124232A2D98
:1058180070777E796C6B6265484F464154535A5D88
:10582800E0E7EEE9FCFBF2F5D8DFD6D1C4C3CACD78
:1058380090979E998C8B8285A8AFA6A1B4B3BABD68
:10584800C7C0C9CEDBDCD5D2FFF8F1F6E3E4EDEA58
:10585800B7B0B9BEABACA5A28F88818693949D9A48
:105868002720292E3B3C35321F18111603040D0A38
:105878005750595E4B4C45426F68616673747D7A28
:10588800898E878095929B9CB1B6BFB8ADAAA3A418
:10589800F9FEF7F0E5E2EBECC1C6CFC8DDDAD3D408
:1058A800696E676075727B7C51565F584D4A4344F8
:1058B800191E171005020B0C21262F283D3A3334E8
:1058C8004E49404752555C5B7671787F6A6D6463D8
:1058D8003E39303722252C2B0601080F1A1D1413C8
:1058E800AEA9A0A7B2B5BCBB9691989F8A8D8483B8
:1058F800DED9D0D7C2C5CCCBE6E1E8EFFAFDF4F3A8
:1059080044454255473A200073697A653A20007643
:10591800616C3A20004661696C20746F2072656181
:105928006420616464726573733A2000454570723F
:105938006F6D56616C7565206973203A2000464C7E
:105948004153485F424153452B313032342A31327A
:1059580033203A200043616C6962726174696F6E2A
:105968005772697465546F466C61736820004361AF
:105978006C6962726174696F6E466163746F727983
:105988005772697465546F466C617368200043618F
:105998006C6962726174696F6E5265616446726F98
:1059A8006D466C617368200043616C696272617452
:1059B800696F6E5265616446726F6D466C6173689B
:1059C800466F72566572696679200053657474690A
:1059D8006E67735772697465546F466C617368209B
:1059E8000053657474696E6773466163746F727986
:1059F8005772697465546F466C617368200053650B
:105A08007474696E67735265616446726F6D466C33
:105A1800617368200053657474696E6773526561B9
:105A28006446726F6D466C617368466F7256657234
:105A38006966792000446174615768656E506F77B4
:105A480065724F66665F466163746F72795F5772FD
:105A5800697465546F466C617368200044617461B1
:105A68005768656E506F7765724F666652656164F8
:105A780046726F6D466C61736820004461746157AB
:105A880068656E506F7765724F66665265616446E9
:105A9800726F6D466C617368466F7256657269669F
:105AA800792000526561642066726F6D20454570EB
:105AB800726F6D202D204641494C2000526561646B
:105AC8002066726F6D20454570726F6D202D2053D2
