:020000040800F2
:1000000000200020B556000855530008575300083B
:10001000595300085B5300085D53000800000000BE
:100020000000000000000000000000005F53000816
:100030006153000800000000635300086553000886
:10004000FD560008FD560008FD560008FD56000844
:10005000FD560008FD560008FD560008FD56000834
:10006000FD560008FD560008FD56000869530008BB
:10007000FD560008FD560008FD560008FD56000814
:10008000FD560008FD560008FD560008000000005F
:10009000000000000000000000000000FD56000805
:1000A000FD560008FD560008FD560008FD560008E4
:1000B000FD560008FD560008FD560008FD560008D4
:1000C000FD5600080000000000000000FD5600087A
:1000D000FD5600086D530008FD560008FD56000847
:1000E000FD560008FD560008FD56000800000000FF
:1000F0000000000000000000000000000000000000
:1001000000000000000000000000000000000000EF
:100110000000000000000000FD560008FD56000829
:1001200000000000000000000000000000000000CF
:1001300000000000000000000000000000000000BF
:1001400000000000000000000000000000000000AF
:10015000000000000000000000000000000000009F
:10016000000000000000000000000000000000008F
:10017000000000000000000000000000000000007F
:10018000000000000000000000000000000000006F
:10019000000000000000000000000000000000005F
:1001A000000000000000000000000000000000004F
:1001B000000000000000000000000000000000003F
:1001C0000000000000000000000000005FF808F1DF
:1001D00010B5054C237833B9044B13B10448AFF381
:1001E00000800123237010BD900200200000000059
:1001F000A05A000808B5034B1BB103490348AFF3ED
:10020000008008BD0000000094020020A05A0008F1
:100210000E4A1346D168C907FCD4D168890644BF89
:100220002021D1601A6942F002021A6158611A69EC
:1002300042F040021A61054BDA689206FCD5202292
:10024000DA601A6922F002021A6170470020024047
:10025000034B044A5A6002F188325A60704700BF6B
:100260000020024023016745024A136943F08003DE
:100270001361704700200240114B10B51A46DC682C
:10028000E407FCD4DC68A40644BF2024DC601369C6
:1002900043F0010313610A4A8BB203801346D4680A
:1002A000A406FCD52024090CD4604180DA689206AB
:1002B000FCD52022DA601A6922F001021A6110BD11
:1002C0000020024038B572B6FFF7C2FF104805F0B3
:1002D00013F9104C00224FF4CE710F4805F04AF983
:1002E0000B4805F009F9002221680C4805F042F995
:1002F0000B48FFF78DFF0B4D094854F8041BFFF71F
:10030000BBFF0430A842F8D1FFF7AEFF62B638BD9C
:10031000B85B000878080020C05B0008C75B0008D5
:1003200000E401089CE50108054A064B064953F81C
:10033000040B8B4242F8040BF9D10120704700BF37
:100340007808002000E401089CE50108F8B504687D
:1003500007468C420D4601D394421BD900260E4B12
:100360000E481E7005F0C8F8324639460C4805F0B4
:1003700001F90A4805F0C0F821463246094805F05F
:10038000F9F8064805F0B8F832460749074805F07D
:10039000F1F82C462046F8BD00000020B85B0008AC
:1003A000CD5B0008E45B000800EC0108F65B000888
:1003B00010B5194C6068FFF72BFFD4E90010FFF768
:1003C0005BFFD4E90210FFF757FFD4E90410FFF7F1
:1003D00053FFD4E90610FFF74FFFD4E90810FFF7E9
:1003E0004BFFD4E90A10FFF747FFD4E90C10FFF7E1
:1003F00043FFD4E90E10FFF73FFFD4E91010FFF7D9
:100400003BFFD4E91210FFF737FF044805F074F8FA
:10041000034805F00BF810BD04000020B85B00088D
:100420000D5C000810B5194C6068FFF7F1FED4E9C7
:100430000010FFF721FFD4E90210FFF71DFFD4E9F8
:100440000410FFF719FFD4E90610FFF715FFD4E9F0
:100450000810FFF711FFD4E90A10FFF70DFFD4E9E8
:100460000C10FFF709FFD4E90E10FFF705FFD4E9E0
:100470001010FFF701FFD4E91210FFF7FDFE04484A
:1004800005F03AF8034804F0D1FF10BD54000020F5
:10049000B85B0008265C000838B5254C4FF4807224
:1004A00000216068FFF752FF4FF47A72206000214C
:1004B000E068FFF74BFF4FF47A72A060002160699B
:1004C000FFF744FF1B4D20612A460A21E069FFF730
:1004D0003DFF2A46A0610A21606AFFF737FF2A46DE
:1004E00020620A21E06AFFF731FF2A46A0620A2152
:1004F000606BFFF72BFF2A4620630A21E06BFFF7B2
:1005000025FF4FF49672A0634621606CFFF71EFF33
:100510004FF496720A212064E06CFFF717FFA06485
:10052000054804F0E9FF054804F080FF38BD00BF2E
:1005300004000020A0860100B85B0008465C0008AB
:1005400038B5254C4FF4807200216068FFF7FEFE3D
:100550004FF47A7220600021E068FFF7F7FE4FF455
:100560007A72A06000216069FFF7F0FE1B4D2061E8
:100570002A460A21E069FFF7E9FE2A46A0610A211E
:10058000606AFFF7E3FE2A4620620A21E06AFFF76D
:10059000DDFE2A46A0620A21606BFFF7D7FE2A46DD
:1005A00020630A21E06BFFF7D1FE4FF49672A0633F
:1005B0004621606CFFF7CAFE4FF496720A21206450
:1005C000E06CFFF7C3FEA064054804F095FF054802
:1005D00004F02CFF38BD00BFA4000020A08601005D
:1005E000B85B0008605C000810B5174C6068FFF746
:1005F0000FFED4E90010FFF73FFED4E90210FFF729
:100600003BFED4E90410FFF737FED4E90610FFF7EC
:1006100033FED4E90810FFF72FFED4E90A10FFF7E4
:100620002BFED4E90C10FFF727FED4E90E10FFF7DC
:1006300023FED4E91010FFF71FFE044804F05CFF0E
:10064000034804F0F3FE10BD54010020B85B00081D
:10065000835C000810B5174C6068FFF7D9FDD4E93A
:100660000010FFF709FED4E90210FFF705FED4E9F8
:100670000410FFF701FED4E90610FFF7FDFDD4E9F1
:100680000810FFF7F9FDD4E90A10FFF7F5FDD4E9EA
:100690000C10FFF7F1FDD4E90E10FFF7EDFDD4E9E2
:1006A0001010FFF7E9FD044804F026FF034804F0AA
:1006B000BDFE10BD9C010020B85B0008995C0008DD
:1006C00010B5224C4FF4807200216068FFF73EFEA7
:1006D0000A2220600121E068FFF738FE4FF47A72A9
:1006E000A06001216069FFF731FE4FF47A6220615A
:1006F0000121E069FFF72AFE4FF47A62A06101212F
:10070000606AFFF723FE42F2107220620021E06A65
:10071000FFF71CFE42F21072A0620021606BFFF72F
:1007200015FE642220630021E06BFFF70FFE032219
:100730000121A063606CFFF709FE2064044804F007
:10074000DBFE044804F072FE10BD00BF540100201F
:10075000B85B0008B65C000810B5224C4FF48072FC
:1007600000216068FFF7F2FD0A2220600121E068A5
:10077000FFF7ECFD4FF47A72A06001216069FFF78A
:10078000E5FD4FF47A6220610121E069FFF7DEFDAB
:100790004FF47A62A0610121606AFFF7D7FD42F24F
:1007A000107220620021E06AFFF7D0FD42F2107261
:1007B000A0620021606BFFF7C9FD64222063002165
:1007C000E06BFFF7C3FD03220121A063606CFFF71C
:1007D000BDFD2064044804F08FFE044804F026FEAA
:1007E00010BD00BFE4010020B85B0008CD5C00082C
:1007F00038B5124D124C284604F07EFE0022A16846
:10080000104804F0B7FE6068FFF702FDD4E900105D
:10081000FFF732FDD4E90210FFF72EFDD4E90410F2
:10082000FFF72AFDD4E90610FFF726FD284604F05D
:1008300063FE054804F0FAFD38BD00BFB85B000850
:10084000F4000020ED5C0008FC5C000810B50D4CC5
:100850006068FFF7DDFCD4E90010FFF70DFDD4E977
:100860000210FFF709FDD4E90410FFF705FDD4E9F4
:100870000610FFF701FD044804F03EFE034804F0B3
:10088000D5FD10BD14010020B85B00081A5D0008FA
:1008900038B5114C4FF4807200216068FFF756FDA7
:1008A0000E4D20602A460021E068FFF74FFD2A46E2
:1008B000A06000216069FFF749FD0122002120614D
:1008C000E069FFF743FDA061054804F015FE054807
:1008D00004F0ACFD38BD00BFF400002000286BEE32
:1008E000B85B0008415D000838B5114C4FF48072C8
:1008F00000216068FFF72AFD0E4D20602A46002186
:10090000E068FFF723FD2A46A06000216069FFF739
:100910001DFD012200212061E069FFF717FDA061A4
:10092000054804F0E9FD054804F080FD38BD00BF2E
:100930003401002000286BEEB85B0008605D000801
:1009400070B501240E4D2C7072B6FFF7A1FFFFF7B2
:10095000B7FEFFF7A1FD62B62E780A483EB904F053
:10096000CBFD094804F062FD2C70304670BD04F0E8
:10097000C3FD064804F05AFD26462C70F5E700BF7B
:1009800000000020B85B0008885D0008A15D000839
:1009900070B51446C0B006460D464FF480726846E6
:1009A000074905F067F8204616F8012B013D424043
:1009B00015F0FF051DF80200F6D140B070BD00BF74
:1009C000B85A000838B572B6144D00224C2128469A
:1009D000FFF7DEFF044645F8040CFFF739FCFFF78C
:1009E000E7FCFFF7ADFD00224C210D48FFF7D0FFDB
:1009F00084420C4809D104F07FFD0B4804F016FD39
:100A0000FFF732FC62B6012038BD04F075FD0748DF
:100A100004F00CFDFFF7CCFCF2E700BF080000205B
:100A2000A8000020B85B0008E15D0008065E000831
:100A300038B572B6244D002244212846FFF7A8FF9E
:100A40000446224804F058FD00222146204804F0C4
:100A500091FD1E4804F050FD002244211D4804F081
:100A600089FD45F8044CFFF7F3FBFFF7BDFDFFF7E9
:100A700073FE002244211848FFF78AFF05461348F9
:100A800004F03AFD00222946114804F073FD0F4896
:100A900004F032FD0F480022442104F06BFDAC420B
:100AA0000A4809D104F028FD0C4804F0BFFCFFF708
:100AB000DBFB62B6012038BD04F01EFD084804F0DF
:100AC000B5FCFFF791FDF2E758010020B85B000884
:100AD000365E0008415E0008E80100204D5E000817
:100AE0006F5E000870B572B61C4D00221C212846AE
:100AF000FFF74EFF044645F8040CFFF7A9FBFFF78C
:100B000077FEFFF7F1FE164804F0F6FC6969002253
:100B10001448154D04F02EFD114804F0EDFC0022A0
:100B2000A969104804F026FD00221C21281DFFF7AA
:100B30002FFF84420A4809D104F0DEFC0B4804F080
:100B400075FCFFF791FB62B6012070BD04F0D4FC88
:100B5000074804F06BFCFFF74BFEF2E7F8000020BB
:100B6000B85B0008BC5D0008340100209C5E0008F2
:100B7000C65E000838B54A4804F0BEFC494804F097
:100B800055FC72B6484DFFF763FB00224C21284606
:100B9000FFF7FEFE044645F8040CFFF743FCFFF7A1
:100BA000CFFC00224C214148FFF7F2FE84423C4832
:100BB0005DD104F0A1FC3E4804F038FC3D4D00221C
:100BC00044212846FFF7E4FE0446354804F094FC2F
:100BD00000222146384804F0CDFC314804F08CFC5A
:100BE00000224421354804F0C5FC45F8044CFFF7C9
:100BF00031FDFFF7B1FD002244213148FFF7C8FE67
:100C00000546274804F078FC002229462A4804F0CB
:100C1000B1FC234804F070FC28480022442104F071
:100C2000A9FCAC421E482AD104F066FC254804F019
:100C3000FDFB254D00221C212846FFF7A9FE044696
:100C400045F8040CFFF702FEFFF74EFE00221C21C0
:100C50001E48FFF79DFE8442114818D104F04CFC59
:100C60001B4804F0E3FBFFF7FFFA62B638BD04F05F
:100C700043FC184804F0DAFBFFF7D4FB9EE704F0CE
:100C80003BFC154804F0D2FBFFF7E4FCD1E704F08D
:100C900033FC124804F0CAFBFFF7D8FDE3E700BFBE
:100CA000B85B0008C85D000858000020A8000020BC
:100CB000E05D0008A0010020355E0008405E0008ED
:100CC000E80100204C5E00081801002038010020D7
:100CD0009B5E0008055E00086E5E0008C55E0008A9
:100CE000174918482DE9F04142F2107C00240E46C5
:100CF0000546154FB1F900E0B1F90420B1F90280C1
:100D0000A2EB0E020CFB02F2B1F906300134A3EBA8
:100D1000080392FBF3F3436003FB08F393FBF7F341
:100D2000072C7344C0F80080836001F1040100F1D6
:100D30000C00DFD1B6F91E306B65BDE8F08100BF55
:100D40002C020020F4070020F0D8FFFF114B10B553
:100D50001A6882421ADB194600220C6884420EDBB4
:100D6000CC6884420BDA0C2101FB023253685843F1
:100D700042F2107390FBF3F09368184410BD0132F7
:100D8000072A01F10C01E8D1C820F7E76FF009004C
:100D9000F4E700BFF40700202DE9F0415D4C064662
:100DA000206800F0DBFA0022276807EB07133901FF
:100DB000234410F802C015460132D2B2BCF1000F34
:100DC0001BD1CB19E01805443A200433287104EBF9
:100DD000030C701E10F8016FD5B296B92A46202177
:100DE0002B4423440F2A75D9102DC5F1100188BF5B
:100DF00000210D4405F0FF050EE01D4485F804C0F8
:100E0000D7E70F2D03D80CF802600132E2E7002388
:100E1000394421440A4413713F4804F06DFB2946CC
:100E200000223E4804F0A6FB236803EB0311214493
:100E3000294400250133172B0D7123603ED90A2662
:100E40002F464FF02008284600F088FA002305EBD3
:100E500005112A01214410F803E09C460133DBB25E
:100E6000BEF1000F3BD13A20511921448C448CF83B
:100E7000040006EB0610204401EB030C9CF804C0B0
:100E8000BCF1000F2FD1581EC0B284465119043155
:100E900001442144BCF10F0F34D91028C3F11103D0
:100EA000DBB288BF00232A442244024401351344A4
:100EB0000E2D1F7106F10106C5D12560FFF702FA5C
:100EC000154804F019FB21680022BDE8F0411448E0
:100ED00004F050BB013203F8011BD2B282E78C440C
:100EE0008CF804E0B7E700EB030C092D8CBF9CF8ED
:100EF00004C09CF805C001EB030E01338EF804C05A
:100F0000DBB2B9E70CF1010C01F8018B5FFA8CFC44
:100F1000C0E700BF78080020B85B0008FA5E000850
:100F2000FF5E00082DE9F8435E4C804620680E46BF
:100F300000F014FA0022276807EB07133901234455
:100F400010F802C015460132D2B2BCF1000F1DD11B
:100F5000CB19E018054404332E7108F1FF3004EB7F
:100F6000030E10F801CFD5B2BCF1000F12D12A4602
:100F700020212B4423440F2A75D9102DC5F11001CF
:100F800088BF00210D4405F0FF050EE01D4485F8E3
:100F900004C0D5E70F2D03D80EF802C00132E0E7F8
:100FA0000023394421440A4413713F4804F0A4FA51
:100FB000294600223D4804F0DDFA236803EB0311C3
:100FC0002144294400250133172B0D7123603ED99C
:100FD0000A27A8464FF02009284600F0BFF9002351
:100FE00005EB05112A01214410F803E09C4601336A
:100FF000DBB2BEF1000F3BD1511921448C4407EB09
:1010000007108CF80460204401EB030C9CF804C02A
:10101000BCF1000F30D1581EC0B2844651190431C2
:1010200001442144BCF10F0F35D91028C3F111033D
:10103000DBB288BF00232A44224402440135134412
:101040000E2D83F8048007F10107C5D12560FFF755
:1010500039F9154804F050FA21680022BDE8F84338
:10106000134804F087BA013203F8011BD2B282E7B9
:101070008C448CF804E0B7E700EB030C092D8CBF1F
:101080009CF804C09CF805C001EB030E01338EF8F8
:1010900004C0DBB2B8E70CF1010C01F8019B5FFA68
:1010A0008CFCBFE778080020B85B0008FA5E0008F7
:1010B000FF5E0008002384B00128009301D1009056
:1010C00004E00228FBD003281AD01CD8124B9A68DF
:1010D0000192019A02929A6803920399029A9142AC
:1010E00004D35A6801990A4401320192039A029288
:1010F000019A03980099121A8A42ECD304B07047FF
:1011000012230093E2E7054B054A1B680338B3FB43
:10111000F2F35843D3E700BF10E000E08C02002058
:1011200040420F0007B50190019B13B903B05DF871
:1011300004FB4FF47A70FFF7BDFF019B013B019365
:10114000F2E7000038B5684C684D204604F0D4F949
:1011500029680022664804F00DFA204604F0CCF914
:10116000A9680022634804F005FA204604F0C4F997
:1011700029690022604804F0FDF9204604F0BCF91A
:10118000A96900225D4804F0F5F9204604F0B4F99D
:10119000296A00225A4804F0EDF9204604F0ACF91F
:1011A000A96A0022574804F0E5F9204604F0A4F9A2
:1011B000296B0022544804F0DDF9204604F09CF924
:1011C000A96B0022514804F0D5F9204604F094F9A7
:1011D000296C00224E4804F0CDF9204604F08CF929
:1011E000A96C00224B484C4D04F0C4F93220FFF7A3
:1011F00099FF204604F080F929680022474804F04E
:10120000B9F9204604F078F9A9680022444804F0AE
:10121000B1F9204604F070F929690022414804F030
:10122000A9F9204604F068F9A96900223E4804F0B3
:10123000A1F9204604F060F9296A00223B4804F035
:1012400099F9204604F058F9A96B0022384804F0B7
:1012500091F9204604F050F9A96A0022354804F0BB
:1012600089F9204604F048F9296B0022324804F03D
:1012700081F9204604F040F9296C00222F4804F03F
:1012800079F92F4D3220FFF74DFF204604F034F955
:10129000296800222B4804F06DF9204604F02CF94F
:1012A000A9680022284804F065F9204604F024F9D2
:1012B00029690022254804F05DF9204604F01CF954
:1012C000A9690022224804F055F9204604F014F9D7
:1012D000204B21481968002204F04CF9BDE8384041
:1012E0003220FFF71FBF00BF035F0008040000208B
:1012F0000A5F00081D5F00083B5F00085A5F000896
:10130000775F0008955F0008B25F0008D05F0008B3
:10131000EE5F00080C600008540100202460000803
:1013200038600008516000085E6000086B600008CB
:10133000786000088660000898600008AB600008CC
:10134000F4000020C8600008E46000080C61000898
:101350002E6100088C0200203A610008F0B50023DD
:101360000A2780EAE07185B0A1EBE0711C46B1FB71
:10137000F7F604AD2C4407FB1615303504F8105C65
:101380000C46DAB2531C092C31465BB2EEDC002865
:1013900006DA04A90B442D21023203F8101C53B2C3
:1013A000002104AA1A4402F8101C1A46084CD0B2B4
:1013B000191A49B21AB90648625405B0F0BD04AD15
:1013C0002A4412F8112C6254421E52B2EFE700BFB9
:1013D0004C070020F0B5044600234FF00A0C0846E5
:1013E00084EAE47185B0A1EBE4711D46B1FBFCF722
:1013F00004AE35440CFB1716303605F8106C0D465C
:10140000DAB2531C092D39465BB2EEDC002C06DA49
:1014100004A90B442D21023203F8101C53B2002101
:1014200004AA1A4402F8101C1A46D4B2191B49B275
:10143000451812B92A7005B0F0BD04AD2A4412F85F
:10144000112C4254621E52B2EFE7000000224FF00E
:101450000A0CF0B580EAE0748BB0A4EBE07415469A
:10146000B4FBFCF70AAE35440CFB1746303605F8E2
:10147000286C2546D3B25A1C092D3C4652B2EEDCEC
:10148000012A0AAC1444D7BF3022002304F8282CC8
:101490009A1CD4BF52B204F8283C022A08DC012965
:1014A00006D930240AAB1344013203F8284C52B257
:1014B00000242E26234665B2AA4212DC002806DA52
:1014C0000AA95A1C0B442D2103F8141C53B21A46C6
:1014D000114CD0B2191A49B2B2B90F4862540BB0CC
:1014E000F0BD8B421D4605D10AAF01333D445BB2CE
:1014F00005F8146C1DF804700AAD1D44013305F89D
:10150000147C5BB20134D6E70AAD2A4412F8152CDC
:101510006254421E52B2DCE75C070020F0B505467B
:1015200000244FF00A0E084685EAE5718BB0A1EB66
:10153000E5712646B1FBFEFC0AAF3E440EFB1C17CC
:10154000303706F8287C0E46E3B25C1C092E614653
:1015500064B2EEDC012C0AA92144D7BF3024002359
:1015600001F8284C9C1CD4BF64B201F8283C022C22
:1015700008DC012A06D930210AAB2344013403F8E0
:10158000281C64B200212E270B464EB2A64211DB66
:10159000002D06DA0AA95A1C0B442D2103F8141C4D
:1015A00053B21A46D4B2191B49B24518B2B92A70BF
:1015B0000BB0F0BD93421E4606D10DF1280C01334D
:1015C00066445BB206F8147C1DF801C00AAE1E44E6
:1015D000013306F814CC5BB20131D6E70AAD2A44D8
:1015E00012F8152C4254621E52B2DBE7002802D0DA
:1015F000DCBF404200B2704702460023D8B2115C03
:1016000001330029FAD1704770B505460024104611
:1016100062B2AB5C661C43B95AB28D5CE21852B23E
:101620008618013325B9357070BD34468354EFE711
:101630008554F1E7F0B504460F461846002569B217
:10164000635C6E1C83B9DEB2F95C74195FFA84FCCA
:1016500064B261B94BB2D45C0CEB01035BB2C51848
:10166000013144B92C70F0BD35464354E7E7731C93
:1016700001555BB2E7E7C454ECE72DE9F0410746BA
:101680004FF4616086B00C46B7FBF0F001A9FFF79C
:10169000A1FE01A8FFF7B0FF012896BF012200229A
:1016A0003023154698BF2370EEB2B31A06A95BB279
:1016B0000B4413F8141C6319751C6DB2002949D131
:1016C0003A221A703C23B7FBF3F2B2FBF3F001A904
:1016D00003FB1020FFF77EFE01A8FFF78DFF012816
:1016E0009FBF30236355B51C6DB22E465FFA86F856
:1016F000A8EB050306AA5BB2134413F8142CA31934
:1017000008F1010676B23ABB3A221A703C23B7FBC5
:10171000F3F001A903FB1070FFF75CFE01A8FFF7CF
:101720006BFF01289CBF3023A3554FF000039CBFE3
:1017300008F1020676B25AB206A90A4412F8141C3D
:101740009A1952B2A018013341B90170204606B06F
:10175000BDE8F0811970A7E71A70C7E7A154EAE75E
:10176000F0B506464FF4616087B00C46B6FBF0F06A
:1017700001A9FFF72FFE01A8FFF73EFF012896BF42
:10178000012200223023154698BF2370EFB2BB1A06
:1017900006A95BB20B4413F8141C63197D1C6DB2CF
:1017A00029BB3A221A703C23B6FBF3F6B6FBF3F0E2
:1017B00001A903FB1060FFF70DFE01A8FFF71CFF56
:1017C00001289CBF302363554FF000039CBFBD1C14
:1017D0006DB25AB206A90A4412F8141C5A1952B230
:1017E000A018013329B90170204607B0F0BD197067
:1017F000CCE7A154EDE700000C494B680A688B6008
:101800009342C1E9000205DC834209DC9042A8BF93
:1018100010467047824203DC9842A8BF18467047C2
:101820009342A8BF13461846704700BF1007002018
:101830000C494B680A688B609342C1E9000205DCE1
:10184000834209DC9042A8BF10467047824203DC05
:101850009842A8BF184670479342A8BF134618463F
:10186000704700BF1C0700200C494B680A688B605A
:101870009342C1E9000205DC834209DC9042A8BF23
:1018800010467047824203DC9842A8BF1846704752
:101890009342A8BF13461846704700BF2807002090
:1018A0000C494B680A688B609342C1E9000205DC71
:1018B000834209DC9042A8BF10467047824203DC95
:1018C0009842A8BF184670479342A8BF13461846CF
:1018D000704700BF340700200C494B680A688B60D2
:1018E0009342C1E9000205DC834209DC9042A8BFB3
:1018F00010467047824203DC9842A8BF18467047E2
:101900009342A8BF13461846704700BF4007002007
:101910007047704770477047014B1868704700BFA9
:101920004C020020094B10B598420DD060B1084A16
:10193000084C126820600AB11830904723681B6970
:1019400013B1BDE81040184710BD00BF4C6100083E
:10195000700700204C020020024B1860024B1868F0
:10196000FFF7E0BF700700204C020020044B054A3F
:101970001B68934203D013B15B6903B118477047EA
:101980004C0200204C6100084FF4804310B5064C17
:1019900002202361FFF78EFB4FF08043022023617A
:1019A000BDE81040FFF786BB000C014070B54FF05A
:1019B0007C454FF480560D4C25612661FFF7E4FF0E
:1019C0000120FFF7AFFB25612661FFF7DDFF012056
:1019D000FFF7A8FB4FF4806325612361FFF7D4FF75
:1019E000BDE870400120FFF79DBB00BF000C014027
:1019F0004FF07C42244B70B504460D461A6111B17C
:101A00004FF400421A61E20644BF4FF400521A61DB
:101A100014F0200F18BF4FF480521B4B18BF1A61EF
:101A2000660644BF4FF400621A6114F0800F18BFBD
:101A30004FF48063144E18BF3361FFF7A5FF4FF0DA
:101A40007053E007336144BF4FF400533361A10783
:101A500042BF4FF480520C4B1A61620742BF4FF4F1
:101A60000062094B1A61230742BF4FF48062064BA4
:101A70001A61FFF789FF0220FFF754FB1DB14FF0F9
:101A80000042014B1A6170BD000C0140C00040F0E3
:101A9000400038B500F0F8000C460021FFF7A8FF21
:101AA000651E073415F8010F0121FFF7A1FFA542BC
:101AB000F8D1BDE8384000218020FFF799BF000031
:101AC00073B51F4C1F4D69460020CDE900451E4EE1
:101AD000FFF7DCFF1D4B69460120CDE90036FFF71B
:101AE000D5FF1B4B6946CDE900350220194DFFF7A4
:101AF000CDFF69460320CDE90056FFF7C7FF6946D1
:101B00000420CDE90054FFF7C1FF134A134B694687
:101B10000520CDE90023FFF7B9FF114B114906203D
:101B2000CDE900136946FFF7B1FF0F4B0F48694637
:101B3000CDE900030720FFF7A9FF02B070BD00BF89
:101B400004150E0400041F1F0000041F150E0400DE
:101B500000040E15040E15040207070A0A1C1C08CF
:101B6000051509000F050505010101001111111FDF
:101B7000064A1070064A117019B940F08000FFF74C
:101B800037BF002140F0C000F9E700BF7407002014
:101B90007507002070B505460E460446207800B94A
:101BA00070BD0121FFF724FF012E07D1631BDBB2BB
:101BB000072B03D131460020FFF7DAFF0134EDE7B0
:101BC0000121C0B2FFF714BF2DE9F8430D46DFF83D
:101BD00078801B4E1B4F441E14F8010F08B9BDE856
:101BE000F883B22819D101214920FFF701FF33788A
:101BF00097F800900133DBB23370B9F1000FEBD1ED
:101C0000082BE9D1022DE7D101214846FFF7B0FFAB
:101C1000012386F800903B70DEE7AF2802D1012156
:101C20000320E2E7AA2802D101210220DDE7BF2834
:101C300089BF40440121012110F8C00CD5E700BF45
:101C400074070020750700205002002000210120A9
:101C5000FFF7CEBE08B56420FFF764FAFFF7A6FED3
:101C600000210E20FFF7C4FEBDE80840FFF7EEBFDD
:101C70000221FFF7A9BF10B5044608461146FFF739
:101C800077FF2046BDE810400221FFF79DBF08B551
:101C9000FFF7E0FFFFF7DAFFBDE8084000210C2066
:101CA000FFF7A6BE054B82B09A6902439A619B6911
:101CB00018400190019B02B0704700BF0010024025
:101CC0000022014B1A807047DE07002008B5FEF79E
:101CD00079FEBDE808400148FFF75EB8646100087E
:101CE00010B53B4C94F9001061B90846FFF740FF6E
:101CF0003848FFF7BDFF4FF48762374B9A6140F2D7
:101D0000B4521A6294F90030012B0DD1002108461B
:101D1000FFF72EFF3148FFF7ABFF4FF496722E4BC3
:101D20009A614FF4D2721A6294F90030022B0DD1ED
:101D300000210846FFF71CFF2948FFF799FF4FF4E1
:101D40008C72254B9A614FF4B9721A6294F9003083
:101D5000032B0CD100210846FFF70AFF2148FFF7AB
:101D600087FFA0221C4B9A614FF48C721A6294F97F
:101D70000030042B0DD100210846FFF7F9FE1A4868
:101D8000FFF776FF4FF44872134B9A614FF4AA6243
:101D90001A6294F90030052B0CD100210846FFF798
:101DA000E7FE1248FFF764FF64220B4B9A614FF481
:101DB000FA621A6294F90030062B04BF00232370E4
:101DC000FEF736FEBDE810404FF41670FFF7AAB9D3
:101DD0008F07002070610008540100208161000815
:101DE00092610008A3610008B4610008C5610008A1
:101DF000FEF71EBE08B501210720FFF7B9FE01213D
:101E0000FF20FFF7F5FDFEF713FE044BC8209A688C
:101E1000034B1A60BDE80840FFF784B95401002065
:101E20001C0A002008B501210720FFF7A1FE0121AF
:101E3000FF20FFF7DDFDFEF7FBFD044BC8201A6C09
:101E4000034B1A60BDE80840FFF76CB9540100204D
:101E5000140A002018B100221146FFF70CBF70478A
:101E600049F6AF2310B50E4C90B022689A4215D9AE
:101E70000C4B0BA91868FFF773FC4FF461632068E3
:101E800001A9B0FBF3F0FFF7A5FA074906AB0BAACF
:101E9000FFF7D0FB022106A8FFF744F810B010BDF1
:101EA0007C07002094070020D661000810B5164C6E
:101EB000164890B003F020FB00222168144803F07C
:101EC00059FB49F6AF2322689A421BD9114B0BA943
:101ED0001868FFF745FC4FF46163206801A9B0FB67
:101EE000F3F0FFF777FA06AB0BAA0B49FFF7A2FB5B
:101EF000012106A8FFF716F8044803F0FDFA06A82A
:101F000003F094FA10B010BD78070020B85B000809
:101F1000DA61000888070020D661000808B50121B1
:101F20000720FFF725FEBDE808400121FF20FFF74D
:101F30005FBD00004FF0007170B591FAA1F1B1FAE8
:101F400081F3104C00F00071D9404FF0F87254F852
:101F5000215000F0F87092FAA2F3B3FA83F392FAE8
:101F6000A2F20726B2FA82F220FA03F306FA03F38A
:101F7000D04025EA030306FA00F0184344F8210094
:101F800070BD00BF0C2401404FF4407330B593FA8C
:101F9000A3F3B3FA83F31F24084D00F44072DA4030
:101FA00055F8223000F01F00844001F01F0123EAA1
:101FB00004038140194345F8221030BD2C24014010
:101FC000002070470122002110B51F4B1F4C1A70D2
:101FD0000228084608BF2378FFF7CAFD1C4B0221E0
:101FE000188880B2FFF732FAFFF742FE1948FFF770
:101FF0003FFE194B188800B2FFF7B0F9FFF738FE23
:102000001648FFF735FE237801210620144C7BB9D2
:10201000FFF7AEFD01210220FFF7D2FD01210220D2
:10202000FFF7CEFD23780A2B84BF0023237010BD59
:102030002378052BECD9FFF79BFD01210320FFF747
:10204000BFFD01210320EBE79C0700209E07002035
:102050006C080020E261000856080020E5610008D5
:1020600085070020002310B596B00446084611A944
:102070008DF804208DF80530FFF772FB4FF4616096
:1020800002A9B4FBF0F0FFF7A5F907AB11AA0749C5
:10209000FFF7D0FA0CAA07A901A8FFF7B5FA0421A7
:1020A0000CA8FEF73FFF16B010BD00BFD6610008B8
:1020B000022838B51E4C1F4D2AD123882A680133C7
:1020C0001BB29342238001D30023238000210846C2
:1020D000FFF74EFD2868B4F900300138C01A00EB54
:1020E000001004302844FFF7C3FD134803F004FA3E
:1020F000B4F900100022114803F03CFA0E4803F036
:10210000FBF929680022BDE838400D4803F032BAD7
:102110000128DBD12388013B1BB2002B2380D5DAB9
:102120002B68013B1BB2002B2380CDDBCEE700BF29
:10213000DE07002078080020B85B0008EC6100088A
:10214000F9610008002110B504460846FFF710FDAC
:102150000A4B188800B2FFF701F9FFF789FD08481C
:10216000FFF786FD022C08D1BDE81040054B064A5A
:102170001B881BB29360FEF725BC10BD56080020DB
:102180000C620008E807002004000020002110B5C0
:1021900004460846FFF7ECFC0A4B188800B2FFF72C
:1021A000DDF8FFF765FD0848FFF762FD022C08D156
:1021B000BDE81040054B064A1B881BB21361FEF7B1
:1021C00001BC10BD560800200C6200085808002011
:1021D00004000020002110B504460846FFF7C8FCA3
:1021E0001F48FFF745FD022C30D1FEF7C3FCFEF778
:1021F000A7FB002104460846FFF7BAFC1948FFF781
:1022000037FD4FF4FA60FEF78DFF00210846FFF717
:10221000AFFC012C1BD11448FFF72AFD1348FEF731
:10222000BBFD4FF4FA60FEF77DFF114B1A69114BAD
:102230001A604FF46162104B19694A430F490A60F2
:1022400099680F4A11601A6C0E4B1A6010BD0E4847
:10225000FFF70EFDBDE810404FF47A60FEF762BF55
:102260001B6200082C6200083D6200084E620008F4
:10227000F40000208007002054010020180A0020EC
:102280001C0A0020140A00205D620008022810B514
:102290000E4C15D123690133236100210846FFF755
:1022A00067FC2069FFF75AF8FFF7E2FC0848FFF7E0
:1022B000DFFC4FF4616322695343064A136010BD8B
:1022C0000128EAD12369013BE6E700BF5401002061
:1022D0006E620008180A002010B5334C022894F9E9
:1022E00000300DD101335BB2072B0FD100232370D7
:1022F00000210846FFF73CFC2C48FFF7B9FC0AE038
:10230000012804D1013B5BB2002B10DB237094F950
:102310000030002BECD094F90030012B09D10021C2
:102320000846FFF725FC2248FFF7A2FC01E0062340
:10233000237094F90030022B06D100210846FFF7E4
:1023400017FC1C48FFF794FC94F90030032B06D1CE
:1023500000210846FFF70CFC1748FFF789FC94F9A9
:102360000030042B06D100210846FFF701FC13487A
:10237000FFF77EFC94F90030052B06D100210846BA
:10238000FFF7F6FB0E48FFF773FC94F90030062BBD
:1023900008D100210846FFF7EBFBBDE810400948D3
:1023A000FFF766BC10BD00BF8F07002073620008F6
:1023B0008462000896620008A7620008B7620008FD
:1023C000C8620008D8620008022810B50D4C14D16C
:1023D000A3690A33A36100210846FFF7C9FB0A235A
:1023E000A0690121B0FBF3F0FFF730F8FFF740FCE4
:1023F000BDE810400448FFF73BBC0128EBD1A369BE
:102400000A3BE7E7540100208D610008022810B55F
:102410000D4C14D1236A0A33236200210846FFF7CA
:10242000A7FB0A23206A0121B0FBF3F0FFF70EF8A7
:10243000FFF71EFCBDE810400448FFF719BC012857
:10244000EBD1236A0A3BE7E7540100208D610008C5
:10245000022810B50B4C10D1A36A0133A3620021EE
:102460000846FFF785FBA06AFEF778FFFFF700FC40
:10247000BDE810400448FFF7FBBB0128EFD1A36A79
:10248000013BEBE754010020E8620008022810B588
:102490000B4C10D1236B0133236300210846FFF757
:1024A00067FB206BFEF75AFFFFF7E2FBBDE8104029
:1024B0000448FFF7DDBB0128EFD1236B013BEBE7BD
:1024C00054010020E8620008022838B51A4C2DD1CA
:1024D000A36B0133A36300210A250846FFF748FBDD
:1024E000A06BFEF73BFFFFF7C3FB1448FFF7C0FBF1
:1024F000206A0121B0FBF5F0FEF7A8FFFFF7B8FB5B
:102500000F48FFF7B5FB6422236AA06B01215843F3
:10251000B0FBF2F0181AB0FBF5F0FEF797FFFFF7EB
:10252000A7FBBDE838400748FFF7A2BB0128D2D17E
:10253000A36B013BCEE700BF54010020F16200080D
:10254000E26100088D610008044B9A68044B1B6827
:102550009A4201D1FFF7E2BC704700BF540100204E
:102560001C0A0020044B1A6C044B1B689A4201D1D0
:10257000FFF7D4BC704700BF54010020140A0020AC
:10258000002110B504460846FFF7F2FA022C1F4B53
:102590000DD19A68072A02F1010127D101229A6020
:1025A0001B48FFF765FBBDE81040FFF7CDBF012CCE
:1025B00003D19A68013A15D09A609A68013A062ABE
:1025C00020D801A151F822F0A1250008F12500082A
:1025D000F5250008F9250008FD250008012600085A
:1025E000E925000807229A600A48DAE79960E4E7DB
:1025F0000948D6E70948D4E70948D2E70948D0E7AF
:102600000948CEE701229A6010BD00BF54010020A6
:10261000F46200085A6300080563000816630008A6
:10262000276300083863000849630008002110B5DB
:1026300004460846FFF79CFA022C144B0DD11A6C85
:10264000032A02F101011CD101221A641048FFF78C
:102650000FFBBDE81040FFF785BF012C03D11A6CBA
:10266000013A0AD01A641A6C022A0CD0032A06D046
:10267000012AEBD001221A6410BD03221A64054816
:10268000E5E71964EFE70448E1E700BF54010020E3
:102690006B6300088D6300087C630008154B1649C6
:1026A0009A6812F0100F0CD09A68900616D59A68A6
:1026B000520615D59B68DB4313F0800312D10B80C3
:1026C0007047032240F2DC50B1F9003083420BDD49
:1026D00040F2B4530B80094B1A700AE00222F1E772
:1026E0000122EFE70422EDE701331BB2142B0B802C
:1026F000F1D07047000C0140DC070020E00700200B
:10270000044B187810B10021034A116000221A709E
:10271000704700BFE0070020A00700200022034B05
:102720001A600122024B1A70704700BFCC070020CC
:10273000A507002038B504464FF46160B4FBF0F003
:10274000FEF70CFE0546FEF757FF012803D80121CE
:102750001148FFF71FFA01212846FFF71BFA012154
:102760000E48FFF717FA3C23B4FBF3F4B4FBF3F085
:1027700003FB1040FEF7F2FD0446FEF73DFF012883
:1027800003D801210448FFF705FA2046BDE8384088
:102790000121FFF7FFB900BF9E630008AF64000886
:1027A0004FF40032064B1A614FF08072A3F580633C
:1027B0001A610023034A1370034A1370704700BF65
:1027C000000C01409E070020A407002008B5FFF779
:1027D000E7FFBDE808403220FEF7A4BC38B501226F
:1027E0000546154B154C1A70FFF7F0FF022D1ED150
:1027F000236A0133236200210846FFF7B9F9206AF2
:10280000FEF7ACFDFFF734FA0D48FFF731FA01216E
:102810000020FFF7ADF90B4B188800B2FEF79EFDC4
:10282000FFF726FABDE838400748FFF721BA012D27
:10283000E1D1236A013BDDE79C0700200400002072
:102840008963000856080020A063000808B50C4BF7
:1028500093F90020022A11D002221A70FFF7A0FF7C
:102860000022084B32201A60FEF75CFC064802F09A
:1028700043FEBDE80840054802F0D8BD08BD00BFD2
:1028800086070020C8070020B85B0008A563000881
:1028900001212DE9F8438A4D8A4E2B788A4A3170FE
:1028A0004BB92970894913700B7089490B7089499C
:1028B0000B6089490B60894F89493B889BB20B802B
:1028C00088498C698846A342C0F0F180002386497C
:1028D0001370864B09681B68DFF8F4915B1A032BB1
:1028E00006D9137823B1FFF75BFF002389F8003086
:1028F00002287F4C52D17F4B1B78002B4AD1FFF727
:1029000065FF012389F8003094F9001049BB08469F
:10291000FFF72EF93888022180B2FEF797FDFFF706
:10292000A7F97548FFF7A4F9744B754F188800B2E2
:10293000FEF714FDFFF79CF97248FFF799F96D4B0C
:1029400001211B780720002B40F0A880FFF710F929
:1029500001210220FFF734F93B780A2B84BF0023C2
:102960003B7094F90070012F23D100210846FFF736
:10297000FFF86548FFF77CF90A23D8F818003946B4
:10298000B0FBF3F0FEF762FDFFF772F95F48FFF767
:102990006FF90EE0FFF704FF0023B3E70128B3D17E
:1029A0002378013B5BB2002B01DB2370ACE70323F0
:1029B000237094F90030022B1BD100210846FFF749
:1029C000D7F85348FFF754F9524B98684FF46163B6
:1029D000B0FBF3F0FEF7C2FCFFF74AF94E48FFF7F1
:1029E00047F903200121FFF7C3F84C4B1868FFF7A4
:1029F000A1FE94F90070384C032F1AD1002108462B
:102A0000FFF7B6F84648FFF733F9324B18684FF432
:102A10006163B0FBF3F0FEF7A1FCFFF729F9414831
:102A2000FFF726F938460121FFF7A2F82068FFF7E3
:102A300081FE3D4802F060FD297800223B4802F00B
:102A400099FD394802F058FD31780022384802F0EB
:102A500091FD354802F050FD1C4B00221978354895
:102A600002F088FD304802F047FD334B0022196820
:102A7000324802F07FFD2C4802F03EFD99F800102C
:102A800000222F4802F076FD274802F035FD21682C
:102A90000022BDE8F8432B4802F06CBD3B78052BC3
:102AA0007FF654AFFFF764F80121032052E7137853
:102AB0001BB90E4B19680C4B1960012307E700BFC7
:102AC0009D0700209C070020840700208707002026
:102AD000900700207C070020940700206C0800204D
:102AE000D007002054010020D4070020E407002074
:102AF0008D0700209E070020E26100085608002094
:102B000085070020AF630008B86300088D610008E6
:102B1000C4630008F4000020C76300089807002081
:102B200070640008D0630008B85B0008D96300082F
:102B3000E7630008FC6300088807002011640008B0
:102B40002164000839640008F0B5344D34492B88FD
:102B500091B09BB2B3F5C86F5DD2324B1B68062BA8
:102B600059D9314B314C9B6803F00103A361FFF746
:102B700017FE0B78002B4CD101232D4E0B703368C0
:102B80002361FDF7AFFF2B4802F0B6FC022221695A
:102B9000294802F0EFFC49F6AF2332689A4215D972
:102BA000264B0BA91868FEF7DBFD4FF46163206923
:102BB00001A9B0FBF3F0FEF70DFC214906AB0BAA0F
:102BC000FEF738FD022106A8FEF7ACF90A202B8893
:102BD00001229BB2B3FBF0F001A9FEF79FFC06AA0D
:102BE00001461848FEF710FDFEF7D6F80524114FF0
:102BF000154E384602F080FC29880222304689B200
:102C000002F0B8FC013C0A20FEF78CFA14F0FF0435
:102C1000EFD111B0F0BD00230B70FAE7540800208B
:102C200071020020E4070020000C0140F4000020A5
:102C30007C070020B85B00084C6400089407002063
:102C4000D6610008516400085B6400080222064B4C
:102C50001A610123054A1370054A13704FF48072FC
:102C6000044B1A61704700BF000C01409E07002012
:102C7000A407002000080140084908B50A68022A94
:102C800004D1FFF7E3FF01230B6008BD032AFCD149
:102C9000034B9B69012BF8D1F3E700BF74020020BE
:102CA000F40000200021012238B5264B05460846D5
:102CB0001A70FEF75DFF244B0221188880B2FEF7E0
:102CC000C5FBFEF7D5FF2148FEF7D2FF0021072004
:102CD000FEF74EFF1E4B1A8812B2B2F57A7F1CDA4D
:102CE000188800B2FEF73AFBFEF7C2FF19481A4CEB
:102CF000FEF7BEFF22780121DAB90520FEF738FF82
:102D00001648FEF7B5FF022D03D12378B3B9FFF7BC
:102D10009DFFBDE83840FFF7AFBF0A201B880221A6
:102D20001BB293FBF0F0FEF791FBFEF7A1FF0C48FE
:102D3000DDE70620FEF71CFF0A48E2E7FFF730FD5B
:102D4000E7E700BF9C0700206C0800206B640008C8
:102D500056080020E56100089E0700205664000820
:102D6000A76400086F6400080122164B10B51A70A2
:102D7000FFF76CFF0228144C1ED1A3690133A36135
:102D800000210846FEF7F4FEA069FEF7E7FAFEF719
:102D90006FFF0E48FEF76CFF01210020FEF7E8FEF2
:102DA0000B4B188800B2FEF7D9FAFEF761FFBDE8B9
:102DB00010400848FEF75CBF0128E1D1A369013B40
:102DC000DDE700BF9C0700200400002089630008A5
:102DD00056080020A06300080122164B10B51A7097
:102DE000FFF734FF0228144C1FD1A36A0133A362FA
:102DF00000210846FEF7BCFEA06AFEF7AFFAFEF718
:102E000037FF0E48FEF734FF01210020FEF7B0FE29
:102E10000B4B0221188880B2FEF718FBFEF728FF43
:102E2000BDE810400748FEF723BF0128E0D1A36AA0
:102E3000013BDCE79C0700200400002089630008B8
:102E4000740800206B6400080122164B10B51A703C
:102E5000FFF7FCFE0228144C1FD1236B01332363C0
:102E600000210846FEF784FE206BFEF777FAFEF796
:102E7000FFFE0E48FEF7FCFE01210020FEF778FE63
:102E80000B4B0221188880B2FEF7E0FAFEF7F0FE45
:102E9000BDE810400748FEF7EBBE0128E0D1236BE8
:102EA000013BDCE79C070020040000208963000848
:102EB0006C0800206B6400080122164B10B51A70D4
:102EC000FFF7C4FE0228144C1FD1A36B0133A36388
:102ED00000210846FEF74CFEA06BFEF73FFAFEF716
:102EE000C7FE0E48FEF7C4FE01210020FEF740FE9B
:102EF0000B4B0221188880B2FEF7A8FAFEF7B8FE45
:102F0000BDE810400748FEF7B3BE0128E0D1A36B2F
:102F1000013BDCE79C0700200400002089630008D7
:102F2000540800206B64000801222A4B70B51A7007
:102F3000FFF78CFE0228284E42D1338801333380BC
:102F400000210846FEF714FE02213088FEF77EFAC3
:102F5000224D234CFEF78CFE2248FEF789FE2B887B
:102F600022889BB212B2002A2FDD328820889B1A59
:102F700002B242F210701BB223EAE373434393FBA5
:102F8000F2F0194E3064FEF7E9F9FEF771FE1748CA
:102F9000FEF76EFE164B1B882A8821889BB209B269
:102FA000002992B213DD9B1A42F210721BB223EA7F
:102FB000E3735343218809B293FBF1F3B36470BD0B
:102FC0000128BDD13388013BB9E74620D9E70A2360
:102FD000F4E700BF9C07002078020020B202002026
:102FE00056080020E2610008040000207364000815
:102FF0007408002000212DE9F04101272B4B2C4DB6
:10300000064608461F70FEF7B3FD2B78294C03F0E7
:10301000FF0833BB284B0221188880B2FEF716FA4E
:10302000FEF726FE2548FEF723FE41460720FEF761
:103030009FFD208800B2FEF791F9FEF719FE2048A7
:10304000FEF716FE05203946FEF792FD1D48FEF7F5
:103050000FFE022E27D12B780BBBBDE8F041FFF706
:10306000F5BD194B0221188880B2FEF7EFF9FEF783
:10307000FFFD1248FEF7FCFD00210720FEF778FD5A
:10308000208800B2FEF76AF9FEF7F2FD0F48FEF75E
:10309000EFFD06203946FEF76BFD0D48D7E7BDE88A
:1030A000F041FFF77DBBBDE8F08100BF9C07002029
:1030B0009E07002056080020740800206B6400085A
:1030C0007E640008566400086C080020E561000872
:1030D0006F64000808B5FFF7B9FDBDE8084032206D
:1030E000FEF720B801222DE9F84F994E994B34781C
:1030F00082469846984DDFF8D092984F1A7034BBAC
:10310000974B1A88974B92B21B6A05339A4215D295
:1031100021462046FEF72CFD9348FEF7A9FD4FF40B
:10312000FA60FDF7FFFF21462046FEF721FD8F489C
:10313000FEF79EFD40F6B830FDF7F4FF00238C4A01
:103140002B7089F80030136001223B603270894B8C
:103150003A681B689A4206D8874B824A1B88126AD3
:103160009BB2934203D9FFF71BFB00232B70FFF7A1
:1031700083FDBAF1020F814C6BD1814B1B78002B80
:1031800063D1FFF7A7FF01232B7094F900100029EA
:1031900036D10846FEF7ECFC794BDFF8DCA11A7853
:1031A0009B46002A40F0B5806D4B0221188880B202
:1031B000FEF74CF9FEF75CFD7248FEF759FDBAF8D0
:1031C0000000022180B2FEF741F9FEF751FD6E4882
:1031D000FEF74EFD9BF8003001210720DFF8ECA13F
:1031E000002B40F0AA80FEF7C3FC01210020FEF76F
:1031F000E7FC9AF800300A2B84BF00238AF80030DD
:1032000094F900A0BAF1010F2FD10021DFF854B1D9
:103210000846FEF7ADFC5D48FEF72AFDDBF810001E
:10322000FEF79CF8FEF724FD5948FEF721FD0A231E
:10323000DBF820005146B0FBF3F0FEF707F9FEF78C
:1032400017FD5448FEF714FD0FE0FFF7A9FA00231D
:103250009AE7BAF1010F98D12378013B5BB2002BBA
:1032600001DB237091E70223237094F90030022BD5
:103270001AD100210846FEF77BFC4748FEF7F8FC10
:103280003B4B18684FF46163B0FBF3F0FEF766F850
:10329000FEF7EEFC4148FEF7EBFC03200121FEF7B0
:1032A00067FC3868FFF746FA3D4802F025F93178A7
:1032B00000223C4802F05EF9394802F01DF998F806
:1032C00000100022384802F055F9354802F014F990
:1032D00029780022354802F04DF9314802F00CF906
:1032E00039680022324802F045F92D4802F004F90D
:1032F00099F8001000222F4802F03CF9284802F00B
:10330000FBF82D4B002219682C48BDE8F84F02F05D
:1033100031B9BAF80000022180B2FEF797F8FEF743
:10332000A7FC1848FEF7A4FC254B188800B2FEF74E
:1033300015F8FEF79DFC23484AE79AF80030052B64
:103340007FF651AFFEF714FC012108464FE700BF9E
:103350009D0700209C070020870700208807002089
:10336000740800205401002084640008956400085B
:1033700078070020180A00206C0800208D07002024
:103380009E070020E2610008CF610008AE640008DB
:10339000B16400088D610008B9640008C7630008C3
:1033A000B85B0008D9630008E7630008FC63000805
:1033B00011640008216400089407002039640008A3
:1033C00056080020A664000890070020850700200A
:1033D00001222DE9F84FBC4EBC4B35788246984609
:1033E000BB4CDFF85C93BB4F1A7035BBBA4B1A88E5
:1033F000BA4B92B21B6A05339A4215D22946284627
:10340000FEF7B6FBB648FEF733FC4FF4FA60FDF763
:1034100089FE29462846FEF7ABFBB248FEF728FC9A
:1034200040F6B830FDF77EFE0023AF4A237089F8DE
:103430000030136001223B603270AC4B3A681B686D
:103440009A4272D9FFF7ACF900232370FFF714FCFE
:10345000BAF1020FA64D40F08280A64B1B78002BDC
:1034600079D1FFF737FE0123237095F90010002969
:1034700036D10846FEF77CFB9E4BDFF88CA21A780B
:103480009B46002A40F00281934B0221188880B2AB
:10349000FDF7DCFFFEF7ECFB9748FEF7E9FBBAF817
:1034A0000000022180B2FDF7D1FFFEF7E1FB934857
:1034B000FEF7DEFB9BF8003001210720DFF884A235
:1034C000002B40F0F780FEF753FB01210020FEF7B0
:1034D00077FB9AF800300A2B84BF00238AF800306B
:1034E00095F900A0BAF1010F45D10021DFF8ECB148
:1034F0000846FEF73DFB8248FEF7BAFBDBF81000FA
:10350000FDF72CFFFEF7B4FB7E48FEF7B1FB0A2364
:10351000DBF820005146B0FBF3F0FDF797FFFEF714
:10352000A7FB7648FEF7A4FB25E077496B480A889D
:10353000036A92B29A4285D8826B64205A43B2FBE6
:10354000F0F209889B1A89B29942BFF47FAFFFF766
:10355000C1FD012379E7FFF723F9002384E7BAF1DE
:10356000010F82D12B78013B5BB2002B01DB2B706A
:103570007BE703232B7095F90030022B2FD100211C
:103580004FF00A0ADFF854B10846FEF7F1FADBF80B
:103590003800FDF7E3FEFEF76BFB5C48FEF768FBC7
:1035A000DBF820000121B0FBFAF0FDF74FFFFEF73A
:1035B0005FFB5148FEF75CFB6422DBF82030DBF850
:1035C000380001215843B0FBF2F0181AB0FBFAF0B2
:1035D000FDF73CFFFEF74CFB4848FEF749FB95F929
:1035E0000050032D1AD100210846FEF7C1FA4848C1
:1035F000FEF73EFB3C4B18684FF46163B0FBF3F001
:10360000FDF7ACFEFEF734FB4248FEF731FB2846DF
:103610000121FEF7ADFA3868FFF78CF86420FDF75A
:1036200081FD3D4801F068FF317800223B4801F000
:10363000A1FF394801F060FF98F8001000223848D7
:1036400001F098FF344801F057FF217800223548F7
:1036500001F090FF304801F04FFF396800223248F6
:1036600001F088FF2C4801F047FF99F80010002274
:103670002E4801F07FFF284801F03EFF2C4B00222E
:1036800019682C48BDE8F84F01F074BFBAF8000083
:10369000022180B2FDF7DAFEFEF7EAFA1648FEF7DD
:1036A000E7FA254B188800B2FDF758FEFEF7E0FA5E
:1036B0002248FDE69AF80030052B7FF604AFFEF7AE
:1036C00057FA0121084602E79D0700209C070020C9
:1036D000870700208807002074080020540100207C
:1036E000846400089564000878070020180A002008
:1036F0008D0700209E070020E26100088D61000810
:10370000AE640008B16400086C080020F162000893
:10371000B9640008D0630008B85B0008D9630008EA
:10372000E7630008FC6300081164000821640008D6
:10373000940700203964000856080020AF63000891
:10374000900700208507002008B50C4B93F9002056
:10375000012A11D001221A70FFF778FA0022084BD3
:1037600032201A60FDF7DEFC064801F0C5FEBDE818
:103770000840054801F05ABE08BD00BF860700207A
:10378000C8070020B85B0008A86300082DE9F04FC7
:10379000974A85B01378DFF8B0A2DFF8B0B2DFF84F
:1037A000B092944FDFF8AC82934D009003F0FF0489
:1037B0000192002B3ED1914B1A88914B92B21B6A19
:1037C00005339A4215D221462046FEF7D1F98D489D
:1037D000FEF74EFA4FF4FA60FDF7A4FC21462046AE
:1037E000FEF7C6F98848FEF743FA40F6B830FDF711
:1037F00099FC01260024019B1E70844B8AF800402E
:103800008BF80040C9F800403C601C60C8F80040DC
:103810002C608AF80060FFF797FF7D4B2146204619
:103820001E70FEF7A5F97B48FEF722FA4FF47A7076
:10383000FDF778FC784C208800B2FDF7D7FE05280C
:10384000039440F3C881754A6D4E1388B1699BB2E9
:103850008B4202921FD26E4B1A78022A1BD1704BF8
:103860001B68B3F57A7F16D900238BF800302968DE
:103870006C4B994203D928683968FEF7F3FB0023A3
:103880000124C9F80030C8F800308AF80040FFF77A
:103890005BFF5F4B1C70029B326A1B889BB293429A
:1038A00008D95B4B1B78012B04D15D4B1B68B3F52A
:1038B0007A7F09D85C4BD9F800201B689A4223D93B
:1038C000534B1B78012B1FD100238AF80030D8F806
:1038D0000020544B9A4206D9D8F800000122D9F8AA
:1038E0000010FEF7BFFB3A68484B1A602A684F4B3E
:1038F0009A6000233B602B6001238BF80030FEF7B9
:10390000A5FF0222424B1A70009A494C022A94F9F0
:10391000003034D101335BB2052B37D10023237043
:1039200000210846FEF724F9029B0221188880B284
:10393000FDF78CFDFEF79CF93E48FEF799F9039BD5
:10394000188800B2FDF70AFDFEF792F93A48FEF733
:103950008FF901210620FEF70BF901210420FEF763
:103960002FF9364B1978012940F02E81072000915C
:10397000FEF7FEF800200099FEF722F90BE0009A0E
:10398000012A04D1013B5BB2002B65DB237094F963
:103990000030002BC4D094F90030012B5ED10021FF
:1039A00008460093FEF7E4F83069FDF7D7FCFEF710
:1039B0005FF92348FEF75CF90A22009BB0691946BB
:1039C000B0FBF2F0FDF742FDFEF752F91948FEF7A1
:1039D0004FF90A22009B306A1946B0FBF2F0FDF75E
:1039E00035FDFEF745F91748FEF742F936E000BF0E
:1039F0009C070020940700207C070020740800200A
:103A00005401002084640008956400089807002091
:103A100070020020BC640008560800206C080020DA
:103A2000C80700204F8C0500180A0020F400002071
:103A30008D070020E2610008A6640008A4070020AA
:103A40005D5D0008CF610008870700209007002017
:103A500088070020780700200423237094F9006071
:103A6000022E21D100210846FEF782F801213046BE
:103A7000FEF7A6F800210120FEF77AF85C48FEF771
:103A8000F7F84FF461632868B0FBF3F0FDF766FCCC
:103A9000FEF7EEF85748FEF7EBF803200121FEF79A
:103AA00067F83868FEF746FE94F90060032E23D1CC
:103AB00000210846FEF75CF801210020FEF780F89F
:103AC00000210120FEF754F84948FEF7D1F84FF4E1
:103AD0006163D8F80000B0FBF3F0FDF73FFCFEF7A0
:103AE000C7F84448FEF7C4F830460121FEF740F815
:103AF000D9F80000FEF71EFE94F90030042B23D104
:103B000000210846FEF734F801210220FEF758F89C
:103B100000210120FEF72CF83748FEF7A9F8374BB3
:103B200098684FF46163B0FBF3F0FDF717FCFEF704
:103B30009FF83348FEF79CF803200121FEF718F8A0
:103B4000304B1868FEF7F6FD2F4801F0D5FC019BBD
:103B5000002219782D4801F00DFD2B4801F0CCFC16
:103B60009AF8001000222A4801F004FD264801F0CE
:103B7000C3FCD9F800100022264801F0FBFC2248C3
:103B800001F0BAFCD8F800100022234801F0F2FC42
:103B90001D4801F0B1FC9BF8001000221F4801F005
:103BA000E9FC194801F0A8FC396800221C4801F022
:103BB000E1FC154801F0A0FC00222968194805B075
:103BC000BDE8F04F01F0D6BC01210720FDF7D0FF82
:103BD00001210220D0E6144B1B68B3F57A7FB3D9DC
:103BE00000210846FDF7C4FF1048FEF741F8ABE797
:103BF0008B630008CD640008C4630008F400002053
:103C0000D063000898070020B85B0008E76300084D
:103C1000FC63000811640008E864000821640008DF
:103C20003964000800650008C8070020D764000850
:103C30000021F8B506460846FDF79AFF01226A4BB7
:103C40001A706A4B197811B91A70FEF767FD684D42
:103C5000684C2B68A26A9A4212D3FFF775FD664B37
:103C6000226A1B889BB293420AD9644B1B68B3F546
:103C7000C87F05D9FEF752FD2B68A26A13442B605A
:103C80002B68A26A9A420ED2FEF7E0FD5A4BA26957
:103C90001B889BB2934206D2584B1B68B3F5C87F72
:103CA00001D9FEF73BFDA36A216B2A680B449342BE
:103CB00001D2FEF733FD524D022E95F9003033D17B
:103CC00001335BB2032B35D100232B700021084652
:103CD000FDF74EFF484B0221188880B2FDF7B6FB76
:103CE000FDF7C6FF4748FDF7C3FF474B188800B2F2
:103CF000FDF734FBFDF7BCFF4448FDF7B9FF012198
:103D00000620FDF735FF01210520FDF759FF404B47
:103D10001E78012E5FD131460720FDF729FF31467D
:103D20000020FDF74DFF0AE0012E04D1013B5BB2FC
:103D3000002B2CDB2B7095F90030002BC6D095F9A9
:103D40000060012E25D100210A270846FDF710FF4B
:103D50002069FDF703FBFDF78BFF2E48FDF788FF79
:103D6000A0693146B0FBF7F0FDF770FBFDF780FF6F
:103D70002448FDF77DFF206A3146B0FBF7F0FDF7E0
:103D800065FBFDF775FF2448FDF772FF01E0022394
:103D90002B7095F90030022B24D100210846FDF745
:103DA000E7FEA06AFDF7DAFAFDF762FF1B48FDF7B0
:103DB0005FFF206BFDF7D2FAFDF75AFF1848FDF7B9
:103DC00057FF03200121FDF7D3FE164B1868BDE80D
:103DD000F840FEF7AFBC01210720FDF7C9FE012125
:103DE00002209EE7F8BD00BF9C0700209D07002031
:103DF000CC070020540100206C080020C8070020D8
:103E00008D070020E261000856080020A664000823
:103E1000A40700205D5D0008CF610008C25E0008B5
:103E200022650008940700202DE9F04FA04A85B0D4
:103E300013788346DFF8D4A29E4EDFF8D4929E4DCD
:103E40009E4F9F4C03F0FF080192002B40F06281CF
:103E50009C4B1A889C4B92B21B6A05339A4215D22E
:103E600041464046FDF784FE9848FDF701FF4FF4B8
:103E7000FA60FDF757F941464046FDF779FE944850
:103E8000FDF7F6FE40F6B830FDF74CF901234FF090
:103E90000008019A13708F4A8AF8008082F8008027
:103EA0008D4AC6F80080C9F80080C2F80080C5F8C5
:103EB0000080C7F800808AF80030FFF745FC012336
:103EC000864A414640461370FDF752FE8448FDF78E
:103ED000CFFE4FF47A70FDF725F901232370DFF848
:103EE0002882B8F8000000B2FDF780FB0528CDF865
:103EF000088040F395817B4B734A1B8891699BB284
:103F00008B42904629D2754B1A78022A25D1764BDE
:103F10001B68B3F57A7F20D900236E490B7039688E
:103F2000724B994204D93868D9F80010FEF79AF814
:103F3000D9F80020684B1A603A686D4B9A600023EC
:103F400001228AF800202B603360FFF7FDFB01227D
:103F5000237801332370614B1A70624AD8F820101D
:103F6000138803929BB28B4208D95C4B1B78012BC0
:103F700004D15D4B1B68B3F57A7F08D85D4B32687E
:103F80001B689A4222D9554B1B78012B1ED194F9FC
:103F90000030022B1ADC00238AF800302A68534BC9
:103FA0009A4204D9286801223168FEF75BF80123A0
:103FB000484A137000233B60C9F80030FEF746FC06
:103FC0000222237801332370444B1A70454BD8F8F2
:103FD00020201B889BB2934208D9404B1B78012BB1
:103FE00004D1414B1B68B3F57A7F08D8414B326846
:103FF0001B689A421DD9394B1B78012B19D194F9B2
:104000000030022B15DDFEF7CBFB0023314A8AF886
:10401000003013702A68354B9A4204D9286801226F
:104020003168FEF71FF80222237801332370324BE8
:104030001A70314CBBF1020F94F9003040F0AD80A2
:1040400001335BB2042B40F0B080002323700021C9
:104050000846FDF78DFD039B0221188880B2FDF70D
:10406000F5F9FDF705FE2548FDF702FE029B1888CD
:1040700000B2FDF773F9FDF7FBFD2148FDF7F8FDF0
:1040800001210620FDF774FD01210420FDF798FDB4
:104090001C4B93F800B0BBF1010F40F0BA805946B9
:1040A0000720FDF765FD59460020FDF789FD82E0F8
:1040B0009C07002088070020780700207C0700204C
:1040C0008C0700207408002054010020846400083C
:1040D00095640008900700209807002070020020D7
:1040E000BC6400086C080020C80700204F8C050045
:1040F000F4000020180A00208D070020E26100086B
:10410000A6640008A40700205608002087070020A6
:104110009407002094F90030032B7FF7E0AEAB4CFE
:10412000022894F9003040F0C68001335BB2042BC2
:1041300040F0C7800023237000210846FDF718FDDA
:10414000A34B0221188880B2FDF780F9FDF790FD9E
:10415000A048FDF78DFDA04B188800B2FDF7FEF8D2
:10416000FDF786FD9D48FDF783FD01210620FDF743
:10417000FFFC01210420FDF723FD994B93F80080FB
:10418000B8F1010F40F01A8141460720FDF7F0FC1D
:1041900041460020FDF714FD99E0BBF1010F05D168
:1041A000013B5BB2002BC0F2B780237094F9003062
:1041B000002B3FF44CAF94F900B0BBF1010F40F07D
:1041C000AD8000210846FDF7D3FCD8F81000FDF7BC
:1041D000C5F8FDF74DFD8348FDF74AFD0A23D8F8E1
:1041E00018005946B0FBF3F0FDF730F9FDF740FD3C
:1041F0007848FDF73DFD5946D8F820000A23B0FB6A
:10420000F3F0FDF723F9FDF733FD7748FDF730FDB7
:1042100084E001210720FDF7ABFC0121022044E7E7
:10422000724B1B68B3F57A7F06D900210846FDF76B
:104230009FFC6F48FDF71CFD6E4801F05DF9019B86
:10424000002219786C4801F095F96A4801F054F998
:104250009AF800100022694801F08CF9654801F0D5
:104260004BF931680022664801F084F9614801F099
:1042700043F929680022634801F07CF95D4801F0A8
:104280003BF9614B00221978604801F073F95948F5
:1042900001F032F9D9F8001000225D4801F06AF906
:1042A000544801F029F9002239685A4805B0BDE8A0
:1042B000F04F01F05FB9012804D1013B5BB2002B44
:1042C0002ADB237094F90030002B3FF435AF94F9CA
:1042D0000080B8F1010F21D10021DFF844B1084678
:1042E000FDF746FCDBF81000FDF738F8FDF7C0FCE1
:1042F0003C48FDF7BDFC0A23DBF818004146B0FB43
:10430000F3F0FDF7A3F8FDF7B3FC3248FDF7B0FC7E
:104310004146DBF8200071E70323237094F9008005
:10432000B8F1020F22D100210846FDF721FC01213E
:104330004046FDF745FC00210120FDF719FC3648F9
:10434000FDF796FC4FF461633868B0FBF3F0FDF7BE
:1043500005F8FDF78DFC3148FDF78AFC03200121AB
:10436000FDF706FCD9F80000FEF7E4F994F90040E7
:10437000032C7FF461AF00210846FDF7F9FB012112
:104380000020FDF71DFC00210120FDF7F1FB224874
:10439000FDF76EFC4FF461632868B0FBF3F0FCF7A7
:1043A000DDFFFDF765FC1D48FDF762FC204601219D
:1043B000FDF7DEFB3068FEF7BDF93DE70121072080
:1043C000FDF7D6FB01210220E4E600BF8D070020A7
:1043D0006C080020E261000856080020A66400086E
:1043E000A40700205D5D0008CF610008C807002019
:1043F000D7640008B85B0008E7630008FC630008A6
:1044000011640008E8640008900700202164000897
:1044100039640008006500088B630008CD6400085B
:104420005401002001222DE9F041A54BA54C0228A2
:104430001A7086B094F9003028D113445BB2082B6F
:104440002AD100232370FEF7ABF900210846FDF7BF
:104450008FFB9D48FDF70CFC0A209C4B01211B881B
:104460009BB2B3FBF0F0FCF7F1FFFDF701FC9848BD
:10447000FDF7FEFB974B0221188880B2FCF7E6FFA0
:10448000FDF7F6FB9448FDF7F3FB0AE0012804D1A1
:10449000013B5BB2002B27DB237094F90030002B2B
:1044A000D1D094F90030012B20D1FEF779F9002109
:1044B0000846FDF75DFB8948FDF7DAFB884B0221D2
:1044C000188880B2FCF7C2FFFDF7D2FB8548FDF7E4
:1044D000CFFB854BD88880B2FCF740FFFDF7C8FBC7
:1044E0008248FDF7C5FB01E00723237094F90050D3
:1044F000022D1DD1FEF7AAFB00210846FDF738FB6F
:104500007648FDF7B5FB764B2946188880B2FCF754
:104510009DFFFDF7ADFB7348FDF7AAFB724B988832
:1045200080B2FCF71BFFFDF7A3FB7048FDF7A0FB73
:1045300094F90030032B1CD1FEF788FB00210846BC
:10454000FDF716FB6A48FDF793FB6A4B188800B22B
:10455000FCF704FFFDF78CFB6748FDF789FB624B16
:10456000188880B2FCF7FAFEFDF782FB5F48FDF782
:104570007FFB94F90030042B1CD1FEF711F90021C8
:104580000846FDF7F5FA5D48FDF772FB5C4B1888AD
:1045900000B2FCF7E3FEFDF76BFB5748FDF768FB45
:1045A000514BD88880B2FCF7D9FEFDF761FB554826
:1045B000FDF75EFB94F90030052B47D1524E534F67
:1045C000FEF744FB32883B8892B29BB2D21A42F289
:1045D0001073DFF870815343B8F800104C4D09B2E6
:1045E00093FBF1F300210846AB64FDF7C1FA49489B
:1045F000FDF73EFB286CFCF7B1FEFDF739FB4648A2
:10460000FDF736FBA86CFCF7A9FEFDF731FB43482C
:10461000FDF72EFB424800F06FFFB8F800100022B3
:1046200009B2404800F0A6FF3D4800F065FF318820
:10463000022289B23C4800F09DFF394800F05CFF3F
:1046400039880222394889B200F094FF94F9003089
:10465000062B0FD1FEF7A4F800210846FDF788FAD3
:10466000334B01A91868FDF708F8FDF701FB314845
:10467000FDF7FEFA94F90030072B1DD1FEF7E6FA9C
:1046800000210846FDF774FA2B48FDF7F1FA2B4B91
:104690001868FCF75BFBFCF761FEFDF7E9FA2848B8
:1046A000FDF7E6FA104B588980B2FCF757FEFDF78C
:1046B000DFFA0948FDF7DCFA06B0BDE8F08100BF7B
:1046C0009C0700208E0700202A650008540800205F
:1046D0002F6500086A080020886300083465000818
:1046E0006C080020E26100085A0800208663000878
:1046F0003A650008E80700204065000844650008A6
:10470000580800208563000874080020B2020020C9
:1047100004000020496500084C6500085165000848
:10472000B85B0008596500085D650008646500080D
:10473000E4070020846300086C650008700800200E
:104740006F650008560800207FB50023724C009367
:10475000019302930393E389704D9AB24FF4F023CF
:10476000B3FBF2F36E4A9BB21380A388E28999B23D
:10477000AB6A92B24B43B3FBF2F300930098FDF7A0
:1047800073F802900298FDF7C5F8664B1A6810445A
:10479000654A18601188013109B21180118809B287
:1047A0001F290FDD196861480029B8BF1F31C1F307
:1047B0004F11018000211180196003889BB2022BE8
:1047C00098BF01806388E28999B2AB6B92B24B4388
:1047D000B3FBF2F300930098FDF77EF8544B80B2E0
:1047E00018802188E38989B29AB2AB69514E594346
:1047F0000A234B43B3FBF2F301930198FCF7FCFF50
:1048000003900398FDF784F84B4B1A6810444B4A09
:1048100018601188013109B21180118809B21F296D
:1048200009DD19680029B8BF1F3141F34F113180EC
:10483000002111801960E188E38989B29AB22B6A5C
:10484000594364234B43B3FBF2F301930198FCF704
:10485000EFFF03900398FDF75CF8394B1A6810449A
:10486000384A18601188013109B21180118809B2E3
:104870001F290ADD196834480029B8BF1F3141F3E8
:104880004F11018000211180196033881BB2B3F5EC
:10489000E16FAABF2C4A328812882C4B1A80A38859
:1048A000E28999B22B6B92B24B43B3FBF2F30093C4
:1048B0000098FCF7F5FF02900298FDF72CF8244AC7
:1048C00013681844234B10601988013109B219800C
:1048D000198809B21F2911461A461ADD08681E4BAD
:1048E0000028B8BF1F3040111860002008601080F9
:1048F0001A681A4992B20A801A68022AD8BF186048
:104900001A68022ADCBF00221A601B68144A9BB294
:10491000138004B070BD00BF5A08002004000020BE
:104920006A080020B8070020BC0700207408002097
:1049300054080020E8070020A8070020AC0700204A
:10494000B0070020B40700205808002056080020B7
:10495000C0070020C4070020D8070020B2020020B2
:104960006C080020F8B5FDF799FE3E4A3E4F1368EB
:10497000013313603B889BB2042B05D900233B8095
:10498000FFF7E2FEFEF7E0F8384E394D33889BB270
:10499000632B84BF002333802B889BB2B3F57A7FCF
:1049A00053D30023334C2B8023881BB2012B07DC0D
:1049B000208800B2FCF71AFE2F4B1A6810441860CA
:1049C00023881BB2022B07DD208800B2FCF70EFE05
:1049D0002A4B1A6810441860294B1B78012B01BF21
:1049E000284A136801331360274B1B78012B01BF42
:1049F000264A136801331360254B1B78012B01BF36
:104A0000244A136801331360234B1A6801321A6079
:104A10001B6813F0010F0CBF4FF400424FF000422F
:104A20001E4B1A6140F6B73223881BB29342C2BFB5
:104A300001221B4B1A6140F6B73223881BB2934206
:104A4000DEBF4FF48032164B1A613B8801339BB2B4
:104A50003B80338801339BB233802B8801339BB278
:104A60002B80F8BDC8070020B0020020AE02002055
:104A7000AC020020560800207C07002078070020A8
:104A80008707002088070020900700209407002057
:104A9000A5070020CC070020E40700200008014003
:104AA000000C014010B51D4C236843F48033236093
:104AB00023689A03FCD5636823F47C1343F4A02392
:104AC0006360E36A23F00F03E362236843F08073BB
:104AD000236023689B01FCD5636823F0F0036360C7
:104AE000636823F4E0636360636823F46053636086
:104AF000636823F0030343F002036360636803F019
:104B00000C03082BFAD1064800F07CFF044800F0A3
:104B100087FF636823F44043636010BD00100240C8
:104B200000366E012DE9F04FC54D91B00120FDF723
:104B3000B9F8EB69DFF85C9343F08053EB61EB6904
:104B4000DFF854A303F080530093009BD9F80C20A6
:104B5000BC4B22F4E0621204120C1343C9F80C306F
:104B6000B94BBA4E5A68002422F0E0625A605A6883
:104B70004FF0010B42F000725A60FFF793FF1422CE
:104B8000002109A800F084FF2020FDF78BF8042005
:104B9000FDF788F80820FDF785F84FF60343CAF8BB
:104BA00014304FF409430227736140F203334FF08E
:104BB000040809A95046CDE9093BCDE90B7400F082
:104BC000D5FDA34B09A95046CDE9093BCDF830806E
:104BD0000B9700F0CBFD9F4B09A93046CDE9093B6F
:104BE000CDE90B7400F0C2FD4FF2F002082309A9D1
:104BF0005046CDE90923CDF834B000F0B7FD6B691C
:104C000043EA0B036B616B69934D03EA0B0301935A
:104C1000019BD9F80C00C0F30220FDF7D1F94FF445
:104C2000006300FA08F0C0B285F80B031C222B6069
:104C3000214609A800F02CFF1422214604A800F008
:104C400027FF4FF48040FDF72DF84046FDF72AF886
:104C5000092382493046CDE90413032304A9CDE991
:104C6000063400F083FD7E4B04A93046CDE90438BC
:104C700000F07CFDD9F80C00C0F30220FDF7A0F98C
:104C8000202300FA08F0C0B285F825036B60754D4B
:104C900009A9EB68284643F08003EB604FF4164304
:104CA000CDE909340C23CDE90B44CDE90D340F9443
:104CB00000F03CFE2B69142223F490432B616B69B6
:104CC000214623F02A036B61EB6804A843F40053E8
:104CD000EB60CDE9024400F0DBFE1422214609A876
:104CE00000F0D6FE4FF40070FCF7DCFF4046FCF706
:104CF000D9FF47F67E6309A93046CDE9093400F0B3
:104D000035FD594B4FF480781A68A5F5A05522F46B
:104D1000804222F010021A601A6802A922F440525E
:104D200042F400521A601A68284642F020021A60C3
:104D30001A6822F040021A601A6842F080021A6073
:104D40001A6822F4407242F480721A601A6822F4DF
:104D5000406242F480621A60444A9A60444ADA60CF
:104D60005A68120C120442F008025A601A6842EAA9
:104D70000B021A600294CDF80C8000F0C0FC4FF4D6
:104D8000E0034FF4602004A9CDE904032846CDE9EF
:104D90000647CDF8208000F0C7FC36494FF400707C
:104DA000FDF7F2F83348FDF7C5F8334940F2052026
:104DB000FDF7EAF83048FDF7BDF8304940F20A2027
:104DC000FDF7E2F82D48FDF7B5F82D4940F20F2028
:104DD000FDF7DAF82A48FDF7ADF82A494FF40570D7
:104DE000FDF7D2F82748FDF7A5F8274940F219202A
:104DF000FDF7CAF82448FDF79DF824494046FDF721
:104E0000C3F82248FDF796F8AB68214943F4000344
:104E1000AB6040F20510FDF7B7F81D48FDF78AF8C2
:104E2000AB68642043F40003AB60AB6843EA0B0358
:104E3000AB60FCF777F9AB6843F00403AB602DE09F
:104E4000001002400003FA05000001400008014084
:104E5000FC00FC048900890400E100E00200020477
:104E60000400040400380140080002404C240140C2
:104E70005A08002001003002020060020300900284
:104E80000400C0020500F00206002003100020818B
:104E90001100508100ED00E0000C0140AC6814F0FE
:104EA0000404FBD1AB6843F4A003AB60FCF7EFFE56
:104EB00000F08CFA4FF47A72AE4B1B68B3FBF2F33E
:104EC000013BB3F1807F08D2F021AB4A5360AB4B7A
:104ED00083F823100723946013604FF400430024E9
:104EE0003361A74DFDF75CFCA6482C60FCF7C0FEC3
:104EF000FCF728F9A44800F0FFFAA24800F096FA5F
:104F0000FCF7DEFD21462046FCF732FE4FF47A70B6
:104F1000FCF708F9FBF708FA2B68172B88BF2C6001
:104F2000FBF70EFD044668B94FF47A70FCF7FAF807
:104F3000FBF706FD0446944800F0DEFA934800F0C3
:104F400075FA34B1012C14D18F4800F0D5FA90488D
:104F50000DE09048FCF78CFE4FF47A60FCF7E2F825
:104F60008D48FBF719FF884800F0C6FA874800F023
:104F70005DFA8A4D8A4B2A698A4C1A604FF4616344
:104F80002269894E5343894A1360A268884B1A608C
:104F9000236C884A33601360FBF7A2FE4FF47A70EB
:104FA000FCF7C0F8FCF752FE8348FCF7D5FCA36879
:104FB000012B14D18148FCF7B5FC814FDFF8FC913F
:104FC000DFF850823B7801333B70FDF799FB431EBD
:104FD0000446032B20D8DFE803F01A40444B022B91
:104FE00001D17848E7E7032B01D17748E3E7042BA9
:104FF00001D17648DFE7052B01D17548DBE7062BA9
:1050000001D17448D7E7072BD4D17348D3E7FCF715
:1050100083FC4068FCF786FCFCF77EFC81452BD1C5
:105020002046FDF73FFE98F8003003F0FF0183B9FA
:10503000FDF7B6FB694B1970694B1970694B1B681A
:10504000AB60694B1A68694B1A60694B1970012390
:1050500033606420FCF766F8B4E7FCF75DFC006899
:10506000D8E70220FCF782FCFCF756FCC068D1E7C9
:10507000FCF752FC8068CDE7FCF74EFC514B8342B5
:1050800003D12046FCF79EFFCDE7FCF745FC4E4BD5
:10509000834203D12046FEF725F8C4E7FCF73CFC29
:1050A0004A4B834203D12046FEF792F9BBE7FCF757
:1050B00033FC474B834203D12046FDF7E9FBB2E7BF
:1050C000FCF72AFC4B4B834203D12046FEF7ACFE93
:1050D000A9E7FCF721FC3F4B834203D12046FEF7B2
:1050E00055FBA0E7FCF718FC3B4B834203D120465D
:1050F000FEF79EFD97E7FCF70FFC3F4B834203D181
:105100002046FDF777FF8EE7FCF706FC3B4B83421A
:1051100003D12046FFF786F985E7FCF7FDFB384B06
:10512000834203D12046FCF7C3FF7CE7FCF7F4FB86
:10513000344B834203D12046FDF728F873E7FCF790
:10514000EBFB314B834203D12046FCF7FBFF6AE7C0
:10515000FCF7E2FB2D4B834203D12046FDF73EFBDB
:1051600061E7FCF7D9FB2A4B834255D12046FDF776
:10517000FBFD58E78C02002010E000E000ED00E0AD
:10518000780800207A020020035F00087465000898
:10519000A15D00088C6500089D650008F4000020F2
:1051A000800700205401002074020020180A00200B
:1051B0001C0A0020140A0020551E0008E06C00089C
:1051C00085070020386D0008906D0008E86D000824
:1051D000406E0008F06E0008486F00089D07002030
:1051E0008D0700207C0700209407002098070020EE
:1051F000860700206C6E0008A06F0008F86F00089A
:1052000044690008B46600085C660008646700082A
:105210000C6700089C070020FCF77EFB3F4B834295
:1052200003D12046FDF748FEFDE6FCF775FB3C4B3D
:10523000834203D12046FDF707FEF4E6FCF76CFB42
:10524000384B834203D12046FDF7C6FDEBE6FCF761
:1052500063FB354B834203D12046FDF765FEE2E652
:10526000FCF75AFB314B834203D12046FCF7B2FFD7
:10527000D9E6FCF751FB2E4B834203D12046FDF7C4
:1052800005F8D0E6FCF748FB2A4B834203D12046C1
:10529000FDF722F8C7E6FCF73FFB274B834203D11B
:1052A0002046FDF791F8BEE6FCF736FB234B834220
:1052B00003D12046FDF7AAF8B5E6FCF72DFB204BFD
:1052C000834203D12046FDF7C3F8ACE6FCF724FB8C
:1052D0001C4B834203D12046FDF7D8F8A3E6FCF728
:1052E0001BFB194B834203D12046FDF7EDF89AE6EC
:1052F000FCF712FB154B834203D12046FDF740F922
:1053000091E6FCF709FB124B834203D12046FDF7DF
:105310008DF988E6002388F8003084E66C68000880
:1053200014680008BC670008B4680008FC6800083E
:105330009C690008C86900084C6A0008A46A000853
:10534000FC6A0008546B0008AC6B0008886C00080D
:105350005C6C00087047FEE7FEE7FEE7FEE770477B
:1053600070477047FFF7FEBA7047000014490B689A
:105370001B0624D5134BB3F8582492B2DAB1B3F814
:105380005824013A92B2A3F85824B3F8562492B2A2
:10539000501C80B2A3F856041A4492F86C20D2B282
:1053A0004A60B3F8562492B2B2F57A7F07D1002250
:1053B000A3F856247047CB6823F08003CB60704776
:1053C00000380140B402002070470000124A10B5B6
:1053D0005368124903F00C03082B0AD0104B0B60E2
:1053E0005368104AC3F30313D25C0B68D3400B60BD
:1053F00010BD53685068C3F38343C00341BFD06AF4
:10540000074C00F00F0001304CBFB4FBF0F0064831
:1054100002334343E3E700BF001002408C02002048
:1054200000127A002170000800093D000021304A76
:1054300010B5D36823F08003D3602E4B027802F0BE
:10544000FF045ABBB3F8542492B2511C89B2A3F89A
:1054500054140A211A4482F86C10B3F8542492B2FE
:10546000B2F57A7F08BFA3F85444B3F85824013248
:1054700092B2A3F85824B3F85A14B3F8582489B256
:1054800092B291423EBFB3F8582492B2A3F85A2484
:10549000174AD36843F08003D36010BDB3F8542497
:1054A00092B2541CA4B2A3F8544410F8014B1A440D
:1054B000E4B282F86C40B3F8542492B2B2F57A7F29
:1054C00008BFA3F85414B3F85824013292B2A3F8D9
:1054D0005824B3F85A44B3F85824A4B292B2944270
:1054E0003EBFB3F8582492B2A3F85A24A6E700BFEF
:1054F00000380140B402002000211C4A10B5D368D6
:1055000023F08003D3601A4B02782AB9174AD36874
:1055100043F08003D36010BDB3F8542492B2541CFE
:10552000A4B2A3F8544410F8014B1A44E4B282F830
:105530006C40B3F8542492B2B2F57A7F08BFA3F856
:105540005414B3F85824013292B2A3F85824B3F893
:105550005A44B3F85824A4B292B294423EBFB3F86E
:10556000582492B2A3F85A24CEE700BF0038014075
:10557000B402002037B501918DF803209DF8033067
:1055800004460198002B3FD1FBF7E8FE0025474A6F
:10559000D36823F08003D360454B227802F0FF01EB
:1055A000002A36D10138B3F8542410F8014F92B2D2
:1055B000002C57D1511C89B2A3F854140A211A4463
:1055C00082F86C10B3F8542492B2B2F57A7F08BF17
:1055D000A3F85444B3F85824013292B2A3F85824E3
:1055E000B3F85A14B3F8582489B292B291423EBF2C
:1055F000B3F8582492B2A3F85A242C4AD36843F043
:105600008003D36003B030BD9DF80310FBF71EFF8D
:10561000BCE7B3F8542492B2511C89B2A3F85414D5
:1056200014F8011B1A44C9B282F86C10B3F8542460
:1056300092B2B2F57A7F08BFA3F85454B3F8582455
:10564000013292B2A3F85824B3F85A14B3F858248C
:1056500089B292B291423EBFB3F8582492B2A3F8F5
:105660005A249AE7541CA4B2A3F8544404781A4468
:1056700082F86C40B3F8542492B2B2F57A7F08BF36
:10568000A3F85414B3F85824013292B2A3F8582462
:10569000B3F85A44B3F85824A4B292B294423EBF2D
:1056A000B3F8582492B2A3F85A247CE7003801409A
:1056B000B4020020002103E00B4B5B58435004313F
:1056C0000A480B4B42189A42F6D30A4A02E00023DA
:1056D00042F8043B084B9A42F9D3FFF775FE00F0FD
:1056E000A5F9FFF71FFA704744700008000000207A
:1056F0009002002090020020200A0020FEE70246CF
:10570000806810B510F001000CD153684C6823F488
:105710008073234353609368096823F400630B4349
:10572000936010BD0120FCE7836810B5DB071BD434
:1057300043684A6823F4684312B18C6813432343D7
:10574000436083680C6823F4602323F4817323434C
:10575000CC68096923430B438360C36A23F4700355
:105760001343C362002010BD0120FCE72DE9F04F78
:105770000D680446C5F30F2595FAA5F20327B2FA82
:1057800082F24FF0040C4FF0011E40F2011835FA7E
:1057900002F001D1BDE8F08F012393402B4267D086
:1057A000072A88BFA2F10803D1F804A08ABF0EFA25
:1057B00003F308FA02F343F08063BAF1080F0DD146
:1057C000E6684FEA132B9BFAABF9B9FA89F9086935
:1057D00026EA0B0600FA09F00643E6604FEA136971
:1057E00093FAA3F6B6FA86F693FAA3FB0F20BBFA58
:1057F0008BFBB60000FA06F654F809004FEA8B0B53
:1058000020EA06060AFA0BFB46EA0B0644F8096092
:10581000486820F0080001282AD193FAA3F0B0FAD2
:1058200080F093FAA3FBBBFA8BFB800007FA00F031
:1058300026EA000688684FEA8B0B00FA0BFB46EA63
:105840000B0644F8096093FAA3FABAFA8AFA93FAB3
:10585000A3F3B3FA83F34FEA8A0A0CFA0AFA26EAA8
:105860000A0ACE689B009E404AEA060644F8096090
:1058700001328CE7034B044A5B68C3F30313D35C28
:10588000D84070470010024021700008034B044AC2
:105890005B68C3F30223D35CD8407047001002401A
:1058A00031700008034B044A5B68C3F3C223D35C26
:1058B000D84070470010024031700008094B5A6808
:1058C000D20341BFD86A084A00F00F00013048BF38
:1058D000B2FBF0F05B6858BF0448C3F38343023364
:1058E000584370470010024000127A0000093D0042
:1058F000044B5B6803F00C03082B01D1FFF7DEBFFC
:10590000014870470010024000127A0008B50146B5
:10591000FFF7EEFF0860FFF7ADFF4860FFF7B6FF47
:1059200088604868FFF7BEFFC86008BD30B5C3682F
:1059300004469B040D4685B002D5012005B030BD5C
:105940004B68C968C2680B43296922F416420B43AD
:10595000A96922F00C020B431343C3600369AA68D0
:1059600023F440531343036143696A6923F440738A
:10597000134343616846FFF7C9FF1F4B9C4224D184
:1059800003990029D9D02A68002AD6D019234B437D
:10599000A969B1F5004F4FF064011FD15200B3FB6C
:1059A000F2F3B3FBF1F001FB1033DB003233B3FB56
:1059B000F1F303F007025B0002EB001203F4F8734B
:1059C00013449BB20020A360B8E70C4B9C4201D16A
:1059D0000299D6E70A4B9C42AFD1F9E79200B3FB9C
:1059E000F2F3B3FBF1F201FB12331B013233B3FBD1
:1059F000F1F303EB0213E4E70038014000440040F8
:105A0000004800404FF47A73B0FBF3F00022034BE0
:105A1000013858609A6005221A60704710E000E073
:105A2000014B1860704700BF8C02002070B5002643
:105A30000C4D0D4C641BA410A64209D100F030F8A7
:105A400000260A4D0A4C641BA410A64205D170BD65
:105A500055F8043B98470136EEE755F8043B984764
:105A60000136F2E73C7000083C7000083C7000080A
:105A7000407000080A44914200F1FF3300D17047A2
:105A800010B511F8014B914203F8014FF9D110BD47
:105A900003460244934200D1704703F8011BF9E723
:105AA000F8B500BFF8BC08BC9E467047F8B500BF0B
:085AB000F8BC08BC9E467047DB
:105AB80000070E091C1B1215383F363124232A2DE6
:105AC80070777E796C6B6265484F464154535A5DD6
