:020000040800F2
:1000000000200020D55300087550000877500008E4
:10001000795000087B5000087D5000080000000067
:100020000000000000000000000000007F500008F9
:10003000815000080000000083500008855000082F
:100040001D5400081D5400081D5400081D540008CC
:100050001D5400081D5400081D5400081D540008BC
:100060001D5400081D5400081D5400088950000844
:100070001D5400081D5400081D5400081D5400089C
:100080001D5400081D5400081D5400080000000005
:100090000000000000000000000000001D540008E7
:1000A0001D5400081D5400081D5400081D5400086C
:1000B0001D5400081D5400081D5400081D5400085C
:1000C0001D54000800000000000000001D5400083E
:1000D0001D5400088D5000081D5400081D540008D0
:1000E0001D5400081D5400081D54000800000000A5
:1000F0000000000000000000000000000000000000
:1001000000000000000000000000000000000000EF
:1001100000000000000000001D5400081D540008ED
:1001200000000000000000000000000000000000CF
:1001300000000000000000000000000000000000BF
:1001400000000000000000000000000000000000AF
:10015000000000000000000000000000000000009F
:10016000000000000000000000000000000000008F
:10017000000000000000000000000000000000007F
:10018000000000000000000000000000000000006F
:10019000000000000000000000000000000000005F
:1001A000000000000000000000000000000000004F
:1001B000000000000000000000000000000000003F
:1001C0000000000000000000000000005FF808F1DF
:1001D00010B5054C237833B9044B13B10448AFF381
:1001E00000800123237010BD900200200000000059
:1001F000C057000808B5034B1BB103490348AFF3D0
:10020000008008BD0000000094020020C0570008D4
:100210000E4A1346D168C907FCD4D168890644BF89
:100220002021D1601A6942F002021A6158611A69EC
:1002300042F040021A61054BDA689206FCD5202292
:10024000DA601A6922F002021A6170470020024047
:10025000034B044A5A6002F188325A60704700BF6B
:100260000020024023016745024A136943F08003DE
:100270001361704700200240114B10B51A46DC682C
:10028000E407FCD4DC68A40644BF2024DC601369C6
:1002900043F0010313610A4A8BB203801346D4680A
:1002A000A406FCD52024090CD4604180DA689206AB
:1002B000FCD52022DA601A6922F001021A6110BD11
:1002C0000020024038B572B6FFF7C2FF104804F0B4
:1002D000A3FF104C00224FF4CE710F4804F0DAFF58
:1002E0000B4804F099FF002221680C4804F0D2FF6B
:1002F0000B48FFF78DFF0B4D094854F8041BFFF71F
:10030000BBFF0430A842F8D1FFF7AEFF62B638BD9C
:10031000D858000878080020E0580008E75800087E
:1003200000E401089CE50108054A064B064953F81C
:10033000040B8B4242F8040BF9D10120704700BF37
:100340007808002000E401089CE50108F8B504687D
:1003500007468C420D4601D394421BD900260E4B12
:100360000E481E7004F058FF324639460C4804F01F
:1003700091FF0A4804F050FF21463246094804F034
:1003800089FF064804F048FF32460749074804F051
:1003900081FF2C462046F8BD00000020D8580008F8
:1003A000ED5800080459000800EC0108165900082F
:1003B00010B5194C6068FFF72BFFD4E90010FFF768
:1003C0005BFFD4E90210FFF757FFD4E90410FFF7F1
:1003D00053FFD4E90610FFF74FFFD4E90810FFF7E9
:1003E0004BFFD4E90A10FFF747FFD4E90C10FFF7E1
:1003F00043FFD4E90E10FFF73FFFD4E91010FFF7D9
:100400003BFFD4E91210FFF737FF044804F004FF64
:10041000034804F09BFE10BD04000020D8580008DB
:100420002D59000810B5194C6068FFF7F1FED4E9AA
:100430000010FFF721FFD4E90210FFF71DFFD4E9F8
:100440000410FFF719FFD4E90610FFF715FFD4E9F0
:100450000810FFF711FFD4E90A10FFF70DFFD4E9E8
:100460000C10FFF709FFD4E90E10FFF705FFD4E9E0
:100470001010FFF701FFD4E91210FFF7FDFE04484A
:1004800004F0CAFE034804F061FE10BD54000020D1
:10049000D85800084659000838B5254C4FF48072EA
:1004A00000216068FFF752FF4FF47A72206000214C
:1004B000E068FFF74BFF4FF47A72A060002160699B
:1004C000FFF744FF1B4D20612A460A21E069FFF730
:1004D0003DFF2A46A0610A21606AFFF737FF2A46DE
:1004E00020620A21E06AFFF731FF2A46A0620A2152
:1004F000606BFFF72BFF2A4620630A21E06BFFF7B2
:1005000025FF4FF49672A0634621606CFFF71EFF33
:100510004FF496720A212064E06CFFF717FFA06485
:10052000054804F079FE054804F010FE38BD00BF10
:1005300004000020A0860100D85800086659000871
:1005400038B5254C4FF4807200216068FFF7FEFE3D
:100550004FF47A7220600021E068FFF7F7FE4FF455
:100560007A72A06000216069FFF7F0FE1B4D2061E8
:100570002A460A21E069FFF7E9FE2A46A0610A211E
:10058000606AFFF7E3FE2A4620620A21E06AFFF76D
:10059000DDFE2A46A0620A21606BFFF7D7FE2A46DD
:1005A00020630A21E06BFFF7D1FE4FF49672A0633F
:1005B0004621606CFFF7CAFE4FF496720A21206450
:1005C000E06CFFF7C3FEA064054804F025FE054873
:1005D00004F0BCFD38BD00BFA4000020A0860100CF
:1005E000D85800088059000810B5174C6068FFF70C
:1005F0000FFED4E90010FFF73FFED4E90210FFF729
:100600003BFED4E90410FFF737FED4E90610FFF7EC
:1006100033FED4E90810FFF72FFED4E90A10FFF7E4
:100620002BFED4E90C10FFF727FED4E90E10FFF7DC
:1006300023FED4E91010FFF71FFE044804F0ECFD80
:10064000034804F083FD10BD54010020D858000871
:10065000A359000810B5174C6068FFF7D9FDD4E91D
:100660000010FFF709FED4E90210FFF705FED4E9F8
:100670000410FFF701FED4E90610FFF7FDFDD4E9F1
:100680000810FFF7F9FDD4E90A10FFF7F5FDD4E9EA
:100690000C10FFF7F1FDD4E90E10FFF7EDFDD4E9E2
:1006A0001010FFF7E9FD044804F0B6FD034804F01C
:1006B0004DFD10BD9C010020D8580008B959000814
:1006C00010B5224C4FF4807200216068FFF73EFEA7
:1006D0000A2220600121E068FFF738FE4FF47A72A9
:1006E000A06001216069FFF731FE4FF47A6220615A
:1006F0000121E069FFF72AFE4FF47A62A06101212F
:10070000606AFFF723FE42F2107220620021E06A65
:10071000FFF71CFE42F21072A0620021606BFFF72F
:1007200015FE642220630021E06BFFF70FFE032219
:100730000121A063606CFFF709FE2064044804F007
:100740006BFD044804F002FD10BD00BF5401002001
:10075000D8580008D659000810B5224C4FF48072C2
:1007600000216068FFF7F2FD0A2220600121E068A5
:10077000FFF7ECFD4FF47A72A06001216069FFF78A
:10078000E5FD4FF47A6220610121E069FFF7DEFDAB
:100790004FF47A62A0610121606AFFF7D7FD42F24F
:1007A000107220620021E06AFFF7D0FD42F2107261
:1007B000A0620021606BFFF7C9FD64222063002165
:1007C000E06BFFF7C3FD03220121A063606CFFF71C
:1007D000BDFD2064044804F01FFD044804F0B6FC8D
:1007E00010BD00BFE4010020D8580008ED590008F2
:1007F00010B50D4C6068FFF70BFDD4E90010FFF752
:100800003BFDD4E90210FFF737FDD4E90410FFF7F0
:1008100033FDD4E90610FFF72FFD044804F0FCFC7B
:10082000034804F093FC10BD14010020D8580008C0
:100830000D5A000838B5114C4FF4807200216068E1
:10084000FFF784FD0E4D20602A460021E068FFF787
:100850007DFD2A46A06000216069FFF777FD012237
:1008600000212061E069FFF771FDA061054804F0F7
:10087000D3FC054804F06AFC38BD00BFF40000203A
:1008800000286BEED8580008345A000838B5114CCF
:100890004FF4807200216068FFF758FD0E4D206014
:1008A0002A460021E068FFF751FD2A46A06000219A
:1008B0006069FFF74BFD012200212061E069FFF72D
:1008C00045FDA061054804F0A7FC054804F03EFC86
:1008D00038BD00BF3401002000286BEED858000856
:1008E000535A000870B501240E4D2C7072B6FFF7F4
:1008F000A1FFFFF7E5FEFFF7CFFD62B62E780A48AD
:100900003EB904F089FC094804F020FC2C70304604
:1009100070BD04F081FC064804F018FC26462C70DB
:10092000F5E700BF00000020D85800087B5A0008F7
:10093000945A000870B51446C0B006460D464FF4F0
:1009400080726846074904F025FF204616F8012BFF
:10095000013D424015F0FF051DF80200F6D140B000
:1009600070BD00BFD857000838B572B6144D0022CC
:100970004C212846FFF7DEFF044645F8040CFFF73C
:1009800067FCFFF715FDFFF7DBFD00224C210D484A
:10099000FFF7D0FF84420C4809D104F03DFC0B481E
:1009A00004F0D4FBFFF760FC62B6012038BD04F010
:1009B00033FC074804F0CAFBFFF7FAFCF2E700BF7C
:1009C00008000020A8000020D8580008C85A0008D5
:1009D000ED5A000838B572B6244D0022442128464D
:1009E000FFF7A8FF0446224804F016FC0022214627
:1009F000204804F04FFC1E4804F00EFC0022442165
:100A00001D4804F047FC45F8044CFFF721FCFFF7B4
:100A1000EBFDFFF7A1FE002244211848FFF78AFFF3
:100A20000546134804F0F8FB00222946114804F05B
:100A300031FC0F4804F0F0FB0F480022442104F081
:100A400029FCAC420A4809D104F0E6FB0C4804F04A
:100A50007DFBFFF709FC62B6012038BD04F0DCFB2A
:100A6000084804F073FBFFF7BFFDF2E758010020D0
:100A7000D85800081D5B0008285B0008E80100202A
:100A8000345B0008565B000838B54A4804F0C4FBE4
:100A9000494804F05BFB72B6484DFFF7D9FB0022D2
:100AA0004C212846FFF746FF044645F8040CFFF7A3
:100AB000B9FCFFF745FD00224C214148FFF73AFF02
:100AC00084423C485DD104F0A7FB3E4804F03EFB65
:100AD0003D4D002244212846FFF72CFF04463548AF
:100AE00004F09AFB00222146384804F0D3FB314839
:100AF00004F092FB00224421354804F0CBFB45F87A
:100B0000044CFFF7A7FDFFF727FE002244213148E0
:100B1000FFF710FF0546274804F07EFB0022294618
:100B20002A4804F0B7FB234804F076FB284800224B
:100B3000442104F0AFFBAC421E482AD104F06CFB08
:100B4000254804F003FB254D00221C212846FFF711
:100B5000F1FE044645F8040CFFF74AFEFFF796FE47
:100B600000221C211E48FFF7E5FE8442114818D1DF
:100B700004F052FB1B4804F0E9FAFFF775FB62B67C
:100B800038BD04F049FB184804F0E0FAFFF74AFCCE
:100B90009EE704F041FB154804F0D8FAFFF75AFD30
:100BA000D1E704F039FB124804F0D0FAFFF720FE39
:100BB000E3E700BFD8580008AF5A000858000020EB
:100BC000A8000020C75A0008A00100201C5B0008F4
:100BD000275B0008E8010020335B000818010020B3
:100BE00038010020825B0008EC5A0008555B0008C1
:100BF000AC5B0008174918482DE9F04142F2107C1F
:100C000000240E460546154FB1F900E0B1F9042065
:100C1000B1F90280A2EB0E020CFB02F2B1F9063030
:100C20000134A3EB080392FBF3F3436003FB08F3E7
:100C300093FBF7F3072C7344C0F80080836001F145
:100C4000040100F10C00DFD1B6F91E306B65BDE880
:100C5000F08100BF2C020020F4070020F0D8FFFF35
:100C6000114B10B51A6882421ADB194600220C6833
:100C700084420EDBCC6884420BDA0C2101FB023289
:100C80005368584342F2107390FBF3F09368184492
:100C900010BD0132072A01F10C01E8D1C820F7E7A5
:100CA0006FF00900F4E700BFF40700202DE9F041E0
:100CB0005D4C0646206800F0DBFA0022276807EB4F
:100CC00007133901234410F802C015460132D2B28D
:100CD000BCF1000F1BD1CB19E01805443A200433B6
:100CE000287104EB030C701E10F8016FD5B296B991
:100CF0002A4620212B4423440F2A75D9102DC5F1F3
:100D0000100188BF00210D4405F0FF050EE01D44D1
:100D100085F804C0D7E70F2D03D80CF80260013224
:100D2000E2E70023394421440A4413713F4804F0A8
:100D300073FA294600223E4804F0ACFA236803EB1C
:100D400003112144294400250133172B0D71236021
:100D50003ED90A262F464FF02008284600F088FA90
:100D6000002305EB05112A01214410F803E09C46FD
:100D70000133DBB2BEF1000F3BD13A2051192144BF
:100D80008C448CF8040006EB0610204401EB030CA5
:100D90009CF804C0BCF1000F2FD1581EC0B284468D
:100DA0005119043101442144BCF10F0F34D91028EA
:100DB000C3F11103DBB288BF00232A44224402445A
:100DC000013513440E2D1F7106F10106C5D12560B2
:100DD000FFF778FA154804F01FFA21680022BDE8F1
:100DE000F041144804F056BA013203F8011BD2B2A4
:100DF00082E78C448CF804E0B7E700EB030C092D84
:100E00008CBF9CF804C09CF805C001EB030E0133B5
:100E10008EF804C0DBB2B9E70CF1010C01F8018BCC
:100E20005FFA8CFCC0E700BF78080020D8580008A3
:100E3000E15B0008E65B00082DE9F8435E4C804664
:100E400020680E4600F014FA0022276807EB07130B
:100E50003901234410F802C015460132D2B2BCF168
:100E6000000F1DD1CB19E018054404332E7108F191
:100E7000FF3004EB030E10F801CFD5B2BCF1000F28
:100E800012D12A4620212B4423440F2A75D9102D34
:100E9000C5F1100188BF00210D4405F0FF050EE0EB
:100EA0001D4485F804C0D5E70F2D03D80EF802C005
:100EB0000132E0E70023394421440A4413713F48DA
:100EC00004F0AAF9294600223D4804F0E3F923681A
:100ED00003EB03112144294400250133172B0D7125
:100EE00023603ED90A27A8464FF02009284600F083
:100EF000BFF9002305EB05112A01214410F803E096
:100F00009C460133DBB2BEF1000F3BD151192144A5
:100F10008C4407EB07108CF80460204401EB030CB1
:100F20009CF804C0BCF1000F30D1581EC0B28446FA
:100F30005119043101442144BCF10F0F35D9102857
:100F4000C3F11103DBB288BF00232A4422440244C8
:100F5000013513440E2D83F8048007F10107C5D134
:100F60002560FFF7AFF9154804F056F92168002213
:100F7000BDE8F843134804F08DB9013203F8011BB2
:100F8000D2B282E78C448CF804E0B7E700EB030CA4
:100F9000092D8CBF9CF804C09CF805C001EB030E22
:100FA00001338EF804C0DBB2B8E70CF1010C01F894
:100FB000019B5FFA8CFCBFE778080020D858000836
:100FC000E15B0008E65B0008002384B00128009381
:100FD00001D1009004E00228FBD003281AD01CD8CD
:100FE000124B9A680192019A02929A6803920399AD
:100FF000029A914204D35A6801990A44013201923B
:10100000039A0292019A03980099121A8A42ECD329
:1010100004B0704712230093E2E7054B054A1B68B2
:101020000338B3FBF2F35843D3E700BF10E000E00E
:101030008C02002040420F0007B50190019B13B9BC
:1010400003B05DF804FB4FF47A70FFF7BDFF019B1E
:10105000013B0193F2E7000038B5684C684D20462B
:1010600004F0DAF829680022664804F013F92046F3
:1010700004F0D2F8A9680022634804F00BF9204676
:1010800004F0CAF829690022604804F003F92046F8
:1010900004F0C2F8A96900225D4804F0FBF820467C
:1010A00004F0BAF8296A00225A4804F0F3F82046FE
:1010B00004F0B2F8A96A0022574804F0EBF8204681
:1010C00004F0AAF8296B0022544804F0E3F8204603
:1010D00004F0A2F8A96B0022514804F0DBF8204686
:1010E00004F09AF8296C00224E4804F0D3F8204608
:1010F00004F092F8A96C00224B484C4D04F0CAF859
:101100003220FFF799FF204604F086F82968002274
:10111000474804F0BFF8204604F07EF8A968002292
:10112000444804F0B7F8204604F076F82969002214
:10113000414804F0AFF8204604F06EF8A969002297
:101140003E4804F0A7F8204604F066F8296A002219
:101150003B4804F09FF8204604F05EF8A96B00229B
:10116000384804F097F8204604F056F8A96A00229F
:10117000354804F08FF8204604F04EF8296B002221
:10118000324804F087F8204604F046F8296C002223
:101190002F4804F07FF82F4D3220FFF74DFF2046F7
:1011A00004F03AF8296800222B4804F073F820462E
:1011B00004F032F8A9680022284804F06BF82046B1
:1011C00004F02AF829690022254804F063F8204633
:1011D00004F022F8A9690022224804F05BF82046B6
:1011E00004F01AF8204B21481968002204F052F844
:1011F000BDE838403220FFF71FBF00BFEA5B0008A0
:1012000004000020F15B0008045C0008225C000878
:10121000415C00085E5C00087C5C0008995C00088A
:10122000B75C0008D55C0008F35C0008540100209E
:101230000B5D00081F5D0008385D0008455D000873
:10124000525D00085F5D00086D5D00087F5D00086D
:10125000925D0008F4000020AF5D0008CB5D00083F
:10126000F35D0008155E00088C020020215E000876
:10127000F0B500230A2780EAE07185B0A1EBE071A8
:101280001C46B1FBF7F604AD2C4407FB16153035B0
:1012900004F8105C0C46DAB2531C092C31465BB2E0
:1012A000EEDC002806DA04A90B442D21023203F8F3
:1012B000101C53B2002104AA1A4402F8101C1A464A
:1012C000084CD0B2191A49B21AB90648625405B08E
:1012D000F0BD04AD2A4412F8112C6254421E52B2E1
:1012E000EFE700BF4C070020F0B5044600234FF0A5
:1012F0000A0C084684EAE47185B0A1EBE4711D464E
:10130000B1FBFCF704AE35440CFB1716303605F87C
:10131000106C0D46DAB2531C092D39465BB2EEDC77
:10132000002C06DA04A90B442D21023203F8101C0C
:1013300053B2002104AA1A4402F8101C1A46D4B26F
:10134000191B49B2451812B92A7005B0F0BD04AD99
:101350002A4412F8112C4254621E52B2EFE70000E8
:1013600000224FF00A0CF0B580EAE0748BB0A4EBD9
:10137000E0741546B4FBFCF70AAE35440CFB174687
:10138000303605F8286C2546D3B25A1C092D3C4648
:1013900052B2EEDC012A0AAC1444D7BF302200233B
:1013A00004F8282C9A1CD4BF52B204F8283C022A14
:1013B00008DC012906D930240AAB1344013203F8B2
:1013C000284C52B200242E26234665B2AA4212DCD3
:1013D000002806DA0AA95A1C0B442D2103F8141C14
:1013E00053B21A46114CD0B2191A49B2B2B90F48C9
:1013F00062540BB0F0BD8B421D4605D10AAF0133DC
:101400003D445BB205F8146C1DF804700AAD1D4430
:10141000013305F8147C5BB20134D6E70AAD2A44E7
:1014200012F8152C6254421E52B2DCE75C07002011
:10143000002802D0DCBF404200B2704702460023C1
:10144000D8B2115C01330029FAD1704770B5054656
:101450000024104662B2AB5C661C43B95AB28D5C84
:10146000E21852B28618013325B9357070BD344682
:101470008354EFE78554F1E7F0B504460F4618466C
:10148000002569B2635C6E1C83B9DEB2F95C741925
:101490005FFA84FC64B261B94BB2D45C0CEB01031B
:1014A0005BB2C518013144B92C70F0BD35464354C8
:1014B000E7E7731C01555BB2E7E7C454ECE72DE99D
:1014C000F04107464FF4616086B00C46B7FBF0F080
:1014D00001A9FFF709FF01A8FFF7B0FF012896BF98
:1014E000012200223023154698BF2370EEB2B31AB2
:1014F00006A95BB20B4413F8141C6319751C6DB27A
:10150000002949D13A221A703C23B7FBF3F2B2FB0F
:10151000F3F001A903FB1020FFF7E6FE01A8FFF797
:101520008DFF01289FBF30236355B51C6DB22E4639
:101530005FFA86F8A8EB050306AA5BB2134413F81A
:10154000142CA31908F1010676B23ABB3A221A709C
:101550003C23B7FBF3F001A903FB1070FFF7C4FEB7
:1015600001A8FFF76BFF01289CBF3023A3554FF064
:1015700000039CBF08F1020676B25AB206A90A44DB
:1015800012F8141C9A1952B2A018013341B9017013
:10159000204606B0BDE8F0811970A7E71A70C7E7CA
:1015A000A154EAE7F0B506464FF4616087B00C46F7
:1015B000B6FBF0F001A9FFF797FE01A8FFF73EFF89
:1015C000012896BF012200223023154698BF2370C0
:1015D000EFB2BB1A06A95BB20B4413F8141C6319D3
:1015E0007D1C6DB229BB3A221A703C23B6FBF3F680
:1015F000B6FBF3F001A903FB1060FFF775FE01A82D
:10160000FFF71CFF01289CBF302363554FF00003F8
:101610009CBFBD1C6DB25AB206A90A4412F8141C34
:101620005A1952B2A018013329B90170204607B0E7
:10163000F0BD1970CCE7A154EDE700000C494B68F0
:101640000A688B609342C1E9000205DC834209DC31
:101650009042A8BF10467047824203DC9842A8BF60
:10166000184670479342A8BF13461846704700BFFC
:10167000100700200C494B680A688B609342C1E94F
:10168000000205DC834209DC9042A8BF1046704787
:10169000824203DC9842A8BF184670479342A8BF15
:1016A00013461846704700BF1C0700200C494B68C2
:1016B0000A688B609342C1E9000205DC834209DCC1
:1016C0009042A8BF10467047824203DC9842A8BFF0
:1016D000184670479342A8BF13461846704700BF8C
:1016E000280700200C494B680A688B609342C1E9C7
:1016F000000205DC834209DC9042A8BF1046704717
:10170000824203DC9842A8BF184670479342A8BFA4
:1017100013461846704700BF340700200C494B6839
:101720000A688B609342C1E9000205DC834209DC50
:101730009042A8BF10467047824203DC9842A8BF7F
:10174000184670479342A8BF13461846704700BF1B
:10175000400700207047704770477047014B18687A
:10176000704700BF4C020020094B10B598420DD0C5
:1017700060B1084A084C126820600AB118309047DE
:1017800023681B6913B1BDE81040184710BD00BFA6
:10179000345E0008700700204C020020024B1860E5
:1017A000024B1868FFF7E0BF700700204C020020D2
:1017B000044B054A1B68934203D013B15B6903B124
:1017C000184770474C020020345E00084FF48043F5
:1017D00010B5064C02202361FFF7F6FB4FF0804363
:1017E00002202361BDE81040FFF7EEBB000C014072
:1017F00070B54FF07C454FF480560D4C2561266145
:10180000FFF7E4FF0120FFF717FC25612661FFF7D2
:10181000DDFF0120FFF710FC4FF480632561236199
:10182000FFF7D4FFBDE870400120FFF705BC00BF03
:10183000000C01404FF07C42244B70B504460D462D
:101840001A6111B14FF400421A61E20644BF4FF42D
:1018500000521A6114F0200F18BF4FF480521B4B36
:1018600018BF1A61660644BF4FF400621A6114F093
:10187000800F18BF4FF48063144E18BF3361FFF719
:10188000A5FF4FF07053E007336144BF4FF400539E
:101890003361A10742BF4FF480520C4B1A616207BB
:1018A00042BF4FF40062094B1A61230742BF4FF455
:1018B0008062064B1A61FFF789FF0220FFF7BCFB2D
:1018C0001DB14FF00042014B1A6170BD000C014088
:1018D000C00040F0400038B500F0F8000C46002190
:1018E000FFF7A8FF651E073415F8010F0121FFF768
:1018F000A1FFA542F8D1BDE8384000218020FFF7C4
:1019000099BF000073B51F4C1F4D69460020CDE9FB
:1019100000451E4EFFF7DCFF1D4B69460120CDE957
:101920000036FFF7D5FF1B4B6946CDE90035022095
:10193000194DFFF7CDFF69460320CDE90056FFF7AB
:10194000C7FF69460420CDE90054FFF7C1FF134AE1
:10195000134B69460520CDE90023FFF7B9FF114B72
:1019600011490620CDE900136946FFF7B1FF0F4B7F
:101970000F486946CDE900030720FFF7A9FF02B031
:1019800070BD00BF04150E0400041F1F0000041FDB
:10199000150E040000040E15040E15040207070AB4
:1019A0000A1C1C08051509000F05050501010100A9
:1019B0001111111F064A1070064A117019B940F032
:1019C0008000FFF737BF002140F0C000F9E700BFFB
:1019D000740700207507002070B505460E460446C2
:1019E000207800B970BD0121FFF724FF012E07D137
:1019F000631BDBB2072B03D131460020FFF7DAFF70
:101A00000134EDE70121C0B2FFF714BF2DE9F8431F
:101A10000D46DFF878801B4E1B4F441E14F8010F53
:101A200008B9BDE8F883B22819D101214920FFF790
:101A300001FF337897F800900133DBB23370B9F1CE
:101A4000000FEBD1082BE9D1022DE7D10121484647
:101A5000FFF7B0FF012386F800903B70DEE7AF2868
:101A600002D101210320E2E7AA2802D101210220AC
:101A7000DDE7BF2889BF40440121012110F8C00CD7
:101A8000D5E700BF74070020750700205002002032
:101A900000210120FFF7CEBE08B56420FFF7CCFA85
:101AA000FFF7A6FE00210E20FFF7C4FEBDE80840A8
:101AB000FFF7EEBF0221FFF7A9BF10B504460846A5
:101AC0001146FFF777FF2046BDE810400221FFF7DF
:101AD0009DBF08B5FFF7E0FFFFF7DAFFBDE808405C
:101AE00000210C20FFF7A6BE054B82B09A69024385
:101AF0009A619B6918400190019B02B0704700BF3A
:101B0000001002400022014B1A807047DE070020BF
:101B100008B5FEF729FFBDE808400148FFF7C6B841
:101B20004C5E000810B53B4C94F9001061B90846B2
:101B3000FFF740FF3848FFF7BDFF4FF48762374B90
:101B40009A6140F2B4521A6294F90030012B0DD11F
:101B500000210846FFF72EFF3148FFF7ABFF4FF497
:101B600096722E4B9A614FF4D2721A6294F9003039
:101B7000022B0DD100210846FFF71CFF2948FFF773
:101B800099FF4FF48C72254B9A614FF4B9721A6227
:101B900094F90030032B0CD100210846FFF70AFF0F
:101BA0002148FFF787FFA0221C4B9A614FF48C72EB
:101BB0001A6294F90030042B0DD100210846FFF77A
:101BC000F9FE1A48FFF776FF4FF44872134B9A61FB
:101BD0004FF4AA621A6294F90030052B0CD100214F
:101BE0000846FFF7E7FE1248FFF764FF64220B4B3D
:101BF0009A614FF4FA621A6294F90030062B04BF1E
:101C000000232370FEF7E6FEBDE810404FF4167087
:101C1000FFF712BA8F070020585E00085401002019
:101C2000695E00087A5E00088B5E00089C5E000812
:101C3000AD5E0008FEF7CEBE08B501210720FFF714
:101C4000B9FE0121FF20FFF7F5FDFEF7C3FE044BAF
:101C5000C8209A68034B1A60BDE80840FFF7ECB94A
:101C6000540100201C0A002008B501210720FFF7BD
:101C7000A1FE0121FF20FFF7DDFDFEF7ABFE044BC7
:101C8000C8201A6C034B1A60BDE80840FFF7D4B9AE
:101C900054010020140A002018B100221146FFF759
:101CA0000CBF704749F6AF2310B50E4C90B02268B8
:101CB0009A4215D90C4B0BA91868FFF773FC4FF427
:101CC0006163206801A9B0FBF3F0FFF70DFB074942
:101CD00006AB0BAAFFF7D0FB022106A8FFF7ACF872
:101CE00010B010BD7C07002094070020BE5E0008E5
:101CF00010B5164C164890B003F08EFA00222168F9
:101D0000144803F0C7FA49F6AF2322689A421BD958
:101D1000114B0BA91868FFF745FC4FF4616320686D
:101D200001A9B0FBF3F0FFF7DFFA06AB0BAA0B49F2
:101D3000FFF7A2FB012106A8FFF77EF8044803F095
:101D40006BFA06A803F002FA10B010BD7807002065
:101D5000D8580008C25E000888070020BE5E000850
:101D600008B501210720FFF725FEBDE80840012145
:101D7000FF20FFF75FBD00004FF0007170B591FAD2
:101D8000A1F1B1FA81F3104C00F00071D9404FF08D
:101D9000F87254F8215000F0F87092FAA2F3B3FAF6
:101DA00083F392FAA2F20726B2FA82F220FA03F340
:101DB00006FA03F3D04025EA030306FA00F01843BD
:101DC00044F8210070BD00BF0C2401404FF4407363
:101DD00030B593FAA3F3B3FA83F31F24084D00F44C
:101DE0004072DA4055F8223000F01F00844001F0C4
:101DF0001F0123EA04038140194345F8221030BD36
:101E00002C240140002070470122002110B51F4BF7
:101E10001F4C1A700228084608BF2378FFF7CAFD36
:101E20001C4B0221188880B2FFF79AFAFFF742FE96
:101E30001948FFF73FFE194B188800B2FFF718FA50
:101E4000FFF738FE1648FFF735FE237801210620FC
:101E5000144C7BB9FFF7AEFD01210220FFF7D2FD44
:101E600001210220FFF7CEFD23780A2B84BF002337
:101E7000237010BD2378052BECD9FFF79BFD0121C2
:101E80000320FFF7BFFD01210320EBE79C070020A3
:101E90009E0700206C080020CA5E0008560800203B
:101EA000CD5E000885070020002310B596B00446DB
:101EB000084611A98DF804208DF80530FFF772FB54
:101EC0004FF4616002A9B4FBF0F0FFF70DFA07AB25
:101ED00011AA0749FFF7D0FA0CAA07A901A8FFF732
:101EE000B5FA04210CA8FEF7A7FF16B010BD00BF7D
:101EF000BE5E0008022838B51E4C1F4D2AD123882B
:101F00002A6801331BB29342238001D3002323802C
:101F100000210846FFF74EFD2868B4F9003001386B
:101F2000C01A00EB001004302844FFF7C3FD13482B
:101F300003F072F9B4F900100022114803F0AAF975
:101F40000E4803F069F929680022BDE838400D48C1
:101F500003F0A0B90128DBD12388013B1BB2002B81
:101F60002380D5DA2B68013B1BB2002B2380CDDB0D
:101F7000CEE700BFDE07002078080020D858000810
:101F8000D45E0008E15E0008002110B50446084652
:101F9000FFF710FD0A4B188800B2FFF769F9FFF749
:101FA00089FD0848FFF786FD022C08D1BDE81040E6
:101FB000054B064A1B881BB29360FEF7D5BC10BDCB
:101FC00056080020F45E0008E80700200400002006
:101FD000002110B504460846FFF7ECFC0A4B1888B0
:101FE00000B2FFF745F9FFF765FD0848FFF762FD0E
:101FF000022C08D1BDE81040054B064A1B881BB2D5
:102000001361FEF7B1BC10BD56080020F45E000855
:102010005808002004000020002110B5044608469E
:10202000FFF7C8FC1F48FFF745FD022C30D1FEF733
:102030002BFDFEF757FC002104460846FFF7BAFCCB
:102040001948FFF737FD4FF4FA60FEF7F5FF00215E
:102050000846FFF7AFFC012C1BD11448FFF72AFDFF
:102060001348FEF723FE4FF4FA60FEF7E5FF114B2D
:102070001A69114B1A604FF46162104B19694A4397
:102080000F490A6099680F4A11601A6C0E4B1A606A
:1020900010BD0E48FFF70EFDBDE810404FF47A600A
:1020A000FEF7CABF035F0008145F0008255F000841
:1020B000365F0008F4000020800700205401002053
:1020C000180A00201C0A0020140A0020455F00089E
:1020D000022810B50E4C15D123690133236100216C
:1020E0000846FFF767FC2069FFF7C2F8FFF7E2FC3C
:1020F0000848FFF7DFFC4FF4616322695343064A47
:10210000136010BD0128EAD12369013BE6E700BF57
:1021100054010020565F0008180A002010B5334C07
:10212000022894F900300DD101335BB2072B0FD197
:102130000023237000210846FFF73CFC2C48FFF7E2
:10214000B9FC0AE0012804D1013B5BB2002B10DB93
:10215000237094F90030002BECD094F90030012B5F
:1021600009D100210846FFF725FC2248FFF7A2FC11
:1021700001E00623237094F90030022B06D10021E0
:102180000846FFF717FC1C48FFF794FC94F9003051
:10219000032B06D100210846FFF70CFC1748FFF778
:1021A00089FC94F90030042B06D100210846FFF782
:1021B00001FC1348FFF77EFC94F90030052B06D193
:1021C00000210846FFF7F6FB0E48FFF773FC94F971
:1021D0000030062B08D100210846FFF7EBFBBDE8D5
:1021E00010400948FFF766BC10BD00BF8F070020F4
:1021F0005B5F00086C5F00087E5F00088F5F00086F
:102200009F5F0008B05F0008C05F0008022810B59B
:102210000D4C14D1A3690A33A36100210846FFF7CE
:10222000C9FB0A23A0690121B0FBF3F0FFF798F87E
:10223000FFF740FCBDE810400448FFF73BBC012815
:10224000EBD1A3690A3BE7E754010020755E000863
:10225000022810B50D4C14D1236A0A3323620021E1
:102260000846FFF7A7FB0A23206A0121B0FBF3F021
:10227000FFF776F8FFF71EFCBDE810400448FFF7B3
:1022800019BC0128EBD1236A0A3BE7E7540100207F
:10229000755E0008022810B50B4C10D1A36A0133FB
:1022A000A36200210846FFF785FBA06AFEF7E0FF66
:1022B000FFF700FCBDE810400448FFF7FBBB012816
:1022C000EFD1A36A013BEBE754010020D05F000887
:1022D000022810B50B4C10D1236B0133236300216E
:1022E0000846FFF767FB206BFEF7C2FFFFF7E2FB34
:1022F000BDE810400448FFF7DDBB0128EFD1236B98
:10230000013BEBE754010020D05F0008022838B5FC
:102310001A4C2DD1A36B0133A36300210A25084673
:10232000FFF748FBA06BFEF7A3FFFFF7C3FB1448C2
:10233000FFF7C0FB206A0121B0FBF5F0FFF710F8B2
:10234000FFF7B8FB0F48FFF7B5FB6422236AA06BC9
:1023500001215843B0FBF2F0181AB0FBF5F0FEF77C
:10236000FFFFFFF7A7FBBDE838400748FFF7A2BB18
:102370000128D2D1A36B013BCEE700BF540100205E
:10238000D95F0008CA5E0008755E0008044B9A68B1
:10239000044B1B689A4201D1FFF7E2BC704700BFB3
:1023A000540100201C0A0020044B1A6C044B1B68CB
:1023B0009A4201D1FFF7D4BC704700BF54010020FE
:1023C000140A0020002110B504460846FFF7F2FA6F
:1023D000022C1F4B0DD19A68072A02F1010127D167
:1023E00001229A601B48FFF765FBBDE81040FFF72C
:1023F000CDBF012C03D19A68013A15D09A609A6832
:10240000013A062A20D801A151F822F0E52300085C
:1024100035240008392400083D2400084124000820
:10242000452400082D24000807229A600A48DAE7AC
:102430009960E4E70948D6E70948D4E70948D2E7B4
:102440000948D0E70948CEE701229A6010BD00BFD5
:1024500054010020DC5F000842600008ED5F0008C6
:10246000FE5F00080F60000820600008316000086F
:10247000002110B504460846FFF79CFA022C144BC5
:102480000DD11A6C032A02F101011CD101221A6438
:102490001048FFF70FFBBDE81040FFF785BF012C88
:1024A00003D11A6C013A0AD01A641A6C022A0CD0B1
:1024B000032A06D0012AEBD001221A6410BD0322A0
:1024C0001A640548E5E71964EFE70448E1E700BF4F
:1024D0005401002053600008756000086460000823
:1024E000154B16499A6812F0100F0CD09A68900696
:1024F00016D59A68520615D59B68DB4313F0800306
:1025000012D10B807047032240F2DC50B1F9003049
:1025100083420BDD40F2B4530B80094B1A700AE082
:102520000222F1E70122EFE70422EDE701331BB2BB
:10253000142B0B80F1D07047000C0140DC07002009
:10254000E0070020044B187810B10021034A116005
:1025500000221A70704700BFE0070020A00700208B
:102560000022034B1A600122024B1A70704700BF11
:10257000CC070020A507002038B504464FF4616061
:10258000B4FBF0F0FEF774FE0546FEF757FF012896
:1025900003D801211148FFF71FFA01212846FFF750
:1025A0001BFA01210E48FFF717FA3C23B4FBF3F4A2
:1025B000B4FBF3F003FB1040FEF75AFE0446FEF7AF
:1025C0003DFF012803D801210448FFF705FA204602
:1025D000BDE838400121FFF7FFB900BF8660000861
:1025E0007D6100084FF40032064B1A614FF0807293
:1025F000A3F580631A610023034A1370034A137022
:10260000704700BF000C01409E070020A407002077
:1026100008B5FFF7E7FFBDE808403220FEF70CBD24
:1026200038B501220546154B154C1A70FFF7F0FF1F
:10263000022D1ED1236A0133236200210846FFF7D1
:10264000B9F9206AFEF714FEFFF734FA0D48FFF7D8
:1026500031FA01210020FFF7ADF90B4B188800B2C9
:10266000FEF706FEFFF726FABDE838400748FFF7F9
:1026700021BA012DE1D1236A013BDDE79C0700204F
:1026800004000020716000085608002088600008DF
:1026900008B50C4B93F90020022A11D002221A70BF
:1026A000FFF7A0FF0022084B32201A60FEF7C4FC9F
:1026B000064802F0B1FDBDE80840054802F046BDFD
:1026C00008BD00BF86070020C8070020D8580008B2
:1026D0008D60000801212DE9F8438A4D8A4E2B7840
:1026E0008A4A31704BB92970894913700B70894936
:1026F0000B7089490B6089490B60894F89493B8878
:102700009BB20B8088498C698846A342C0F0F18057
:10271000002386491370864B09681B68DFF8F49123
:102720005B1A032B06D9137823B1FFF75BFF002355
:1027300089F8003002287F4C52D17F4B1B78002B48
:102740004AD1FFF765FF012389F8003094F90010A2
:1027500049BB0846FFF72EF93888022180B2FEF700
:10276000FFFDFFF7A7F97548FFF7A4F9744B754F04
:10277000188800B2FEF77CFDFFF79CF97248FFF75E
:1027800099F96D4B01211B780720002B40F0A880A0
:10279000FFF710F901210220FFF734F93B780A2BEB
:1027A00084BF00233B7094F90070012F23D10021D6
:1027B0000846FFF7FFF86548FFF77CF90A23D8F8C9
:1027C00018003946B0FBF3F0FEF7CAFDFFF772F9C7
:1027D0005F48FFF76FF90EE0FFF704FF0023B3E750
:1027E0000128B3D12378013B5BB2002B01DB2370BE
:1027F000ACE70323237094F90030022B1BD1002196
:102800000846FFF7D7F85348FFF754F9524B98683A
:102810004FF46163B0FBF3F0FEF72AFDFFF74AF9CE
:102820004E48FFF747F903200121FFF7C3F84C4B4F
:102830001868FFF7A1FE94F90070384C032F1AD1E5
:1028400000210846FFF7B6F84648FFF733F9324B48
:1028500018684FF46163B0FBF3F0FEF709FDFFF772
:1028600029F94148FFF726F938460121FFF7A2F878
:102870002068FFF781FE3D4802F0CEFC2978002257
:102880003B4802F007FD394802F0C6FC31780022CF
:10289000384802F0FFFC354802F0BEFC1C4B002219
:1028A0001978354802F0F6FC304802F0B5FC334B9D
:1028B00000221968324802F0EDFC2C4802F0ACFC12
:1028C00099F8001000222F4802F0E4FC274802F09B
:1028D000A3FC21680022BDE8F8432B4802F0DABCD3
:1028E0003B78052B7FF654AFFFF764F801210320F6
:1028F00052E713781BB90E4B19680C4B1960012372
:1029000007E700BF9D0700209C07002084070020E8
:1029100087070020900700207C07002094070020F4
:102920006C080020D007002054010020D4070020AC
:10293000E40700208D0700209E070020CA5E0008E3
:10294000560800208507002097600008A060000856
:10295000755E0008AC600008F4000020AF6000085D
:10296000980700203E610008B8600008D8580008A9
:10297000C1600008CF600008E460000888070020FC
:10298000F960000809610008216100080222064B75
:102990001A610123054A1370054A13704FF48072BF
:1029A000044B1A61704700BF000C01409E070020D5
:1029B000A407002000080140084908B50A68022A57
:1029C00004D1FFF7E3FF01230B6008BD032AFCD10C
:1029D000034B9B69012BF8D1F3E700BF7402002081
:1029E000F4000020002170B501261D4B0546084665
:1029F0001E70FEF7DFFF1B4B022118881A4C80B2B5
:102A0000FEF7AEFCFFF756F81848FFF753F8002121
:102A10000720FEF7CFFF164B188800B2FEF728FC00
:102A2000FFF748F81348FFF745F8227831467AB99E
:102A30000520FEF7BFFF1048FFF73CF8022D03D139
:102A4000237853B9FFF7A2FFBDE87040FFF7B4BF8A
:102A50000620FEF7AFFF0948EEE7FFF7C3FDF3E7F7
:102A60009C0700206C0800209E07002034610008AD
:102A700056080020CD5E0008386100083D6100085E
:102A80000122164B10B51A70FFF780FF0228144C74
:102A90001ED1A3690133A36100210846FEF78AFF16
:102AA000A069FEF7E5FBFFF705F80E48FFF702F80F
:102AB00001210020FEF77EFF0B4B188800B2FEF7C5
:102AC000D7FBFEF7F7FFBDE810400848FEF7F2BF5E
:102AD0000128E1D1A369013BDDE700BF9C0700208D
:102AE000040000207160000856080020886000087B
:102AF0000122164B10B51A70FFF748FF0228144C3C
:102B00001FD1A36A0133A36200210846FEF752FFDA
:102B1000A06AFEF7ADFBFEF7CDFF0E48FEF7CAFF39
:102B200001210020FEF746FF0B4B0221188880B2DE
:102B3000FEF716FCFEF7BEFFBDE810400748FEF7A3
:102B4000B9BF0128E0D1A36A013BDCE79C07002064
:102B5000040000207160000874080020346100083F
:102B60000122164B10B51A70FFF710FF0228144C03
:102B70001FD1236B0133236300210846FEF71AFFA0
:102B8000206BFEF775FBFEF795FF0E48FEF792FFF0
:102B900001210020FEF70EFF0B4B0221188880B2A6
:102BA000FEF7DEFBFEF786FFBDE810400748FEF7A4
:102BB00081BF0128E0D1236B013BDCE79C070020AB
:102BC00004000020716000086C08002034610008D7
:102BD0000122164B10B51A70FFF7D8FE0228144CCC
:102BE0001FD1A36B0133A36300210846FEF7E2FE69
:102BF000A06BFEF73DFBFEF75DFF0E48FEF75AFFA8
:102C000001210020FEF7D6FE0B4B0221188880B26E
:102C1000FEF7A6FBFEF74EFFBDE810400748FEF7A3
:102C200049BF0128E0D1A36B013BDCE79C070020F2
:102C3000040000207160000854080020346100087E
:102C400001222A4B70B51A70FFF7A0FE0228284E09
:102C500042D133880133338000210846FEF7AAFEB3
:102C600002213088FEF77CFB224D234CFEF722FF29
:102C70002248FEF71FFF2B8822889BB212B2002A3F
:102C80002FDD328820889B1A02B242F210701BB2EC
:102C900023EAE373434393FBF2F0194E3064FEF7EB
:102CA000E7FAFEF707FF1748FEF704FF164B1B88ED
:102CB0002A8821889BB209B2002992B213DD9B1A9F
:102CC00042F210721BB223EAE3735343218809B224
:102CD00093FBF1F3B36470BD0128BDD13388013B90
:102CE000B9E74620D9E70A23F4E700BF9C07002094
:102CF00078020020B202002056080020CA5E0008B8
:102D000004000020416100087408002000212DE922
:102D1000F04101272B4B2C4D064608461F70FEF74D
:102D200049FE2B78294C03F0FF0833BB284B0221C6
:102D3000188880B2FEF714FBFEF7BCFE2548FEF7AC
:102D4000B9FE41460720FEF735FE208800B2FEF7A7
:102D50008FFAFEF7AFFE2048FEF7ACFE052039469D
:102D6000FEF728FE1D48FEF7A5FE022E27D12B7880
:102D70000BBBBDE8F041FFF709BE194B02211888D3
:102D800080B2FEF7EDFAFEF795FE1248FEF792FECE
:102D900000210720FEF70EFE208800B2FEF768FA39
:102DA000FEF788FE0F48FEF785FE06203946FEF73F
:102DB00001FE0D48D7E7BDE8F041FFF713BCBDE8C1
:102DC000F08100BF9C0700209E07002056080020CD
:102DD00074080020346100084C6100083861000864
:102DE0006C080020CD5E00083D61000808B5FFF7C3
:102DF000CDFDBDE808403220FEF71EB901222DE9C5
:102E0000F84F994E994B347882469846984DDFF8A2
:102E1000D092984F1A7034BB974B1A88974B92B246
:102E20001B6A05339A4215D221462046FEF7C2FDA1
:102E30009348FEF73FFE4FF4FA60FEF7FDF8214697
:102E40002046FEF7B7FD8F48FEF734FE40F6B83057
:102E5000FEF7F2F800238C4A2B7089F800301360DB
:102E600001223B603270894B3A681B689A4206D84F
:102E7000874B824A1B88126A9BB2934203D9FFF7A1
:102E8000B1FB00232B70FFF797FDBAF1020F814CC5
:102E90006BD1814B1B78002B63D1FFF7A7FF012378
:102EA0002B7094F90010002936D10846FEF782FDF8
:102EB000794BDFF8DCA11A789B46002A40F0B580F8
:102EC0006D4B0221188880B2FEF74AFAFEF7F2FD38
:102ED0007248FEF7EFFDBAF80000022180B2FEF75B
:102EE0003FFAFEF7E7FD6E48FEF7E4FD9BF8003081
:102EF00001210720DFF8ECA1002B40F0AA80FEF7AB
:102F000059FD01210020FEF77DFD9AF800300A2BC3
:102F100084BF00238AF8003094F900A0BAF1010FB1
:102F20002FD10021DFF854B10846FEF743FD5D487C
:102F3000FEF7C0FDDBF81000FEF79AF9FEF7BAFDC8
:102F40005948FEF7B7FD0A23DBF820005146B0FBD5
:102F5000F3F0FEF705FAFEF7ADFD5448FEF7AAFDC3
:102F60000FE0FFF73FFB00239AE7BAF1010F98D17A
:102F70002378013B5BB2002B01DB237091E7022336
:102F8000237094F90030022B1AD100210846FEF775
:102F900011FD4748FEF78EFD3B4B18684FF4616307
:102FA000B0FBF3F0FEF764F9FEF784FD4148FEF74D
:102FB00081FD03200121FEF7FDFC3868FFF7DCFAF4
:102FC0003D4802F029F9317800223C4802F062F9CC
:102FD000394802F021F998F800100022384802F030
:102FE00059F9354802F018F929780022354802F0DD
:102FF00051F9314802F010F939680022324802F0E4
:1030000049F92D4802F008F999F8001000222F48DC
:1030100002F040F9284802F0FFF82D4B0022196811
:103020002C48BDE8F84F02F035B9BAF8000002218B
:1030300080B2FEF795F9FEF73DFD1848FEF73AFD20
:10304000254B188800B2FEF713F9FEF733FD23482D
:103050004AE79AF80030052B7FF651AFFEF7AAFC3D
:10306000012108464FE700BF9D0700209C07002074
:1030700087070020880700207408002054010020E2
:10308000526100086361000878070020180A0020D8
:103090006C0800208D0700209E070020CA5E0008F3
:1030A000B75E00087C6100087F610008755E00085B
:1030B00087610008AF600008D8580008C1600008A8
:1030C000CF600008E4600008F960000809610008AA
:1030D0009407002021610008560800207461000850
:1030E000900700208507002001222DE9F84FBC4EF3
:1030F000BC4B357882469846BB4CDFF85C93BB4F9F
:103100001A7035BBBA4B1A88BA4B92B21B6A053398
:103110009A4215D229462846FEF74CFCB648FEF7DF
:10312000C9FC4FF4FA60FDF787FF29462846FEF7F1
:1031300041FCB248FEF7BEFC40F6B830FDF77CFF1C
:103140000023AF4A237089F80030136001223B60EE
:103150003270AC4B3A681B689A4272D9FFF742FA58
:1031600000232370FFF728FCBAF1020FA64D40F0B0
:103170008280A64B1B78002B79D1FFF737FE012305
:10318000237095F90010002936D10846FEF712FC8D
:103190009E4BDFF88CA21A789B46002A40F00281F1
:1031A000934B0221188880B2FEF7DAF8FEF782FC12
:1031B0009748FEF77FFCBAF80000022180B2FEF7C4
:1031C000CFF8FEF777FC9348FEF774FC9BF80030CD
:1031D00001210720DFF884A2002B40F0F780FEF7E2
:1031E000E9FB01210020FEF70DFC9AF800300A2BC4
:1031F00084BF00238AF8003095F900A0BAF1010FCE
:1032000045D10021DFF8ECB10846FEF7D3FB824838
:10321000FEF750FCDBF81000FEF72AF8FEF74AFC38
:103220007E48FEF747FC0A23DBF820005146B0FB3E
:10323000F3F0FEF795F8FEF73DFC7648FEF73AFC12
:1032400025E077496B480A88036A92B29A4285D88A
:10325000826B64205A43B2FBF0F209889B1A89B250
:103260009942BFF47FAFFFF7C1FD012379E7FFF774
:10327000B9F9002384E7BAF1010F82D12B78013B21
:103280005BB2002B01DB2B707BE703232B7095F9DE
:103290000030022B2FD100214FF00A0ADFF854B181
:1032A0000846FEF787FBDBF83800FDF7E1FFFEF785
:1032B00001FC5C48FEF7FEFBDBF820000121B0FBBF
:1032C000FAF0FEF74DF8FEF7F5FB5148FEF7F2FB7A
:1032D0006422DBF82030DBF8380001215843B0FBD2
:1032E000F2F0181AB0FBFAF0FEF73AF8FEF7E2FB3C
:1032F0004848FEF7DFFB95F90050032D1AD1002155
:103300000846FEF757FB4848FEF7D4FB3C4B1868CD
:103310004FF46163B0FBF3F0FDF7AAFFFEF7CAFBC1
:103320004248FEF7C7FB28460121FEF743FB3868F9
:10333000FFF722F96420FDF77FFE3D4801F06CFFA6
:10334000317800223B4801F0A5FF394801F064FFC5
:1033500098F800100022384801F09CFF344801F032
:103360005BFF21780022354801F094FF304801F0DE
:1033700053FF39680022324801F08CFF2C4801F0DD
:103380004BFF99F8001000222E4801F083FF2848D7
:1033900001F042FF2C4B002219682C48BDE8F84F81
:1033A00001F078BFBAF80000022180B2FDF7D8FF23
:1033B000FEF780FB1648FEF77DFB254B188800B210
:1033C000FDF756FFFEF776FB2248FDE69AF800303F
:1033D000052B7FF604AFFEF7EDFA0121084602E760
:1033E0009D0700209C0700208707002088070020F9
:1033F0007408002054010020526100086361000835
:1034000078070020180A00208D0700209E07002062
:10341000CA5E0008755E00087C6100087F610008D4
:103420006C080020D95F000887610008B8600008B8
:10343000D8580008C1600008CF600008E4600008A8
:10344000F960000809610008940700202161000864
:10345000560800209760000890070020850700208C
:1034600008B50C4B93F90020012A11D001221A70E3
:10347000FFF78CFA0022084B32201A60FDF7DCFDC2
:10348000064801F0C9FEBDE80840054801F05EBEEF
:1034900008BD00BF86070020C8070020D8580008D4
:1034A000906000082DE9F04F974A85B01378DFF857
:1034B000B0A2DFF8B0B2DFF8B092944FDFF8AC8280
:1034C000934D009003F0FF040192002B3ED1914BED
:1034D0001A88914B92B21B6A05339A4215D2214643
:1034E0002046FEF767FA8D48FEF7E4FA4FF4FA60DB
:1034F000FDF7A2FD21462046FEF75CFA8848FEF75C
:10350000D9FA40F6B830FDF797FD01260024019B5B
:103510001E70844B8AF800408BF80040C9F80040C8
:103520003C601C60C8F800402C608AF80060FFF71F
:1035300097FF7D4B214620461E70FEF73BFA7B48E5
:10354000FEF7B8FA4FF47A70FDF776FD784C2088D4
:1035500000B2FDF76DFF0528039440F3C881754A5A
:103560006D4E1388B1699BB28B4202921FD26E4B93
:103570001A78022A1BD1704B1B68B3F57A7F16D9D3
:1035800000238BF8003029686C4B994203D92868D6
:103590003968FEF789FC00230124C9F80030C8F817
:1035A00000308AF80040FFF75BFF5F4B1C70029B06
:1035B000326A1B889BB2934208D95B4B1B78012B64
:1035C00004D15D4B1B68B3F57A7F09D85C4BD9F801
:1035D00000201B689A4223D9534B1B78012B1FD123
:1035E00000238AF80030D8F80020544B9A4206D9BC
:1035F000D8F800000122D9F80010FEF755FC3A680F
:10360000484B1A602A684F4B9A6000233B602B603E
:1036100001238BF80030FFF73BF80222424B1A706F
:10362000009A494C022A94F9003034D101335BB23C
:10363000052B37D10023237000210846FEF7BAF985
:10364000029B0221188880B2FDF78AFEFEF732FA4B
:103650003E48FEF72FFA039B188800B2FDF708FEDC
:10366000FEF728FA3A48FEF725FA01210620FEF770
:10367000A1F901210420FEF7C5F9364B197801297B
:1036800040F02E8107200091FEF794F90020009968
:10369000FEF7B8F90BE0009A012A04D1013B5BB2B6
:1036A000002B65DB237094F90030002BC4D094F913
:1036B0000030012B5ED1002108460093FEF77AF915
:1036C0003069FDF7D5FDFEF7F5F92348FEF7F2F96D
:1036D0000A22009BB0691946B0FBF2F0FDF740FEEC
:1036E000FEF7E8F91948FEF7E5F90A22009B306A6F
:1036F0001946B0FBF2F0FDF733FEFEF7DBF9174891
:10370000FEF7D8F936E000BF9C07002094070020A0
:103710007C0700207408002054010020526100083A
:103720006361000898070020700200208A61000889
:10373000560800206C080020C80700204F8C0500A8
:10374000180A0020F40000208D070020CA5E00083F
:1037500074610008A4070020505A0008B75E0008F2
:1037600087070020900700208807002078070020A6
:103770000423237094F90060022E21D10021084611
:10378000FEF718F901213046FEF73CF9002101202F
:10379000FEF710F95C48FEF78DF94FF46163286875
:1037A000B0FBF3F0FDF764FDFEF784F95748FEF730
:1037B00081F903200121FEF7FDF83868FEF7DCFEF1
:1037C00094F90060032E23D100210846FEF7F2F899
:1037D00001210020FEF716F900210120FEF7EAF88A
:1037E0004948FEF767F94FF46163D8F80000B0FB71
:1037F000F3F0FDF73DFDFEF75DF94448FEF75AF999
:1038000030460121FEF7D6F8D9F80000FEF7B4FEE5
:1038100094F90030042B23D100210846FEF7CAF8A2
:1038200001210220FEF7EEF800210120FEF7C2F888
:103830003748FEF73FF9374B98684FF46163B0FBA8
:10384000F3F0FDF715FDFEF735F93348FEF732F9D1
:1038500003200121FEF7AEF8304B1868FEF78CFE0E
:103860002F4801F0D9FC019B002219782D4801F066
:1038700011FD2B4801F0D0FC9AF8001000222A48D4
:1038800001F008FD264801F0C7FCD9F8001000221D
:10389000264801F0FFFC224801F0BEFCD8F80010D9
:1038A0000022234801F0F6FC1D4801F0B5FC9BF80E
:1038B000001000221F4801F0EDFC194801F0ACFC9B
:1038C000396800221C4801F0E5FC154801F0A4FC11
:1038D00000222968194805B0BDE8F04F01F0DABCB4
:1038E00001210720FEF766F801210220D0E6144BE3
:1038F0001B68B3F57A7FB3D900210846FEF75AF862
:103900001048FEF7D7F8ABE7736000089B6100082A
:10391000AC600008F4000020B860000898070020A0
:10392000D8580008CF600008E4600008F96000087B
:10393000B66100080961000821610008CE61000835
:10394000C8070020A56100080021F8B50646084612
:10395000FEF730F801226A4B1A706A4B197811B9D8
:103960001A70FEF7FDFD684D684C2B68A26A9A42FA
:1039700012D3FFF775FD664B226A1B889BB29342F8
:103980000AD9644B1B68B3F5C87F05D9FEF7E8FD7B
:103990002B68A26A13442B602B68A26A9A420ED24B
:1039A000FEF776FE5A4BA2691B889BB2934206D261
:1039B000584B1B68B3F5C87F01D9FEF7D1FDA36A48
:1039C000216B2A680B44934201D2FEF7C9FD524D88
:1039D000022E95F9003033D101335BB2032B35D180
:1039E00000232B7000210846FDF7E4FF484B02211D
:1039F000188880B2FDF7B4FCFEF75CF84748FEF784
:103A000059F8474B188800B2FDF732FCFEF752F820
:103A10004448FEF74FF801210620FDF7CBFF0121B6
:103A20000520FDF7EFFF404B1E78012E5FD1314698
:103A30000720FDF7BFFF31460020FDF7E3FF0AE056
:103A4000012E04D1013B5BB2002B2CDB2B7095F9CE
:103A50000030002BC6D095F90060012E25D1002141
:103A60000A270846FDF7A6FF2069FDF701FCFEF7CF
:103A700021F82E48FEF71EF8A0693146B0FBF7F09A
:103A8000FDF76EFCFEF716F82448FEF713F8206ADF
:103A90003146B0FBF7F0FDF763FCFEF70BF8244866
:103AA000FEF708F801E002232B7095F90030022B95
:103AB00024D100210846FDF77DFFA06AFDF7D8FB61
:103AC000FDF7F8FF1B48FDF7F5FF206BFDF7D0FB76
:103AD000FDF7F0FF1848FDF7EDFF03200121FDF78A
:103AE00069FF164B1868BDE8F840FEF745BD012197
:103AF0000720FDF75FFF012102209EE7F8BD00BF10
:103B00009C0700209D070020CC07002054010020C6
:103B10006C080020C80700208D070020CA5E00083E
:103B20005608002074610008A4070020505A0008BD
:103B3000B75E000804620008F061000894070020E6
:103B40002DE9F04FA04A85B013788346DFF8D4A260
:103B50009E4EDFF8D4929E4D9E4F9F4C03F0FF087F
:103B60000192002B40F062819C4B1A889C4B92B2D0
:103B70001B6A05339A4215D241464046FDF71AFFAB
:103B80009848FDF797FF4FF4FA60FDF755FA414664
:103B90004046FDF70FFF9448FDF78CFF40F6B83024
:103BA000FDF74AFA01234FF00008019A13708F4A7B
:103BB0008AF8008082F800808D4AC6F80080C9F833
:103BC0000080C2F80080C5F80080C7F800808AF83D
:103BD0000030FFF745FC0123864A414640461370FA
:103BE000FDF7E8FE8448FDF765FF4FF47A70FDF7B6
:103BF00023FA01232370DFF82882B8F8000000B20E
:103C0000FDF716FC0528CDF8088040F395817B4B25
:103C1000734A1B8891699BB28B42904629D2754B9F
:103C20001A78022A25D1764B1B68B3F57A7F20D902
:103C300000236E490B703968724B994204D9386879
:103C4000D9F80010FEF730F9D9F80020684B1A6057
:103C50003A686D4B9A60002301228AF800202B609D
:103C60003360FFF7FDFB0122237801332370614BA2
:103C70001A70624AD8F82010138803929BB28B42C4
:103C800008D95C4B1B78012B04D15D4B1B68B3F545
:103C90007A7F08D85D4B32681B689A4222D9554B0F
:103CA0001B78012B1ED194F90030022B1ADC002363
:103CB0008AF800302A68534B9A4204D928680122B6
:103CC0003168FEF7F1F80123484A137000233B6086
:103CD000C9F80030FEF7DCFC0222237801332370A0
:103CE000444B1A70454BD8F820201B889BB2934256
:103CF00008D9404B1B78012B04D1414B1B68B3F50D
:103D00007A7F08D8414B32681B689A421DD9394BDB
:103D10001B78012B19D194F90030022B15DDFEF729
:103D200061FC0023314A8AF8003013702A68354B51
:103D30009A4204D9286801223168FEF7B5F80222B8
:103D4000237801332370324B1A70314CBBF1020FD0
:103D500094F9003040F0AD8001335BB2042B40F0A9
:103D6000B0800023237000210846FDF723FE039B4B
:103D70000221188880B2FDF7F3FAFDF79BFE254873
:103D8000FDF798FE029B188800B2FDF771FAFDF767
:103D900091FE2148FDF78EFE01210620FDF70AFE67
:103DA00001210420FDF72EFE1C4B93F800B0BBF15F
:103DB000010F40F0BA8059460720FDF7FBFD594638
:103DC0000020FDF71FFE82E09C07002088070020EE
:103DD000780700207C0700208C0700207408002052
:103DE0005401002052610008636100089007002020
:103DF00098070020700200208A6100086C080020EB
:103E0000C80700204F8C0500F4000020180A00208D
:103E10008D070020CA5E000874610008A407002016
:103E200056080020870700209407002094F90030EE
:103E3000032B7FF7E0AEAB4C022894F9003040F042
:103E4000C68001335BB2042B40F0C780002323708F
:103E500000210846FDF7AEFDA34B0221188880B271
:103E6000FDF77EFAFDF726FEA048FDF723FEA04BE6
:103E7000188800B2FDF7FCF9FDF71CFE9D48FDF720
:103E800019FE01210620FDF795FD01210420FDF713
:103E9000B9FD994B93F80080B8F1010F40F01A81F9
:103EA00041460720FDF786FD41460020FDF7AAFDAB
:103EB00099E0BBF1010F05D1013B5BB2002BC0F2D1
:103EC000B780237094F90030002B3FF44CAF94F985
:103ED00000B0BBF1010F40F0AD8000210846FDF7B6
:103EE00069FDD8F81000FDF7C3F9FDF7E3FD83483D
:103EF000FDF7E0FD0A23D8F818005946B0FBF3F0AF
:103F0000FDF72EFAFDF7D6FD7848FDF7D3FD5946AB
:103F1000D8F820000A23B0FBF3F0FDF721FAFDF7F3
:103F2000C9FD7748FDF7C6FD84E001210720FDF7B4
:103F300041FD0121022044E7724B1B68B3F57A7FF3
:103F400006D900210846FDF735FD6F48FDF7B2FDA3
:103F50006E4801F061F9019B002219786C4801F06C
:103F600099F96A4801F058F99AF800100022694856
:103F700001F090F9654801F04FF931680022664878
:103F800001F088F9614801F047F929680022634887
:103F900001F080F95D4801F03FF9614B002219788A
:103FA000604801F077F9594801F036F9D9F8001066
:103FB00000225D4801F06EF9544801F02DF900220D
:103FC00039685A4805B0BDE8F04F01F063B90128DF
:103FD00004D1013B5BB2002B2ADB237094F9003043
:103FE000002B3FF435AF94F90080B8F1010F21D1D7
:103FF0000021DFF844B10846FDF7DCFCDBF81000D7
:10400000FDF736F9FDF756FD3C48FDF753FD0A2351
:10401000DBF818004146B0FBF3F0FDF7A1F9FDF71E
:1040200049FD3248FDF746FD4146DBF8200071E7C7
:104030000323237094F90080B8F1020F22D10021EC
:104040000846FDF7B7FC01214046FDF7DBFC0021E7
:104050000120FDF7AFFC3648FDF72CFD4FF46163FE
:104060003868B0FBF3F0FDF703F9FDF723FD3148A5
:10407000FDF720FD03200121FDF79CFCD9F800008D
:10408000FEF77AFA94F90040032C7FF461AF002127
:104090000846FDF78FFC01210020FDF7B3FC00214D
:1040A0000120FDF787FC2248FDF704FD4FF4616312
:1040B0002868B0FBF3F0FDF7DBF8FDF7FBFC1D48CB
:1040C000FDF7F8FC20460121FDF774FC3068FEF78F
:1040D00053FA3DE701210720FDF76CFC0121022086
:1040E000E4E600BF8D0700206C080020CA5E0008CF
:1040F0005608002074610008A4070020505A0008E8
:10410000B75E0008C8070020A5610008D85800085D
:10411000CF600008E4600008F9600008B66100089C
:10412000900700200961000821610008CE610008A5
:10413000736000089B6100085401002001222DE9F2
:10414000F041A54BA54C02281A7086B094F90030B6
:1041500028D113445BB2082B2AD100232370FEF729
:1041600041FA00210846FDF725FC9D48FDF7A2FC19
:104170000A209C4B01211B889BB2B3FBF0F0FDF79A
:10418000EFF8FDF797FC9848FDF794FC974B022158
:10419000188880B2FDF7E4F8FDF78CFC9448FDF731
:1041A00089FC0AE0012804D1013B5BB2002B27DB2C
:1041B000237094F90030002BD1D094F90030012BFA
:1041C00020D1FEF70FFA00210846FDF7F3FB8948DE
:1041D000FDF770FC884B0221188880B2FDF7C0F80B
:1041E000FDF768FC8548FDF765FC854BD88880B2F3
:1041F000FDF73EF8FDF75EFC8248FDF75BFC01E051
:104200000723237094F90050022D1DD1FEF7BEFB49
:1042100000210846FDF7CEFB7B48FDF74BFC7B4BAE
:104220002946188880B2FDF79BF8FDF743FC7348D8
:10423000FDF740FC724B988880B2FDF719F8FDF746
:1042400039FC7048FDF736FC94F90030032B1CD183
:10425000FEF79CFB00210846FDF7ACFB6C48FDF720
:1042600029FC6C4B188800B2FDF702F8FDF722FC20
:104270006948FDF71FFC624B588880B2FCF7F8FFD5
:10428000FDF718FC5F48FDF715FC94F90030042B8E
:104290001CD1FEF7A7F900210846FDF78BFB5F480C
:1042A000FDF708FC5E4B188800B2FCF7E1FFFDF754
:1042B00001FC5948FDF7FEFB514B188880B2FCF712
:1042C000D7FFFDF7F7FB5748FDF7F4FB94F90030F3
:1042D000052B47D1484E544FFEF758FB32883B8898
:1042E00092B29BB2D21A42F21073DFF82881534384
:1042F000B8F800104D4D09B293FBF1F300210846C8
:10430000AB64FDF757FB4A48FDF7D4FB286CFCF77C
:10431000AFFFFDF7CFFB4748FDF7CCFBA86CFCF7E0
:10432000A7FFFDF7C7FB4448FDF7C4FB434800F077
:1043300073FFB8F80010002209B2414800F0AAFF4C
:104340003E4800F069FF3188022289B23D4800F002
:10435000A1FF3A4800F060FF398802223A4889B24A
:1043600000F098FF94F90030062B0FD1FEF73AF9D0
:1043700000210846FDF71EFB344B01A91868FDF724
:104380009EF8FDF797FB3248FDF794FB94F9003057
:10439000072B1DD1FEF7FAFA00210846FDF70AFBAC
:1043A0002C48FDF787FB2C4B1868FCF759FCFCF7F1
:1043B0005FFFFDF77FFB2948FDF77CFB104B588919
:1043C00080B2FCF755FFFDF775FB0948FDF772FB5E
:1043D00006B0BDE8F08100BF9C0700208E070020DA
:1043E000F861000854080020FD6100086A080020F8
:1043F000706000080262000874080020CA5E0008AD
:104400005A0800206E600008076200086C0800204F
:104410000D620008560800201362000817620008A9
:10442000580800206D600008B2020020040000203F
:104430001D6200082062000825620008D8580008A4
:104440002D6200083162000838620008E40700208D
:104450006C60000840620008700800204362000899
:104460007FB50023754C0093019302930393E38976
:10447000734D9AB24FF4F023B3FBF2F3714A9BB23F
:104480001380A388E28999B2AB6A92B24B43B3FB23
:10449000F2F300930098FDF709F902900298FDF7F6
:1044A0005BF9694B1A681044684A18601188013139
:1044B00009B21180118809B21F290FDD19686448FB
:1044C0000029B8BF1F31C1F34F11018000211180B5
:1044D000196003889BB2022B98BF01806388E28930
:1044E00099B2AB6B92B24B43B3FBF2F300930098DB
:1044F000FDF714F9574B80B218802188E38989B2FF
:104500009AB2AB69544E59430A234B43B3FBF2F3BF
:1045100001930198FDF792F803900398FDF71AF9BB
:104520004E4B1A6810444E4A18601188013109B286
:104530001180118809B21F2909DD19680029B8BF47
:104540001F3141F34F113180002111801960E18842
:10455000E38989B29AB22B6A59430A234B43B3FBCE
:10456000F2F301930198FDF785F803900398FDF7A6
:10457000F2F83C4B1A6810443B4A1860118801312C
:1045800009B21180118809B21F290ADD196837485C
:104590000029B8BF1F3141F34F1101800021118064
:1045A00019603388AA68324E9B1A1BB23380A388E5
:1045B000E28999B22B6B92B24B43B3FBF2F30093B7
:1045C0000098FDF78FF802900298FDF7C6F8294A87
:1045D00013681844284B10601988013109B21980FA
:1045E000198809B21F2911461A4624DD0868234B91
:1045F0000028B8BF1F3040111860002008601080EC
:104600001A681F4992B20A801A68022AD8BF186035
:104610003288186811B22A6C4A431A4992FBF1F2A7
:1046200002441A601A68022ADCBF00221A601B6862
:10463000154A9BB2138004B070BD00BF5A08002019
:10464000040000206A080020B8070020BC070020F2
:104650007408002054080020E8070020A807002064
:10466000AC070020B0070020B40700205808002045
:1046700056080020C0070020C4070020D8070020EB
:10468000B2020020F0D8FFFF6C080020F8B5FDF75B
:1046900027FF3C4A3C4F1368013313603B889BB2B1
:1046A000042B03D900233B80FFF7DAFE374E384D49
:1046B00033889BB2632B84BF002333802B889BB24B
:1046C000B3F57A7F51D30023324C2B8023881BB261
:1046D000012B07DC208800B2FCF7AAFE2E4B1A68DB
:1046E0001044186023881BB2022B07DD208800B21B
:1046F000FCF79EFE294B1A6810441860284B1B7863
:10470000012B01BF274A136801331360264B1B7826
:10471000012B01BF254A136801331360244B1B781A
:10472000012B01BF234A136801331360224B1A681F
:1047300001321A601B6813F0010F0CBF4FF40042E6
:104740004FF000421D4B1A6123881BB2B3F57A7FEC
:10475000A2BF01221A4B1A6123881BB2B3F57A7FDC
:10476000BEBF4FF48032164B1A613B8801339BB2B7
:104770003B80338801339BB233802B8801339BB25B
:104780002B80F8BDC8070020B0020020AE02002038
:10479000AC020020560800207C070020780700208B
:1047A000870700208807002090070020940700203A
:1047B000A5070020CC070020E407002000080140E6
:1047C000000C014010B51D4C236843F48033236076
:1047D00023689A03FCD5636823F47C1343F4A02375
:1047E0006360E36A23F00F03E362236843F080739E
:1047F000236023689B01FCD5636823F0F0036360AA
:10480000636823F4E0636360636823F46053636068
:10481000636823F0030343F002036360636803F0FB
:104820000C03082BFAD1064800F07CFF044800F086
:1048300087FF636823F44043636010BD00100240AB
:1048400000366E012DE9F04FC54D91B00120FDF706
:104850004BF9EB69DFF85C9343F08053EB61EB6954
:10486000DFF854A303F080530093009BD9F80C2089
:10487000BC4B22F4E0621204120C1343C9F80C3052
:10488000B94BBA4E5A68002422F0E0625A605A6866
:104890004FF0010B42F000725A60FFF793FF1422B1
:1048A000002109A800F084FF2020FDF71DF9042055
:1048B000FDF71AF90820FDF717F94FF60343CAF878
:1048C00014304FF409430227736140F203334FF071
:1048D000040809A95046CDE9093BCDE90B7400F065
:1048E000D5FDA34B09A95046CDE9093BCDF8308051
:1048F0000B9700F0CBFD9F4B09A93046CDE9093B52
:10490000CDE90B7400F0C2FD4FF2F002082309A9B3
:104910005046CDE90923CDF834B000F0B7FD6B69FE
:1049200043EA0B036B616B69934D03EA0B0301933D
:10493000019BD9F80C00C0F30220FDF763FA4FF495
:10494000006300FA08F0C0B285F80B031C222B604C
:10495000214609A800F02CFF1422214604A800F0EB
:1049600027FF4FF48040FDF7BFF84046FDF7BCF845
:10497000092382493046CDE90413032304A9CDE974
:10498000063400F083FD7E4B04A93046CDE904389F
:1049900000F07CFDD9F80C00C0F30220FDF732FADC
:1049A000202300FA08F0C0B285F825036B60754D2E
:1049B00009A9EB68284643F08003EB604FF41643E7
:1049C000CDE909340C23CDE90B44CDE90D340F9426
:1049D00000F03CFE2B69142223F490432B616B6999
:1049E000214623F02A036B61EB6804A843F40053CB
:1049F000EB60CDE9024400F0DBFE1422214609A859
:104A000000F0D6FE4FF40070FDF76EF84046FDF75B
:104A10006BF847F67E6309A93046CDE9093400F00A
:104A200035FD594B4FF480781A68A5F5A05522F44E
:104A3000804222F010021A601A6802A922F4405241
:104A400042F400521A601A68284642F020021A60A6
:104A50001A6822F040021A601A6842F080021A6056
:104A60001A6822F4407242F480721A601A6822F4C2
:104A7000406242F480621A60444A9A60444ADA60B2
:104A80005A68120C120442F008025A601A6842EA8C
:104A90000B021A600294CDF80C8000F0C0FC4FF4B9
:104AA000E0034FF4602004A9CDE904032846CDE9D2
:104AB0000647CDF8208000F0C7FC36494FF400705F
:104AC000FDF784F93348FDF757F9334940F20520E3
:104AD000FDF77CF93048FDF74FF9304940F20A20E4
:104AE000FDF774F92D48FDF747F92D4940F20F20E5
:104AF000FDF76CF92A48FDF73FF92A494FF4057094
:104B0000FDF764F92748FDF737F9274940F21920E6
:104B1000FDF75CF92448FDF72FF924494046FDF7DD
:104B200055F92248FDF728F9AB68214943F4000301
:104B3000AB6040F20510FDF749F91D48FDF71CF97F
:104B4000AB68642043F40003AB60AB6843EA0B033B
:104B5000AB60FCF771FAAB6843F00403AB602DE087
:104B6000001002400003FA05000001400008014067
:104B7000FC00FC048900890400E100E0020002045A
:104B80000400040400380140080002404C240140A5
:104B90005A08002001003002020060020300900267
:104BA0000400C0020500F00206002003100020816E
:104BB0001100508100ED00E0000C0140AC6814F0E1
:104BC0000404FBD1AB6843F4A003AB60FCF781FFA6
:104BD00000F08CFA4FF47A72AE4B1B68B3FBF2F321
:104BE000013BB3F1807F08D2F021AB4A5360AB4B5D
:104BF00083F823100723946013604FF400430024CC
:104C00003361A74DFDF7EEFCA6482C60FCF752FF80
:104C1000FCF722FAA44800F0FFFAA24800F096FA46
:104C2000FCF770FE21462046FCF7C4FE4FF47A7074
:104C3000FCF702FAFBF778FB2B68172B88BF2C6078
:104C4000FBF750FE044668B94FF47A70FCF7F4F9AC
:104C5000FBF748FE0446944800F0DEFA934800F063
:104C600075FA34B1012C14D18F4800F0D5FA904870
:104C70000DE09048FCF71EFF4FF47A60FCF7DCF97A
:104C80008D48FCF713F8884800F0C6FA874800F012
:104C90005DFA8A4D8A4B2A698A4C1A604FF4616327
:104CA0002269894E5343894A1360A268884B1A606F
:104CB000236C884A33601360FBF79CFF4FF47A70D3
:104CC000FCF7BAF9FCF7E4FE8348FCF767FDA3683C
:104CD000012B14D18148FCF747FD814FDFF8FC918F
:104CE000DFF850823B7801333B70FDF72BFC431E0D
:104CF0000446032B20D8DFE803F01A40444B022B74
:104D000001D17848E7E7032B01D17748E3E7042B8B
:104D100001D17648DFE7052B01D17548DBE7062B8B
:104D200001D17448D7E7072BD4D17348D3E7FCF7F8
:104D300015FD4068FCF718FDFCF710FD81452BD1EF
:104D40002046FDF74FFE98F8003003F0FF0183B9CD
:104D5000FDF748FC694B1970694B1970694B1B686A
:104D6000AB60694B1A68694B1A60694B1970012373
:104D700033606420FCF760F9B4E7FCF7EFFC0068EF
:104D8000D8E70220FCF714FDFCF7E8FCC068D1E787
:104D9000FCF7E4FC8068CDE7FCF7E0FC514B834274
:104DA00003D12046FDF730F8CDE7FCF7D7FC4E4B9A
:104DB000834203D12046FEF721F8C4E7FCF7CEFC7E
:104DC0004A4B834203D12046FEF78EF9BBE7FCF73E
:104DD000C5FC474B834203D12046FDF77BFCB2E77D
:104DE000FCF7BCFC4B4B834203D12046FEF7A8FEE8
:104DF000A9E7FCF7B3FC3F4B834203D12046FEF703
:104E000051FBA0E7FCF7AAFC3B4B834203D12046B1
:104E1000FEF79AFD97E7FCF7A1FC3F4B834203D1D5
:104E20002046FDF773FF8EE7FCF798FC3B4B83426F
:104E300003D12046FFF782F985E7FCF78FFC384B5A
:104E4000834203D12046FDF755F87CE7FCF786FC4A
:104E5000344B834203D12046FDF7BAF873E7FCF7E1
:104E60007DFC314B834203D12046FDF78DF86AE784
:104E7000FCF774FC2D4B834203D12046FDF7D0FB99
:104E800061E7FCF76BFC2A4B834255D12046FDF7C6
:104E9000F7FD58E78C02002010E000E000ED00E094
:104EA000780800207A020020EA5B000848620008C7
:104EB000945A00086062000871620008F400002043
:104EC000800700205401002074020020180A0020EE
:104ED0001C0A0020140A0020991C0008B46900086C
:104EE000850700200C6A0008646A0008BC6A000894
:104EF000146B0008C46B00081C6C00089D070020A0
:104F00008D0700207C0700209407002098070020D0
:104F100086070020406B0008746C0008CC6C000809
:104F200018660008886300083063000838640008C9
:104F3000E06300089C070020FCF710FC3F4B834215
:104F400003D12046FDF744FEFDE6FCF707FC3C4B91
:104F5000834203D12046FDF703FEF4E6FCF7FEFB97
:104F6000384B834203D12046FDF7C2FDEBE6FCF748
:104F7000F5FB354B834203D12046FDF761FEE2E6A7
:104F8000FCF7ECFB314B834203D12046FDF744F89C
:104F9000D9E6FCF7E3FB2E4B834203D12046FDF715
:104FA00097F8D0E6FCF7DAFB2A4B834203D1204680
:104FB000FDF7B4F8C7E6FCF7D1FB274B834203D1DA
:104FC0002046FDF723F9BEE6FCF7C8FB234B8342DE
:104FD00003D12046FDF73CF9B5E6FCF7BFFB204BBB
:104FE000834203D12046FDF755F9ACE6FCF7B6FB4A
:104FF0001C4B834203D12046FDF76AF9A3E6FCF778
:10500000ADFB194B834203D12046FDF77FF99AE6A9
:10501000FCF7A4FB154B834203D12046FDF7D2F9E0
:1050200091E6FCF79BFB124B834203D12046FDF730
:105030001FFA88E6002388F8003084E640650008FF
:10504000E86400089064000888650008D0650008DE
:10505000706600089C6600082067000878670008F2
:10506000D067000828680008806800085C690008AC
:10507000306900087047FEE7FEE7FEE7FEE770478D
:1050800070477047FFF702BB7047000014490B6878
:105090001B0624D5134BB3F8582492B2DAB1B3F8F7
:1050A0005824013A92B2A3F85824B3F8562492B285
:1050B000501C80B2A3F856041A4492F86C20D2B265
:1050C0004A60B3F8562492B2B2F57A7F07D1002233
:1050D000A3F856247047CB6823F08003CB60704759
:1050E00000380140B402002070470000124A10B599
:1050F0005368124903F00C03082B0AD0104B0B60C5
:105100005368104AC3F30313D25C0B68D3400B609F
:1051100010BD53685068C3F38343C00341BFD06AD6
:10512000074C00F00F0001304CBFB4FBF0F0064814
:1051300002334343E3E700BF001002408C0200202B
:1051400000127A00F56C000800093D000021304A89
:1051500010B5D36823F08003D3602E4B027802F0A1
:10516000FF045ABBB3F8542492B2511C89B2A3F87D
:1051700054140A211A4482F86C10B3F8542492B2E1
:10518000B2F57A7F08BFA3F85444B3F8582401322B
:1051900092B2A3F85824B3F85A14B3F8582489B239
:1051A00092B291423EBFB3F8582492B2A3F85A2467
:1051B000174AD36843F08003D36010BDB3F854247A
:1051C00092B2541CA4B2A3F8544410F8014B1A44F0
:1051D000E4B282F86C40B3F8542492B2B2F57A7F0C
:1051E00008BFA3F85414B3F85824013292B2A3F8BC
:1051F0005824B3F85A44B3F85824A4B292B2944253
:105200003EBFB3F8582492B2A3F85A24A6E700BFD1
:1052100000380140B402002000211C4A10B5D368B8
:1052200023F08003D3601A4B02782AB9174AD36857
:1052300043F08003D36010BDB3F8542492B2541CE1
:10524000A4B2A3F8544410F8014B1A44E4B282F813
:105250006C40B3F8542492B2B2F57A7F08BFA3F839
:105260005414B3F85824013292B2A3F85824B3F876
:105270005A44B3F85824A4B292B294423EBFB3F851
:10528000582492B2A3F85A24CEE700BF0038014058
:10529000B402002037B501918DF803209DF803304A
:1052A00004460198002B3FD1FBF7E2FF0025474A57
:1052B000D36823F08003D360454B227802F0FF01CE
:1052C000002A36D10138B3F8542410F8014F92B2B5
:1052D000002C57D1511C89B2A3F854140A211A4446
:1052E00082F86C10B3F8542492B2B2F57A7F08BFFA
:1052F000A3F85444B3F85824013292B2A3F85824C6
:10530000B3F85A14B3F8582489B292B291423EBF0E
:10531000B3F8582492B2A3F85A242C4AD36843F025
:105320008003D36003B030BD9DF80310FCF718F87C
:10533000BCE7B3F8542492B2511C89B2A3F85414B8
:1053400014F8011B1A44C9B282F86C10B3F8542443
:1053500092B2B2F57A7F08BFA3F85454B3F8582438
:10536000013292B2A3F85824B3F85A14B3F858246F
:1053700089B292B291423EBFB3F8582492B2A3F8D8
:105380005A249AE7541CA4B2A3F8544404781A444B
:1053900082F86C40B3F8542492B2B2F57A7F08BF19
:1053A000A3F85414B3F85824013292B2A3F8582445
:1053B000B3F85A44B3F85824A4B292B294423EBF10
:1053C000B3F8582492B2A3F85A247CE7003801407D
:1053D000B4020020002103E00B4B5B584350043122
:1053E0000A480B4B42189A42F6D30A4A02E00023BD
:1053F00042F8043B084B9A42F9D3FFF775FE00F0E0
:10540000A5F9FFF71FFA7047186D0008000000208B
:105410009002002090020020200A0020FEE70246B1
:10542000806810B510F001000CD153684C6823F46B
:105430008073234353609368096823F400630B432C
:10544000936010BD0120FCE7836810B5DB071BD417
:1054500043684A6823F4684312B18C6813432343BA
:10546000436083680C6823F4602323F4817323432F
:10547000CC68096923430B438360C36A23F4700338
:105480001343C362002010BD0120FCE72DE9F04F5B
:105490000D680446C5F30F2595FAA5F20327B2FA65
:1054A00082F24FF0040C4FF0011E40F2011835FA61
:1054B00002F001D1BDE8F08F012393402B4267D069
:1054C000072A88BFA2F10803D1F804A08ABF0EFA08
:1054D00003F308FA02F343F08063BAF1080F0DD129
:1054E000E6684FEA132B9BFAABF9B9FA89F9086918
:1054F00026EA0B0600FA09F00643E6604FEA136954
:1055000093FAA3F6B6FA86F693FAA3FB0F20BBFA3A
:105510008BFBB60000FA06F654F809004FEA8B0B35
:1055200020EA06060AFA0BFB46EA0B0644F8096075
:10553000486820F0080001282AD193FAA3F0B0FAB5
:1055400080F093FAA3FBBBFA8BFB800007FA00F014
:1055500026EA000688684FEA8B0B00FA0BFB46EA46
:105560000B0644F8096093FAA3FABAFA8AFA93FA96
:10557000A3F3B3FA83F34FEA8A0A0CFA0AFA26EA8B
:105580000A0ACE689B009E404AEA060644F8096073
:1055900001328CE7034B044A5B68C3F30313D35C0B
:1055A000D840704700100240F56C0008034B044AD5
:1055B0005B68C3F30223D35CD840704700100240FD
:1055C000056D0008034B044A5B68C3F3C223D35C38
:1055D000D840704700100240056D0008094B5A681A
:1055E000D20341BFD86A084A00F00F00013048BF1B
:1055F000B2FBF0F05B6858BF0448C3F38343023347
:10560000584370470010024000127A0000093D0024
:10561000044B5B6803F00C03082B01D1FFF7DEBFDE
:10562000014870470010024000127A0008B5014698
:10563000FFF7EEFF0860FFF7ADFF4860FFF7B6FF2A
:1056400088604868FFF7BEFFC86008BD30B5C36812
:1056500004469B040D4685B002D5012005B030BD3F
:105660004B68C968C2680B43296922F416420B4390
:10567000A96922F00C020B431343C3600369AA68B3
:1056800023F440531343036143696A6923F440736D
:10569000134343616846FFF7C9FF1F4B9C4224D167
:1056A00003990029D9D02A68002AD6D019234B4360
:1056B000A969B1F5004F4FF064011FD15200B3FB4F
:1056C000F2F3B3FBF1F001FB1033DB003233B3FB39
:1056D000F1F303F007025B0002EB001203F4F8732E
:1056E00013449BB20020A360B8E70C4B9C4201D14D
:1056F0000299D6E70A4B9C42AFD1F9E79200B3FB7F
:10570000F2F3B3FBF1F201FB12331B013233B3FBB3
:10571000F1F303EB0213E4E70038014000440040DA
:10572000004800404FF47A73B0FBF3F00022034BC3
:10573000013858609A6005221A60704710E000E056
:10574000014B1860704700BF8C02002070B5002626
:105750000C4D0D4C641BA410A64209D100F030F88A
:1057600000260A4D0A4C641BA410A64205D170BD48
:1057700055F8043B98470136EEE755F8043B984747
:105780000136F2E7106D0008106D0008106D00087A
:10579000146D00080A44914200F1FF3300D17047B4
:1057A00010B511F8014B914203F8014FF9D110BD2A
:1057B00003460244934200D1704703F8011BF9E706
:1057C000F8B500BFF8BC08BC9E467047F8B500BFEE
:0857D000F8BC08BC9E467047BE
:1057D80000070E091C1B1215383F363124232A2DC9
:1057E80070777E796C6B6265484F464154535A5DB9
:1057F800E0E7EEE9FCFBF2F5D8DFD6D1C4C3CACDA9
:1058080090979E998C8B8285A8AFA6A1B4B3BABD98
:10581800C7C0C9CEDBDCD5D2FFF8F1F6E3E4EDEA88
:10582800B7B0B9BEABACA5A28F88818693949D9A78
:105838002720292E3B3C35321F18111603040D0A68
:105848005750595E4B4C45426F68616673747D7A58
:10585800898E878095929B9CB1B6BFB8ADAAA3A448
:10586800F9FEF7F0E5E2EBECC1C6CFC8DDDAD3D438
:10587800696E676075727B7C51565F584D4A434428
:10588800191E171005020B0C21262F283D3A333418
:105898004E49404752555C5B7671787F6A6D646308
:1058A8003E39303722252C2B0601080F1A1D1413F8
:1058B800AEA9A0A7B2B5BCBB9691989F8A8D8483E8
:1058C800DED9D0D7C2C5CCCBE6E1E8EFFAFDF4F3D8
:1058D80044454255473A200073697A653A20007674
:1058E800616C3A20004661696C20746F20726561B2
:1058F8006420616464726573733A20004545707270
:105908006F6D56616C7565206973203A2000464CAE
:105918004153485F424153452B313032342A3132AA
:1059280033203A200043616C6962726174696F6E5A
:105938005772697465546F466C61736820004361DF
:105948006C6962726174696F6E466163746F7279B3
:105958005772697465546F466C61736820004361BF
:105968006C6962726174696F6E5265616446726FC8
:105978006D466C617368200043616C696272617482
:10598800696F6E5265616446726F6D466C617368CB
:10599800466F72566572696679200053657474693A
:1059A8006E67735772697465546F466C61736820CB
:1059B8000053657474696E6773466163746F7279B6
:1059C8005772697465546F466C617368200053653B
:1059D8007474696E67735265616446726F6D466C64
:1059E800617368200053657474696E6773526561EA
:1059F8006446726F6D466C617368466F7256657265
:105A08006966792000446174615768656E506F77E4
:105A180065724F66665F466163746F72795F57722D
:105A2800697465546F466C617368200044617461E1
:105A38005768656E506F7765724F66665265616428
:105A480046726F6D466C61736820004461746157DB
:105A580068656E506F7765724F6666526561644619
:105A6800726F6D466C617368466F725665726966CF
:105A7800792000526561642066726F6D204545701B
:105A8800726F6D202D204641494C2000526561649B
:105A98002066726F6D20454570726F6D202D205302
:105AA80055434345535300466163746F7279577287
:105AB800697465546F466C6173685F43524300466E
:105AC80043616C6962726174696F6E207772697480
