:020000040800F2
:100000000020002039540008D5500008D7500008BF
:10001000D9500008DB500008DD5000080000000047
:10002000000000000000000000000000DF50000899
:10003000E150000800000000E3500008E55000080F
:10004000815400088154000881540008815400083C
:10005000815400088154000881540008815400082C
:10006000815400088154000881540008E9500008B8
:10007000815400088154000881540008815400080C
:1000800081540008815400088154000800000000D9
:100090000000000000000000000000008154000883
:1000A00081540008815400088154000881540008DC
:1000B00081540008815400088154000881540008CC
:1000C0008154000800000000000000008154000876
:1000D00081540008ED500008815400088154000844
:1000E0008154000881540008815400080000000079
:1000F0000000000000000000000000000000000000
:1001000000000000000000000000000000000000EF
:100110000000000000000000815400088154000825
:1001200000000000000000000000000000000000CF
:1001300000000000000000000000000000000000BF
:1001400000000000000000000000000000000000AF
:10015000000000000000000000000000000000009F
:10016000000000000000000000000000000000008F
:10017000000000000000000000000000000000007F
:10018000000000000000000000000000000000006F
:10019000000000000000000000000000000000005F
:1001A000000000000000000000000000000000004F
:1001B000000000000000000000000000000000003F
:1001C0000000000000000000000000005FF808F1DF
:1001D00010B5054C237833B9044B13B10448AFF381
:1001E00000800123237010BD900200200000000059
:1001F0002458000808B5034B1BB103490348AFF36B
:10020000008008BD0000000094020020245800086F
:100210000E4BDA68D207FCD4DA68910644BF20227C
:10022000DA601A6942F002021A6158611A6942F0F2
:1002300040021A61054BDA689206FCD52022DA608A
:100240001A6922F002021A61704700BF00200240C2
:10025000034B044A5A6002F188325A60704700BF6B
:100260000020024023016745024A136943F08003DE
:100270001361704700200240104BDA68D207FCD4AB
:10028000DA68920644BF2022DA601A6942F001025D
:100290001A618BB20380094BDA689206FCD52022E2
:1002A000090CDA604180DA689206FCD52022DA6017
:1002B0001A6922F001021A61704700BF0020024053
:1002C00038B572B61148FFF7C3FF114C04F0D6FFE2
:1002D00000224FF4CE710F4805F00EF80B4804F0E1
:1002E000CDFF002221680C4805F006F80B48FFF707
:1002F0008FFF0B4D54F8041BFFF7BEFF0430A842DC
:10030000F8D1FFF7B1FF62B638BD00BF3C59000815
:1003100078080020445900084B59000800E40108FF
:100320009CE50108054A064B064953F8040B8B422D
:1003300042F8040BF9D10120704700BF7808002073
:1003400000E401089CE50108F8B5046807468C4202
:100350000D4601D394421BD900260E4B0E481E7049
:1003600004F08CFF324639460C4804F0C5FF0A48B9
:1003700004F084FF21463246094804F0BDFF0648D8
:1003800004F07CFF32460749074804F0B5FF2C46CD
:100390002046F8BD000000203C59000851590008D3
:1003A0006859000800EC01087A59000810B5194C8A
:1003B0006068FFF72DFFD4E90010FFF75DFFD4E977
:1003C0000210FFF759FFD4E90410FFF755FFD4E9F5
:1003D0000610FFF751FFD4E90810FFF74DFFD4E9ED
:1003E0000A10FFF749FFD4E90C10FFF745FFD4E9E5
:1003F0000E10FFF741FFD4E91010FFF73DFFD4E9DD
:100400001210FFF739FF044804F038FF034804F0E6
:10041000CFFE10BD040000203C590008915900088F
:1004200010B5194C6068FFF7F3FED4E90010FFF730
:1004300023FFD4E90210FFF71FFFD4E90410FFF7F0
:100440001BFFD4E90610FFF717FFD4E90810FFF7E8
:1004500013FFD4E90A10FFF70FFFD4E90C10FFF7E0
:100460000BFFD4E90E10FFF707FFD4E91010FFF7D8
:1004700003FFD4E91210FFF7FFFE044804F0FEFE6C
:10048000034804F095FE10BD540000203C590008BC
:10049000AA59000838B5254C4FF4807200216068D5
:1004A000FFF752FF4FF47A7220600021E068FFF7F7
:1004B0004BFF4FF47A72A06000216069FFF744FFA0
:1004C0001B4D20612A460A21E069FFF73DFF2A46BD
:1004D000A0610A21606AFFF737FF2A4620620A21DD
:1004E000E06AFFF731FF2A46A0620A21606BFFF73E
:1004F0002BFF2A4620630A21E06BFFF725FF4FF40C
:100500009672A0634621606CFFF71EFF4FF496724F
:100510000A212064E06CFFF717FFA064054804F08F
:10052000ADFE054804F044FE38BD00BF04000020C5
:10053000A08601003C590008CA59000838B5254C6E
:100540004FF4807200216068FFF7FEFE4FF47A726C
:1005500020600021E068FFF7F7FE4FF47A72A06098
:1005600000216069FFF7F0FE1B4D20612A460A2139
:10057000E069FFF7E9FE2A46A0610A21606AFFF7F9
:10058000E3FE2A4620620A21E06AFFF7DDFE2A46E2
:10059000A0620A21606BFFF7D7FE2A4620630A217A
:1005A000E06BFFF7D1FE4FF49672A0634621606CBA
:1005B000FFF7CAFE4FF496720A212064E06CFFF741
:1005C000C3FEA064054804F059FE054804F0F0FDA0
:1005D00038BD00BFA4000020A08601003C590008DF
:1005E000E459000810B5174C6068FFF711FED4E914
:1005F0000010FFF741FED4E90210FFF73DFED4E9F9
:100600000410FFF739FED4E90610FFF735FED4E9F0
:100610000810FFF731FED4E90A10FFF72DFED4E9E8
:100620000C10FFF729FED4E90E10FFF725FED4E9E0
:100630001010FFF721FE044804F020FE034804F0E8
:10064000B7FD10BD540100203C590008075A0008AE
:1006500010B5174C6068FFF7DBFDD4E90010FFF719
:100660000BFED4E90210FFF707FED4E90410FFF7F0
:1006700003FED4E90610FFF7FFFDD4E90810FFF7E9
:10068000FBFDD4E90A10FFF7F7FDD4E90C10FFF7E2
:10069000F3FDD4E90E10FFF7EFFDD4E91010FFF7DA
:1006A000EBFD044804F0EAFD034804F081FD10BDB1
:1006B0009C0100203C5900081D5A000810B5224C2E
:1006C0004FF4807200216068FFF73EFE0A2220602E
:1006D0000121E068FFF738FE4FF47A72A060012133
:1006E0006069FFF731FE4FF47A6220610121E06911
:1006F000FFF72AFE4FF47A62A0610121606AFFF7DA
:1007000023FE42F2107220620021E06AFFF71CFE15
:1007100042F21072A0620021606BFFF715FE6422A6
:1007200020630021E06BFFF70FFE03220121A0638D
:10073000606CFFF709FE2064044804F09FFD044844
:1007400004F036FD10BD00BF540100203C590008E4
:100750003A5A000810B5224C4FF4807200216068AC
:10076000FFF7F2FD0A2220600121E068FFF7ECFDAF
:100770004FF47A72A06001216069FFF7E5FD4FF444
:100780007A6220610121E069FFF7DEFD4FF47A62B1
:10079000A0610121606AFFF7D7FD42F2107220626A
:1007A0000021E06AFFF7D0FD42F21072A062002142
:1007B000606BFFF7C9FD642220630021E06BFFF747
:1007C000C3FD03220121A063606CFFF7BDFD20641F
:1007D000044804F053FD044804F0EAFC10BD00BFD7
:1007E000E40100203C590008515A000810B50D4C96
:1007F0006068FFF70DFDD4E90010FFF73DFDD4E977
:100800000210FFF739FDD4E90410FFF735FDD4E9F4
:100810000610FFF731FD044804F030FD034804F0F2
:10082000C7FC10BD140100203C590008715A000893
:1008300038B5114C4FF4807200216068FFF784FDD9
:100840000E4D20602A460021E068FFF77DFD2A4614
:10085000A06000216069FFF777FD0122002120617F
:10086000E069FFF771FDA061054804F007FD054848
:1008700004F09EFC38BD00BFF400002000286BEEA1
:100880003C590008985A000838B5114C4FF4807252
:1008900000216068FFF758FD0E4D20602A460021B8
:1008A000E068FFF751FD2A46A06000216069FFF76C
:1008B0004BFD012200212061E069FFF745FDA061A9
:1008C000054804F0DBFC054804F072FC38BD00BFAD
:1008D0003401002000286BEE3C590008B75A00088C
:1008E00070B501240E4D2C7072B6FFF7A1FFFFF713
:1008F000E5FEFFF7CFFD62B62E780A483EB904F058
:10090000BDFC094804F054FC2C70304670BD04F066
:10091000B5FC064804F04CFC26462C70F5E700BFF9
:10092000000000203C590008DF5A0008F85A00086F
:1009300070B51446C0B006460D464FF48072684646
:10094000074904F059FF204616F8012B013D4240AB
:1009500015F0FF051DF80200F6D140B070BD00BFD4
:100960003C58000838B572B6144D00224C21284678
:10097000FFF7DEFF044645F8040CFFF769FCFFF7BC
:1009800015FDFFF7DBFD00224C210D48FFF7D0FFDE
:1009900084420C4809D104F071FC0B4804F008FCB7
:1009A000FFF762FC62B6012038BD04F067FC07481F
:1009B00004F0FEFBFFF7FAFCF2E700BF080000209E
:1009C000A80000203C5900082C5B0008515B00087F
:1009D00038B572B6244D002244212846FFF7A8FFFF
:1009E0000446224804F04AFC00222146204804F034
:1009F00083FC1E4804F042FC002244211D4804F000
:100A00007BFC45F8044CFFF723FCFFF7EBFDFFF7F9
:100A1000A1FE002244211848FFF78AFF054613482B
:100A200004F02CFC00222946114804F065FC0F4814
:100A300004F024FC0F480022442104F05DFCAC4289
:100A40000A4809D104F01AFC0C4804F0B1FBFFF786
:100A50000BFC62B6012038BD04F010FC084804F01D
:100A6000A7FBFFF7BFFDF2E7580100203C59000843
:100A7000815B00088C5B0008E8010020985B00089F
:100A8000BA5B000838B54A4804F0F8FB494804F05E
:100A90008FFB72B6484D4C21FFF7DAFB2846002247
:100AA000FFF746FF044645F8040CFFF7B9FCFFF7D3
:100AB00045FD00224C214148FFF73AFF84423C4863
:100AC0005DD104F0DBFB3E4804F072FB3D4D00229B
:100AD00044212846FFF72CFF0446354804F0CEFB9E
:100AE00000222146384804F007FC314804F0C6FBD8
:100AF00000224421354804F0FFFB45F8044CFFF781
:100B0000A7FDFFF727FE002244213148FFF710FF21
:100B10000546274804F0B2FB002229462A4804F083
:100B2000EBFB234804F0AAFB28480022442104F0F0
:100B3000E3FBAC421E482AD104F0A0FB254804F098
:100B400037FB254D00221C212846FFF7F1FE044605
:100B500045F8040CFFF74AFEFFF796FE00221C2121
:100B60001E48FFF7E5FE8442114818D104F086FBC9
:100B70001B4804F01DFBFFF777FB62B638BD04F09D
:100B80007DFB184804F014FBFFF74AFC9EE704F0D5
:100B900075FB154804F00CFBFFF75AFDD1E704F094
:100BA0006DFB124804F004FBFFF720FEE3E700BFF3
:100BB0003C590008135B000858000020A8000020E2
:100BC0002B5B0008A0010020805B00088B5B000805
:100BD000E8010020975B0008180100203801002080
:100BE000E65B0008505B0008B95B0008105C000879
:100BF000164917482DE9F04142F2107C00240E46B8
:100C00000546144FB1F900E0B1F90420B1F9023002
:100C1000A2EB0E020CFB02F2B1F906800360A8EB16
:100C2000030892FBF8F2534393FBF7F30134734448
:100C3000072C4260836001F1040100F10C00E1D156
:100C4000B6F91E306B65BDE8F08100BF2C020020B4
:100C5000F4070020F0D8FFFF114B10B51A6882424C
:100C60001ADB194600220C6884420EDBCC688442F1
:100C70000BDA0C2101FB02335A689B68504342F2A5
:100C8000107290FBF2F0184410BD0132072A01F1F6
:100C90000C01E8D1C820F7E76FF00900F4E700BFC6
:100CA000F40700202DE9F047514D0646286800F072
:100CB000A7FA00232A6802EB02111701294410F851
:100CC00003C01C460133DBB2BCF1000F1BD1B918C5
:100CD000681804443A202071081D013E05EB000C01
:100CE00016F8011FDCB291B9102CC4F11006F6B24F
:100CF00088BF00262044324620212844344404F092
:100D000089FDE4B20EE00C4484F804C0D7E70F2C50
:100D100003D80CF803100133E2E73A442A441344A1
:100D200000221A710026334804F0A8FA0022214656
:100D3000314804F0E1FA2B6803EB03122A44013333
:100D40001444172B26712B6039D94FF03A093046DD
:100D500000F056FA002206EB061433012C44875C9F
:100D600011460132D2B2B7BB9F192F44394481F8E2
:100D7000049006F10A0101EB01112944B81890F81A
:100D800004A0BAF1000F29D102F1FF385FFA88F808
:100D9000B8F1100FC2F11104E4B288BF0024981911
:100DA000043040442246202128444744013604F0C0
:100DB00031FD27440E2E87F804A0C8D12E60FFF71E
:100DC0007FFA0C4804F05AFA29680022BDE8F0477F
:100DD0000A4804F091BA21440F71C0E78818092E1F
:100DE0008CBF00794079BC1801322071D2B2C5E7BE
:100DF000780800203C590008455C00084A5C00085F
:100E00002DE9F047514D06462868894600F0F8F96B
:100E100000232A6802EB02111701294410F803C0CD
:100E20001C460133DBB2BCF1000F1BD1B9186818A6
:100E30000444081D84F80490013E05EB000C16F8EC
:100E4000011FDCB291B9102CC4F11006F6B288BFB4
:100E500000262044324620212844344404F0DAFCA1
:100E6000E4B20EE00C4484F804C0D7E70F2C03D89A
:100E70000CF803100133E2E73A442A4413440022F9
:100E80001A710026324804F0F9F90022214631484F
:100E900004F032FA2B6803EB03122A4401331444A2
:100EA000172B26712B6037D9304600F0A9F90022A4
:100EB00006EB061433012C44875C11460132D2B292
:100EC000B7BB9F192F44394481F8049006F10A01F9
:100ED00001EB01112944B81890F804A0BAF1000FF1
:100EE00029D102F1FF385FFA88F8B8F1100FC2F18A
:100EF0001104E4B288BF002498190430404422460B
:100F0000202128444744013604F084FC27440E2E57
:100F100087F804A0C8D12E60FFF7D2F90C4804F07E
:100F2000ADF929680022BDE8F0470B4804F0E4B9A8
:100F300021440F71C0E78818092E8CBF00794079D1
:100F4000BC1801322071D2B2C5E700BF780800207A
:100F50003C590008455C00084A5C0008002384B046
:100F60000128009301D1009004E00228FBD003285F
:100F70001BD01DD84FF0E02293690193019B02938F
:100F8000936903930399029B994204D3536901998E
:100F90000B4401330193039B0293019B0398009937
:100FA0001B1A8B42ECD304B0704712230093E1E785
:100FB000034B044A1B680338B3FBF2F35843D2E7F0
:100FC0008C02002040420F0007B50190019B13B92D
:100FD00003B05DF804FB4FF47A70FFF7BFFF019B8D
:100FE000013B0193F2E7000038B5684C684D20469C
:100FF00004F044F929680022664804F07DF920468F
:1010000004F03CF9A9680022634804F075F9204611
:1010100004F034F929690022604804F06DF9204693
:1010200004F02CF9A96900225D4804F065F9204616
:1010300004F024F9296A00225A4804F05DF9204698
:1010400004F01CF9A96A0022574804F055F920461B
:1010500004F014F9296B0022544804F04DF920469D
:1010600004F00CF9A96B0022514804F045F9204620
:1010700004F004F9296C00224E4804F03DF92046A2
:1010800004F0FCF8A96C00224B484C4D04F034F9F4
:101090003220FFF799FF204604F0F0F8296800227B
:1010A000474804F029F9204604F0E8F8A96800222E
:1010B000444804F021F9204604F0E0F829690022B0
:1010C000414804F019F9204604F0D8F8A969002233
:1010D0003E4804F011F9204604F0D0F8296A0022B5
:1010E0003B4804F009F9204604F0C8F8A96B002237
:1010F000384804F001F9204604F0C0F8A96A00223B
:10110000354804F0F9F8204604F0B8F8296B0022BD
:10111000324804F0F1F8204604F0B0F8296C0022BF
:101120002F4804F0E9F82F4D3220FFF74DFF2046FD
:1011300004F0A4F8296800222B4804F0DDF82046CA
:1011400004F09CF8A9680022284804F0D5F820464D
:1011500004F094F829690022254804F0CDF82046CF
:1011600004F08CF8A9690022224804F0C5F8204652
:1011700004F084F8204B21481968002204F0BCF8E0
:10118000BDE838403220FFF71FBF00BF4E5C0008AB
:1011900004000020555C0008685C0008865C0008BC
:1011A000A55C0008C25C0008E05C0008FD5C00086B
:1011B0001B5D0008395D0008575D000854010020E0
:1011C0006F5D0008835D00089C5D0008A95D000854
:1011D000B65D0008C35D0008D15D0008E35D00084E
:1011E000F65D0008F4000020135E00082F5E000882
:1011F000575E0008795E00088C020020855E0008BA
:10120000F0B500230A2780EAE07185B0A1EBE07118
:10121000B1FBF7F61C4607FB161510346C4430354D
:1012200004F8105C0C46DAB2531C092C31465BB250
:10123000EEDC002806DA2D2110336B44023203F86D
:10124000101C53B2002103F110026A4402F8101C72
:101250001A46084CD0B2191A49B21AB90548625454
:1012600005B0F0BD10326A4412F8112C6254421ECF
:1012700052B2EFE75D070020F0B5044600234FF0BF
:101280000A0C084684EAE47185B0A1EBE471B1FB75
:10129000FCF71D460CFB171610356D44303605F86B
:1012A000106C0D46DAB2531C092D39465BB2EEDCE8
:1012B000002C06DA2D2110336B44023203F8101C87
:1012C00053B2002103F110026A4402F8101C1A46BE
:1012D000D4B2191B49B2451812B92A7005B0F0BD35
:1012E00010326A4412F8112C4254621E52B2EFE7D7
:1012F00000224FF00A0CF0B580EAE0748BB0A4EB4A
:10130000E074B4FBFCF715460CFB174628356D441A
:10131000303605F8286C2546D3B25A1C092D3C46B8
:1013200052B2EEDC012A02F12804D4BF302200239D
:101330006C44DDBF023304F8282C5AB204F8283C70
:10134000022A09DC012907D9302402F128036B4461
:10135000013203F8284C52B200246E4623462E2751
:1013600065B2AA4212DC002806DA2D215A1C283365
:101370006B4403F8141C53B21A46124CD0B2191A1B
:1013800049B2BAB90F4862540BB0F0BD8B421D464A
:1013900005D1283501336D445BB205F8147C03F1A7
:1013A000280516F801CB6D44013305F814CC5BB267
:1013B0000134D5E728326A4412F8152C6254421ED3
:1013C00052B2DBE74C070020002802D0DCBF4042CD
:1013D00000B2704702460023D8B2115C01330029E5
:1013E000FAD1704770B504461046002255B2635DCD
:1013F000D6B2013243B95AB28C5CF21852B2851897
:1014000001331CB92C7070BD4355EFE78454F2E7EB
:10141000F0B505460E461846002461B26B5CE7B293
:10142000013483B9DDB2F15CEC195FFA84FC64B27B
:1014300059B94BB2D45C0CEB01035BB2C518013156
:101440003CB92C70F0BD4354E7E76B1C01555BB20F
:10145000E8E7C454EDE72DE9F04107464FF4616039
:1014600086B00C46B7FBF0F001A9FFF705FF01A815
:10147000FFF7B0FF012896BF012200223023154656
:1014800098BF2370EEB2B31A5BB218336B4413F8F3
:10149000141C6319751C6DB2002949D13A221A70C7
:1014A0003C23B7FBF3F2B2FBF3F001A903FB1020DE
:1014B000FFF7E2FE01A8FFF78DFF01289FBF302351
:1014C0006355B51C6DB22E465FFA86F8A8EB05038E
:1014D0005BB218336B4413F8142CA31908F10106FE
:1014E00076B23ABB3A221A703C23B7FBF3F001A95B
:1014F00003FB1070FFF7C0FE01A8FFF76BFF012888
:101500009CBF3023A3554FF000039CBF08F1020697
:1015100076B25AB218326A4412F8141C9A1952B2AE
:10152000A018013341B90170204606B0BDE8F08132
:101530001970A7E71A70C7E7A154EAE7F0B50646A5
:101540004FF4616087B00C46B6FBF0F001A9FFF7DD
:1015500093FE01A8FFF73EFF012896BF012200225B
:101560003023154698BF2370EFB2BB1A5BB2183315
:101570006B4413F8141C63197D1C6DB229BB3A220D
:101580001A703C23B6FBF3F6B6FBF3F001A903FB9C
:101590001060FFF771FE01A8FFF71CFF01289CBF38
:1015A000302363554FF000039CBFBD1C6DB25AB28F
:1015B00018326A4412F8141C5A1952B2A018013396
:1015C00029B90170204607B0F0BD1970CCE7A154CD
:1015D000EDE7000003460C4948680A6888609042BD
:1015E000C1E9003206DC98420ADC9A42A8BF1A46DA
:1015F000104670479A4203DC9842A8BF18467047CD
:101600009042A8BF104670471007002003460C49BF
:1016100048680A6888609042C1E9003206DC984256
:101620000ADC9A42A8BF1A46104670479A4203DC69
:101630009842A8BF184670479042A8BF104670470E
:101640001C07002003460C4948680A6888609042DD
:10165000C1E9003206DC98420ADC9A42A8BF1A4669
:10166000104670479A4203DC9842A8BF184670475C
:101670009042A8BF104670472807002003460C4937
:1016800048680A6888609042C1E9003206DC9842E6
:101690000ADC9A42A8BF1A46104670479A4203DCF9
:1016A0009842A8BF184670479042A8BF104670479E
:1016B0003407002003460C4948680A688860904255
:1016C000C1E9003206DC98420ADC9A42A8BF1A46F9
:1016D000104670479A4203DC9842A8BF18467047EC
:1016E0009042A8BF104670474007002070477047DF
:1016F00070477047014B1868704700BF4C020020CC
:10170000094B10B598420DD060B1084B084C1B68CE
:1017100020600BB11830984723681B6913B1BDE8EE
:101720001040184710BD00BF985E000870070020E9
:101730004C020020024B1860024B1868FFF7E0BF14
:10174000700700204C020020044B054A1B6893429E
:1017500003D013B15B6903B1184770474C020020F6
:10176000985E00084FF4804310B5064C02202361B8
:10177000FFF7F4FB4FF0804302202361BDE81040E7
:10178000FFF7ECBB000C014070B54FF07C454FF407
:1017900080560D4C25612661FFF7E4FF0120FFF71D
:1017A00013FC25612661FFF7DDFF0120FFF70CFC2C
:1017B0004FF4806325612361FFF7D4FFBDE87040DB
:1017C0000120FFF701BC00BF000C01404FF07C423C
:1017D000244B70B504460D461A6111B14FF4004216
:1017E0001A61E20644BF4FF400521A6114F0200F50
:1017F00018BF4FF480521B4B18BF1A61660644BFD6
:101800004FF400621A6114F0800F18BF4FF4806328
:10181000144E18BF3361FFF7A5FF4FF07053E00778
:10182000336144BF4FF400533361A10742BF4FF40B
:1018300080520C4B1A61620742BF4FF40062094BA1
:101840001A61230742BF4FF48062064B1A61FFF70B
:1018500089FF0220FFF7B8FB1DB14FF00042014B9A
:101860001A6170BD000C0140C00040F0400038B566
:1018700000F0F8000C460021FFF7A8FF651E0734B2
:1018800015F8010F0121FFF7A1FFA542F8D1BDE82E
:10189000384000218020FFF799BF2DE9F341002552
:1018A000042415271F264FF00E08694628468DF898
:1018B00000408DF803408DF805408DF801708DF8DB
:1018C00002808DF804508DF806608DF80760FFF7F0
:1018D000CBFF694601208DF802408DF806408DF857
:1018E00000708DF801808DF803508DF804508DF84C
:1018F00005508DF80760FFF7B7FF694602208DF8A5
:1019000001408DF805408DF800508DF802808DF86B
:1019100003708DF804508DF806608DF80760FFF7AE
:10192000A3FF694603208DF800408DF803408DF831
:1019300006408DF801808DF802708DF804508DF806
:1019400005508DF80760FFF78FFF694620468DF838
:1019500000408DF803408DF804408DF807408DF865
:1019600001808DF802708DF805708DF80680FFF704
:101970007BFF02238DF800300A238DF803308DF8A9
:1019800004301C2307248DF805308DF80630082319
:10199000694605208DF807308DF801408DF802402A
:1019A000FFF762FF0F238DF8003005238DF801301B
:1019B0008DF802308DF803308DF804300923694624
:1019C00006208DF806308DF805708DF80750FFF76A
:1019D0004BFF11238DF800308DF801308DF8023067
:1019E0000123694620468DF803608DF804308DF898
:1019F00005308DF806308DF80750FFF735FF02B03F
:101A0000BDE8F081064A1070064A117019B940F01D
:101A10008000FFF7DBBE002140F0C000F9E700BF07
:101A2000740700207507002070B506460D46002497
:101A3000305D00B970BD0121FFF7C8FE012D06D150
:101A4000E3B2072B03D129460020FFF7DBFF013467
:101A5000EEE70121C0B2FFF7B9BE00002DE9F8435F
:101A60000D46DFF870801C4E1C4F441E14F8010F09
:101A700008B9BDE8F883B22819D101214920FFF740
:101A8000A5FE337897F800900133DBB23370B9F1DB
:101A9000000FEBD1102BE9D1022DE7D101214846EF
:101AA000FFF7B0FF012386F800903B70DEE7AF2818
:101AB00002D101210320E2E7AA2802D1012102205C
:101AC000DDE7BF2889BF40440121012110F8C00C87
:101AD000D5E700BF500200207407002075070020E2
:101AE00000210120FFF772BE08B56420FFF76CFAF1
:101AF000FFF74AFE00210E20FFF768FEBDE8084010
:101B0000FFF7EEBF0221FFF7A9BF10B50446084654
:101B10001146FFF777FF2046BDE810400221FFF78E
:101B20009DBF08B5FFF7E0FFFFF7DAFFBDE808400B
:101B300000210C20FFF74ABE054B82B09A69024390
:101B40009A619B6918400190019B02B0704700BFE9
:101B5000001002400022014B1A807047DE0700206F
:101B600008B5FEF7FFFEBDE808400148FFF79AB848
:101B7000B05E000810B53B4C94F9001061B90846FE
:101B8000FFF740FF3848FFF7BDFF4FF48762374B40
:101B90009A6140F2B4521A6294F90030012B0DD1CF
:101BA00000210846FFF72EFF3148FFF7ABFF4FF447
:101BB00096722E4B9A614FF4D2721A6294F90030E9
:101BC000022B0DD100210846FFF71CFF2948FFF723
:101BD00099FF4FF48C72254B9A614FF4B9721A62D7
:101BE00094F90030032B0CD100210846FFF70AFFBF
:101BF0002148FFF787FFA0221C4B9A614FF48C729B
:101C00001A6294F90030042B0DD100210846FFF729
:101C1000F9FE1A48FFF776FF4FF44872134B9A61AA
:101C20004FF4AA621A6294F90030052B0CD10021FE
:101C30000846FFF7E7FE1248FFF764FF64220B4BEC
:101C40009A614FF4FA621A6294F90030062B04BFCD
:101C500000232370FEF7BCFEBDE810404FF4167061
:101C6000FFF7B2B98F070020BC5E000854010020C6
:101C7000CD5E0008DE5E0008EF5E0008005F000831
:101C8000115F0008FEF7A4BE08B501210720FFF789
:101C9000B9FE0121FF20FFF799FDFEF799FE044BE5
:101CA000C8209A68034B1A60BDE80840FFF78CB95A
:101CB000540100201C0A002008B501210720FFF76D
:101CC000A1FE0121FF20FFF781FDFEF781FE044BFD
:101CD000C8201A6C034B1A60BDE80840FFF774B9BE
:101CE00054010020140A002018B100221146FFF709
:101CF0000CBF704749F6AF2310B50E4C90B0226868
:101D00009A4215D90C4B0BA91868FFF717FC4FF432
:101D10006163206801A9B0FBF3F0FFF7ADFA074952
:101D200006AB0BAAFFF774FB022106A8FFF768F8C1
:101D300010B010BD7C07002094070020225F00082F
:101D400010B5164C164890B003F098FA002221689E
:101D5000144803F0D1FA49F6AF2322689A421BD9FE
:101D6000114B0BA91868FFF7E9FB4FF4616320687A
:101D700001A9B0FBF3F0FFF77FFA06AB0BAA0B4902
:101D8000FFF746FB012106A8FFF73AF8044803F0E5
:101D900075FA06A803F00CFA10B010BD7807002001
:101DA0003C590008265F000888070020225F0008D1
:101DB00008B501210720FFF725FEBDE808400121F5
:101DC000FF20FFF703BD00004FF0007170B591FADE
:101DD000A1F1B1FA81F3104C00F00071D9404FF03D
:101DE000F87254F8215000F0F87092FAA2F3B3FAA6
:101DF00083F392FAA2F20726B2FA82F220FA03F3F0
:101E000006FA03F3D04025EA030306FA00F018436C
:101E100044F8210070BD00BF0C2401404FF4407312
:101E200030B593FAA3F3B3FA83F31F24084D00F4FB
:101E30004072DA4055F8223000F01F00844001F073
:101E40001F0123EA04038140194345F8221030BDE5
:101E50002C240140002070470122002110B51F4BA7
:101E60001F4C1A700228084608BF2378FFF7CAFDE6
:101E70001C4B0221188880B2FFF73AFAFFF742FEA6
:101E80001948FFF73FFE194B188800B2FFF7B8F961
:101E9000FFF738FE1648FFF735FE237801210620AC
:101EA000144C7BB9FFF7AEFD01210220FFF7D1FDF5
:101EB00001210220FFF7CDFD23780A2B84BF0023E8
:101EC000237010BD2378052BECD9FFF79BFD012172
:101ED0000320FFF7BEFD01210320EBE79C07002054
:101EE0009E0700206C0800202E5F00085608002086
:101EF000315F000885070020002310B596B0044626
:101F0000084611A98DF804208DF80530FFF716FB5F
:101F10004FF4616002A9B4FBF0F0FFF7ADF907AB35
:101F200011AA0749FFF774FA0CAA07A901A8FFF73D
:101F300059FA04210CA8FEF763FF16B010BD00BFCC
:101F4000225F0008022838B51E4C1F4D2AD1238875
:101F50002A6801331BB29342238001D300232380DC
:101F600000210846FFF74EFD2868B4F9003001381B
:101F7000C01A00EB001004302844FFF7C3FD1348DB
:101F800003F07CF9B4F900100022114803F0B4F911
:101F90000E4803F073F929680022BDE838400D4867
:101FA00003F0AAB90128DBD12388013B1BB2002B27
:101FB0002380D5DA2B68013B1BB2002B2380CDDBBD
:101FC000CEE700BFDE070020780800203C5900085B
:101FD000385F0008455F0008002110B50446084638
:101FE000FFF710FD0A4B188800B2FFF709F9FFF759
:101FF00089FD0848FFF786FD022C08D1BDE8104096
:10200000054B064A1B881BB29360FEF7ABBC10BDA4
:1020100056080020585F0008E80700200400002050
:10202000002110B504460846FFF7ECFC0A4B18885F
:1020300000B2FFF7E5F8FFF765FD0848FFF762FD1E
:10204000022C08D1BDE81040054B064A1B881BB284
:102050001361FEF787BC10BD56080020585F0008CA
:102060005808002004000020002110B5044608464E
:10207000FFF7C8FC1F48FFF745FD022C30D1FEF7E3
:1020800001FDFEF72DFC002104460846FFF7BAFCCF
:102090001948FFF737FD4FF4FA60FEF795FF00216E
:1020A0000846FFF7AFFC012C1BD11448FFF72AFDAF
:1020B0001348FEF7F7FD4FF4FA60FEF785FF4FF483
:1020C0006161104B1A69104B1A60104B1A694A4330
:1020D0000F490A6099680F4A11601A6C0E4B1A601A
:1020E00010BD0E48FFF70EFDBDE810404FF47A60BA
:1020F000FEF76ABF675F0008785F0008895F000825
:102100009A5F0008F400002080070020540100209E
:10211000180A00201C0A0020140A0020A95F0008E9
:10212000022810B50E4C15D123690133236100211B
:102130000846FFF767FC2069FFF762F8FFF7E2FC4B
:102140000848FFF7DFFC4FF4616223695343064AF6
:10215000136010BD0128EAD12369013BE6E700BF07
:1021600054010020BA5F0008180A002010B5334C53
:10217000022894F900300DD101335BB2072B0FD147
:102180000023237000210846FFF73CFC2C48FFF792
:10219000B9FC0AE0012804D1013B5BB2002B10DB43
:1021A000237094F90030002BECD094F90030012B0F
:1021B00009D100210846FFF725FC2248FFF7A2FCC1
:1021C00001E00623237094F90030022B06D1002190
:1021D0000846FFF717FC1C48FFF794FC94F9003001
:1021E000032B06D100210846FFF70CFC1748FFF728
:1021F00089FC94F90030042B06D100210846FFF732
:1022000001FC1348FFF77EFC94F90030052B06D142
:1022100000210846FFF7F6FB0E48FFF773FC94F920
:102220000030062B08D100210846FFF7EBFBBDE884
:1022300010400948FFF766BC10BD00BF8F070020A3
:10224000BF5F0008D05F0008E25F0008F35F00088E
:10225000036000081460000824600008022810B51C
:102260000D4C14D1A3690A33A36100210846FFF77E
:10227000C9FB0A23A0690121B0FBF3F0FFF738F88E
:10228000FFF740FCBDE810400448FFF73BBC0128C5
:10229000EBD1A3690A3BE7E754010020D95E0008AF
:1022A000022810B50D4C14D1236A0A332362002191
:1022B0000846FFF7A7FB0A23206A0121B0FBF3F0D1
:1022C000FFF716F8FFF71EFCBDE810400448FFF7C3
:1022D00019BC0128EBD1236A0A3BE7E7540100202F
:1022E000D95E0008022810B50B4C10D1A36A013347
:1022F000A36200210846FFF785FBA06AFEF780FF76
:10230000FFF700FCBDE810400448FFF7FBBB0128C5
:10231000EFD1A36A013BEBE75401002034600008D1
:10232000022810B50B4C10D1236B0133236300211D
:102330000846FFF767FB206BFEF762FFFFF7E2FB43
:10234000BDE810400448FFF7DDBB0128EFD1236B47
:10235000013BEBE75401002034600008022838B547
:102360001A4C2DD1A36B0133A36300210A25084623
:10237000FFF748FBA06BFEF743FFFFF7C3FB1448D2
:10238000FFF7C0FB206A0121B0FBF5F0FEF7B0FFBC
:10239000FFF7B8FB0F48FFF7B5FB6422236AA06B79
:1023A00001215843B0FBF2F0181AB0FBF5F0FEF72C
:1023B0009FFFFFF7A7FBBDE838400748FFF7A2BB28
:1023C0000128D2D1A36B013BCEE700BF540100200E
:1023D0003D6000082E5F0008D95E0008044B9A6833
:1023E000044B1B689A4201D1FFF7E2BC704700BF63
:1023F000540100201C0A0020044B1A6C044B1B687B
:102400009A4201D1FFF7D4BC704700BF54010020AD
:10241000140A0020002110B504460846FFF7F2FA1E
:10242000022C1F4B0DD19A68072A02F1010127D116
:1024300001229A601B48FFF765FBBDE81040FFF7DB
:10244000CDBF012C03D19A68013A15D09A609A68E1
:10245000013A062A20D801A151F822F035240008BB
:1024600085240008892400088D2400089124000890
:10247000952400087D24000807229A600A48DAE7BC
:102480009960E4E70948D6E70948D4E70948D2E764
:102490000948D0E70948CEE701229A6010BD00BF85
:1024A0005401002040600008A66000085160000848
:1024B000626000087360000884600008956000088E
:1024C000002110B504460846FFF79CFA022C144B75
:1024D0000DD11A6C032A02F101011CD101221A64E8
:1024E0001048FFF70FFBBDE81040FFF785BF012C38
:1024F00003D11A6C013A0AD01A641A6C022A0CD061
:10250000032A06D0012AEBD001221A6410BD03224F
:102510001A640548E5E71964EFE70448E1E700BFFE
:1025200054010020B7600008D9600008C8600008A6
:10253000154B16499A6812F0100F0CD09A68900645
:1025400016D59A68520615D59B68DB4313F08003B5
:1025500012D10B807047032240F2DC50B1F90030F9
:1025600083420BDD40F2B4530B80094B1A700AE032
:102570000222F1E70122EFE70422EDE701331BB26B
:10258000142B0B80F1D07047000C0140DC070020B9
:10259000E0070020044B187810B10021034A1160B5
:1025A00000221A70704700BFE0070020A00700203B
:1025B0000022034B1A600122024B1A70704700BFC1
:1025C000CC070020A507002038B504464FF4616011
:1025D000B4FBF0F0FEF714FE0546FEF7FBFE012803
:1025E00003D801211148FFF71FFA01212846FFF700
:1025F0001BFA01210E48FFF717FA3C23B4FBF3F452
:10260000B4FBF3F003FB1040FEF7FAFD0446FEF7BF
:10261000E1FE012803D801210448FFF705FA20460E
:10262000BDE838400121FFF7FFB900BFEA600008AC
:10263000E16100084FF40032064B1A614FF08072DE
:10264000A3F580631A610023034A1370034A1370D1
:10265000704700BF000C01409E070020A407002027
:1026600008B5FFF7E7FFBDE808403220FEF7ACBC35
:1026700038B501220546154B154C1A70FFF7F0FFCF
:10268000022D1ED1236A0133236200210846FFF781
:10269000B9F9206AFEF7B4FDFFF734FA0D48FFF7E9
:1026A00031FA01210020FFF7ADF90B4B188800B279
:1026B000FEF7A6FDFFF726FABDE838400748FFF70A
:1026C00021BA012DE1D1236A013BDDE79C070020FF
:1026D00004000020D560000856080020EC600008C7
:1026E00008B50C4B93F90020022A11D002221A706F
:1026F000FFF7A0FF0022084B32201A60FEF764FCAF
:10270000064802F0BBFDBDE80840054802F050BD98
:1027100008BD00BF86070020C80700203C590008FC
:10272000F160000801212DE9F8438D4E8D4F33787B
:102730008D4A39704BB931708C4913700B708C49CC
:102740000B708C490B608C490B60DFF830828C4930
:10275000B8F80030DFF82C929BB20B80D9F8181033
:102760008B42C0F0F480002387491370874B0968BF
:102770001B687F4D5B1A032B05D913781BB1FFF73C
:1027800059FF00232B700228814C56D1814B1B78B6
:10279000002B4ED1FFF764FF01232B7094F900103A
:1027A00069BB0846FFF72EF9B8F80000022180B295
:1027B000FEF79EFDFFF7A6F97748FFF7A3F9774BE1
:1027C000DFF8DC81188800B2FEF71AFDFFF79AF9EE
:1027D0007448FFF797F96F4B01211B780720002BF6
:1027E00040F0AB80FFF70EF901210220FFF731F92D
:1027F00098F800300A2B84BF002388F8003094F941
:102800000080B8F1010F23D100210846FFF7FAF844
:102810006548FFF777F90A23D9F818004146B0FB5D
:10282000F3F0FEF765FDFFF76DF96048FFF76AF911
:102830000EE0FFF7FFFE0023AFE70128AED12378BB
:10284000013B5BB2002B01DB2370A7E7032323705E
:1028500094F90030022B1BD100210846FFF7D2F873
:102860005348FFF74FF9534B98684FF46163B0FB3F
:10287000F3F0FEF7C5FCFFF745F94F48FFF742F9C3
:1028800003200121FFF7BEF84C4B1868FFF79CFEB0
:1028900094F90080384CB8F1030F1AD10021084692
:1028A000FFF7B0F84648FFF72DF9324B18684FF4A0
:1028B0006163B0FBF3F0FEF7A3FCFFF723F9414897
:1028C000FFF720F940460121FFF79CF82068FFF749
:1028D0007BFE3D4802F0D2FC317800223B4802F0FA
:1028E0000BFD394802F0CAFC39780022384802F062
:1028F00003FD354802F0C2FC1C4B00221978354814
:1029000002F0FAFC304802F0B9FC334B002219689F
:10291000324802F0F1FC2C4802F0B0FC2978002289
:102920002F4802F0E9FC284802F0A8FC21680022A8
:10293000BDE8F8432B4802F0DFBC98F80030052BC7
:102940007FF650AFFFF75EF8012103204EE71378C2
:102950001BB90E4B19680C4B1960012304E700BF2B
:102960009D0700209C070020840700208707002087
:10297000900700207C070020940700206C080020AE
:10298000D007002054010020D4070020E4070020D5
:102990008D0700209E0700202E5F000856080020AB
:1029A00085070020FB60000804610008D95E00086C
:1029B00010610008F400002013610008980700204F
:1029C000A26100081C6100083C590008256100084C
:1029D0003361000848610008880700205D61000835
:1029E0006D610008856100080222064B1A6101230F
:1029F000054A1370054A13704FF48072044B1A6134
:102A0000704700BF000C01409E070020A407002073
:102A100000080140084908B50B68022B04D1FFF7F4
:102A2000E3FF01230B6008BD032BFCD1034B9B6923
:102A3000012BF8D1F3E700BF74020020F40000205E
:102A40000021012238B5274B044608461A70FEF7CC
:102A5000D9FF254B0221188880B2FEF749FCFFF709
:102A600051F82248FFF74EF800210720FEF7CAFF71
:102A70001F4B1A8812B2B2F57A7F1DDA188800B29D
:102A8000FEF7BEFBFFF73EF81A481B4DFFF73AF87A
:102A90002B7803F0FF01DBB90D20FEF7B3FF1748D9
:102AA000FFF730F8022C03D12B78BBB9FFF79CFF5E
:102AB000BDE83840FFF7AEBF0A201B8802211BB2D9
:102AC00093FBF0F0FEF714FCFFF71CF80C48DCE772
:102AD0000E200021FEF796FF0A48E1E7FFF7AAFD66
:102AE000E6E700BF9C0700206C0800209861000802
:102AF00056080020315F00089E0700209C610008F6
:102B0000D9610008A16100080122164B10B51A70A6
:102B1000FFF76AFF0228144C1ED1A3690133A36199
:102B200000210846FEF76EFFA069FEF769FBFEF77D
:102B3000E9FF0E48FEF7E6FF01210020FEF762FFE5
:102B40000B4B188800B2FEF75BFBFEF7DBFFBDE81E
:102B500010400848FEF7D6BF0128E1D1A369013B28
:102B6000DDE700BF9C07002004000020D5600008BE
:102B700056080020EC6000080122164B10B51A70B0
:102B8000FFF732FF0228144C1FD1A36A0133A3625E
:102B900000210846FEF736FFA06AFEF731FBFEF77C
:102BA000B1FF0E48FEF7AEFF01210020FEF72AFF1D
:102BB0000B4B0221188880B2FEF79AFBFEF7A2FFAA
:102BC000BDE810400748FEF79DBF0128E0D1A36A89
:102BD000013BDCE79C07002004000020D5600008D2
:102BE00074080020986100080122164B10B51A7075
:102BF000FFF7FAFE0228144C1FD1236B0133236325
:102C000000210846FEF7FEFE206BFEF7F9FAFEF7FC
:102C100079FF0E48FEF776FF01210020FEF7F2FE55
:102C20000B4B0221188880B2FEF762FBFEF76AFFA9
:102C3000BDE810400748FEF765BF0128E0D1236BCF
:102C4000013BDCE79C07002004000020D560000861
:102C50006C080020986100080122164B10B51A700C
:102C6000FFF7C2FE0228144C1FD1A36B0133A363EC
:102C700000210846FEF7C6FEA06BFEF7C1FAFEF77C
:102C800041FF0E48FEF73EFF01210020FEF7BAFE8D
:102C90000B4B0221188880B2FEF72AFBFEF732FFA9
:102CA000BDE810400748FEF72DBF0128E0D1A36B17
:102CB000013BDCE79C07002004000020D5600008F1
:102CC000540800209861000801222A4B70B51A7040
:102CD000FFF78AFE0228284E42D133880133338021
:102CE00000210846FEF78EFE02213088FEF700FB29
:102CF000224D234CFEF706FF2248FEF703FF2888EB
:102D0000238880B21BB2002B2FDD42F21072338871
:102D1000C01A00B220EAE070504323881BB290FB37
:102D2000F3F0194E3064FEF76BFAFEF7EBFE17482E
:102D3000FEF7E8FE164B1B882A8821889BB209B251
:102D4000002992B213DD42F210719B1A1BB223EAE2
:102D5000E3734B43228812B293FBF2F3B36470BD6A
:102D60000128BDD13388013BB9E74620D9E70A23C2
:102D7000F4E700BF9C07002078020020B202002088
:102D8000560800202E5F000804000020A5610008FE
:102D90007408002000212DE9F04101252B4B2C4E19
:102DA000044608461D70FEF72DFE3378294F03F0C8
:102DB000FF0833BB284B0221188880B2FEF798FA2F
:102DC000FEF7A0FE2548FEF79DFE41460720FEF7D0
:102DD00019FE388800B2FEF713FAFEF793FE20487A
:102DE000FEF790FE05202946FEF70CFE1D48FEF773
:102DF00089FE022C27D133780BBBBDE8F041FFF7E9
:102E0000F3BD194B0221188880B2FEF771FAFEF764
:102E100079FE1248FEF776FE00210720FEF7F2FD4C
:102E2000388800B2FEF7ECF9FEF76CFE0F48FEF7AB
:102E300069FE06202946FEF7E5FD0D48D7E7BDE807
:102E4000F041FFF7F7BBBDE8F08100BF9C07002011
:102E50009E07002056080020740800209861000892
:102E6000B06100089C6100086C080020315F000818
:102E7000A161000808B5FFF7B7FDBDE808403220A2
:102E8000FEF7A2B82DE9F84F01239A4FDFF86892B8
:102E90003C788246994DDFF868829A4E89F8003076
:102EA00034BB994B1A88994B92B21B6A05339A42EC
:102EB00015D221462046FEF7A5FD9548FEF722FED5
:102EC0004FF4FA60FEF780F821462046FEF79AFD9F
:102ED0009048FEF717FE40F6B830FEF775F800236D
:102EE0008D4A2B7088F800301360012233603A70ED
:102EF0008A4B32681B689A4206D8894B834A1B88E2
:102F0000126A9BB2934203D9FFF794FB00232B7004
:102F1000FFF780FDBAF1020F824C6CD1824B1B7817
:102F2000002B64D1FFF7A6FF01232B7094F900104A
:102F3000002937D1DFF8F0A10846FEF763FD9AF8C3
:102F40000030DFF8DCB1002B40F0B5806E4B022181
:102F5000188880B2FEF7CCF9FEF7D4FD7348FEF76F
:102F6000D1FDBBF80000022180B2FEF7C1F9FEF7E7
:102F7000C9FD6F48FEF7C6FD9AF800300121072011
:102F8000DFF8B0A1002B40F0AA80FEF73BFD012145
:102F90000020FEF75EFD9AF800300A2B84BF002364
:102FA0008AF8003094F900A0BAF1010F2FD1002166
:102FB000DFF858B10846FEF725FD5F48FEF7A2FD91
:102FC000DBF81000FEF71CF9FEF79CFD5B48FEF7EE
:102FD00099FD0A23DBF820005146B0FBF3F0FEF721
:102FE00087F9FEF78FFD5648FEF78CFD0FE0FFF7DF
:102FF00021FB002399E7BAF1010F97D12378013B18
:103000005BB2002B01DB237090E70223237094F95D
:103010000030022B1AD100210846FEF7F3FC494884
:10302000FEF770FD3C4B18684FF46163B0FBF3F0A2
:10303000FEF7E6F8FEF766FD4348FEF763FD032062
:103040000121FEF7DFFC3068FFF7BEFA3F4802F0CF
:1030500015F9397800223E4802F04EF93B4802F05B
:103060000DF999F8001000223A4802F045F9374866
:1030700002F004F929780022374802F03DF933487C
:1030800002F0FCF831680022344802F035F92F488C
:1030900002F0F4F898F800100022314802F02CF900
:1030A0002A4802F0EBF82F4B002219682E48BDE8A1
:1030B000F84F02F021B9BBF80000022180B2FEF700
:1030C00017F9FEF71FFD1948FEF71CFD274B18885E
:1030D00000B2FEF795F8FEF715FD25484AE79AF885
:1030E0000030052B7FF651AFFEF78CFC012108461E
:1030F0004FE700BF9D0700209C07002087070020A6
:103100009007002088070020740800205401002048
:10311000B6610008C761000878070020180A00207F
:103120006C0800208D0700209E0700202E5F0008FD
:103130001B5F000885070020E0610008E3610008CC
:10314000D95E0008EB610008136100083C590008D3
:103150002561000833610008486100085D610008CE
:103160006D61000894070020856100085608002062
:10317000D86100082DE9F84F0123BD4FDFF8F49224
:103180003D788246BC4CDFF8F482BD4E89F80030B1
:1031900035BBBC4B1A88BC4B92B21B6A05339A42B2
:1031A00015D229462846FEF72DFCB848FEF7AAFCA2
:1031B0004FF4FA60FDF708FF29462846FEF722FC87
:1031C000B348FEF79FFC40F6B830FDF7FDFE002344
:1031D000B04A237088F800301360012233603A70DF
:1031E000AD4B32681B689A4273D9FFF723FA00236C
:1031F0002370FFF70FFCBAF1020FA84D40F0838057
:10320000A74B1B78002B7AD1FFF734FE01232370E4
:1032100095F90010002937D1DFF884A20846FEF79F
:10322000F1FB9AF80030DFF87CB2002B40F002810D
:10323000944B0221188880B2FEF75AF8FEF762FC20
:103240009948FEF75FFCBBF80000022180B2FEF750
:103250004FF8FEF757FC9548FEF754FC9AF80030FB
:1032600001210720DFF848A2002B40F0F780FEF78D
:10327000C9FB01210020FEF7ECFB9AF800300A2B75
:1032800084BF00238AF8003095F900A0BAF1010F3D
:1032900045D10021DFF8F0B10846FEF7B3FB8548C1
:1032A000FEF730FCDBF81000FDF7AAFFFEF72AFC62
:1032B0008148FEF727FC0A23DBF820005146B0FBCB
:1032C000F3F0FEF715F8FEF71DFC7848FEF71AFC40
:1032D00025E074496C480A88036A92B29A4284D8FD
:1032E000826B64205A43B2FBF0F209889B1A89B2C0
:1032F0009942BFF47EAFFFF7BDFD012378E7FFF7EA
:1033000099F9002383E7BAF1010F81D12B78013BB2
:103310005BB2002B01DB2B707AE703232B7095F94E
:103320000030022B2FD100214FF00A0ADFF858B1EC
:103330000846FEF767FBDBF83800FDF761FFFEF794
:10334000E1FB5E48FEF7DEFBDBF820000121B0FB6D
:10335000FAF0FDF7CDFFFEF7D5FB5348FEF7D2FBA1
:103360006422DBF82030DBF8380001215843B0FB41
:10337000F2F0181AB0FBFAF0FDF7BAFFFEF7C2FB45
:103380004A48FEF7BFFB95F90050032D1AD10021E2
:103390000846FEF737FB4A48FEF7B4FB3D4B18687A
:1033A0004FF46163B0FBF3F0FDF72AFFFEF7AAFBD1
:1033B0004448FEF7A7FB28460121FEF723FB3068AF
:1033C000FFF702F96420FDF7FFFD3F4801F056FFCB
:1033D000397800223D4801F08FFF3B4801F04EFF55
:1033E00099F8001000223A4801F086FF364801F0B3
:1033F00045FF21780022374801F07EFF324801F076
:103400003DFF31680022344801F076FF2E4801F07C
:1034100035FF98F800100022304801F06DFF2A486F
:1034200001F02CFF2E4B002219682E48BDE8F84F02
:1034300001F062BFBBF80000022180B2FDF758FF27
:10344000FEF760FB1848FEF75DFB274B188800B2BB
:10345000FDF7D6FEFEF756FB2448FDE69AF800304D
:10346000052B7FF604AFFEF7CDFA0121084602E7EF
:103470009D0700209C070020870700209007002060
:10348000880700207408002054010020B66100085D
:10349000C761000878070020180A00208D07002067
:1034A0009E0700206C0800202E5F0008D95E0008EF
:1034B00085070020E0610008E36100083D60000826
:1034C000EB6100081C6100083C59000825610008F8
:1034D00033610008486100085D6100086D61000803
:1034E000940700208561000856080020FB60000852
:1034F00008B50C4B93F90020012A11D001221A7053
:10350000FFF772FA0022084B32201A60FDF75CFDCB
:10351000064801F0B3FEBDE80840054801F048BE8A
:1035200008BD00BF86070020C80700203C590008DE
:10353000F46000082DE9F74F974BDFF860921B7895
:10354000DFF85CB2DFF85C82974E984F984D01909F
:1035500003F0FF04002B40D1964B1A88964B92B291
:103560001B6A05339A4215D221462046FEF74AFAD5
:103570009248FEF7C7FA4FF4FA60FDF725FD2146A1
:103580002046FEF73FFA8E48FEF7BCFA40F6B83008
:10359000FDF71AFD4FF0010A00247F4B83F800A0CD
:1035A000884B89F800408BF80040C8F80040346030
:1035B0001C603C602C6089F800A0FFF799FF824BEB
:1035C0002146204683F800A0FEF71CFA7F48FEF74C
:1035D00099FA4FF47A70FDF7F7FC7D4B188800B22A
:1035E000FDF7F2FE052840F3CA817A4BDFF8C8A147
:1035F0001B88DAF818209BB293421ED2724B1A78BD
:10360000022A1AD1744B1B68B3F57A7F15D90023AF
:103610008BF800302968714B994203D928683168CA
:10362000FEF76AFC00230124C8F800303B6089F8EB
:103630000040FFF75DFF644B1C70664BDAF82020FA
:103640001B889BB2934208D95F4B1B78012B04D196
:10365000614B1B68B3F57A7F09D8614BD8F800201D
:103660001B689A4221D9584B1B78012B1DD100238E
:1036700089F800303A68594B9A4205D938680122D6
:10368000D8F80010FEF738FC32684E4B1A602A68F2
:10369000544B9A60002333602B6001238BF8003079
:1036A000FFF71EF80222484B1A70019A4E4C022A6C
:1036B00094F9003034D101335BB2052B37D10023AC
:1036C000237000210846FEF79DF9424B022118881D
:1036D00080B2FDF70DFEFEF715FA4448FEF712FA28
:1036E0003B4B188800B2FDF78BFDFEF70BFA404804
:1036F000FEF708FA01210620FEF784F901210420D3
:10370000FEF7A7F93B4B1978012940F031810720DA
:103710000191FEF777F900200199FEF79AF90BE085
:10372000019A012A04D1013B5BB2002B68DB2370B4
:1037300094F90030002BC4D094F90030012B61D1F2
:10374000002108460193FEF75DF9DAF81000FDF755
:1037500057FDFEF7D7F92848FEF7D4F90A22019B56
:10376000DAF818001946B0FBF2F0FDF7C1FDFEF7DC
:10377000C9F91E48FEF7C6F90A22019BDAF82000B3
:103780001946B0FBF2F0FDF7B3FDFEF7BBF91B489D
:10379000FEF7B8F936E000BF9C070020870700203D
:1037A0009007002088070020940700207807002059
:1037B0007C0700207408002054010020B661000836
:1037C000C76100089807002070020020EE61000821
:1037D000560800206C080020C80700204F8C050008
:1037E000180A0020F40000208D0700202E5F00083A
:1037F000D8610008A4070020B45A00081B5F000825
:103800000423237094F900A0BAF1020F21D1002102
:103810000846FEF7F7F801215046FEF71AF9002195
:103820000120FEF7EFF85C48FEF76CF94FF4616396
:103830002868B0FBF3F0FDF7E3FCFEF763F95748A7
:10384000FEF760F903200121FEF7DCF83068FEF78F
:10385000BBFE94F900A0BAF1030F22D10021084663
:10386000FEF7D0F801210020FEF7F3F80021012037
:10387000FEF7C8F84848FEF745F94FF46163386829
:10388000B0FBF3F0FDF7BCFCFEF73CF94348FEF754
:1038900039F950460121FEF7B5F8D8F80000FEF7D7
:1038A00093FE94F90030042B23D100210846FEF743
:1038B000A9F801210220FEF7CCF800210120FEF733
:1038C000A1F83748FEF71EF9364B98684FF461634C
:1038D000B0FBF3F0FDF794FCFEF714F93248FEF765
:1038E00011F903200121FEF78DF8304B1868FEF71F
:1038F0006BFE2F4801F0C2FC2E4B002219782E4897
:1039000001F0FAFC2A4801F0B9FC99F800100022F5
:103910002A4801F0F1FC264801F0B0FCD8F800106C
:103920000022274801F0E8FC214801F0A7FC396893
:103930000022244801F0E0FC1D4801F09FFC9BF8A8
:1039400000100022204801F0D7FC194801F096FC35
:10395000316800221D4801F0CFFC154801F08EFCB3
:10396000002229681A4803B0BDE8F04F01F0C4BC3A
:1039700001210720FEF746F801210220CDE6154B74
:103980001B68B3F57A7FB4D900210846FEF73AF8F0
:103990001148FEF7B7F8ACE7D7600008FF610008F0
:1039A00010610008F40000201C6100089807002046
:1039B0003C5900089C07002033610008486100085A
:1039C0005D6100081A6200086D61000885610008E9
:1039D00032620008C8070020096200080021F8B51B
:1039E00006460846FEF70EF801226A4B1A706A4B2B
:1039F000197811B91A70FEF7DBFD684D684C2B6819
:103A0000A26A9A4212D3FFF773FD664B226A1B88A3
:103A10009BB293420AD9644B1B68B3F5C87F05D9A2
:103A2000FEF7C6FD2B68A26A13442B602B68A26ABE
:103A30009A420ED2FEF754FE5A4BA2691B889BB2E3
:103A4000934206D2584B1B68B3F5C87F01D9FEF7E5
:103A5000AFFDA36A216B2A680B44934201D2FEF7A3
:103A6000A7FD524D022E95F9003033D101335BB2E0
:103A7000032B35D100232B7000210846FDF7C2FF30
:103A8000484B0221188880B2FDF732FCFEF73AF865
:103A90004748FEF737F8474B188800B2FDF7B0FBF0
:103AA000FEF730F84448FEF72DF801210620FDF717
:103AB000A9FF01210520FDF7CCFF404B1E78012E08
:103AC0005FD131460720FDF79DFF31460020FDF70D
:103AD000C0FF0AE0012E04D1013B5BB2002B2CDBBE
:103AE0002B7095F90030002BC6D095F90060012E9F
:103AF00025D100210A270846FDF784FF2069FDF73C
:103B00007FFBFDF7FFFF2E48FDF7FCFFA069314664
:103B1000B0FBF7F0FDF7ECFBFDF7F4FF2448FDF7F1
:103B2000F1FF206A3146B0FBF7F0FDF7E1FBFDF74E
:103B3000E9FF2448FDF7E6FF01E002232B7095F929
:103B40000030022B24D100210846FDF75BFFA06A5C
:103B5000FDF756FBFDF7D6FF1B48FDF7D3FF206BA3
:103B6000FDF74EFBFDF7CEFF1848FDF7CBFF032016
:103B70000121FDF747FF164B1868BDE8F840FEF736
:103B800023BD01210720FDF73DFF012102209EE713
:103B9000F8BD00BF9C0700209D070020CC07002037
:103BA000540100206C080020C80700208D07002069
:103BB0002E5F000856080020D8610008A4070020E6
:103BC000B45A00081B5F00080D5C0008546200082E
:103BD000940700202DE9F84F9D4B82461B78DFF8B3
:103BE00074929D4EDFF874829D4D9E4F9E4C03F063
:103BF000FF0B002B40F05E819C4B1A889C4B92B2CD
:103C00001B6A05339A4215D259465846FDF7FAFE0B
:103C10009848FDF777FF4FF4FA60FDF7D5F959465C
:103C20005846FDF7EFFE9448FDF76CFF40F6B830BC
:103C3000FDF7CAF901234FF0000B854A13708F4A34
:103C400089F800B082F800B08D4AC6F800B0C8F814
:103C500000B0C2F800B0C5F800B0C7F800B089F8ED
:103C60000030FFF745FC0123864A59465846137039
:103C7000FDF7C8FE8448FDF745FF4FF47A70FDF765
:103C8000A3F901232370814B188800B2FDF79CFB38
:103C9000052840F395817E4BDFF8D4B11B88DBF813
:103CA00018209BB2934229D2764B1A78022A25D14A
:103CB000784B1B68B3F57A7F20D900236F490B70CE
:103CC0003968754B994204D93868D8F80010FEF766
:103CD00013F9D8F800206A4B1A603A686F4B9A6063
:103CE0000023012289F800202B603360FFF700FCDD
:103CF0000122237801332370624B1A70644BDBF886
:103D000020201B889BB2934208D95E4B1B78012B65
:103D100004D1604B1B68B3F57A7F08D8604B3268DA
:103D20001B689A4222D9574B1B78012B1ED194F95C
:103D30000030022B1ADC002389F800302A68564B29
:103D40009A4204D9286801223168FEF7D5F8012388
:103D50004A4A137000233B60C8F80030FEF7C0FCED
:103D60000222237801332370464B1A70484BDBF84C
:103D700020201B889BB2934208D9424B1B78012B11
:103D800004D1444B1B68B3F57A7F08D8444B3268A2
:103D90001B689A421DD93B4B1B78012B19D194F912
:103DA0000030022B15DDFEF745FC0023334A89F86D
:103DB000003013702A68384B9A4204D928680122CF
:103DC0003168FEF799F80222237801332370354BCE
:103DD0001A70344CBAF1020F94F9003040F0AD8003
:103DE00001335BB2042B40F0B0800023237000212C
:103DF0000846FDF707FE264B0221188880B2FDF722
:103E000077FAFDF77FFE2848FDF77CFE1F4B1888E8
:103E100000B2FDF7F5F9FDF775FE2448FDF772FED7
:103E200001210620FDF7EEFD01210420FDF711FE22
:103E30001F4B93F800A0BAF1010F40F0BA80514631
:103E40000720FDF7DFFD51460020FDF702FE82E06E
:103E50009C07002087070020880700209407002087
:103E6000780700207C0700208C07002074080020C1
:103E700054010020B6610008C761000890070020C7
:103E80009807002070020020EE610008560800200C
:103E90006C080020C80700204F8C0500F4000020AB
:103EA000180A00208D0700202E5F0008D861000846
:103EB000A407002094F90030032B7FF7E4AE9E4C5A
:103EC000022894F9003040F0C58001335BB2042B26
:103ED00040F0C6800023237000210846FDF792FDC4
:103EE000964B0221188880B2FDF702FAFDF70AFE10
:103EF0009348FDF707FE934B188800B2FDF780F951
:103F0000FDF700FE9048FDF7FDFD01210620FDF7BD
:103F100079FD01210420FDF79CFD8C4B93F800A056
:103F2000BAF1010F40F0008151460720FDF76AFD0C
:103F300051460020FDF78DFD98E0BAF1010F05D143
:103F4000013B5BB2002BC0F29D80237094F90030DE
:103F5000002B3FF44CAF94F900A0BAF1010F40F0F0
:103F6000938000210846FDF74DFDDBF81000FDF7BA
:103F700047F9FDF7C7FD7648FDF7C4FD0A23DBF8D6
:103F800018005146B0FBF3F0FDF7B2F9FDF7BAFDAA
:103F90006B48FDF7B7FD0A23DBF820005146B0FB64
:103FA000F3F0FDF7A5F9FDF7ADFD6A48FDF7AAFDB1
:103FB0006AE001210720FDF725FD0121022044E7E9
:103FC000654B1B68B3F57A7F06D900210846FDF7DB
:103FD00019FD6248FDF796FD614801F04FF9614B0C
:103FE00000221978604801F087F95D4801F046F930
:103FF00099F8001000225D4801F07EF9584801F060
:104000003DF9316800225A4801F076F9544801F030
:1040100035F929680022574801F06EF9504801F03F
:104020002DF9554B00221978544801F065F94C4898
:1040300001F024F9D8F800100022514801F05CF991
:10404000474801F01BF939680022BDE8F84F4D4898
:1040500001F052B9012804D1013B5BB2002B11DB06
:10406000237094F90030002B3FF436AF94F900A090
:10407000BAF1010F08D100210846FDF7C3FCDFF8B3
:1040800008B172E70323237094F900A0BAF1020F7C
:1040900022D100210846FDF7B5FC01215046FDF76D
:1040A000D8FC00210120FDF7ADFC3848FDF72AFDC2
:1040B0004FF461633868B0FBF3F0FDF7A1F8FDF74A
:1040C00021FD3348FDF71EFD03200121FDF79AFC79
:1040D000D8F80000FEF778FA94F90040032C7FF43A
:1040E0007BAF00210846FDF78DFC01210020FDF784
:1040F000B0FC00210120FDF785FC2448FDF702FDFE
:104100004FF461632868B0FBF3F0FDF779F8FDF731
:10411000F9FC1F48FDF7F6FC20460121FDF772FC73
:104120003068FEF751FA57E701210720FDF76AFCD6
:1041300001210220FEE600BF8D0700206C08002050
:104140002E5F000856080020D8610008A407002050
:10415000B45A00081B5F0008C80700200962000865
:104160003C5900089C0700203361000848610008A2
:104170005D6100081A620008900700206D61000868
:10418000856100083262000854010020D7600008F1
:10419000FF61000801222DE9F041AA4BAA4C022838
:1041A0001A7086B094F9003028D113445BB2082B02
:1041B0002AD10023237000210846FEF73BFAFDF7C1
:1041C00021FCA248FDF79EFC0A20A14B01211B887F
:1041D0009BB2B3FBF0F0FDF78BF8FDF793FC9D4825
:1041E000FDF790FC9C4B0221188880B2FDF780F807
:1041F000FDF788FC9948FDF785FC0AE0012804D109
:10420000013B5BB2002B2EDB237094F90030002BB6
:10421000D1D094F90050012D27D100210846FEF796
:1042200009FAFDF7EFFB8E48FDF76CFC29460020EC
:10423000FDF7E8FB8B48FDF765FC8B4B02211888E6
:1042400080B2FDF755F8FDF75DFC8848FDF75AFC94
:10425000874B988880B2FCF7D3FFFDF753FC854865
:10426000FDF750FC01E00723237094F90050022D64
:104270001DD100210846FEF7B7FBFDF7C3FB7948C7
:10428000FDF740FC784B2946188880B2FDF730F8DE
:10429000FDF738FC7548FDF735FC754B988880B202
:1042A000FCF7AEFFFDF72EFC7248FDF72BFC94F9EE
:1042B0000030032B1CD100210846FEF795FBFDF7CB
:1042C000A1FB6D48FDF71EFC6C4B188800B2FCF793
:1042D00097FFFDF717FC6A48FDF714FC644B18883C
:1042E00080B2FCF78DFFFDF70DFC6248FDF70AFC7C
:1042F00094F90030042B1CD100210846FEF79AF9EE
:10430000FDF780FB5F48FDF7FDFB5F4B188800B2AF
:10431000FCF776FFFDF7F6FB5948FDF7F3FB544B2E
:10432000D88880B2FCF76CFFFDF7ECFB5748FDF72F
:10433000E9FB94F90030052B47D1554E554FFEF758
:1043400053FB338839889BB289B25B1A42F21071F1
:10435000DFF844814B43B8F80020002112B293FBF0
:10436000F2F34E4D0846AB64FDF74CFB4C48FDF7AD
:10437000C9FB286CFCF744FFFDF7C4FB4948FDF777
:10438000C1FBA86CFCF73CFFFDF7BCFB4648FDF702
:10439000B9FB464800F072FFB8F80010002209B2DD
:1043A000434800F0A9FF414800F068FF318802222D
:1043B00089B2404800F0A0FF3C4800F05FFF398818
:1043C00002223D4889B200F097FF94F90030062B95
:1043D0000FD100210846FEF72DF9FDF713FB374BEF
:1043E00001A91868FDF737F8FDF78CFB3448FDF795
:1043F00089FB94F90030072B20D100210846FEF7F5
:10440000F3FAFDF7FFFA2F48FDF77CFB2E4B1868F7
:10441000FCF722FCFCF7F4FEFDF774FB2B48FDF7DC
:1044200071FB134B588980B2FCF7EAFEFDF76AFB7B
:104430000A4806B0BDE8F041FDF764BB06B0BDE830
:10444000F08100BF9C0700208E0700205C620008FE
:1044500054080020616200086A080020D460000847
:1044600066620008786200086C0800202E5F000871
:104470005A080020D26000087E620008E807002089
:10448000846200088862000858080020D160000893
:1044900074080020B202002056080020040000200A
:1044A0008D62000890620008956200083C5900087F
:1044B0009D620008A1620008A8620008E4070020CD
:1044C000D0600008B062000870080020B3620008E5
:1044D0007FB50023714C0093019302930393E3890A
:1044E0006F4D9AB24FF4F023B3FBF2F36D4A9BB2D7
:1044F0001380A388A96A9BB24B43E28992B2B3FBB3
:10450000F2F300930098FDF79DF802900298FDF7F2
:10451000EFF8654A65491368184410600B88013349
:104520001BB20B800B881BB21F2B0FDD136860487A
:10453000002BB8BF1F33C3F34F13038000230B803E
:104540001360028892B2022A98BF03806388A96B25
:104550009BB24B43E289574E92B2B3FBF2F3009306
:104560000098FDF7A7F8544B80B218802388A969FA
:104570009BB24B430A214B43E28992B2B3FBF2F365
:1045800001930198FDF726F803900398FDF7AEF824
:104590004A4A4B491368184410600B8801331BB218
:1045A0000B800B881BB21F2B09DD1368002BB8BFD3
:1045B0001F3343F34F13338000230B801360E388D2
:1045C000296A9BB24B4364214B43E28992B2B3FB0D
:1045D000F2F301930198FDF719F803900398FDF7A2
:1045E00086F8384A38491368184410600B8801333C
:1045F0001BB20B800B881BB21F2B0ADD13683348DC
:10460000002BB8BF1F3343F34F13038000230B80ED
:1046100013603388296B1BB2B3F5E16FAABF2B4A35
:10462000328812882A4B1A80A388E2899BB24B43B6
:1046300092B2B3FBF2F300930098FDF71FF80290DB
:104640000298FDF756F8234C23492368184420604C
:104650000B8801331BB20B800B881BB21F2B1ADD9A
:1046600022681E4B002AB8BF1F3252111A60002266
:1046700022600A8019681A4889B2018019680229E3
:10468000D8BF1A601A68022ADCBF00221A601B68B1
:10469000144A9BB2138004B070BD00BF5A080020BA
:1046A000040000206A080020B8070020BC07002092
:1046B00074080020E807002054080020A807002004
:1046C000AC070020B0070020B407002058080020E5
:1046D00056080020C0070020C4070020D80700208B
:1046E000B20200206C080020F8B5FDF721FF3D4A1A
:1046F0003D4F1368013313603B889BB2042B03D9F1
:1047000000233B80FFF7E4FE384E394D33889BB2DF
:10471000632B84BF002333802B889BB2B3F57A7F51
:1047200053D30023334C2B8023881BB2012B07DC8F
:10473000208800B2FCF748FE2F4B1A68104418601E
:1047400023881BB2022B07DD208800B2FCF73CFE59
:104750002A4B1A6810441860294B1B78012B01BFA3
:10476000284A136801331360274B1B78012B01BFC4
:10477000264A136801331360254B1B78012B01BFB8
:10478000244A136801331360234B1A6801321A60FC
:104790001B6813F0010F0CBF4FF400424FF00042B2
:1047A0001E4B1A6140F6B73223881BB29342C2BF38
:1047B00001221B4B1A6140F6B73223881BB2934289
:1047C000DEBF4FF48032164B1A613B8801339BB237
:1047D0003B80338801339BB233802B8801339BB2FB
:1047E0002B80F8BDC8070020B0020020AE020020D8
:1047F000AC020020560800207C070020780700202B
:1048000087070020880700209007002094070020D9
:10481000A5070020CC070020E40700200008014085
:10482000000C014010B51D4C236843F48033236015
:1048300023689A03FCD5636823F47C1343F4A02314
:104840006360E36A23F00F03E362236843F080733D
:10485000236023689B01FCD5636823F0F003636049
:10486000636823F4E0636360636823F46053636008
:10487000636823F0030343F002036360636803F09B
:104880000C03082BFAD1064800F07EFF044800F024
:1048900089FF636823F44043636010BD0010024049
:1048A00000366E012DE9F04FC54D91B00120FDF7A6
:1048B00043F9EB69DFF80C9343F08053EB61EB694C
:1048C000DFF804A303F080530093009BD9F80C2079
:1048D000BE4B22F4E0621204120C1343C9F80C30F0
:1048E000BB4BBC4E5A68002422F0E0625A605A6802
:1048F0004FF0010B42F000725A60FFF793FF142251
:10490000002109A800F086FF2020FDF715F90420FA
:10491000FDF712F90820FDF70FF94FF60343CAF827
:1049200014304FF409430227736140F203334FF010
:10493000040809A95046CDE9093BCDE90B7400F004
:10494000D7FDA54B09A95046CDE9093BCDF83080EC
:104950000B9700F0CDFDA14B09A93046CDE9093BED
:10496000CDE90B7400F0C4FD4FF2F002082309A951
:104970005046CDE90923CDF834B000F0B9FD6B699C
:104980001C2243EA0B036B616B69954D03EA0B0331
:104990000193019BD9F80C004FF40063C0F302208F
:1049A000FDF758FA00FA08F0C0B285F80B0321466B
:1049B0002B6009A800F02EFF1422214604A800F065
:1049C00029FF4FF48040FDF7B7F84046FDF7B4F8F3
:1049D000092384493046CDE90413032304A9CDE912
:1049E000063400F085FD804B04A93046CDE904383B
:1049F00000F07EFDD9F80C002023C0F30220FDF763
:104A000029FA00FA08F0C0B285F825036B60774DEB
:104A100009A9EB68284643F08003EB604FF4164386
:104A2000CDE909340C23CDE90B44CDE90D340F94C5
:104A300000F03EFE2B69142223F490432B616B6936
:104A4000214623F02A036B61EB6804A843F400536A
:104A5000EB60CDE9024400F0DDFE1422214609A8F6
:104A600000F0D8FE4FF40070FDF766F84046FDF701
:104A700063F847F67E6309A93046CDE9093400F0B2
:104A800037FD5B4B4FF480789A68A5F5A05522F46A
:104A9000804222F010029A609A6802A922F44052E1
:104AA00042F400529A609A68284642F020029A60C6
:104AB0009A6822F040029A609A6842F080029A60F6
:104AC0009A6822F4407242F480729A609A6822F4E2
:104AD000406242F480629A60464A1A61464A5A61CC
:104AE000DA68120C120442F00802DA609A6842EAAC
:104AF0000B029A600294CDF80C8000F0C2FC4FF4D7
:104B0000E0034FF4602004A9CDE904032846CDE971
:104B10000647CDF8208000F0C9FC38494FF40070FA
:104B2000FDF77CF93548FDF74FF9354940F205208E
:104B3000FDF774F93248FDF747F9324940F20A208F
:104B4000FDF76CF92F48FDF73FF92F4940F20F2090
:104B5000FDF764F92C48FDF737F92C494FF405703F
:104B6000FDF75CF92948FDF72FF9294940F2192092
:104B7000FDF754F92648FDF727F926494046FDF789
:104B80004DF92448FDF720F9AB68234943F40003AD
:104B9000AB6040F20510FDF741F91F48FDF714F92D
:104BA000AB68642043F40003AB60AB6843EA0B03DB
:104BB000AB60FCF709FAAB6843F00403AB602DE08F
:104BC0000010024000ED00E0000C01400003FA0577
:104BD0000000014000080140FC00FC048900890439
:104BE00000E100E002000204040004040038014077
:104BF000000002404C2401405A080020010030020D
:104C000002006002030090020400C0020500F002EE
:104C1000060020031000208111005081AC6814F0C0
:104C20000404FBD1AB6843F4A003AB60FCF779FF4D
:104C300000F08CFA4FF47A72A64B1B68B3FBF2F3C8
:104C4000013BB3F1807F09D24FF0E022F0215361A4
:104C5000A14B83F823100723946113614FF40043A1
:104C600000249E4D33619E48FDF7E4FC2C60FCF768
:104C700049FFFCF7B9F99B4800F000FB984800F0A9
:104C800097FAFCF70AFE21462046FCF7BBFE4FF4DC
:104C90007A70FCF799F9FBF745FB2B68172B88BF57
:104CA0002C60FBF71DFE044668B94FF47A70FCF7E0
:104CB0008BF9FBF715FE04468A4800F0DFFA8A48B4
:104CC00000F076FA34B1012C14D1864800F0D6FAFF
:104CD00086480DE08648FCF715FF4FF47A60FCF734
:104CE00073F98448FBF7DEFF7E4800F0C7FA7E4880
:104CF00000F05EFA804D814B2A69814C1A604FF4B6
:104D0000616223697F4E53437F4A1360A2687F4BE1
:104D10001A60236C7E4A33601360FBF769FF4FF41F
:104D20007A70FCF751F9FCF7DBFE7A48FCF702FDDC
:104D3000A368012B14D17848FCF7E2FC774FDFF829
:104D4000D891DFF8DC813B7801333B70FDF722FC22
:104D5000431E0446032B20D8DFE803F01A40444BDF
:104D6000022B01D16F48E7E7032B01D16E48E3E73F
:104D7000042B01D16D48DFE7052B01D16C48DBE73F
:104D8000062B01D16B48D7E7072BD4D16A48D3E76C
:104D9000FCF7B0FC4068FCF7B3FCFCF7ABFC8145CA
:104DA0002BD12046FDF74CFE98F8003003F0FF01B0
:104DB00083B9FDF73FFC614B1970614B1970614B72
:104DC0001B68AB60604B1A68604B1A60604B1970CF
:104DD000012333606420FCF7F7F8B4E7FCF78AFCA2
:104DE0000068D8E70220FCF7AFFCFCF783FCC06842
:104DF000D1E7FCF77FFC8068CDE7FCF77BFC494BF3
:104E0000834203D12046FDF727F8CDE7FCF772FC7B
:104E1000454B834203D12046FEF734F8C4E7FCF744
:104E200069FC424B834203D12046FEF7A3F9BBE75E
:104E3000FCF760FC3E4B834203D12046FDF772FC39
:104E4000B2E7FCF757FC434B834203D12046FEF701
:104E5000C1FEA9E7FCF74EFC364B834203D1204646
:104E6000FEF768FBA0E7FCF745FC334B834203D118
:104E70002046FEF7B3FD97E7FCF73CFC364B834238
:104E800003D12046FDF786FF8EE7FCF733FC334B5A
:104E9000834203D12046FFF77DF985E7FCF72AFC22
:104EA0002F4B834203D12046FDF74CF87CE7FCF7FB
:104EB00021FC2C4B834203D12046FDF7B1F873E768
:104EC000FCF718FC284B834250D12046FDF784F8AC
:104ED0006AE700BF8C02002000ED00E078080020A7
:104EE0007A0200204E5C0008B8620008F85A0008F8
:104EF000D0620008E1620008F40000208007002072
:104F00005401002074020020180A00201C0A00200E
:104F1000140A0020E91C0008246A00088507002004
:104F20009C0700207C6A0008D46A00082C6B0008EB
:104F3000846B0008346C00088C6C00089D0700200E
:104F40008D0700207C070020940700209807002090
:104F500086070020B06B0008E46C00083C6D000878
:104F600088660008F8630008A0630008FCF7C2FB2D
:104F7000484B834203D12046FDF77AFB14E7FCF748
:104F8000B9FB454B834203D12046FDF7BDFD0BE73E
:104F9000FCF7B0FB414B834203D12046FDF75CFE9A
:104FA00002E7FCF7A7FB3E4B834203D12046FDF707
:104FB0001BFEF9E6FCF79EFB3A4B834203D12046E9
:104FC000FDF7DAFDF0E6FCF795FB374B834203D1A2
:104FD0002046FDF779FEE7E6FCF78CFB334B834276
:104FE00003D12046FDF740F8DEE6FCF783FB304BAB
:104FF000834203D12046FDF793F8D5E6FCF77AFB10
:105000002C4B834203D12046FDF7B0F8CCE6FCF7E9
:1050100071FB294B834203D12046FDF71FF9C3E6FC
:10502000FCF768FB254B834203D12046FDF738F996
:10503000BAE6FCF75FFB224B834203D12046FDF723
:1050400051F9B1E6FCF756FB1E4B834203D12046D3
:10505000FDF766F9A8E6FCF74DFB1B4B834203D135
:105060002046FDF77BF99FE6FCF744FB174B834294
:1050700003D12046FDF7CEF996E6FCF73BFB144B37
:10508000834203D12046FDF71BFA8DE6002388F802
:10509000003089E6A864000850640008B065000884
:1050A0005865000800650008F865000840660008BB
:1050B000E06600080C67000890670008E8670008D1
:1050C0004068000898680008F0680008CC6900088B
:1050D000A06900087047FEE7FEE7FEE7FEE77047BD
:1050E00070477047FFF700BB7047000014490B681A
:1050F0001B0624D5134BB3F8582492B2DAB1B3F897
:105100005824013A92B2A3F85824B3F8562492B224
:10511000501C80B2A3F856041A4492F86C20D2B204
:105120004A60B3F8562492B2B2F57A7F07D10022D2
:10513000A3F856247047CB6823F08003CB607047F8
:1051400000380140B402002070470000134910B538
:105150004B68134A03F00C03082B0AD0114B136061
:105160004B681149C3F30313C95C1368CB40136048
:1051700010BD4B684868C3F38343C00349BFC86A86
:105180000A4800F00F00441C48BF064803F1020320
:1051900048BFB0FBF4F04343E1E700BF001002401A
:1051A0008C02002000127A00656D000800093D00A5
:1051B0000021304A10B5D36823F08003D3602E4B12
:1051C000027802F0FF045ABBB3F8542492B2511C87
:1051D00089B2A3F854140A211A4482F86C10B3F867
:1051E000542492B2B2F57A7F08BFA3F85444B3F8BE
:1051F0005824013292B2A3F85824B3F85A14B3F8E1
:10520000582489B292B291423EBFB3F8582492B268
:10521000A3F85A24174AD36843F08003D36010BD23
:10522000B3F8542492B2541CA4B2A3F8544410F816
:10523000014B1A44E4B282F86C40B3F8542492B2A1
:10524000B2F57A7F08BFA3F85414B3F8582401329A
:1052500092B2A3F85824B3F85A44B3F85824A4B22D
:1052600092B294423EBFB3F8582492B2A3F85A24A3
:10527000A6E700BF00380140B402002000211C4A0C
:1052800010B5D36823F08003D3601A4B02782AB993
:10529000174AD36843F08003D36010BDB3F8542499
:1052A00092B2541CA4B2A3F8544410F8014B1A440F
:1052B000E4B282F86C40B3F8542492B2B2F57A7F2B
:1052C00008BFA3F85414B3F85824013292B2A3F8DB
:1052D0005824B3F85A44B3F85824A4B292B2944272
:1052E0003EBFB3F8582492B2A3F85A24CEE700BFC9
:1052F00000380140B402002037B501918DF8032039
:105300009DF8033004460198002B3FD1FBF778FF4E
:105310000025474AD36823F08003D360454B2278A9
:1053200002F0FF01002A36D10138B3F8542410F8F6
:10533000014F92B2002C57D1511C89B2A3F85414DA
:105340000A211A4482F86C10B3F8542492B2B2F5D0
:105350007A7F08BFA3F85444B3F85824013292B2BC
:10536000A3F85824B3F85A14B3F8582489B292B267
:1053700091423EBFB3F8582492B2A3F85A242C4A63
:10538000D36843F08003D36003B030BD9DF80310B1
:10539000FBF7AEFFBCE7B3F8542492B2511C89B2BC
:1053A000A3F8541414F8011B1A44C9B282F86C1003
:1053B000B3F8542492B2B2F57A7F08BFA3F85454DC
:1053C000B3F85824013292B2A3F85824B3F85A140F
:1053D000B3F8582489B292B291423EBFB3F8582430
:1053E00092B2A3F85A249AE7541CA4B2A3F85444E6
:1053F00004781A4482F86C40B3F8542492B2B2F59F
:105400007A7F08BFA3F85414B3F85824013292B23B
:10541000A3F85824B3F85A44B3F85824A4B292B26B
:1054200094423EBFB3F8582492B2A3F85A247CE7C2
:1054300000380140B4020020002103E00B4B5B5810
:10544000435004310A480B4B42189A42F6D30A4A99
:1054500002E0002342F8043B084B9A42F9D3FFF7DD
:1054600073FE00F0A5F9FFF71DFA7047886D00087C
:10547000000000209002002090020020200A00205E
:10548000FEE70246806810B510F001000CD15368A9
:105490004C6823F48073234353609368096823F4B2
:1054A00000630B43936010BD0120FCE7836810B5D7
:1054B000DB071BD443684A6823F4684312B18C6845
:1054C00013432343436083680C6823F4602323F46D
:1054D00081732343CC68096923430B438360C36A08
:1054E00023F470031343C362002010BD0120FCE7C6
:1054F0002DE9F04F0D680446C5F30F2595FAA5F286
:105500000327B2FA82F24FF0040C4FF0011E40F272
:10551000011835FA02F001D1BDE8F08F0123934064
:105520002B4266D0072A88BFA2F10803D1F804A055
:105530008ABF0EFA03F308FA02F343F08063BAF16C
:10554000080F0CD1E668180A90FAA0F9B9FA89F99F
:1055500026EA0006086900FA09F00643E6604FEA09
:10556000136993FAA3F6B6FA86F693FAA3FB0F2013
:10557000BBFA8BFBB60000FA06F654F809004FEAB6
:105580008B0B20EA06060AFA0BFB46EA0B0644F8E8
:105590000960486820F0080001282AD193FAA3F096
:1055A000B0FA80F093FAA3FBBBFA8BFB800007FAFA
:1055B00000F026EA000688684FEA8B0B00FA0BFB26
:1055C00046EA0B0644F8096093FAA3FABAFA8AFA93
:1055D00093FAA3F3B3FA83F34FEA8A0A0CFA0AFAAE
:1055E00026EA0A0ACE689B009E404AEA060644F86C
:1055F000096001328DE70000034B044A5B68C3F386
:105600000313D35CD840704700100240656D00085A
:10561000034B044A5B68C3F30223D35CD840704752
:1056200000100240756D0008034B044A5B68C3F329
:10563000C223D35CD840704700100240756D00084B
:10564000094A5368DB0341BFD06A084B00F00F00E2
:10565000013048BFB3FBF0F0536858BF0448C3F3B0
:1056600083430233584370470010024000127A000F
:1056700000093D00044B5B6803F00C03082B01D1CB
:10568000FFF7DEBF014870470010024000127A00A9
:1056900008B50146FFF7EEFF0860FFF7ADFF486071
:1056A000FFF7B6FF88604868FFF7BEFFC86008BD17
:1056B00030B5C36804469B040D4685B002D5012071
:1056C00005B030BD4B68C968C2680B43296922F434
:1056D00016420B43A96922F00C020B431343C3602B
:1056E0000369AA6823F440531343036143696A6959
:1056F00023F44073134343616846FFF7C9FF1F4B10
:105700009C4224D1039B002BD9D02A68002AD6D0F2
:1057100019214B43A969B1F5004F4FF064011FD126
:105720005200B3FBF2F3B3FBF1F001FB1033DB00EB
:105730003233B3FBF1F303F007025B0002EB00121C
:1057400003F4F87313449BB20020A360B8E70C4B3A
:105750009C4201D1029BD6E70A4B9C42AFD1F9E7AC
:105760009200B3FBF2F3B3FBF1F201FB12331B0126
:105770003233B3FBF1F303EB0213E4E700380140EB
:1057800000440040004800404FF47A73B0FBF3F04F
:1057900000224FF0E023013858619A6105221A6116
:1057A00070470000014B1860704700BF8C0200205A
:1057B00070B500260C4D0D4C641BA410A64209D1F7
:1057C00000F030F800260A4D0A4C641BA410A642D3
:1057D00005D170BD55F8043B98470136EEE755F802
:1057E000043B98470136F2E7806D0008806D0008A1
:1057F000806D0008846D00080A44914200F1FF3377
:1058000000D1704710B511F8014B914203F8014FD8
:10581000F9D110BD03460244934200D1704703F80A
:10582000011BF9E7F8B500BFF8BC08BC9E467047FD
:0C583000F8B500BFF8BC08BC9E467047ED
:10583C0000070E091C1B1215383F363124232A2D64
:10584C0070777E796C6B6265484F464154535A5D54
:10585C00E0E7EEE9FCFBF2F5D8DFD6D1C4C3CACD44
:10586C0090979E998C8B8285A8AFA6A1B4B3BABD34
:10587C00C7C0C9CEDBDCD5D2FFF8F1F6E3E4EDEA24
:10588C00B7B0B9BEABACA5A28F88818693949D9A14
:10589C002720292E3B3C35321F18111603040D0A04
:1058AC005750595E4B4C45426F68616673747D7AF4
:1058BC00898E878095929B9CB1B6BFB8ADAAA3A4E4
:1058CC00F9FEF7F0E5E2EBECC1C6CFC8DDDAD3D4D4
:1058DC00696E676075727B7C51565F584D4A4344C4
:1058EC00191E171005020B0C21262F283D3A3334B4
:1058FC004E49404752555C5B7671787F6A6D6463A4
:10590C003E39303722252C2B0601080F1A1D141393
:10591C00AEA9A0A7B2B5BCBB9691989F8A8D848383
:10592C00DED9D0D7C2C5CCCBE6E1E8EFFAFDF4F373
:10593C0044454255473A200073697A653A2000760F
:10594C00616C3A20004661696C20746F207265614D
:10595C006420616464726573733A2000454570720B
:10596C006F6D56616C7565206973203A2000464C4A
:10597C004153485F424153452B313032342A313246
:10598C0033203A200043616C6962726174696F6EF6
:10599C005772697465546F466C617368200043617B
:1059AC006C6962726174696F6E466163746F72794F
:1059BC005772697465546F466C617368200043615B
:1059CC006C6962726174696F6E5265616446726F64
:1059DC006D466C617368200043616C69627261741E
:1059EC00696F6E5265616446726F6D466C61736867
:1059FC00466F7256657269667920005365747469D6
:105A0C006E67735772697465546F466C6173682066
:105A1C000053657474696E6773466163746F727951
:105A2C005772697465546F466C61736820005365D6
:105A3C007474696E67735265616446726F6D466CFF
:105A4C00617368200053657474696E677352656185
:105A5C006446726F6D466C617368466F7256657200
:105A6C006966792000446174615768656E506F7780
:105A7C0065724F66665F466163746F72795F5772C9
:105A8C00697465546F466C6173682000446174617D
:105A9C005768656E506F7765724F666652656164C4
:105AAC0046726F6D466C6173682000446174615777
:105ABC0068656E506F7765724F66665265616446B5
:105ACC00726F6D466C617368466F7256657269666B
